{
  "address": "0x69d2F6cD1B6a3E4A273C003DcFf0CDA0CEb1cE65",
  "abi": [
    {
      "inputs": [],
      "stateMutability": "nonpayable",
      "type": "constructor"
    },
    {
      "inputs": [
        {
          "internalType": "address",
          "name": "owner",
          "type": "address"
        }
      ],
      "name": "OwnableInvalidOwner",
      "type": "error"
    },
    {
      "inputs": [
        {
          "internalType": "address",
          "name": "account",
          "type": "address"
        }
      ],
      "name": "OwnableUnauthorizedAccount",
      "type": "error"
    },
    {
      "anonymous": false,
      "inputs": [
        {
          "indexed": true,
          "internalType": "address",
          "name": "module",
          "type": "address"
        },
        {
          "indexed": false,
          "internalType": "uint256",
          "name": "timestamp",
          "type": "uint256"
        }
      ],
      "name": "ModuleInitialized",
      "type": "event"
    },
    {
      "anonymous": false,
      "inputs": [
        {
          "indexed": true,
          "internalType": "address",
          "name": "previousOwner",
          "type": "address"
        },
        {
          "indexed": true,
          "internalType": "address",
          "name": "newOwner",
          "type": "address"
        }
      ],
      "name": "OwnershipTransferred",
      "type": "event"
    },
    {
      "anonymous": false,
      "inputs": [
        {
          "indexed": true,
          "internalType": "bytes32",
          "name": "role",
          "type": "bytes32"
        },
        {
          "indexed": true,
          "internalType": "address",
          "name": "account",
          "type": "address"
        },
        {
          "indexed": true,
          "internalType": "address",
          "name": "assignedBy",
          "type": "address"
        }
      ],
      "name": "RoleAssigned",
      "type": "event"
    },
    {
      "anonymous": false,
      "inputs": [
        {
          "indexed": true,
          "internalType": "bytes32",
          "name": "role",
          "type": "bytes32"
        },
        {
          "indexed": true,
          "internalType": "address",
          "name": "account",
          "type": "address"
        },
        {
          "indexed": true,
          "internalType": "address",
          "name": "grantedBy",
          "type": "address"
        }
      ],
      "name": "RoleGranted",
      "type": "event"
    },
    {
      "anonymous": false,
      "inputs": [
        {
          "indexed": true,
          "internalType": "bytes32",
          "name": "role",
          "type": "bytes32"
        },
        {
          "indexed": true,
          "internalType": "address",
          "name": "account",
          "type": "address"
        },
        {
          "indexed": true,
          "internalType": "address",
          "name": "removedBy",
          "type": "address"
        }
      ],
      "name": "RoleRemoved",
      "type": "event"
    },
    {
      "anonymous": false,
      "inputs": [
        {
          "indexed": true,
          "internalType": "bytes32",
          "name": "role",
          "type": "bytes32"
        },
        {
          "indexed": true,
          "internalType": "address",
          "name": "account",
          "type": "address"
        },
        {
          "indexed": true,
          "internalType": "address",
          "name": "revokedBy",
          "type": "address"
        }
      ],
      "name": "RoleRevoked",
      "type": "event"
    },
    {
      "anonymous": false,
      "inputs": [
        {
          "indexed": true,
          "internalType": "address",
          "name": "from",
          "type": "address"
        },
        {
          "indexed": false,
          "internalType": "uint256",
          "name": "amount",
          "type": "uint256"
        }
      ],
      "name": "TokenBurned",
      "type": "event"
    },
    {
      "anonymous": false,
      "inputs": [
        {
          "indexed": true,
          "internalType": "address",
          "name": "to",
          "type": "address"
        },
        {
          "indexed": false,
          "internalType": "uint256",
          "name": "amount",
          "type": "uint256"
        }
      ],
      "name": "TokenMinted",
      "type": "event"
    },
    {
      "anonymous": false,
      "inputs": [
        {
          "indexed": true,
          "internalType": "address",
          "name": "user",
          "type": "address"
        },
        {
          "indexed": false,
          "internalType": "bytes32",
          "name": "role",
          "type": "bytes32"
        }
      ],
      "name": "UserRegistered",
      "type": "event"
    },
    {
      "anonymous": false,
      "inputs": [
        {
          "indexed": true,
          "internalType": "address",
          "name": "user",
          "type": "address"
        },
        {
          "indexed": false,
          "internalType": "string",
          "name": "newName",
          "type": "string"
        }
      ],
      "name": "UserUpdated",
      "type": "event"
    },
    {
      "inputs": [],
      "name": "getAccessStats",
      "outputs": [
        {
          "internalType": "uint256",
          "name": "adminCount",
          "type": "uint256"
        },
        {
          "internalType": "uint256",
          "name": "teacherCount",
          "type": "uint256"
        },
        {
          "internalType": "uint256",
          "name": "studentCount",
          "type": "uint256"
        },
        {
          "internalType": "uint256",
          "name": "merchantCount",
          "type": "uint256"
        }
      ],
      "stateMutability": "view",
      "type": "function"
    },
    {
      "inputs": [
        {
          "internalType": "address",
          "name": "account",
          "type": "address"
        }
      ],
      "name": "getRoleCount",
      "outputs": [
        {
          "internalType": "uint256",
          "name": "",
          "type": "uint256"
        }
      ],
      "stateMutability": "view",
      "type": "function"
    },
    {
      "inputs": [
        {
          "internalType": "bytes32",
          "name": "role",
          "type": "bytes32"
        }
      ],
      "name": "getRoleMemberCount",
      "outputs": [
        {
          "internalType": "uint256",
          "name": "",
          "type": "uint256"
        }
      ],
      "stateMutability": "view",
      "type": "function"
    },
    {
      "inputs": [
        {
          "internalType": "bytes32",
          "name": "role",
          "type": "bytes32"
        }
      ],
      "name": "getRoleMembers",
      "outputs": [
        {
          "internalType": "address[]",
          "name": "",
          "type": "address[]"
        }
      ],
      "stateMutability": "view",
      "type": "function"
    },
    {
      "inputs": [
        {
          "internalType": "address",
          "name": "account",
          "type": "address"
        }
      ],
      "name": "getRoles",
      "outputs": [
        {
          "internalType": "bytes32[]",
          "name": "",
          "type": "bytes32[]"
        }
      ],
      "stateMutability": "view",
      "type": "function"
    },
    {
      "inputs": [
        {
          "internalType": "bytes32",
          "name": "role",
          "type": "bytes32"
        },
        {
          "internalType": "address",
          "name": "account",
          "type": "address"
        }
      ],
      "name": "grantRole",
      "outputs": [],
      "stateMutability": "nonpayable",
      "type": "function"
    },
    {
      "inputs": [
        {
          "internalType": "bytes32",
          "name": "role",
          "type": "bytes32"
        },
        {
          "internalType": "address[]",
          "name": "accounts",
          "type": "address[]"
        }
      ],
      "name": "grantRoleBatch",
      "outputs": [],
      "stateMutability": "nonpayable",
      "type": "function"
    },
    {
      "inputs": [
        {
          "internalType": "bytes32",
          "name": "role",
          "type": "bytes32"
        },
        {
          "internalType": "address",
          "name": "account",
          "type": "address"
        }
      ],
      "name": "hasRole",
      "outputs": [
        {
          "internalType": "bool",
          "name": "",
          "type": "bool"
        }
      ],
      "stateMutability": "view",
      "type": "function"
    },
    {
      "inputs": [
        {
          "internalType": "address",
          "name": "account",
          "type": "address"
        }
      ],
      "name": "isAdmin",
      "outputs": [
        {
          "internalType": "bool",
          "name": "",
          "type": "bool"
        }
      ],
      "stateMutability": "view",
      "type": "function"
    },
    {
      "inputs": [
        {
          "internalType": "address",
          "name": "account",
          "type": "address"
        }
      ],
      "name": "isAuthorized",
      "outputs": [
        {
          "internalType": "bool",
          "name": "",
          "type": "bool"
        }
      ],
      "stateMutability": "view",
      "type": "function"
    },
    {
      "inputs": [
        {
          "internalType": "address",
          "name": "account",
          "type": "address"
        }
      ],
      "name": "isIssuer",
      "outputs": [
        {
          "internalType": "bool",
          "name": "",
          "type": "bool"
        }
      ],
      "stateMutability": "view",
      "type": "function"
    },
    {
      "inputs": [
        {
          "internalType": "address",
          "name": "account",
          "type": "address"
        }
      ],
      "name": "isMerchant",
      "outputs": [
        {
          "internalType": "bool",
          "name": "",
          "type": "bool"
        }
      ],
      "stateMutability": "view",
      "type": "function"
    },
    {
      "inputs": [
        {
          "internalType": "address",
          "name": "account",
          "type": "address"
        }
      ],
      "name": "isStudent",
      "outputs": [
        {
          "internalType": "bool",
          "name": "",
          "type": "bool"
        }
      ],
      "stateMutability": "view",
      "type": "function"
    },
    {
      "inputs": [
        {
          "internalType": "address",
          "name": "account",
          "type": "address"
        }
      ],
      "name": "isTeacher",
      "outputs": [
        {
          "internalType": "bool",
          "name": "",
          "type": "bool"
        }
      ],
      "stateMutability": "view",
      "type": "function"
    },
    {
      "inputs": [],
      "name": "owner",
      "outputs": [
        {
          "internalType": "address",
          "name": "",
          "type": "address"
        }
      ],
      "stateMutability": "view",
      "type": "function"
    },
    {
      "inputs": [],
      "name": "renounceOwnership",
      "outputs": [],
      "stateMutability": "nonpayable",
      "type": "function"
    },
    {
      "inputs": [
        {
          "internalType": "bytes32",
          "name": "role",
          "type": "bytes32"
        },
        {
          "internalType": "address",
          "name": "account",
          "type": "address"
        }
      ],
      "name": "revokeRole",
      "outputs": [],
      "stateMutability": "nonpayable",
      "type": "function"
    },
    {
      "inputs": [
        {
          "internalType": "bytes32",
          "name": "role",
          "type": "bytes32"
        },
        {
          "internalType": "address[]",
          "name": "accounts",
          "type": "address[]"
        }
      ],
      "name": "revokeRoleBatch",
      "outputs": [],
      "stateMutability": "nonpayable",
      "type": "function"
    },
    {
      "inputs": [
        {
          "internalType": "bytes32",
          "name": "role",
          "type": "bytes32"
        }
      ],
      "name": "roleExists",
      "outputs": [
        {
          "internalType": "bool",
          "name": "",
          "type": "bool"
        }
      ],
      "stateMutability": "view",
      "type": "function"
    },
    {
      "inputs": [
        {
          "internalType": "address",
          "name": "newOwner",
          "type": "address"
        }
      ],
      "name": "transferOwnership",
      "outputs": [],
      "stateMutability": "nonpayable",
      "type": "function"
    }
  ],
  "transactionHash": "0x081f5a696d31411fe20790e91584551d7dd912cd65f02810c3c8473cd8001535",
  "args": [],
  "numDeployments": 1,
  "solcInputHash": "1db8a709fc5834c8ae09030b1f2db26f",
  "bytecode": "0x60806040908082523461018357331561016d575060008054336001600160a01b03198216811783556001600160a01b03929183167f8be0079c531659141344cd1fd0a4f28419497f9722a3daafe3b4186f6b6457e08380a37fa49807205ce4d355092ef5a8a18f56e8913cf4a201fbe287825b095693c2177590818152602060018152848220338352815260ff8583205416156100a5575b84516112f490816101b78239f35b828252600181528482203383528152848220600160ff198254161790556002815284822092835468010000000000000000948582101561015957816100f39160016003969594018155610188565b815490851b9083821b91600019901b19161790558352528381209081549283101561014557509061012991600182018155610188565b819291549060031b9133831b921b191617905538808080610097565b634e487b7160e01b81526041600452602490fd5b634e487b7160e01b85526041600452602485fd5b631e4fbdf760e01b815260006004820152602490fd5b600080fd5b80548210156101a05760005260206000200190600090565b634e487b7160e01b600052603260045260246000fdfe608060408181526004918236101561001657600080fd5b600092833560e01c9182631a2f71671461101d5750816324d7806c14610fb75781632f2ff15d14610e83578163715018a614610e2957816382f51fa614610b0157816382f7d39214610a9b578163877b9a6714610a3557816387e705ed146109675781638da5cb5b1461093f57816391d14854146108f8578163a3246ad314610847578163aca5a8a71461080f578163aec37eb3146107a9578163b41406f91461077f578163ca15c87314610757578163ce6ccfaf146106a7578163d547741f146103bb578163f2fde38b14610334578163fd47852b1461013d575063fe9fbb801461010157600080fd5b346101395760203660031901126101395760209181906001600160a01b03610127611081565b16815260028452205415159051908152f35b5080fd5b919050346103305761014e366110b2565b61015a939291936112a3565b61016581151561119a565b61017260648211156111e6565b855b81811061017f578680f35b6101be610195610190838589611231565b611257565b84600052600160205260406000209060018060a01b031660005260205260ff6040600020541690565b156101cc575b600101610174565b6101da610190828488611231565b6101e26112a3565b6001600160a01b038116906101f8821515611102565b61020385151561114e565b8489526001602090808252878b20848c52825260ff888c20541615610258575b505050906001913390857fd3c3c74ac78e01f4affcaa9191550c84a2b0b79d8f0dfcee7645eda13a90c6c78b80a490506101c4565b868b52808252878b20848c528252878b20805460ff19168217905560028252878b208054600160401b93918482101561031d57896102a1836102ba9387600397960181556112cf565b90919082549060031b91821b91600019901b1916179055565b888d5252878b209081549283101561030a57826001969594926102e392610301950181556112cf565b90919060018060a01b038084549260031b9316831b921b1916179055565b90913880610223565b634e487b7160e01b8c5260418b5260248cfd5b634e487b7160e01b8e5260418d5260248efd5b8280fd5b9050346103305760203660031901126103305761034f611081565b906103586112a3565b6001600160a01b039182169283156103a557505082546001600160a01b0319811683178455167f8be0079c531659141344cd1fd0a4f28419497f9722a3daafe3b4186f6b6457e08380a380f35b51631e4fbdf760e01b8152908101849052602490fd5b839150346101395782600319360112610139578035906103d961109c565b906103e26112a3565b6001600160a01b03918216916103f9831515611102565b61040484151561114e565b838552600191602090838252878720858852825260ff88882054161561065557858752838252878720858852825260ff888820541661046b575b5050505033917fcde326cb82cf43f1de7d4eba1f282d6875e840ed6166c5f57d4228a3349495928480a480f35b8397868852848352808820868952835280882060ff1981541690556002835280882088995b610581575b50879850868596979852600380935288209288955b6104ba575b50879695945061043e565b83548087101561057b5787826104d089886112cf565b905490871b1c16146104e7575084809601956104aa565b9450909294916000199485810190811161056857916102e39161050e61051b9594896112cf565b9054911b1c1691866112cf565b82549081156105555750019061054961053483836112cf565b81549060018060a01b039060031b1b19169055565b558380808080806104af565b634e487b7160e01b875260319052602486fd5b634e487b7160e01b8a526011855260248afd5b506104af565b80989796959854998a81101561064a578761059c82846112cf565b919054600392831b1c146105bb5750899a509880969798990199610490565b60009a9798999a199b8c8101908111610637576105ec92916105e06102a192866112cf565b9054911b1c91846112cf565b8054998a1561062457869798999a019061061a61060983836112cf565b8154906000199060031b1b19169055565b5588979695610495565b634e487b7160e01b8a526031845260248afd5b634e487b7160e01b8c526011865260248cfd5b509794959697610495565b60849188519162461bcd60e51b8352820152602860248201527f416363657373436f6e74726f6c3a204163636f756e7420646f65736e2774206860448201526761766520726f6c6560c01b6064820152fd5b82843461075457602090816003193601126107545782906001600160a01b036106ce611081565b16815260028352818120908251808584549182815201908194845286842090845b818110610740575050508161070591038261126b565b83519485948186019282875251809352850193925b82811061072957505050500390f35b83518552869550938101939281019260010161071a565b8254845292880192600192830192016106ef565b80fd5b9050346103305760203660031901126103305760209282913581526003845220549051908152f35b90503461033057602036600319011261033057602092829135815260038452205415159051908152f35b5050346101395760203660031901126101395760ff816020936107ca611081565b7fd16e204b8a42a15ab0ea6bb8ec1ecdfbe69f38074fc865323af19efe7d9573d98252600186528282206001600160a01b039091168252855220549151911615158152f35b5050346101395760203660031901126101395760209181906001600160a01b03610837611081565b1681526002845220549051908152f35b9050823461075457602091826003193601126101395792919235815260038352818120908251808584549182815201908194845286842090845b8181106108db575050508161089791038261126b565b83519485948186019282875251809352850193925b8281106108bb57505050500390f35b83516001600160a01b0316855286955093810193928101926001016108ac565b82546001600160a01b031684529288019260019283019201610881565b9050346103305781600319360112610330578160209360ff9261091961109c565b90358252600186528282206001600160a01b039091168252855220549151911615158152f35b505034610139578160031936011261013957905490516001600160a01b039091168152602090f35b505034610139578160031936011261013957906080917fa49807205ce4d355092ef5a8a18f56e8913cf4a201fbe287825b095693c217758252600360205280822054917fd16e204b8a42a15ab0ea6bb8ec1ecdfbe69f38074fc865323af19efe7d9573d9815281812054917f36a5c4aaacb6b388bbd448bf11096b7dafc5652bcc9046084fd0e95b1fb0b2cc82528080832054927f3c4a2d89ed8b4cf4347fec87df1c38410f8fc538bf9fd64c10f2717bc0feff368152205492815194855260208501528301526060820152f35b5050346101395760203660031901126101395760ff81602093610a56611081565b7f114e74f6ea3bd819998f78687bfcb11b140da08e9b7d222fa9c1f1ba1f2aa1228252600186528282206001600160a01b039091168252855220549151911615158152f35b5050346101395760203660031901126101395760ff81602093610abc611081565b7f36a5c4aaacb6b388bbd448bf11096b7dafc5652bcc9046084fd0e95b1fb0b2cc8252600186528282206001600160a01b039091168252855220549151911615158152f35b90503461033057610b11366110b2565b610b1d939291936112a3565b610b2881151561119a565b606490610b3860648211156111e6565b865b818110610b45578780f35b610b7f610b5661019083858a611231565b85600052600160205260406000209060018060a01b031660005260205260ff6040600020541690565b610b8c575b600101610b3a565b610b9a610190828489611231565b610ba26112a3565b6001600160a01b0390811690610bb9821515611102565b610bc486151561114e565b858a5260019060208281528a8c20848d5281528a8c60ff91829120541615610dd657888d528382528b8d20858e5282528b8d205416610c33575b505050906001913390867fcde326cb82cf43f1de7d4eba1f282d6875e840ed6166c5f57d4228a3349495928c80a49050610b84565b878c528281528a8c20848d5281528a8c20805460ff19169055600281528a8c20838d815b610d2d575b505050878c5260038091528a8c2091838d905b610c7b575b5050610bfe565b835480821015610d27578683610c9184886112cf565b905490871b1c1614610ca65750840184610c6f565b9394509160001993848101908111610d1457916102e391610ccb610cd89594886112cf565b9054911b1c1691856112cf565b81548015610d01576001949392910190610cf561053483836112cf565b55909138808080610c74565b634e487b7160e01b8c526031895260248cfd5b634e487b7160e01b8f5260118c5260248ffd5b50610c74565b825480821015610dd0578b610d4283866112cf565b919054600392831b1c14610d5a575050810181610c57565b600019935090838101908111610dbb57610d889291610d7c6102a192876112cf565b9054911b1c91856112cf565b81548015610da8570190610d9f61060983836112cf565b55388381610c5c565b634e487b7160e01b8f5260318c5260248ffd5b5050634e487b7160e01b8f5260118c5260248ffd5b50610c5c565b50886761766520726f6c6560c01b886084938e519362461bcd60e51b8552840152602860248401527f416363657373436f6e74726f6c3a204163636f756e7420646f65736e277420686044840152820152fd5b8334610754578060031936011261075457610e426112a3565b80546001600160a01b03198116825581906001600160a01b03167f8be0079c531659141344cd1fd0a4f28419497f9722a3daafe3b4186f6b6457e08280a380f35b905034610330578160031936011261033057803591610ea061109c565b90610ea96112a3565b6001600160a01b03821692610ebf841515611102565b610eca85151561114e565b84865260209160018352808720858852835260ff818820541615610f16575b5050505033917fd3c3c74ac78e01f4affcaa9191550c84a2b0b79d8f0dfcee7645eda13a90c6c78480a480f35b858752600183528087208588528352808720600160ff1982541617905560028352808720928354600160401b9485821015610fa457886102a183610f62936001600397960181556112cf565b87895252862090815492831015610f915750816102e3916001610f8895940181556112cf565b38808080610ee9565b634e487b7160e01b875260419052602486fd5b634e487b7160e01b8a526041855260248afd5b5050346101395760203660031901126101395760ff81602093610fd8611081565b7fa49807205ce4d355092ef5a8a18f56e8913cf4a201fbe287825b095693c217758252600186528282206001600160a01b039091168252855220549151911615158152f35b849084346103305760203660031901126103305760ff9060209361103f611081565b7f3c4a2d89ed8b4cf4347fec87df1c38410f8fc538bf9fd64c10f2717bc0feff368252600186528282206001600160a01b039091168252855220541615158152f35b600435906001600160a01b038216820361109757565b600080fd5b602435906001600160a01b038216820361109757565b6040600319820112611097576004359160243567ffffffffffffffff9283821161109757806023830112156110975781600401359384116110975760248460051b83010111611097576024019190565b1561110957565b60405162461bcd60e51b815260206004820152601e60248201527f416363657373436f6e74726f6c3a20496e76616c6964206164647265737300006044820152606490fd5b1561115557565b60405162461bcd60e51b815260206004820152601b60248201527f416363657373436f6e74726f6c3a20496e76616c696420726f6c6500000000006044820152606490fd5b156111a157565b60405162461bcd60e51b815260206004820152601a60248201527f416363657373436f6e74726f6c3a20456d7074792061727261790000000000006044820152606490fd5b156111ed57565b606460405162461bcd60e51b815260206004820152602060248201527f416363657373436f6e74726f6c3a20546f6f206d616e79206163636f756e74736044820152fd5b91908110156112415760051b0190565b634e487b7160e01b600052603260045260246000fd5b356001600160a01b03811681036110975790565b90601f8019910116810190811067ffffffffffffffff82111761128d57604052565b634e487b7160e01b600052604160045260246000fd5b6000546001600160a01b031633036112b757565b60405163118cdaa760e01b8152336004820152602490fd5b8054821015611241576000526020600020019060009056fea164736f6c6343000818000a",
  "devdoc": {
    "details": "Simple RBAC implementation for the ecosystem",
    "errors": {
      "OwnableInvalidOwner(address)": [
        {
          "details": "The owner is not a valid owner account. (eg. `address(0)`)"
        }
      ],
      "OwnableUnauthorizedAccount(address)": [
        {
          "details": "The caller account is not authorized to perform an operation."
        }
      ]
    },
    "kind": "dev",
    "methods": {
      "getAccessStats()": {
        "returns": {
          "adminCount": "Total admins",
          "merchantCount": "Total merchants",
          "studentCount": "Total students",
          "teacherCount": "Total teachers"
        }
      },
      "getRoleCount(address)": {
        "params": {
          "account": "Account to query"
        },
        "returns": {
          "_0": "Number of roles"
        }
      },
      "getRoleMemberCount(bytes32)": {
        "params": {
          "role": "Role to query"
        },
        "returns": {
          "_0": "Number of members"
        }
      },
      "getRoleMembers(bytes32)": {
        "params": {
          "role": "Role to query"
        },
        "returns": {
          "_0": "Array of addresses with that role"
        }
      },
      "getRoles(address)": {
        "params": {
          "account": "Account to query"
        },
        "returns": {
          "_0": "Array of roles for that account"
        }
      },
      "grantRole(bytes32,address)": {
        "params": {
          "account": "Account to grant role to",
          "role": "Role to grant"
        }
      },
      "grantRoleBatch(bytes32,address[])": {
        "params": {
          "accounts": "Array of accounts",
          "role": "Role to grant"
        }
      },
      "hasRole(bytes32,address)": {
        "params": {
          "account": "Account to check",
          "role": "Role to check"
        },
        "returns": {
          "_0": "True if account has the role"
        }
      },
      "isAdmin(address)": {
        "params": {
          "account": "Account to check"
        },
        "returns": {
          "_0": "True if admin"
        }
      },
      "isAuthorized(address)": {
        "params": {
          "account": "Account to check"
        },
        "returns": {
          "_0": "True if account has at least one role"
        }
      },
      "isIssuer(address)": {
        "params": {
          "account": "Account to check"
        },
        "returns": {
          "_0": "True if issuer"
        }
      },
      "isMerchant(address)": {
        "params": {
          "account": "Account to check"
        },
        "returns": {
          "_0": "True if merchant"
        }
      },
      "isStudent(address)": {
        "params": {
          "account": "Account to check"
        },
        "returns": {
          "_0": "True if student"
        }
      },
      "isTeacher(address)": {
        "params": {
          "account": "Account to check"
        },
        "returns": {
          "_0": "True if teacher"
        }
      },
      "owner()": {
        "details": "Returns the address of the current owner."
      },
      "renounceOwnership()": {
        "details": "Leaves the contract without owner. It will not be possible to call `onlyOwner` functions. Can only be called by the current owner. NOTE: Renouncing ownership will leave the contract without an owner, thereby disabling any functionality that is only available to the owner."
      },
      "revokeRole(bytes32,address)": {
        "params": {
          "account": "Account to revoke role from",
          "role": "Role to revoke"
        }
      },
      "revokeRoleBatch(bytes32,address[])": {
        "params": {
          "accounts": "Array of accounts",
          "role": "Role to revoke"
        }
      },
      "roleExists(bytes32)": {
        "params": {
          "role": "Role to check"
        },
        "returns": {
          "_0": "True if role has at least one member"
        }
      },
      "transferOwnership(address)": {
        "details": "Transfers ownership of the contract to a new account (`newOwner`). Can only be called by the current owner."
      }
    },
    "title": "VNDC Access Control",
    "version": 1
  },
  "userdoc": {
    "kind": "user",
    "methods": {
      "constructor": {
        "notice": "Initialize access control"
      },
      "getAccessStats()": {
        "notice": "Get access control stats"
      },
      "getRoleCount(address)": {
        "notice": "Get role count for account"
      },
      "getRoleMemberCount(bytes32)": {
        "notice": "Get member count for a role"
      },
      "getRoleMembers(bytes32)": {
        "notice": "Get all members of a role"
      },
      "getRoles(address)": {
        "notice": "Get all roles of an account"
      },
      "grantRole(bytes32,address)": {
        "notice": "Grant role to account"
      },
      "grantRoleBatch(bytes32,address[])": {
        "notice": "Grant role to multiple accounts"
      },
      "hasRole(bytes32,address)": {
        "notice": "Check if account has role"
      },
      "isAdmin(address)": {
        "notice": "Check if account is admin"
      },
      "isAuthorized(address)": {
        "notice": "Check if account has ANY role"
      },
      "isIssuer(address)": {
        "notice": "Check if account is issuer"
      },
      "isMerchant(address)": {
        "notice": "Check if account is merchant"
      },
      "isStudent(address)": {
        "notice": "Check if account is student"
      },
      "isTeacher(address)": {
        "notice": "Check if account is teacher"
      },
      "revokeRole(bytes32,address)": {
        "notice": "Revoke role from account"
      },
      "revokeRoleBatch(bytes32,address[])": {
        "notice": "Revoke role from multiple accounts"
      },
      "roleExists(bytes32)": {
        "notice": "Check if role exists (has members)"
      }
    },
    "notice": "Role-based access control for all VNDC modules",
    "version": 1
  },
  "storageLayout": {
    "storage": [
      {
        "astId": 8,
        "contract": "contracts/modules/001-core/AccessControl.sol:AccessControl",
        "label": "_owner",
        "offset": 0,
        "slot": "0",
        "type": "t_address"
      },
      {
        "astId": 11085,
        "contract": "contracts/modules/001-core/AccessControl.sol:AccessControl",
        "label": "_roles",
        "offset": 0,
        "slot": "1",
        "type": "t_mapping(t_bytes32,t_mapping(t_address,t_bool))"
      },
      {
        "astId": 11090,
        "contract": "contracts/modules/001-core/AccessControl.sol:AccessControl",
        "label": "_userRoles",
        "offset": 0,
        "slot": "2",
        "type": "t_mapping(t_address,t_array(t_bytes32)dyn_storage)"
      },
      {
        "astId": 11095,
        "contract": "contracts/modules/001-core/AccessControl.sol:AccessControl",
        "label": "_roleMembers",
        "offset": 0,
        "slot": "3",
        "type": "t_mapping(t_bytes32,t_array(t_address)dyn_storage)"
      }
    ],
    "types": {
      "t_address": {
        "encoding": "inplace",
        "label": "address",
        "numberOfBytes": "20"
      },
      "t_array(t_address)dyn_storage": {
        "base": "t_address",
        "encoding": "dynamic_array",
        "label": "address[]",
        "numberOfBytes": "32"
      },
      "t_array(t_bytes32)dyn_storage": {
        "base": "t_bytes32",
        "encoding": "dynamic_array",
        "label": "bytes32[]",
        "numberOfBytes": "32"
      },
      "t_bool": {
        "encoding": "inplace",
        "label": "bool",
        "numberOfBytes": "1"
      },
      "t_bytes32": {
        "encoding": "inplace",
        "label": "bytes32",
        "numberOfBytes": "32"
      },
      "t_mapping(t_address,t_array(t_bytes32)dyn_storage)": {
        "encoding": "mapping",
        "key": "t_address",
        "label": "mapping(address => bytes32[])",
        "numberOfBytes": "32",
        "value": "t_array(t_bytes32)dyn_storage"
      },
      "t_mapping(t_address,t_bool)": {
        "encoding": "mapping",
        "key": "t_address",
        "label": "mapping(address => bool)",
        "numberOfBytes": "32",
        "value": "t_bool"
      },
      "t_mapping(t_bytes32,t_array(t_address)dyn_storage)": {
        "encoding": "mapping",
        "key": "t_bytes32",
        "label": "mapping(bytes32 => address[])",
        "numberOfBytes": "32",
        "value": "t_array(t_address)dyn_storage"
      },
      "t_mapping(t_bytes32,t_mapping(t_address,t_bool))": {
        "encoding": "mapping",
        "key": "t_bytes32",
        "label": "mapping(bytes32 => mapping(address => bool))",
        "numberOfBytes": "32",
        "value": "t_mapping(t_address,t_bool)"
      }
    }
  }
}