{
  "address": "0xf0756Abeea0a6DbC05651d0c2df63374aEBf2290",
  "abi": [
    {
      "inputs": [],
      "stateMutability": "nonpayable",
      "type": "constructor"
    },
    {
      "inputs": [
        {
          "internalType": "address",
          "name": "sender",
          "type": "address"
        },
        {
          "internalType": "uint256",
          "name": "balance",
          "type": "uint256"
        },
        {
          "internalType": "uint256",
          "name": "needed",
          "type": "uint256"
        },
        {
          "internalType": "uint256",
          "name": "tokenId",
          "type": "uint256"
        }
      ],
      "name": "ERC1155InsufficientBalance",
      "type": "error"
    },
    {
      "inputs": [
        {
          "internalType": "address",
          "name": "approver",
          "type": "address"
        }
      ],
      "name": "ERC1155InvalidApprover",
      "type": "error"
    },
    {
      "inputs": [
        {
          "internalType": "uint256",
          "name": "idsLength",
          "type": "uint256"
        },
        {
          "internalType": "uint256",
          "name": "valuesLength",
          "type": "uint256"
        }
      ],
      "name": "ERC1155InvalidArrayLength",
      "type": "error"
    },
    {
      "inputs": [
        {
          "internalType": "address",
          "name": "operator",
          "type": "address"
        }
      ],
      "name": "ERC1155InvalidOperator",
      "type": "error"
    },
    {
      "inputs": [
        {
          "internalType": "address",
          "name": "receiver",
          "type": "address"
        }
      ],
      "name": "ERC1155InvalidReceiver",
      "type": "error"
    },
    {
      "inputs": [
        {
          "internalType": "address",
          "name": "sender",
          "type": "address"
        }
      ],
      "name": "ERC1155InvalidSender",
      "type": "error"
    },
    {
      "inputs": [
        {
          "internalType": "address",
          "name": "operator",
          "type": "address"
        },
        {
          "internalType": "address",
          "name": "owner",
          "type": "address"
        }
      ],
      "name": "ERC1155MissingApprovalForAll",
      "type": "error"
    },
    {
      "inputs": [],
      "name": "EnforcedPause",
      "type": "error"
    },
    {
      "inputs": [],
      "name": "ExpectedPause",
      "type": "error"
    },
    {
      "inputs": [
        {
          "internalType": "address",
          "name": "owner",
          "type": "address"
        }
      ],
      "name": "OwnableInvalidOwner",
      "type": "error"
    },
    {
      "inputs": [
        {
          "internalType": "address",
          "name": "account",
          "type": "address"
        }
      ],
      "name": "OwnableUnauthorizedAccount",
      "type": "error"
    },
    {
      "anonymous": false,
      "inputs": [
        {
          "indexed": true,
          "internalType": "address",
          "name": "account",
          "type": "address"
        },
        {
          "indexed": true,
          "internalType": "address",
          "name": "operator",
          "type": "address"
        },
        {
          "indexed": false,
          "internalType": "bool",
          "name": "approved",
          "type": "bool"
        }
      ],
      "name": "ApprovalForAll",
      "type": "event"
    },
    {
      "anonymous": false,
      "inputs": [
        {
          "indexed": true,
          "internalType": "address",
          "name": "from",
          "type": "address"
        },
        {
          "indexed": true,
          "internalType": "uint256",
          "name": "activityId",
          "type": "uint256"
        },
        {
          "indexed": false,
          "internalType": "uint256",
          "name": "amount",
          "type": "uint256"
        }
      ],
      "name": "BadgeBurned",
      "type": "event"
    },
    {
      "anonymous": false,
      "inputs": [
        {
          "indexed": true,
          "internalType": "uint256",
          "name": "activityId",
          "type": "uint256"
        },
        {
          "indexed": false,
          "internalType": "string",
          "name": "uri",
          "type": "string"
        }
      ],
      "name": "BadgeCreated",
      "type": "event"
    },
    {
      "anonymous": false,
      "inputs": [
        {
          "indexed": true,
          "internalType": "address",
          "name": "to",
          "type": "address"
        },
        {
          "indexed": true,
          "internalType": "uint256",
          "name": "activityId",
          "type": "uint256"
        },
        {
          "indexed": false,
          "internalType": "uint256",
          "name": "amount",
          "type": "uint256"
        }
      ],
      "name": "BadgeMinted",
      "type": "event"
    },
    {
      "anonymous": false,
      "inputs": [
        {
          "indexed": true,
          "internalType": "address",
          "name": "previousOwner",
          "type": "address"
        },
        {
          "indexed": true,
          "internalType": "address",
          "name": "newOwner",
          "type": "address"
        }
      ],
      "name": "OwnershipTransferred",
      "type": "event"
    },
    {
      "anonymous": false,
      "inputs": [
        {
          "indexed": false,
          "internalType": "address",
          "name": "account",
          "type": "address"
        }
      ],
      "name": "Paused",
      "type": "event"
    },
    {
      "anonymous": false,
      "inputs": [
        {
          "indexed": true,
          "internalType": "address",
          "name": "operator",
          "type": "address"
        },
        {
          "indexed": true,
          "internalType": "address",
          "name": "from",
          "type": "address"
        },
        {
          "indexed": true,
          "internalType": "address",
          "name": "to",
          "type": "address"
        },
        {
          "indexed": false,
          "internalType": "uint256[]",
          "name": "ids",
          "type": "uint256[]"
        },
        {
          "indexed": false,
          "internalType": "uint256[]",
          "name": "values",
          "type": "uint256[]"
        }
      ],
      "name": "TransferBatch",
      "type": "event"
    },
    {
      "anonymous": false,
      "inputs": [
        {
          "indexed": true,
          "internalType": "address",
          "name": "operator",
          "type": "address"
        },
        {
          "indexed": true,
          "internalType": "address",
          "name": "from",
          "type": "address"
        },
        {
          "indexed": true,
          "internalType": "address",
          "name": "to",
          "type": "address"
        },
        {
          "indexed": false,
          "internalType": "uint256",
          "name": "id",
          "type": "uint256"
        },
        {
          "indexed": false,
          "internalType": "uint256",
          "name": "value",
          "type": "uint256"
        }
      ],
      "name": "TransferSingle",
      "type": "event"
    },
    {
      "anonymous": false,
      "inputs": [
        {
          "indexed": false,
          "internalType": "string",
          "name": "value",
          "type": "string"
        },
        {
          "indexed": true,
          "internalType": "uint256",
          "name": "id",
          "type": "uint256"
        }
      ],
      "name": "URI",
      "type": "event"
    },
    {
      "anonymous": false,
      "inputs": [
        {
          "indexed": false,
          "internalType": "address",
          "name": "account",
          "type": "address"
        }
      ],
      "name": "Unpaused",
      "type": "event"
    },
    {
      "inputs": [
        {
          "internalType": "uint256",
          "name": "",
          "type": "uint256"
        }
      ],
      "name": "badgeExists",
      "outputs": [
        {
          "internalType": "bool",
          "name": "",
          "type": "bool"
        }
      ],
      "stateMutability": "view",
      "type": "function"
    },
    {
      "inputs": [
        {
          "internalType": "uint256",
          "name": "",
          "type": "uint256"
        }
      ],
      "name": "badgeURIs",
      "outputs": [
        {
          "internalType": "string",
          "name": "",
          "type": "string"
        }
      ],
      "stateMutability": "view",
      "type": "function"
    },
    {
      "inputs": [
        {
          "internalType": "address",
          "name": "account",
          "type": "address"
        },
        {
          "internalType": "uint256",
          "name": "id",
          "type": "uint256"
        }
      ],
      "name": "balanceOf",
      "outputs": [
        {
          "internalType": "uint256",
          "name": "",
          "type": "uint256"
        }
      ],
      "stateMutability": "view",
      "type": "function"
    },
    {
      "inputs": [
        {
          "internalType": "address[]",
          "name": "accounts",
          "type": "address[]"
        },
        {
          "internalType": "uint256[]",
          "name": "ids",
          "type": "uint256[]"
        }
      ],
      "name": "balanceOfBatch",
      "outputs": [
        {
          "internalType": "uint256[]",
          "name": "",
          "type": "uint256[]"
        }
      ],
      "stateMutability": "view",
      "type": "function"
    },
    {
      "inputs": [
        {
          "internalType": "address",
          "name": "from",
          "type": "address"
        },
        {
          "internalType": "uint256",
          "name": "activityId",
          "type": "uint256"
        },
        {
          "internalType": "uint256",
          "name": "amount",
          "type": "uint256"
        }
      ],
      "name": "burn",
      "outputs": [],
      "stateMutability": "nonpayable",
      "type": "function"
    },
    {
      "inputs": [
        {
          "internalType": "string",
          "name": "uri",
          "type": "string"
        }
      ],
      "name": "createBadge",
      "outputs": [
        {
          "internalType": "uint256",
          "name": "",
          "type": "uint256"
        }
      ],
      "stateMutability": "nonpayable",
      "type": "function"
    },
    {
      "inputs": [
        {
          "internalType": "address",
          "name": "user",
          "type": "address"
        }
      ],
      "name": "getUserActivityBadges",
      "outputs": [
        {
          "internalType": "uint256[]",
          "name": "",
          "type": "uint256[]"
        }
      ],
      "stateMutability": "view",
      "type": "function"
    },
    {
      "inputs": [
        {
          "internalType": "address",
          "name": "user",
          "type": "address"
        },
        {
          "internalType": "uint256",
          "name": "activityId",
          "type": "uint256"
        }
      ],
      "name": "hasBadge",
      "outputs": [
        {
          "internalType": "bool",
          "name": "",
          "type": "bool"
        }
      ],
      "stateMutability": "view",
      "type": "function"
    },
    {
      "inputs": [
        {
          "internalType": "address",
          "name": "account",
          "type": "address"
        },
        {
          "internalType": "address",
          "name": "operator",
          "type": "address"
        }
      ],
      "name": "isApprovedForAll",
      "outputs": [
        {
          "internalType": "bool",
          "name": "",
          "type": "bool"
        }
      ],
      "stateMutability": "view",
      "type": "function"
    },
    {
      "inputs": [
        {
          "internalType": "address",
          "name": "to",
          "type": "address"
        },
        {
          "internalType": "uint256",
          "name": "activityId",
          "type": "uint256"
        },
        {
          "internalType": "uint256",
          "name": "amount",
          "type": "uint256"
        }
      ],
      "name": "mint",
      "outputs": [],
      "stateMutability": "nonpayable",
      "type": "function"
    },
    {
      "inputs": [],
      "name": "owner",
      "outputs": [
        {
          "internalType": "address",
          "name": "",
          "type": "address"
        }
      ],
      "stateMutability": "view",
      "type": "function"
    },
    {
      "inputs": [],
      "name": "pause",
      "outputs": [],
      "stateMutability": "nonpayable",
      "type": "function"
    },
    {
      "inputs": [],
      "name": "paused",
      "outputs": [
        {
          "internalType": "bool",
          "name": "",
          "type": "bool"
        }
      ],
      "stateMutability": "view",
      "type": "function"
    },
    {
      "inputs": [],
      "name": "renounceOwnership",
      "outputs": [],
      "stateMutability": "nonpayable",
      "type": "function"
    },
    {
      "inputs": [
        {
          "internalType": "address",
          "name": "from",
          "type": "address"
        },
        {
          "internalType": "address",
          "name": "to",
          "type": "address"
        },
        {
          "internalType": "uint256[]",
          "name": "ids",
          "type": "uint256[]"
        },
        {
          "internalType": "uint256[]",
          "name": "amounts",
          "type": "uint256[]"
        },
        {
          "internalType": "bytes",
          "name": "data",
          "type": "bytes"
        }
      ],
      "name": "safeBatchTransferFrom",
      "outputs": [],
      "stateMutability": "nonpayable",
      "type": "function"
    },
    {
      "inputs": [
        {
          "internalType": "address",
          "name": "from",
          "type": "address"
        },
        {
          "internalType": "address",
          "name": "to",
          "type": "address"
        },
        {
          "internalType": "uint256",
          "name": "id",
          "type": "uint256"
        },
        {
          "internalType": "uint256",
          "name": "amount",
          "type": "uint256"
        },
        {
          "internalType": "bytes",
          "name": "data",
          "type": "bytes"
        }
      ],
      "name": "safeTransferFrom",
      "outputs": [],
      "stateMutability": "nonpayable",
      "type": "function"
    },
    {
      "inputs": [
        {
          "internalType": "address",
          "name": "operator",
          "type": "address"
        },
        {
          "internalType": "bool",
          "name": "approved",
          "type": "bool"
        }
      ],
      "name": "setApprovalForAll",
      "outputs": [],
      "stateMutability": "nonpayable",
      "type": "function"
    },
    {
      "inputs": [
        {
          "internalType": "uint256",
          "name": "activityId",
          "type": "uint256"
        },
        {
          "internalType": "string",
          "name": "newUri",
          "type": "string"
        }
      ],
      "name": "setUri",
      "outputs": [],
      "stateMutability": "nonpayable",
      "type": "function"
    },
    {
      "inputs": [
        {
          "internalType": "bytes4",
          "name": "interfaceId",
          "type": "bytes4"
        }
      ],
      "name": "supportsInterface",
      "outputs": [
        {
          "internalType": "bool",
          "name": "",
          "type": "bool"
        }
      ],
      "stateMutability": "view",
      "type": "function"
    },
    {
      "inputs": [
        {
          "internalType": "address",
          "name": "newOwner",
          "type": "address"
        }
      ],
      "name": "transferOwnership",
      "outputs": [],
      "stateMutability": "nonpayable",
      "type": "function"
    },
    {
      "inputs": [],
      "name": "unpause",
      "outputs": [],
      "stateMutability": "nonpayable",
      "type": "function"
    },
    {
      "inputs": [
        {
          "internalType": "uint256",
          "name": "activityId",
          "type": "uint256"
        }
      ],
      "name": "uri",
      "outputs": [
        {
          "internalType": "string",
          "name": "",
          "type": "string"
        }
      ],
      "stateMutability": "view",
      "type": "function"
    },
    {
      "inputs": [
        {
          "internalType": "address",
          "name": "",
          "type": "address"
        },
        {
          "internalType": "uint256",
          "name": "",
          "type": "uint256"
        }
      ],
      "name": "userBadges",
      "outputs": [
        {
          "internalType": "uint256",
          "name": "",
          "type": "uint256"
        }
      ],
      "stateMutability": "view",
      "type": "function"
    }
  ],
  "transactionHash": "0xe7c7a54b097127bf23a3be84887ab6938a798a87d4ecdcd3c3239a187f22ab14",
  "args": [],
  "numDeployments": 1,
  "solcInputHash": "f7a2af3361beb97db2b043165e51f0a0",
  "bytecode": "0x6080346200014957602081016001600160401b0381118282101762000133576040526000809152600254600190600181811c9116801562000128575b60208210146200011457601f8111620000ca575b5050806002553315620000b25760038054336001600160a01b031982168117909255604051926001600160a01b03909116907f8be0079c531659141344cd1fd0a4f28419497f9722a3daafe3b4186f6b6457e09080a3611e5790816200014f8239f35b60249060405190631e4fbdf760e01b82526004820152fd5b60028352601f0160051c7f405787fa12a823e0f2b7631cc41b3ba8828b3321ca811111fa75cd3aa3bb5ace908101905b8181106200010957506200004f565b8381558201620000fa565b634e487b7160e01b83526022600452602483fd5b90607f16906200003b565b634e487b7160e01b600052604160045260246000fd5b600080fdfe6080604052600436101561001257600080fd5b60003560e01c8062fdd58e1461018657806301ffc9a7146101815780630e89341c1461017c578063156e29f6146101775780632eb2c2d6146101725780633f4ba83a1461016d5780634c6a70ce146101685780634e1273f4146101635780635c975abb1461015e578063715018a614610159578063782f08ae146101545780638456cb591461014f5780638da5cb5b1461014a578063996c6a9314610145578063a22cb46514610140578063a6ef515a1461013b578063aa14fc4314610136578063df91cc2314610131578063e985e9c51461012c578063ee068bf614610127578063f242432a14610122578063f2fde38b1461011d5763f5298aca1461011857600080fd5b611239565b6111ab565b611085565b611045565b610f09565b610eb1565b610e4d565b610dd2565b610d16565b610b55565b610b2c565b610aca565b610998565b610909565b6108e3565b610828565b6107ba565b610748565b610617565b6103c1565b6102f1565b61022f565b6101d0565b600435906001600160a01b03821682036101a157565b600080fd5b602435906001600160a01b03821682036101a157565b35906001600160a01b03821682036101a157565b346101a15760403660031901126101a15760206102146101ee61018b565b6024356000526000835260406000209060018060a01b0316600052602052604060002090565b54604051908152f35b6001600160e01b03198116036101a157565b346101a15760203660031901126101a157602060043561024e8161021d565b63ffffffff60e01b16636cdb3d1360e11b811490811561028c575b811561027b575b506040519015158152f35b6301ffc9a760e01b14905038610270565b6303a24d0760e21b81149150610269565b919082519283825260005b8481106102c9575050826000602080949584010152601f8019910116010190565b6020818301810151848301820152016102a8565b9060206102ee92818152019061029d565b90565b346101a15760203660031901126101a15760043580600052600560205260ff60406000205416156103445760005260046020526103406103346040600020610fa0565b604051918291826102dd565b0390f35b60405162461bcd60e51b815260206004820152602560248201527f42616467652055524920717565727920666f72206e6f6e6578697374656e7420604482015264626164676560d81b6064820152608490fd5b60609060031901126101a1576004356001600160a01b03811681036101a157906024359060443590565b346101a1576103cf36610397565b6103da9291926116c9565b6103e26116f5565b8260005260056020526103fc60ff60406000205416611486565b6001600160a01b0382169182156104aa578161047a9161043e7f7e6f783c7d2fd31e9979cbb09639e191e20de085caf64b2875d53ff862aa3baa9415156114c9565b610451610449611515565b838884611716565b8561046361045f828461185f565b1590565b61047f575b50506040519081529081906020820190565b0390a3005b61049e6104a39260018060a01b03166000526006602052604060002090565b611528565b3885610468565b60405162461bcd60e51b8152602060048201526011602482015270125b9d985b1a59081c9958da5c1a595b9d607a1b6044820152606490fd5b634e487b7160e01b600052604160045260246000fd5b6020810190811067ffffffffffffffff82111761051557604052565b6104e3565b90601f8019910116810190811067ffffffffffffffff82111761051557604052565b67ffffffffffffffff81116105155760051b60200190565b9080601f830112156101a157602090823561056e8161053c565b9361057c604051958661051a565b81855260208086019260051b8201019283116101a157602001905b8282106105a5575050505090565b81358152908301908301610597565b67ffffffffffffffff811161051557601f01601f191660200190565b81601f820112156101a1578035906105e7826105b4565b926105f5604051948561051a565b828452602083830101116101a157816000926020809301838601378301015290565b346101a15760a03660031901126101a15761063061018b565b6106386101a6565b906044359167ffffffffffffffff908184116101a15761065d60049436908601610554565b906064358381116101a1576106759036908701610554565b926084359081116101a15761068d90369087016105d0565b936106966116f5565b6001600160a01b03818116903382141580610724575b6106f7578316156106df57156106c8576106c695506118f7565b005b604051626a0d4560e21b8152600081880152602490fd5b604051632bfa23e760e11b8152600081890152602490fd5b6040805163711bec9160e11b815233818b019081526001600160a01b038616602082015290918291010390fd5b50600082815260016020908152604080832033845290915290205460ff16156106ac565b346101a15760003660031901126101a1576107616116c9565b60035460ff8160a01c16156107a85760ff60a01b19166003556040513381527f5db9ee0a495bf2e6ff9c91a7834c1ba4fdd244a5e8aa4e537bd38aeae4b073aa90602090a1005b604051638dfc202b60e01b8152600490fd5b346101a15760403660031901126101a15760206107d86101ee61018b565b541515604051908152f35b90815180825260208080930193019160005b828110610803575050505090565b8351855293810193928101926001016107f5565b9060206102ee9281815201906107e3565b346101a15760403660031901126101a15760043567ffffffffffffffff8082116101a157366023830112156101a15781600401356108658161053c565b92610873604051948561051a565b8184526020916024602086019160051b830101913683116101a157602401905b8282106108cc57856024358681116101a157610340916108ba6108c0923690600401610554565b90611576565b60405191829182610817565b8380916108d8846101bc565b815201910190610893565b346101a15760003660031901126101a157602060ff60035460a01c166040519015158152f35b346101a157600080600319360112610967576109236116c9565b600380546001600160a01b0319811690915581906001600160a01b03167f8be0079c531659141344cd1fd0a4f28419497f9722a3daafe3b4186f6b6457e08280a380f35b80fd5b9181601f840112156101a15782359167ffffffffffffffff83116101a157602083818601950101116101a157565b346101a15760403660031901126101a15760043567ffffffffffffffff6024358181116101a1576109cd90369060040161096a565b6109d89291926116c9565b60009284845260209460056020526109f660ff604087205416611486565b845260046020526040842092821161051557610a1c82610a168554610f66565b85611635565b8394601f8311600114610a5e575083948291610a4e949592610a53575b50508160011b916000199060031b1c19161790565b905580f35b013590503880610a39565b90601f19831695610a7485600052602060002090565b9286905b888210610ab257505083600195969710610a98575b505050811b01905580f35b0135600019600384901b60f8161c19169055388080610a8d565b80600184968294958701358155019501920190610a78565b346101a15760003660031901126101a157610ae36116c9565b610aeb6116f5565b6003805460ff60a01b1916600160a01b1790556040513381527f62e78cea01bee320cd4e420270b5ea74000d11b0c9f74754ebdbfc544b05a25890602090a1005b346101a15760003660031901126101a1576003546040516001600160a01b039091168152602090f35b346101a1576020806003193601126101a15767ffffffffffffffff6004358181116101a157610b8890369060040161096a565b90610b916116c9565b60075492600019808514610d11576001808601600755856000526004602052604060002092851161051557610bca85610a168554610f66565b600096601f8611600114610c7957505050917f2a19b122d7ceb6b21d4ac9a7636241ea8d5068dec98786163aa0de488f4ccc52918493610c25838061034099600091610c6e575b508160011b916000199060031b1c19161790565b90555b610c4c610c3f856000526005602052604060002090565b805460ff19166001179055565b610c5b604051928392836116a1565b0390a26040519081529081906020820190565b905084013538610c11565b969190601f19861690610c9185600052602060002090565b9884915b838310610cfa57505050967f2a19b122d7ceb6b21d4ac9a7636241ea8d5068dec98786163aa0de488f4ccc52949286949288976103409a10610ce2575b505050600183811b019055610c28565b60f88660031b161c1990840135169055388080610cd2565b878601358b55998a01999481019491810191610c95565b61168b565b346101a15760403660031901126101a157610d2f61018b565b60243590811515908183036101a1576001600160a01b038116928315610dba57610d7b610d8c9233600052600160205260406000209060018060a01b0316600052602052604060002090565b9060ff801983541691151516179055565b6040519081527f17307eab39ab6107e8899845ad3d59bd9653f200f220920489ca2b5937696c3160203392a3005b60405162ced3e160e81b815260006004820152602490fd5b346101a1576020806003193601126101a1576001600160a01b03610df461018b565b1660005260066020526040600020906040519081602084549182815201936000526020600020916000905b828210610e3657610340856108c08189038261051a565b835486529485019460019384019390910190610e1f565b346101a15760203660031901126101a1576004356000526005602052602060ff604060002054166040519015158152f35b634e487b7160e01b600052603260045260246000fd5b8054821015610eac5760005260206000200190600090565b610e7e565b346101a15760403660031901126101a157610eca61018b565b6001600160a01b03166000908152600660205260409020805460243591908210156101a157602091610efb91610e94565b90546040519160031b1c8152f35b346101a15760403660031901126101a157602060ff610f5a610f2961018b565b610f316101a6565b6001600160a01b0391821660009081526001865260408082209290931681526020919091522090565b54166040519015158152f35b90600182811c92168015610f96575b6020831014610f8057565b634e487b7160e01b600052602260045260246000fd5b91607f1691610f75565b90604051918260008254610fb381610f66565b908184526020946001916001811690816000146110235750600114610fe4575b505050610fe29250038361051a565b565b600090815285812095935091905b81831061100b575050610fe29350820101388080610fd3565b85548884018501529485019487945091830191610ff2565b92505050610fe294925060ff191682840152151560051b820101388080610fd3565b346101a15760203660031901126101a15760043560005260046020526103406110716040600020610fa0565b60405191829160208352602083019061029d565b346101a15760a03660031901126101a15761109e61018b565b6110a66101a6565b60843567ffffffffffffffff81116101a1576110c69036906004016105d0565b906110cf6116f5565b6001600160a01b03838116903382141580611187575b61116057821615611147571561112f576106c6926111276064356044359160405192600184526020840152604083019160018352606084015260808301604052565b9290916118f7565b604051626a0d4560e21b815260006004820152602490fd5b604051632bfa23e760e11b815260006004820152602490fd5b60405163711bec9160e11b81523360048201526001600160a01b0386166024820152604490fd5b50600082815260016020908152604080832033845290915290205460ff16156110e5565b346101a15760203660031901126101a1576111c461018b565b6111cc6116c9565b6001600160a01b0390811690811561122057600354826bffffffffffffffffffffffff60a01b821617600355167f8be0079c531659141344cd1fd0a4f28419497f9722a3daafe3b4186f6b6457e0600080a3005b604051631e4fbdf760e01b815260006004820152602490fd5b346101a15761124736610397565b906112506116c9565b6112586116f5565b600092818452600593602090600560205260409561127b60ff8884205416611486565b6112868615156114c9565b6001600160a01b038416918215611470576112c187879160405192600184526020840152604083019160018352606084015260808301604052565b969093828a516112d0816104f9565b52845188519081810361144f575050825b855181101561138e5780851b87808289010151918b0101516113288a611311846000526000602052604060002090565b9060018060a01b0316600052602052604060002090565b54818110611356578a611311600195949361134f9303936000526000602052604060002090565b55016112e1565b8d516303dee4c560e01b81526001600160a01b038c166004820152602481019190915260448101919091526064810191909152608490fd5b507fa5d8ec153540d926d7101f1d99a9925b036ad4383fd3cd0a8e591f28d32db0dc61140f8a8c86858d8b6001815114600014611415576020908101519181015185519283529082015233907fc3d58168c5ae7397731d063d5bbf3d657854427343f4c083240f7aacaa2d0f6290604090a45b519081529081906020820190565b0390a380f35b845133927f4a39dc06d4c0dbc64b70af90fd698a233a518aa5d07e595d983b8c0526c8f7fb9282916114479183611afd565b0390a4611401565b8b51635b05999160e01b815260048101919091526024810191909152604490fd5b602490885190626a0d4560e21b82526004820152fd5b1561148d57565b60405162461bcd60e51b815260206004820152601460248201527310985919d948191bd95cc81b9bdd08195e1a5cdd60621b6044820152606490fd5b156114d057565b60405162461bcd60e51b815260206004820152601760248201527f416d6f756e74206d75737420626520706f7369746976650000000000000000006044820152606490fd5b60405190611522826104f9565b60008252565b8054680100000000000000008110156105155761154a91600182018155610e94565b819291549060031b91821b91600019901b1916179055565b8051821015610eac5760209160051b010190565b919091805183518082036116135750508051906115ab6115958361053c565b926115a3604051948561051a565b80845261053c565b60209190601f1901368484013760005b815181101561160b57600581901b8281018401519087018401516000908152602081815260408083206001600160a01b0390941683529290522054600191906116048287611562565b52016115bb565b509193505050565b604051635b05999160e01b815260048101919091526024810191909152604490fd5b90601f811161164357505050565b6000916000526020600020906020601f850160051c83019410611681575b601f0160051c01915b82811061167657505050565b81815560010161166a565b9092508290611661565b634e487b7160e01b600052601160045260246000fd5b90918060409360208452816020850152848401376000828201840152601f01601f1916010190565b6003546001600160a01b031633036116dd57565b60405163118cdaa760e01b8152336004820152602490fd5b60ff60035460a01c1661170457565b60405163d93c066560e01b8152600490fd5b6001600160a01b038116939290919084156111475761175260405192600184526020840152604083019160018352606084015260808301604052565b92815184519081810361161357505060005b82518110156117ac578060019160051b6117a461179c87611311602080868b010151958c010151946000526000602052604060002090565b918254611af0565b905501611764565b5092919360018251146000146118235760208281015184820151604080519283529282015260009133917fc3d58168c5ae7397731d063d5bbf3d657854427343f4c083240f7aacaa2d0f629190a45b80516001036118195790602080610fe2959301519101519133611dde565b610fe29333611be4565b60006040517f4a39dc06d4c0dbc64b70af90fd698a233a518aa5d07e595d983b8c0526c8f7fb339180611857888883611afd565b0390a46117fb565b9060009160018060a01b0316825260206006602052604083209060405180928391602082549182815201918752602087209387905b8282106118dd575050506118aa9250038261051a565b825b81518110156118d757826118c08284611562565b51146118ce576001016118ac565b50505050600190565b50505090565b855484526001958601958795509381019390910190611894565b94919091815184519081810361161357505060005b82518110156119fa57600581901b83810160209081015191870101516001600160a01b03929186908a8516611974575b600194821661194f575b5050500161190c565b61196a9161131161179c926000526000602052604060002090565b9055388581611946565b91929390506119918a611311846000526000602052604060002090565b548381106119c357918791846001969594036119bb8d611311856000526000602052604060002090565b55945061193c565b6040516303dee4c560e01b81526001600160a01b038c16600482015260248101919091526044810184905260648101839052608490fd5b509491939290936001855114600014611aa5576020858101518382015160408051928352928201526001600160a01b03838116929086169133917fc3d58168c5ae7397731d063d5bbf3d657854427343f4c083240f7aacaa2d0f6291a45b6001600160a01b038116611a6e575b5050505050565b8451600103611a9457602080611a8a9601519201519233611e13565b3880808080611a67565b611aa094919233611cdf565b611a8a565b6040516001600160a01b03828116919085169033907f4a39dc06d4c0dbc64b70af90fd698a233a518aa5d07e595d983b8c0526c8f7fb9080611ae8888c83611afd565b0390a4611a58565b91908201809211610d1157565b9091611b146102ee936040845260408401906107e3565b9160208184039101526107e3565b908160209103126101a157516102ee8161021d565b92611b666102ee9593611b749360018060a01b031686526000602087015260a0604087015260a08601906107e3565b9084820360608601526107e3565b91608081840391015261029d565b93906102ee9593611b6691611b749460018060a01b03809216885216602087015260a0604087015260a08601906107e3565b3d15611bdf573d90611bc5826105b4565b91611bd3604051938461051a565b82523d6000602084013e565b606090565b9293919093843b611bf6575050505050565b602091611c19604051948593849363bc197c8160e01b9889865260048601611b37565b038160006001600160a01b0388165af160009181611cae575b50611c715782611c40611bb4565b8051919082611c6a57604051632bfa23e760e11b81526001600160a01b0383166004820152602490fd5b6020915001fd5b6001600160e01b03191603611c8b57503880808080611a67565b604051632bfa23e760e11b81526001600160a01b03919091166004820152602490fd5b611cd191925060203d602011611cd8575b611cc9818361051a565b810190611b22565b9038611c32565b503d611cbf565b939290949194853b611cf4575b505050505050565b611d17602093604051958694859463bc197c8160e01b998a875260048701611b82565b038160006001600160a01b0388165af160009181611d59575b50611d3e5782611c40611bb4565b6001600160e01b03191603611c8b5750388080808080611cec565b611d7391925060203d602011611cd857611cc9818361051a565b9038611d30565b909260a0926102ee9594600180861b031683526000602084015260408301526060820152816080820152019061029d565b91926102ee95949160a094600180871b03809216855216602084015260408301526060820152816080820152019061029d565b9293919093843b611df0575050505050565b602091611c19604051948593849363f23a6e6160e01b9889865260048601611d7a565b939290949194853b611e2757505050505050565b611d17602093604051958694859463f23a6e6160e01b998a875260048701611dab56fea164736f6c6343000818000a",
  "devdoc": {
    "details": "Manages activity badges with metadata URIs",
    "errors": {
      "ERC1155InsufficientBalance(address,uint256,uint256,uint256)": [
        {
          "details": "Indicates an error related to the current `balance` of a `sender`. Used in transfers.",
          "params": {
            "balance": "Current balance for the interacting account.",
            "needed": "Minimum amount required to perform a transfer.",
            "sender": "Address whose tokens are being transferred.",
            "tokenId": "Identifier number of a token."
          }
        }
      ],
      "ERC1155InvalidApprover(address)": [
        {
          "details": "Indicates a failure with the `approver` of a token to be approved. Used in approvals.",
          "params": {
            "approver": "Address initiating an approval operation."
          }
        }
      ],
      "ERC1155InvalidArrayLength(uint256,uint256)": [
        {
          "details": "Indicates an array length mismatch between ids and values in a safeBatchTransferFrom operation. Used in batch transfers.",
          "params": {
            "idsLength": "Length of the array of token identifiers",
            "valuesLength": "Length of the array of token amounts"
          }
        }
      ],
      "ERC1155InvalidOperator(address)": [
        {
          "details": "Indicates a failure with the `operator` to be approved. Used in approvals.",
          "params": {
            "operator": "Address that may be allowed to operate on tokens without being their owner."
          }
        }
      ],
      "ERC1155InvalidReceiver(address)": [
        {
          "details": "Indicates a failure with the token `receiver`. Used in transfers.",
          "params": {
            "receiver": "Address to which tokens are being transferred."
          }
        }
      ],
      "ERC1155InvalidSender(address)": [
        {
          "details": "Indicates a failure with the token `sender`. Used in transfers.",
          "params": {
            "sender": "Address whose tokens are being transferred."
          }
        }
      ],
      "ERC1155MissingApprovalForAll(address,address)": [
        {
          "details": "Indicates a failure with the `operator`s approval. Used in transfers.",
          "params": {
            "operator": "Address that may be allowed to operate on tokens without being their owner.",
            "owner": "Address of the current owner of a token."
          }
        }
      ],
      "EnforcedPause()": [
        {
          "details": "The operation failed because the contract is paused."
        }
      ],
      "ExpectedPause()": [
        {
          "details": "The operation failed because the contract is not paused."
        }
      ],
      "OwnableInvalidOwner(address)": [
        {
          "details": "The owner is not a valid owner account. (eg. `address(0)`)"
        }
      ],
      "OwnableUnauthorizedAccount(address)": [
        {
          "details": "The caller account is not authorized to perform an operation."
        }
      ]
    },
    "events": {
      "ApprovalForAll(address,address,bool)": {
        "details": "Emitted when `account` grants or revokes permission to `operator` to transfer their tokens, according to `approved`."
      },
      "Paused(address)": {
        "details": "Emitted when the pause is triggered by `account`."
      },
      "TransferBatch(address,address,address,uint256[],uint256[])": {
        "details": "Equivalent to multiple {TransferSingle} events, where `operator`, `from` and `to` are the same for all transfers."
      },
      "TransferSingle(address,address,address,uint256,uint256)": {
        "details": "Emitted when `value` amount of tokens of type `id` are transferred from `from` to `to` by `operator`."
      },
      "URI(string,uint256)": {
        "details": "Emitted when the URI for token type `id` changes to `value`, if it is a non-programmatic URI. If an {URI} event was emitted for `id`, the standard https://eips.ethereum.org/EIPS/eip-1155#metadata-extensions[guarantees] that `value` will equal the value returned by {IERC1155MetadataURI-uri}."
      },
      "Unpaused(address)": {
        "details": "Emitted when the pause is lifted by `account`."
      }
    },
    "kind": "dev",
    "methods": {
      "balanceOf(address,uint256)": {
        "details": "Returns the value of tokens of token type `id` owned by `account`."
      },
      "balanceOfBatch(address[],uint256[])": {
        "details": "See {IERC1155-balanceOfBatch}. Requirements: - `accounts` and `ids` must have the same length."
      },
      "burn(address,uint256,uint256)": {
        "params": {
          "activityId": "Activity badge ID",
          "amount": "Amount of badges to burn",
          "from": "Student address"
        }
      },
      "createBadge(string)": {
        "params": {
          "uri": "Metadata URI for the badge"
        },
        "returns": {
          "_0": "badgeId ID of the new badge"
        }
      },
      "getUserActivityBadges(address)": {
        "params": {
          "user": "User address"
        },
        "returns": {
          "_0": "Array of badge IDs owned by user"
        }
      },
      "hasBadge(address,uint256)": {
        "params": {
          "activityId": "Activity badge ID",
          "user": "User address"
        },
        "returns": {
          "_0": "true if user has at least 1 of this badge"
        }
      },
      "isApprovedForAll(address,address)": {
        "details": "Returns true if `operator` is approved to transfer ``account``'s tokens. See {setApprovalForAll}."
      },
      "mint(address,uint256,uint256)": {
        "params": {
          "activityId": "Activity badge ID",
          "amount": "Amount of badges to mint",
          "to": "Student address"
        }
      },
      "owner()": {
        "details": "Returns the address of the current owner."
      },
      "paused()": {
        "details": "Returns true if the contract is paused, and false otherwise."
      },
      "renounceOwnership()": {
        "details": "Leaves the contract without owner. It will not be possible to call `onlyOwner` functions. Can only be called by the current owner. NOTE: Renouncing ownership will leave the contract without an owner, thereby disabling any functionality that is only available to the owner."
      },
      "setApprovalForAll(address,bool)": {
        "details": "Grants or revokes permission to `operator` to transfer the caller's tokens, according to `approved`, Emits an {ApprovalForAll} event. Requirements: - `operator` cannot be the zero address."
      },
      "setUri(uint256,string)": {
        "params": {
          "activityId": "Activity badge ID",
          "newUri": "New URI"
        }
      },
      "supportsInterface(bytes4)": {
        "details": "Returns true if this contract implements the interface defined by `interfaceId`. See the corresponding https://eips.ethereum.org/EIPS/eip-165#how-interfaces-are-identified[ERC section] to learn more about how these ids are created. This function call must use less than 30 000 gas."
      },
      "transferOwnership(address)": {
        "details": "Transfers ownership of the contract to a new account (`newOwner`). Can only be called by the current owner."
      },
      "uri(uint256)": {
        "params": {
          "activityId": "Activity badge ID"
        },
        "returns": {
          "_0": "URI for the badge metadata"
        }
      }
    },
    "title": "ActivityBadge",
    "version": 1
  },
  "userdoc": {
    "events": {
      "BadgeCreated(uint256,string)": {
        "notice": "Events"
      }
    },
    "kind": "user",
    "methods": {
      "badgeURIs(uint256)": {
        "notice": "Badge metadata storage"
      },
      "burn(address,uint256,uint256)": {
        "notice": "Burn badge from student"
      },
      "constructor": {
        "notice": "Initialize contract"
      },
      "createBadge(string)": {
        "notice": "Create new activity badge type"
      },
      "getUserActivityBadges(address)": {
        "notice": "Get all activity badges owned by user"
      },
      "hasBadge(address,uint256)": {
        "notice": "Check if user has badge"
      },
      "mint(address,uint256,uint256)": {
        "notice": "Mint badge to student"
      },
      "pause()": {
        "notice": "Pause badge transfers"
      },
      "safeBatchTransferFrom(address,address,uint256[],uint256[],bytes)": {
        "notice": "Mock batch transfer for testing"
      },
      "safeTransferFrom(address,address,uint256,uint256,bytes)": {
        "notice": "Mock transfer function for testing"
      },
      "setUri(uint256,string)": {
        "notice": "Update badge URI"
      },
      "unpause()": {
        "notice": "Resume badge transfers"
      },
      "uri(uint256)": {
        "notice": "Get badge URI"
      }
    },
    "notice": "ERC-1155 badges for extracurricular activities",
    "version": 1
  },
  "storageLayout": {
    "storage": [
      {
        "astId": 383,
        "contract": "contracts/modules/004-rewards-extracurricular/ActivityBadge.sol:ActivityBadge",
        "label": "_balances",
        "offset": 0,
        "slot": "0",
        "type": "t_mapping(t_uint256,t_mapping(t_address,t_uint256))"
      },
      {
        "astId": 389,
        "contract": "contracts/modules/004-rewards-extracurricular/ActivityBadge.sol:ActivityBadge",
        "label": "_operatorApprovals",
        "offset": 0,
        "slot": "1",
        "type": "t_mapping(t_address,t_mapping(t_address,t_bool))"
      },
      {
        "astId": 391,
        "contract": "contracts/modules/004-rewards-extracurricular/ActivityBadge.sol:ActivityBadge",
        "label": "_uri",
        "offset": 0,
        "slot": "2",
        "type": "t_string_storage"
      },
      {
        "astId": 8,
        "contract": "contracts/modules/004-rewards-extracurricular/ActivityBadge.sol:ActivityBadge",
        "label": "_owner",
        "offset": 0,
        "slot": "3",
        "type": "t_address"
      },
      {
        "astId": 4971,
        "contract": "contracts/modules/004-rewards-extracurricular/ActivityBadge.sol:ActivityBadge",
        "label": "_paused",
        "offset": 20,
        "slot": "3",
        "type": "t_bool"
      },
      {
        "astId": 14216,
        "contract": "contracts/modules/004-rewards-extracurricular/ActivityBadge.sol:ActivityBadge",
        "label": "badgeURIs",
        "offset": 0,
        "slot": "4",
        "type": "t_mapping(t_uint256,t_string_storage)"
      },
      {
        "astId": 14220,
        "contract": "contracts/modules/004-rewards-extracurricular/ActivityBadge.sol:ActivityBadge",
        "label": "badgeExists",
        "offset": 0,
        "slot": "5",
        "type": "t_mapping(t_uint256,t_bool)"
      },
      {
        "astId": 14225,
        "contract": "contracts/modules/004-rewards-extracurricular/ActivityBadge.sol:ActivityBadge",
        "label": "userBadges",
        "offset": 0,
        "slot": "6",
        "type": "t_mapping(t_address,t_array(t_uint256)dyn_storage)"
      },
      {
        "astId": 14228,
        "contract": "contracts/modules/004-rewards-extracurricular/ActivityBadge.sol:ActivityBadge",
        "label": "_activityIdCounter",
        "offset": 0,
        "slot": "7",
        "type": "t_uint256"
      }
    ],
    "types": {
      "t_address": {
        "encoding": "inplace",
        "label": "address",
        "numberOfBytes": "20"
      },
      "t_array(t_uint256)dyn_storage": {
        "base": "t_uint256",
        "encoding": "dynamic_array",
        "label": "uint256[]",
        "numberOfBytes": "32"
      },
      "t_bool": {
        "encoding": "inplace",
        "label": "bool",
        "numberOfBytes": "1"
      },
      "t_mapping(t_address,t_array(t_uint256)dyn_storage)": {
        "encoding": "mapping",
        "key": "t_address",
        "label": "mapping(address => uint256[])",
        "numberOfBytes": "32",
        "value": "t_array(t_uint256)dyn_storage"
      },
      "t_mapping(t_address,t_bool)": {
        "encoding": "mapping",
        "key": "t_address",
        "label": "mapping(address => bool)",
        "numberOfBytes": "32",
        "value": "t_bool"
      },
      "t_mapping(t_address,t_mapping(t_address,t_bool))": {
        "encoding": "mapping",
        "key": "t_address",
        "label": "mapping(address => mapping(address => bool))",
        "numberOfBytes": "32",
        "value": "t_mapping(t_address,t_bool)"
      },
      "t_mapping(t_address,t_uint256)": {
        "encoding": "mapping",
        "key": "t_address",
        "label": "mapping(address => uint256)",
        "numberOfBytes": "32",
        "value": "t_uint256"
      },
      "t_mapping(t_uint256,t_bool)": {
        "encoding": "mapping",
        "key": "t_uint256",
        "label": "mapping(uint256 => bool)",
        "numberOfBytes": "32",
        "value": "t_bool"
      },
      "t_mapping(t_uint256,t_mapping(t_address,t_uint256))": {
        "encoding": "mapping",
        "key": "t_uint256",
        "label": "mapping(uint256 => mapping(address => uint256))",
        "numberOfBytes": "32",
        "value": "t_mapping(t_address,t_uint256)"
      },
      "t_mapping(t_uint256,t_string_storage)": {
        "encoding": "mapping",
        "key": "t_uint256",
        "label": "mapping(uint256 => string)",
        "numberOfBytes": "32",
        "value": "t_string_storage"
      },
      "t_string_storage": {
        "encoding": "bytes",
        "label": "string",
        "numberOfBytes": "32"
      },
      "t_uint256": {
        "encoding": "inplace",
        "label": "uint256",
        "numberOfBytes": "32"
      }
    }
  }
}