{
  "address": "0x5Ec6441A93ff6F505F779468F0bd12F79Ee03D40",
  "abi": [
    {
      "inputs": [],
      "stateMutability": "nonpayable",
      "type": "constructor"
    },
    {
      "inputs": [
        {
          "internalType": "address",
          "name": "sender",
          "type": "address"
        },
        {
          "internalType": "uint256",
          "name": "balance",
          "type": "uint256"
        },
        {
          "internalType": "uint256",
          "name": "needed",
          "type": "uint256"
        },
        {
          "internalType": "uint256",
          "name": "tokenId",
          "type": "uint256"
        }
      ],
      "name": "ERC1155InsufficientBalance",
      "type": "error"
    },
    {
      "inputs": [
        {
          "internalType": "address",
          "name": "approver",
          "type": "address"
        }
      ],
      "name": "ERC1155InvalidApprover",
      "type": "error"
    },
    {
      "inputs": [
        {
          "internalType": "uint256",
          "name": "idsLength",
          "type": "uint256"
        },
        {
          "internalType": "uint256",
          "name": "valuesLength",
          "type": "uint256"
        }
      ],
      "name": "ERC1155InvalidArrayLength",
      "type": "error"
    },
    {
      "inputs": [
        {
          "internalType": "address",
          "name": "operator",
          "type": "address"
        }
      ],
      "name": "ERC1155InvalidOperator",
      "type": "error"
    },
    {
      "inputs": [
        {
          "internalType": "address",
          "name": "receiver",
          "type": "address"
        }
      ],
      "name": "ERC1155InvalidReceiver",
      "type": "error"
    },
    {
      "inputs": [
        {
          "internalType": "address",
          "name": "sender",
          "type": "address"
        }
      ],
      "name": "ERC1155InvalidSender",
      "type": "error"
    },
    {
      "inputs": [
        {
          "internalType": "address",
          "name": "operator",
          "type": "address"
        },
        {
          "internalType": "address",
          "name": "owner",
          "type": "address"
        }
      ],
      "name": "ERC1155MissingApprovalForAll",
      "type": "error"
    },
    {
      "inputs": [
        {
          "internalType": "address",
          "name": "owner",
          "type": "address"
        }
      ],
      "name": "OwnableInvalidOwner",
      "type": "error"
    },
    {
      "inputs": [
        {
          "internalType": "address",
          "name": "account",
          "type": "address"
        }
      ],
      "name": "OwnableUnauthorizedAccount",
      "type": "error"
    },
    {
      "anonymous": false,
      "inputs": [
        {
          "indexed": true,
          "internalType": "address",
          "name": "account",
          "type": "address"
        },
        {
          "indexed": true,
          "internalType": "address",
          "name": "operator",
          "type": "address"
        },
        {
          "indexed": false,
          "internalType": "bool",
          "name": "approved",
          "type": "bool"
        }
      ],
      "name": "ApprovalForAll",
      "type": "event"
    },
    {
      "anonymous": false,
      "inputs": [
        {
          "indexed": true,
          "internalType": "address",
          "name": "student",
          "type": "address"
        },
        {
          "indexed": true,
          "internalType": "uint256",
          "name": "certificateTypeId",
          "type": "uint256"
        },
        {
          "indexed": true,
          "internalType": "uint256",
          "name": "tokenId",
          "type": "uint256"
        },
        {
          "indexed": false,
          "internalType": "uint256",
          "name": "issuedAt",
          "type": "uint256"
        }
      ],
      "name": "CertificateIssued",
      "type": "event"
    },
    {
      "anonymous": false,
      "inputs": [
        {
          "indexed": true,
          "internalType": "uint256",
          "name": "tokenId",
          "type": "uint256"
        },
        {
          "indexed": false,
          "internalType": "string",
          "name": "reason",
          "type": "string"
        },
        {
          "indexed": false,
          "internalType": "uint256",
          "name": "revokedAt",
          "type": "uint256"
        }
      ],
      "name": "CertificateRevoked",
      "type": "event"
    },
    {
      "anonymous": false,
      "inputs": [
        {
          "indexed": true,
          "internalType": "uint256",
          "name": "certificateTypeId",
          "type": "uint256"
        },
        {
          "indexed": false,
          "internalType": "string",
          "name": "name",
          "type": "string"
        },
        {
          "indexed": false,
          "internalType": "string",
          "name": "description",
          "type": "string"
        },
        {
          "indexed": false,
          "internalType": "uint256",
          "name": "createdAt",
          "type": "uint256"
        }
      ],
      "name": "CertificateTypeCreated",
      "type": "event"
    },
    {
      "anonymous": false,
      "inputs": [
        {
          "indexed": true,
          "internalType": "uint256",
          "name": "tokenId",
          "type": "uint256"
        },
        {
          "indexed": true,
          "internalType": "address",
          "name": "verifier",
          "type": "address"
        },
        {
          "indexed": false,
          "internalType": "uint256",
          "name": "verifiedAt",
          "type": "uint256"
        }
      ],
      "name": "CertificateVerified",
      "type": "event"
    },
    {
      "anonymous": false,
      "inputs": [
        {
          "indexed": true,
          "internalType": "address",
          "name": "issuer",
          "type": "address"
        },
        {
          "indexed": false,
          "internalType": "uint256[]",
          "name": "certificateTypeIds",
          "type": "uint256[]"
        }
      ],
      "name": "IssuerAuthorized",
      "type": "event"
    },
    {
      "anonymous": false,
      "inputs": [
        {
          "indexed": true,
          "internalType": "address",
          "name": "issuer",
          "type": "address"
        }
      ],
      "name": "IssuerRevoked",
      "type": "event"
    },
    {
      "anonymous": false,
      "inputs": [
        {
          "indexed": true,
          "internalType": "address",
          "name": "previousOwner",
          "type": "address"
        },
        {
          "indexed": true,
          "internalType": "address",
          "name": "newOwner",
          "type": "address"
        }
      ],
      "name": "OwnershipTransferred",
      "type": "event"
    },
    {
      "anonymous": false,
      "inputs": [
        {
          "indexed": true,
          "internalType": "address",
          "name": "operator",
          "type": "address"
        },
        {
          "indexed": true,
          "internalType": "address",
          "name": "from",
          "type": "address"
        },
        {
          "indexed": true,
          "internalType": "address",
          "name": "to",
          "type": "address"
        },
        {
          "indexed": false,
          "internalType": "uint256[]",
          "name": "ids",
          "type": "uint256[]"
        },
        {
          "indexed": false,
          "internalType": "uint256[]",
          "name": "values",
          "type": "uint256[]"
        }
      ],
      "name": "TransferBatch",
      "type": "event"
    },
    {
      "anonymous": false,
      "inputs": [
        {
          "indexed": true,
          "internalType": "address",
          "name": "operator",
          "type": "address"
        },
        {
          "indexed": true,
          "internalType": "address",
          "name": "from",
          "type": "address"
        },
        {
          "indexed": true,
          "internalType": "address",
          "name": "to",
          "type": "address"
        },
        {
          "indexed": false,
          "internalType": "uint256",
          "name": "id",
          "type": "uint256"
        },
        {
          "indexed": false,
          "internalType": "uint256",
          "name": "value",
          "type": "uint256"
        }
      ],
      "name": "TransferSingle",
      "type": "event"
    },
    {
      "anonymous": false,
      "inputs": [
        {
          "indexed": false,
          "internalType": "string",
          "name": "value",
          "type": "string"
        },
        {
          "indexed": true,
          "internalType": "uint256",
          "name": "id",
          "type": "uint256"
        }
      ],
      "name": "URI",
      "type": "event"
    },
    {
      "inputs": [
        {
          "internalType": "address",
          "name": "issuer",
          "type": "address"
        },
        {
          "internalType": "uint256[]",
          "name": "certificateTypeIds",
          "type": "uint256[]"
        }
      ],
      "name": "authorizeIssuer",
      "outputs": [],
      "stateMutability": "nonpayable",
      "type": "function"
    },
    {
      "inputs": [
        {
          "internalType": "address",
          "name": "verifier",
          "type": "address"
        }
      ],
      "name": "authorizeVerifier",
      "outputs": [],
      "stateMutability": "nonpayable",
      "type": "function"
    },
    {
      "inputs": [
        {
          "internalType": "address",
          "name": "account",
          "type": "address"
        },
        {
          "internalType": "uint256",
          "name": "id",
          "type": "uint256"
        }
      ],
      "name": "balanceOf",
      "outputs": [
        {
          "internalType": "uint256",
          "name": "",
          "type": "uint256"
        }
      ],
      "stateMutability": "view",
      "type": "function"
    },
    {
      "inputs": [
        {
          "internalType": "address[]",
          "name": "accounts",
          "type": "address[]"
        },
        {
          "internalType": "uint256[]",
          "name": "ids",
          "type": "uint256[]"
        }
      ],
      "name": "balanceOfBatch",
      "outputs": [
        {
          "internalType": "uint256[]",
          "name": "",
          "type": "uint256[]"
        }
      ],
      "stateMutability": "view",
      "type": "function"
    },
    {
      "inputs": [
        {
          "internalType": "address",
          "name": "issuer",
          "type": "address"
        },
        {
          "internalType": "uint256",
          "name": "certificateTypeId",
          "type": "uint256"
        }
      ],
      "name": "canIssuer",
      "outputs": [
        {
          "internalType": "bool",
          "name": "",
          "type": "bool"
        }
      ],
      "stateMutability": "view",
      "type": "function"
    },
    {
      "inputs": [
        {
          "internalType": "string",
          "name": "name",
          "type": "string"
        },
        {
          "internalType": "string",
          "name": "description",
          "type": "string"
        },
        {
          "internalType": "string",
          "name": "metadataURI",
          "type": "string"
        }
      ],
      "name": "createCertificateType",
      "outputs": [
        {
          "internalType": "uint256",
          "name": "",
          "type": "uint256"
        }
      ],
      "stateMutability": "nonpayable",
      "type": "function"
    },
    {
      "inputs": [
        {
          "internalType": "uint256",
          "name": "tokenId",
          "type": "uint256"
        }
      ],
      "name": "getCertificateDetails",
      "outputs": [
        {
          "internalType": "address",
          "name": "student",
          "type": "address"
        },
        {
          "internalType": "uint256",
          "name": "certificateTypeId",
          "type": "uint256"
        },
        {
          "internalType": "uint256",
          "name": "issuedAt",
          "type": "uint256"
        },
        {
          "internalType": "uint256",
          "name": "expiryDate",
          "type": "uint256"
        },
        {
          "internalType": "bool",
          "name": "isRevoked",
          "type": "bool"
        },
        {
          "internalType": "bool",
          "name": "isVerified",
          "type": "bool"
        },
        {
          "internalType": "string",
          "name": "metadataURI",
          "type": "string"
        }
      ],
      "stateMutability": "view",
      "type": "function"
    },
    {
      "inputs": [
        {
          "internalType": "uint256",
          "name": "certificateTypeId",
          "type": "uint256"
        }
      ],
      "name": "getCertificateType",
      "outputs": [
        {
          "internalType": "string",
          "name": "name",
          "type": "string"
        },
        {
          "internalType": "string",
          "name": "description",
          "type": "string"
        },
        {
          "internalType": "string",
          "name": "metadataURI",
          "type": "string"
        },
        {
          "internalType": "uint256",
          "name": "createdAt",
          "type": "uint256"
        },
        {
          "internalType": "uint256",
          "name": "totalIssued",
          "type": "uint256"
        }
      ],
      "stateMutability": "view",
      "type": "function"
    },
    {
      "inputs": [
        {
          "internalType": "address",
          "name": "student",
          "type": "address"
        }
      ],
      "name": "getStudentCertificates",
      "outputs": [
        {
          "internalType": "uint256[]",
          "name": "",
          "type": "uint256[]"
        }
      ],
      "stateMutability": "view",
      "type": "function"
    },
    {
      "inputs": [
        {
          "internalType": "address",
          "name": "student",
          "type": "address"
        },
        {
          "internalType": "uint256",
          "name": "certificateTypeId",
          "type": "uint256"
        }
      ],
      "name": "getStudentCertificatesByType",
      "outputs": [
        {
          "internalType": "uint256[]",
          "name": "",
          "type": "uint256[]"
        }
      ],
      "stateMutability": "view",
      "type": "function"
    },
    {
      "inputs": [],
      "name": "getTotalActiveCertificates",
      "outputs": [
        {
          "internalType": "uint256",
          "name": "",
          "type": "uint256"
        }
      ],
      "stateMutability": "view",
      "type": "function"
    },
    {
      "inputs": [],
      "name": "getTotalCertificateTypes",
      "outputs": [
        {
          "internalType": "uint256",
          "name": "",
          "type": "uint256"
        }
      ],
      "stateMutability": "view",
      "type": "function"
    },
    {
      "inputs": [],
      "name": "getTotalCertificatesIssued",
      "outputs": [
        {
          "internalType": "uint256",
          "name": "",
          "type": "uint256"
        }
      ],
      "stateMutability": "view",
      "type": "function"
    },
    {
      "inputs": [],
      "name": "getTotalRevokedCertificates",
      "outputs": [
        {
          "internalType": "uint256",
          "name": "",
          "type": "uint256"
        }
      ],
      "stateMutability": "view",
      "type": "function"
    },
    {
      "inputs": [],
      "name": "getTotalVerifiedCertificates",
      "outputs": [
        {
          "internalType": "uint256",
          "name": "",
          "type": "uint256"
        }
      ],
      "stateMutability": "view",
      "type": "function"
    },
    {
      "inputs": [
        {
          "internalType": "address",
          "name": "account",
          "type": "address"
        },
        {
          "internalType": "address",
          "name": "operator",
          "type": "address"
        }
      ],
      "name": "isApprovedForAll",
      "outputs": [
        {
          "internalType": "bool",
          "name": "",
          "type": "bool"
        }
      ],
      "stateMutability": "view",
      "type": "function"
    },
    {
      "inputs": [
        {
          "internalType": "address",
          "name": "issuer",
          "type": "address"
        }
      ],
      "name": "isAuthorizedIssuer",
      "outputs": [
        {
          "internalType": "bool",
          "name": "",
          "type": "bool"
        }
      ],
      "stateMutability": "view",
      "type": "function"
    },
    {
      "inputs": [
        {
          "internalType": "address",
          "name": "verifier",
          "type": "address"
        }
      ],
      "name": "isAuthorizedVerifier",
      "outputs": [
        {
          "internalType": "bool",
          "name": "",
          "type": "bool"
        }
      ],
      "stateMutability": "view",
      "type": "function"
    },
    {
      "inputs": [
        {
          "internalType": "uint256",
          "name": "tokenId",
          "type": "uint256"
        }
      ],
      "name": "isCertificateExpired",
      "outputs": [
        {
          "internalType": "bool",
          "name": "",
          "type": "bool"
        }
      ],
      "stateMutability": "view",
      "type": "function"
    },
    {
      "inputs": [
        {
          "internalType": "uint256",
          "name": "tokenId",
          "type": "uint256"
        }
      ],
      "name": "isCertificateValid",
      "outputs": [
        {
          "internalType": "bool",
          "name": "",
          "type": "bool"
        }
      ],
      "stateMutability": "view",
      "type": "function"
    },
    {
      "inputs": [
        {
          "internalType": "address",
          "name": "student",
          "type": "address"
        },
        {
          "internalType": "uint256",
          "name": "certificateTypeId",
          "type": "uint256"
        },
        {
          "internalType": "string",
          "name": "metadataURI",
          "type": "string"
        },
        {
          "internalType": "uint256",
          "name": "expiryDate",
          "type": "uint256"
        }
      ],
      "name": "issueCertificate",
      "outputs": [
        {
          "internalType": "uint256",
          "name": "",
          "type": "uint256"
        }
      ],
      "stateMutability": "nonpayable",
      "type": "function"
    },
    {
      "inputs": [],
      "name": "owner",
      "outputs": [
        {
          "internalType": "address",
          "name": "",
          "type": "address"
        }
      ],
      "stateMutability": "view",
      "type": "function"
    },
    {
      "inputs": [],
      "name": "renounceOwnership",
      "outputs": [],
      "stateMutability": "nonpayable",
      "type": "function"
    },
    {
      "inputs": [
        {
          "internalType": "uint256",
          "name": "tokenId",
          "type": "uint256"
        },
        {
          "internalType": "string",
          "name": "reason",
          "type": "string"
        }
      ],
      "name": "revokeCertificate",
      "outputs": [],
      "stateMutability": "nonpayable",
      "type": "function"
    },
    {
      "inputs": [
        {
          "internalType": "address",
          "name": "issuer",
          "type": "address"
        }
      ],
      "name": "revokeIssuer",
      "outputs": [],
      "stateMutability": "nonpayable",
      "type": "function"
    },
    {
      "inputs": [
        {
          "internalType": "address",
          "name": "verifier",
          "type": "address"
        }
      ],
      "name": "revokeVerifier",
      "outputs": [],
      "stateMutability": "nonpayable",
      "type": "function"
    },
    {
      "inputs": [
        {
          "internalType": "address",
          "name": "from",
          "type": "address"
        },
        {
          "internalType": "address",
          "name": "to",
          "type": "address"
        },
        {
          "internalType": "uint256[]",
          "name": "ids",
          "type": "uint256[]"
        },
        {
          "internalType": "uint256[]",
          "name": "values",
          "type": "uint256[]"
        },
        {
          "internalType": "bytes",
          "name": "data",
          "type": "bytes"
        }
      ],
      "name": "safeBatchTransferFrom",
      "outputs": [],
      "stateMutability": "nonpayable",
      "type": "function"
    },
    {
      "inputs": [
        {
          "internalType": "address",
          "name": "from",
          "type": "address"
        },
        {
          "internalType": "address",
          "name": "to",
          "type": "address"
        },
        {
          "internalType": "uint256",
          "name": "id",
          "type": "uint256"
        },
        {
          "internalType": "uint256",
          "name": "value",
          "type": "uint256"
        },
        {
          "internalType": "bytes",
          "name": "data",
          "type": "bytes"
        }
      ],
      "name": "safeTransferFrom",
      "outputs": [],
      "stateMutability": "nonpayable",
      "type": "function"
    },
    {
      "inputs": [
        {
          "internalType": "address",
          "name": "operator",
          "type": "address"
        },
        {
          "internalType": "bool",
          "name": "approved",
          "type": "bool"
        }
      ],
      "name": "setApprovalForAll",
      "outputs": [],
      "stateMutability": "nonpayable",
      "type": "function"
    },
    {
      "inputs": [
        {
          "internalType": "bytes4",
          "name": "interfaceId",
          "type": "bytes4"
        }
      ],
      "name": "supportsInterface",
      "outputs": [
        {
          "internalType": "bool",
          "name": "",
          "type": "bool"
        }
      ],
      "stateMutability": "view",
      "type": "function"
    },
    {
      "inputs": [
        {
          "internalType": "address",
          "name": "newOwner",
          "type": "address"
        }
      ],
      "name": "transferOwnership",
      "outputs": [],
      "stateMutability": "nonpayable",
      "type": "function"
    },
    {
      "inputs": [
        {
          "internalType": "uint256",
          "name": "tokenId",
          "type": "uint256"
        }
      ],
      "name": "uri",
      "outputs": [
        {
          "internalType": "string",
          "name": "",
          "type": "string"
        }
      ],
      "stateMutability": "view",
      "type": "function"
    },
    {
      "inputs": [
        {
          "internalType": "uint256",
          "name": "tokenId",
          "type": "uint256"
        }
      ],
      "name": "verifyCertificate",
      "outputs": [],
      "stateMutability": "nonpayable",
      "type": "function"
    }
  ],
  "transactionHash": "0x6123a3c4605ceb726a2da8bf3926baf408bb4ce79fdda3e4201d2cffcecd394e",
  "args": [],
  "numDeployments": 1,
  "solcInputHash": "782ed71a46599434850725dbb2263dc0",
  "bytecode": "0x608034620001805760408101906001600160401b038211818310176200016a57602091604052600781520166697066733a2f2f60c81b81526002546001918282811c921680156200015f575b60208310146200014957601f821162000116575b516001600160c81b031916600e17600255503315620000fd5760038054336001600160a01b0319821681179092556040519291906001600160a01b03167f8be0079c531659141344cd1fd0a4f28419497f9722a3daafe3b4186f6b6457e0600080a380600455806005556000600c556000600d556000600e5533600052600a60205260406000209060ff19825416179055612e249081620001868239f35b604051631e4fbdf760e01b815260006004820152602490fd5b600260005282601f6020600020930160051c8301925b8381106200013c5750506200005f565b600081550183906200012c565b634e487b7160e01b600052602260045260246000fd5b91607f16916200004b565b634e487b7160e01b600052604160045260246000fd5b600080fdfe6080604052600436101561001257600080fd5b60003560e01c806262967914610225578062fdd58e1461022057806301ffc9a71461021b5780630e89341c146102165780631121ee6414610211578063151668931461020c5780631692a9421461020757806320ad8cab146102025780632b8e1e20146101fd5780632eb2c2d6146101f857806331ba1966146101f35780634e1273f4146101ee578063510d40df146101e95780636cacbf30146101e4578063715018a6146101df578063738f81e2146101da57806384a3ae45146101d5578063878b4912146101d05780638da5cb5b146101cb578063a22cb465146101c6578063a5ce413a146101c1578063a901fe5e146101bc578063b1466d1d146101b7578063bd02a235146101b2578063c22134e9146101ad578063c7e5eb73146101a8578063c852cada146101a3578063dff2293a1461019e578063e985e9c514610199578063ebc63bc014610194578063f242432a1461018f578063f2fde38b1461018a5763fdb5f9df1461018557600080fd5b6118c6565b611838565b61171b565b611695565b611638565b611592565b61152d565b611502565b611417565b6113ca565b61122c565b611132565b6110b6565b610ffa565b610fd1565b610fb3565b610f95565b610f65565b610f04565b610ec5565b610d33565b610c4c565b610c0d565b610ae7565b610842565b6107aa565b6106fd565b6106cc565b610502565b61049e565b6103f0565b610391565b61026f565b600435906001600160a01b038216820361024057565b600080fd5b602435906001600160a01b038216820361024057565b35906001600160a01b038216820361024057565b346102405760203660031901126102405761028861022a565b610290612739565b6001600160a01b0381166102a5811515611901565b600091818352600960205260ff60408420541615610336576001610309826102ef6102e561030f9560018060a01b03166000526009602052604060002090565b805460ff19169055565b6001600160a01b0316600090815260096020526040902090565b0161198e565b7f95a4c2ae425bb769549aa1a911911ff57c17ae811ae8c8962d0b9746fcb153978280a280f35b60405162461bcd60e51b815260206004820152602d60248201527f43657274696669636174696f6e53797374656d3a204e6f7420616e206175746860448201526c37b934bd32b21034b9b9bab2b960991b6064820152608490fd5b346102405760403660031901126102405760206103d56103af61022a565b6024356000526000835260406000209060018060a01b0316600052602052604060002090565b54604051908152f35b6001600160e01b031981160361024057565b3461024057602036600319011261024057602060043561040f816103de565b63ffffffff60e01b16636cdb3d1360e11b811490811561044d575b811561043c575b506040519015158152f35b6301ffc9a760e01b14905038610431565b6303a24d0760e21b8114915061042a565b919082519283825260005b84811061048a575050826000602080949584010152601f8019910116010190565b602081830181015184830182015201610469565b3461024057602036600319011261024057600435801515806104f7575b6104c4906119b2565b60005260076020526104f36104df6005604060002001611a50565b60405191829160208352602083019061045e565b0390f35b5060055481106104bb565b346102405760403660031901126102405761051b61022a565b6024356001600160401b038082116102405736602383011215610240578160040135908111610240576024820191602436918360051b01011161024057610560612739565b6001600160a01b03831691610576831515611901565b8115610661576001600160a01b03841660009081526009602052604090206105a590805460ff19166001179055565b60016105c4819560018060a01b03166000526009602052604060002090565b01600160401b831161065c57805483825580841061063e575b508190600052602090602060002060005b85811061062d57867fe0ec0823b071a80ec15db13c27aa17b47852f0c9ac8bae448fb3a505827117c0878761062860405192839283611af3565b0390a2005b8235828201559183019187016105ee565b61065690826000528460206000209182019101611977565b386105dd565b61097a565b60405162461bcd60e51b815260206004820152603f60248201527f43657274696669636174696f6e53797374656d3a204d7573742073706563696660448201527f79206174206c65617374206f6e652063657274696669636174652074797065006064820152608490fd5b346102405760403660031901126102405760206106f36106ea61022a565b60243590611b9c565b6040519015158152f35b346102405760203660031901126102405733600052600a60205260ff604060002054168015610796575b1561073957610737600435611c15565b005b60405162461bcd60e51b815260206004820152602f60248201527f43657274696669636174696f6e53797374656d3a204e6f7420617574686f726960448201526e3d32b21030b9903b32b934b334b2b960891b6064820152608490fd5b506003546001600160a01b03163314610727565b34610240576020366003190112610240576107c361022a565b6107cb612739565b6001600160a01b03166107df811515611d96565b6000908152600a60205260409020805460ff19166001179055005b90815180825260208080930193019160005b82811061081a575050505090565b83518552938101939281019260010161080c565b90602061083f9281815201906107fa565b90565b346102405760403660031901126102405761085b61022a565b6108aa6108a5602435928315158061096f575b61087790611df8565b61088b6001600160a01b0382161515611e61565b6001600160a01b0316600090815260086020526040902090565b611b1c565b906000805b83518110156108fd578260016108d96108c88488611b83565b516000526007602052604060002090565b0154146108e9575b6001016108af565b906108f5600191611d87565b9190506108e1565b5061090790611eb9565b9160009060005b8151811015610961578360016109276108c88486611b83565b015414610937575b60010161090e565b916109596001916109488585611b83565b516109538289611b83565b52611d87565b92905061092f565b604051806104f3878261082e565b50600454841061086e565b634e487b7160e01b600052604160045260246000fd5b60e081019081106001600160401b0382111761065c57604052565b60a081019081106001600160401b0382111761065c57604052565b90601f801991011681019081106001600160401b0382111761065c57604052565b604051906109f4826109ab565b565b604051906109f482610990565b6001600160401b03811161065c5760051b60200190565b9080601f83011215610240576020908235610a3481610a03565b93610a4260405195866109c6565b81855260208086019260051b82010192831161024057602001905b828210610a6b575050505090565b81358152908301908301610a5d565b6001600160401b03811161065c57601f01601f191660200190565b929192610aa182610a7a565b91610aaf60405193846109c6565b829481845281830111610240578281602093846000960137010152565b9080601f830112156102405781602061083f93359101610a95565b346102405760a036600319011261024057610b0061022a565b610b08610245565b90604435916001600160401b039081841161024057610b2c60049436908601610a1a565b9060643583811161024057610b449036908701610a1a565b9260843590811161024057610b5c9036908701610acc565b936001600160a01b03808216903382141580610be9575b610bbc57831615610ba45715610b8d5761073795506128c4565b604051626a0d4560e21b8152600081880152602490fd5b604051632bfa23e760e11b8152600081890152602490fd5b6040805163711bec9160e11b815233818b019081526001600160a01b038616602082015290918291010390fd5b50600082815260016020908152604080832033845290915290205460ff1615610b73565b34610240576020366003190112610240576001600160a01b03610c2e61022a565b166000526009602052602060ff604060002054166040519015158152f35b34610240576040366003190112610240576004356001600160401b038082116102405736602383011215610240578160040135610c8881610a03565b92610c9660405194856109c6565b8184526020916024602086019160051b8301019136831161024057602401905b828210610cef5785602435868111610240576104f391610cdd610ce3923690600401610a1a565b90611eeb565b6040519182918261082e565b838091610cfb8461025b565b815201910190610cb6565b9181601f84011215610240578235916001600160401b038311610240576020838186019501011161024057565b346102405760603660031901126102405760046001600160401b03813581811161024057610d649036908401610d06565b60249291923582811161024057610d7e9036908601610d06565b93909260443590811161024057610d989036908701610d06565b610da3959195612739565b8315610e7657610e2a95949282610e55610e63936104f39a610de87f90a70be9f2c7b8a56c164df03b068749552f96af31a52335f167cede1e6c2b3299971515611f88565b54998a99610dfd610df88c611d87565b600455565b610e056109e7565b92610e11368a89610a95565b8452610e1e36878c610a95565b60208501523691610a95565b604082015242606082015260006080820152610e50896000526006602052604060002090565b612100565b60405194859442938661222c565b0390a26040519081529081906020820190565b60405162461bcd60e51b8152602081890152602260248201527f43657274696669636174696f6e53797374656d3a204e616d6520726571756972604482015261195960f21b6064820152608490fd5b34610240576020366003190112610240576001600160a01b03610ee661022a565b16600052600a602052602060ff604060002054166040519015158152f35b3461024057600080600319360112610f6257610f1e612739565b600380546001600160a01b0319811690915581906001600160a01b03167f8be0079c531659141344cd1fd0a4f28419497f9722a3daafe3b4186f6b6457e08280a380f35b80fd5b3461024057600036600319011261024057600c54600d548103908111610f9057602090604051908152f35b611961565b34610240576000366003190112610240576020600c54604051908152f35b34610240576000366003190112610240576020600d54604051908152f35b34610240576000366003190112610240576003546040516001600160a01b039091168152602090f35b346102405760403660031901126102405761101361022a565b6024359081151590818303610240576001600160a01b03811692831561109e5761105f6110709233600052600160205260406000209060018060a01b0316600052602052604060002090565b9060ff801983541691151516179055565b6040519081527f17307eab39ab6107e8899845ad3d59bd9653f200f220920489ca2b5937696c3160203392a3005b60405162ced3e160e81b815260006004820152602490fd5b346102405760203660031901126102405760206106f3600435801515806110e6575b6110e1906119b2565b61225b565b5060055481106110d8565b93909260e0959261083f98979460018060a01b0316865260208601526040850152606084015215156080830152151560a08201528160c0820152019061045e565b346102405760203660031901126102405760043580151580611221575b611158906119b2565b6000526007602052604060002060405161117181610990565b60018060a01b0382541681526104f360018301549160208101928352600284015493604082019485526003810154906060830191825260048101549061121461120d6112006111eb600560808901956111cf60ff8916889015159052565b6111e560ff60a08c019960081c16899015159052565b01611a50565b60c0880181905296516001600160a01b031690565b9751985194519251151590565b9251151590565b92604051978897886110f1565b50600554811061114f565b3461024057604036600319011261024057600480356024356001600160401b0381116102405761125f9036908401610d06565b611267612739565b821515806113bf575b611279906119b2565b82600052600760205261129660ff85604060002001541615611d27565b801561136f57836112e584956112d77f9f1859cbcd7e1f2bbe8e8bfefbd222bcf1084268443bb375cfaefc48540b96c1966000526007602052604060002090565b01805460ff19166001179055565b6112f86112f3600d54611d87565b600d55565b61131b81611310876000526007602052604060002090565b015460081c60ff1690565b611332575b5061062860405192839242918461231b565b61136990611349611344600e5461230e565b600e55565b61135d866000526007602052604060002090565b01805461ff0019169055565b38611320565b60405162461bcd60e51b81526020818601526024808201527f43657274696669636174696f6e53797374656d3a20526561736f6e20726571756044820152631a5c995960e21b6064820152608490fd5b506005548310611270565b34610240576020366003190112610240576113e361022a565b6113eb612739565b6001600160a01b03166113ff811515611d96565b6000908152600a60205260409020805460ff19169055005b346102405760803660031901126102405761143061022a565b6044356001600160401b0381116102405761144f903690600401610d06565b9133600052600960205260ff6040600020541680156114ee575b15611493576104f392611483926064359260243590612333565b6040519081529081906020820190565b60405162461bcd60e51b815260206004820152602d60248201527f43657274696669636174696f6e53797374656d3a204e6f7420617574686f726960448201526c3d32b21030b99034b9b9bab2b960991b6064820152608490fd5b506003546001600160a01b03163314611469565b34610240576000366003190112610240576004546000198101908111610f9057602090604051908152f35b34610240576000366003190112610240576020600e54604051908152f35b919261157a60809461156c611588949998979960a0875260a087019061045e565b90858203602087015261045e565b90838203604085015261045e565b9460608201520152565b34610240576020366003190112610240576004358015158061162d575b6115b890611df8565b600052600660205260406000206040516115d1816109ab565b6115da82611a50565b81526104f36115eb60018401611a50565b91602081019283526115ff60028501611a50565b938460408301526004600382015491826060850152015491826080820152519351946040519586958661154b565b5060045481106115af565b3461024057604036600319011261024057602060ff61168961165861022a565b611660610245565b6001600160a01b0391821660009081526001865260408082209290931681526020919091522090565b54166040519015158152f35b3461024057602080600319360112610240576001600160a01b036116b761022a565b166116c3811515611e61565b60005260086020526040600020906040519081602084549182815201936000526020600020916000905b828210611704576104f385610ce3818903826109c6565b8354865294850194600193840193909101906116ed565b346102405760a03660031901126102405761173461022a565b61173c610245565b6084356001600160401b0381116102405761175b903690600401610acc565b906001600160a01b03838116903382141580611814575b6117ed578216156117d457156117bc57610737926117b46064356044359160405192600184526020840152604083019160018352606084015260808301604052565b9290916128c4565b604051626a0d4560e21b815260006004820152602490fd5b604051632bfa23e760e11b815260006004820152602490fd5b60405163711bec9160e11b81523360048201526001600160a01b0386166024820152604490fd5b50600082815260016020908152604080832033845290915290205460ff1615611772565b346102405760203660031901126102405761185161022a565b611859612739565b6001600160a01b039081169081156118ad57600354826bffffffffffffffffffffffff60a01b821617600355167f8be0079c531659141344cd1fd0a4f28419497f9722a3daafe3b4186f6b6457e0600080a3005b604051631e4fbdf760e01b815260006004820152602490fd5b346102405760203660031901126102405760206106f3600435801515806118f6575b6118f1906119b2565b6126c2565b5060055481106118e8565b1561190857565b60405162461bcd60e51b815260206004820152602b60248201527f43657274696669636174696f6e53797374656d3a20496e76616c69642069737360448201526a756572206164647265737360a81b6064820152608490fd5b634e487b7160e01b600052601160045260246000fd5b818110611982575050565b60008155600101611977565b8054600082558061199d575050565b6109f491600052602060002090810190611977565b156119b957565b60405162461bcd60e51b815260206004820152602f60248201527f43657274696669636174696f6e53797374656d3a20436572746966696361746560448201526e08191bd95cc81b9bdd08195e1a5cdd608a1b6064820152608490fd5b90600182811c92168015611a46575b6020831014611a3057565b634e487b7160e01b600052602260045260246000fd5b91607f1691611a25565b90604051918260008254611a6381611a16565b90818452602094600191600181169081600014611ad15750600114611a92575b5050506109f4925003836109c6565b600090815285812095935091905b818310611ab95750506109f49350820101388080611a83565b85548884018501529485019487945091830191611aa0565b925050506109f494925060ff191682840152151560051b820101388080611a83565b602080825281018390526001600160fb1b0383116102405760409260051b809284830137010190565b90604051918281549182825260209260208301916000526020600020936000905b828210611b53575050506109f4925003836109c6565b855484526001958601958895509381019390910190611b3d565b634e487b7160e01b600052603260045260246000fd5b8051821015611b975760209160051b010190565b611b6d565b6001600160a01b03166000908152600960205260409020805460ff1615611c0e57600191611bcc83849301611b1c565b6000925b611bde575b50505050600090565b8051831015611c09578282611bf4869584611b83565b5114611c0257830192611bd0565b5050505090565b611bd5565b5050600090565b80151580611d1c575b611c27906119b2565b806000526007602052611c4560ff6004604060002001541615611d27565b80600052600760205260ff60046040600020015460081c16611cc957611c8a6004611c7a836000526007602052604060002090565b01805461ff001916610100179055565b611c98611344600e54611d87565b6040514281523391907f135f716014ca1acad4a0e207f25d49bcec6727f2bb48881aaa98f7705e1bacdf90602090a3565b60405162461bcd60e51b815260206004820152602560248201527f43657274696669636174696f6e53797374656d3a20416c7265616479207665726044820152641a599a595960da1b6064820152608490fd5b506005548110611c1e565b15611d2e57565b60405162461bcd60e51b815260206004820152602b60248201527f43657274696669636174696f6e53797374656d3a20436572746966696361746560448201526a081a5cc81c995d9bdad95960aa1b6064820152608490fd5b6000198114610f905760010190565b15611d9d57565b60405162461bcd60e51b815260206004820152602d60248201527f43657274696669636174696f6e53797374656d3a20496e76616c69642076657260448201526c6966696572206164647265737360981b6064820152608490fd5b15611dff57565b60405162461bcd60e51b815260206004820152603460248201527f43657274696669636174696f6e53797374656d3a204365727469666963617465604482015273081d1e5c1948191bd95cc81b9bdd08195e1a5cdd60621b6064820152608490fd5b15611e6857565b60405162461bcd60e51b8152602060048201526024808201527f43657274696669636174696f6e53797374656d3a20496e76616c6964206164646044820152637265737360e01b6064820152608490fd5b90611ec382610a03565b611ed060405191826109c6565b8281528092611ee1601f1991610a03565b0190602036910137565b91909180518351808203611f66575050611f058151611eb9565b9060009060005b8151811015611f5e5780611f4c60019260051b85602080808489010151938c010151825252604086209060018060a01b0316600052602052604060002090565b54611f578287611b83565b5201611f0c565b509193505050565b604051635b05999160e01b815260048101919091526024810191909152604490fd5b15611f8f57565b60405162461bcd60e51b815260206004820152602960248201527f43657274696669636174696f6e53797374656d3a204465736372697074696f6e604482015268081c995c5d5a5c995960ba1b6064820152608490fd5b9190601f8111611ff557505050565b6109f4926000526020600020906020601f840160051c83019310612021575b601f0160051c0190611977565b9091508190612014565b91909182516001600160401b03811161065c576120528161204c8454611a16565b84611fe6565b602080601f83116001146120955750819061208693949560009261208a575b50508160011b916000199060031b1c19161790565b9055565b015190503880612071565b90601f198316956120ab85600052602060002090565b926000905b8882106120e8575050836001959697106120cf575b505050811b019055565b015160001960f88460031b161c191690553880806120c5565b806001859682949686015181550195019301906120b0565b9080518051906001600160401b03821161065c57612128826121228654611a16565b86611fe6565b602090816001601f851114612196575082608093600495936121609360009261208a5750508160011b916000199060031b1c19161790565b84555b61217460208201516001860161202b565b61218560408201516002860161202b565b606081015160038501550151910155565b9190601f1984166121ac87600052602060002090565b936000905b8282106121f357505092600192859260809660049896106121da575b505050811b018455612163565b015160001960f88460031b161c191690553880806121cd565b806001869782949787015181550196019401906121b1565b908060209392818452848401376000828201840152601f01601f1916010190565b959493612248604094926122569460608a5260608a019161220b565b91878303602089015261220b565b930152565b600052600760205260406000206122e06040519161227883610990565b60018060a01b03815416835260018101546020840152600281015460408401526003810154926060810193845260c06122d760056004850154946111e560ff60808701976122ca8282168a9015159052565b60081c16151560a0870152565b91015251151590565b612308575180151590816122fe575b506122f957600190565b600090565b90504211386122ef565b50600090565b8015610f90576000190190565b9392916020916122569160408752604087019161220b565b94939091929482151580612523575b61234b90611df8565b6001600160a01b0381169161236183151561252e565b6005549461237661237187611d87565b600555565b6003546001600160a01b03163303612493575b6124109261088b879899936123ed61240b948a966123b26123ab368385610a95565b8988612765565b6123ba6109f6565b6001600160a01b0387168152938b6020860152426040860152606085015260006080850152600060a08501523691610a95565b60c0820152612406856000526007602052604060002090565b61260c565b612699565b6004612426836000526006602052604060002090565b016124318154611d87565b9055612446612441600c54611d87565b600c55565b3360009081526009602052604090206002016124628154611d87565b90556040514281527fa7f20e1fdd1d3a6d5def3b4155890ce40cd0c953ad8abb7d8f185c845f4ef73790602090a490565b33600090815260096020526040812060019991906124b2908b01611b1c565b60008b5b6124eb575b50508798995087936123ed61240b9461241097946124db61088b9561258f565b9c9b509450509350509250612389565b815181101561251e57886124ff8284611b83565b511461250d578b018b6124b6565b5098998a99509050836123ed6124bb565b6124bb565b506004548310612342565b1561253557565b60405162461bcd60e51b815260206004820152602c60248201527f43657274696669636174696f6e53797374656d3a20496e76616c69642073747560448201526b64656e74206164647265737360a01b6064820152608490fd5b1561259657565b60405162461bcd60e51b815260206004820152604260248201527f43657274696669636174696f6e53797374656d3a204e6f7420617574686f726960448201527f7a656420746f2069737375652074686973206365727469666963617465207479606482015261706560f01b608482015260a490fd5b600560c06109f49360018060a01b038151166bffffffffffffffffffffffff60a01b8554161784556020810151600185015560408101516002850155606081015160038501556126906004850161267560808401511515829060ff801983541691151516179055565b60a0830151815461ff00191690151560081b61ff0016179055565b0151910161202b565b805490600160401b82101561065c5760018201808255821015611b975760005260206000200155565b600052600760205260406000206040516126db81610990565b60018060a01b038254168152600182015460208201526002820154604082015260c061272a6005600385015494606085019586526111e560ff60048301546122ca82821660808a019015159052565b91015251801561230857421190565b6003546001600160a01b0316330361274d57565b60405163118cdaa760e01b8152336004820152602490fd5b6001600160a01b038116929183156117d4576127a0604051916001835260208301526040820190600182526001606084015260808301604052565b928151845190818103611f6657505060005b8251811015612811578060019160051b612809612801876127ea602080868b010151958c010151946000526000602052604060002090565b9060018060a01b0316600052602052604060002090565b918254612abd565b9055016127b2565b5092919360018251146000146128885760208281015184820151604080519283529282015260009133917fc3d58168c5ae7397731d063d5bbf3d657854427343f4c083240f7aacaa2d0f629190a45b805160010361287e57906020806109f4959301519101519133612dab565b6109f49333612bb1565b60006040517f4a39dc06d4c0dbc64b70af90fd698a233a518aa5d07e595d983b8c0526c8f7fb3391806128bc888883612aca565b0390a4612860565b949190918151845190818103611f6657505060005b82518110156129c757600581901b83810160209081015191870101516001600160a01b03929186908a8516612941575b600194821661291c575b505050016128d9565b612937916127ea612801926000526000602052604060002090565b9055388581612913565b919293905061295e8a6127ea846000526000602052604060002090565b5483811061299057918791846001969594036129888d6127ea856000526000602052604060002090565b559450612909565b6040516303dee4c560e01b81526001600160a01b038c16600482015260248101919091526044810184905260648101839052608490fd5b509491939290936001855114600014612a72576020858101518382015160408051928352928201526001600160a01b03838116929086169133917fc3d58168c5ae7397731d063d5bbf3d657854427343f4c083240f7aacaa2d0f6291a45b6001600160a01b038116612a3b575b5050505050565b8451600103612a6157602080612a579601519201519233612de0565b3880808080612a34565b612a6d94919233612cac565b612a57565b6040516001600160a01b03828116919085169033907f4a39dc06d4c0dbc64b70af90fd698a233a518aa5d07e595d983b8c0526c8f7fb9080612ab5888c83612aca565b0390a4612a25565b91908201809211610f9057565b9091612ae161083f936040845260408401906107fa565b9160208184039101526107fa565b90816020910312610240575161083f816103de565b92612b3361083f9593612b419360018060a01b031686526000602087015260a0604087015260a08601906107fa565b9084820360608601526107fa565b91608081840391015261045e565b939061083f9593612b3391612b419460018060a01b03809216885216602087015260a0604087015260a08601906107fa565b3d15612bac573d90612b9282610a7a565b91612ba060405193846109c6565b82523d6000602084013e565b606090565b9293919093843b612bc3575050505050565b602091612be6604051948593849363bc197c8160e01b9889865260048601612b04565b038160006001600160a01b0388165af160009181612c7b575b50612c3e5782612c0d612b81565b8051919082612c3757604051632bfa23e760e11b81526001600160a01b0383166004820152602490fd5b9050602001fd5b6001600160e01b03191603612c5857503880808080612a34565b604051632bfa23e760e11b81526001600160a01b03919091166004820152602490fd5b612c9e91925060203d602011612ca5575b612c9681836109c6565b810190612aef565b9038612bff565b503d612c8c565b939290949194853b612cc1575b505050505050565b612ce4602093604051958694859463bc197c8160e01b998a875260048701612b4f565b038160006001600160a01b0388165af160009181612d26575b50612d0b5782612c0d612b81565b6001600160e01b03191603612c585750388080808080612cb9565b612d4091925060203d602011612ca557612c9681836109c6565b9038612cfd565b909260a09261083f9594600180861b031683526000602084015260408301526060820152816080820152019061045e565b919261083f95949160a094600180871b03809216855216602084015260408301526060820152816080820152019061045e565b9293919093843b612dbd575050505050565b602091612be6604051948593849363f23a6e6160e01b9889865260048601612d47565b939290949194853b612df457505050505050565b612ce4602093604051958694859463f23a6e6160e01b998a875260048701612d7856fea164736f6c6343000818000a",
  "devdoc": {
    "details": "ERC-1155 based certification system for issuing and verifying student certificates",
    "errors": {
      "ERC1155InsufficientBalance(address,uint256,uint256,uint256)": [
        {
          "details": "Indicates an error related to the current `balance` of a `sender`. Used in transfers.",
          "params": {
            "balance": "Current balance for the interacting account.",
            "needed": "Minimum amount required to perform a transfer.",
            "sender": "Address whose tokens are being transferred.",
            "tokenId": "Identifier number of a token."
          }
        }
      ],
      "ERC1155InvalidApprover(address)": [
        {
          "details": "Indicates a failure with the `approver` of a token to be approved. Used in approvals.",
          "params": {
            "approver": "Address initiating an approval operation."
          }
        }
      ],
      "ERC1155InvalidArrayLength(uint256,uint256)": [
        {
          "details": "Indicates an array length mismatch between ids and values in a safeBatchTransferFrom operation. Used in batch transfers.",
          "params": {
            "idsLength": "Length of the array of token identifiers",
            "valuesLength": "Length of the array of token amounts"
          }
        }
      ],
      "ERC1155InvalidOperator(address)": [
        {
          "details": "Indicates a failure with the `operator` to be approved. Used in approvals.",
          "params": {
            "operator": "Address that may be allowed to operate on tokens without being their owner."
          }
        }
      ],
      "ERC1155InvalidReceiver(address)": [
        {
          "details": "Indicates a failure with the token `receiver`. Used in transfers.",
          "params": {
            "receiver": "Address to which tokens are being transferred."
          }
        }
      ],
      "ERC1155InvalidSender(address)": [
        {
          "details": "Indicates a failure with the token `sender`. Used in transfers.",
          "params": {
            "sender": "Address whose tokens are being transferred."
          }
        }
      ],
      "ERC1155MissingApprovalForAll(address,address)": [
        {
          "details": "Indicates a failure with the `operator`s approval. Used in transfers.",
          "params": {
            "operator": "Address that may be allowed to operate on tokens without being their owner.",
            "owner": "Address of the current owner of a token."
          }
        }
      ],
      "OwnableInvalidOwner(address)": [
        {
          "details": "The owner is not a valid owner account. (eg. `address(0)`)"
        }
      ],
      "OwnableUnauthorizedAccount(address)": [
        {
          "details": "The caller account is not authorized to perform an operation."
        }
      ]
    },
    "events": {
      "ApprovalForAll(address,address,bool)": {
        "details": "Emitted when `account` grants or revokes permission to `operator` to transfer their tokens, according to `approved`."
      },
      "TransferBatch(address,address,address,uint256[],uint256[])": {
        "details": "Equivalent to multiple {TransferSingle} events, where `operator`, `from` and `to` are the same for all transfers."
      },
      "TransferSingle(address,address,address,uint256,uint256)": {
        "details": "Emitted when `value` amount of tokens of type `id` are transferred from `from` to `to` by `operator`."
      },
      "URI(string,uint256)": {
        "details": "Emitted when the URI for token type `id` changes to `value`, if it is a non-programmatic URI. If an {URI} event was emitted for `id`, the standard https://eips.ethereum.org/EIPS/eip-1155#metadata-extensions[guarantees] that `value` will equal the value returned by {IERC1155MetadataURI-uri}."
      }
    },
    "kind": "dev",
    "methods": {
      "balanceOf(address,uint256)": {
        "details": "See {IERC1155-balanceOf}."
      },
      "balanceOfBatch(address[],uint256[])": {
        "details": "See {IERC1155-balanceOfBatch}. Requirements: - `accounts` and `ids` must have the same length."
      },
      "isApprovedForAll(address,address)": {
        "details": "See {IERC1155-isApprovedForAll}."
      },
      "owner()": {
        "details": "Returns the address of the current owner."
      },
      "renounceOwnership()": {
        "details": "Leaves the contract without owner. It will not be possible to call `onlyOwner` functions. Can only be called by the current owner. NOTE: Renouncing ownership will leave the contract without an owner, thereby disabling any functionality that is only available to the owner."
      },
      "safeBatchTransferFrom(address,address,uint256[],uint256[],bytes)": {
        "details": "See {IERC1155-safeBatchTransferFrom}."
      },
      "safeTransferFrom(address,address,uint256,uint256,bytes)": {
        "details": "See {IERC1155-safeTransferFrom}."
      },
      "setApprovalForAll(address,bool)": {
        "details": "See {IERC1155-setApprovalForAll}."
      },
      "supportsInterface(bytes4)": {
        "details": "See {IERC165-supportsInterface}."
      },
      "transferOwnership(address)": {
        "details": "Transfers ownership of the contract to a new account (`newOwner`). Can only be called by the current owner."
      }
    },
    "title": "CertificationSystem",
    "version": 1
  },
  "userdoc": {
    "kind": "user",
    "methods": {
      "authorizeIssuer(address,uint256[])": {
        "notice": "Authorize an issuer for specific certificate types"
      },
      "authorizeVerifier(address)": {
        "notice": "Authorize a verifier"
      },
      "canIssuer(address,uint256)": {
        "notice": "Check if issuer can issue specific certificate type"
      },
      "createCertificateType(string,string,string)": {
        "notice": "Create a new certificate type"
      },
      "getCertificateDetails(uint256)": {
        "notice": "Get certificate details"
      },
      "getCertificateType(uint256)": {
        "notice": "Get certificate type information"
      },
      "getStudentCertificates(address)": {
        "notice": "Get all certificates for a student"
      },
      "getStudentCertificatesByType(address,uint256)": {
        "notice": "Get certificates of specific type for a student"
      },
      "getTotalActiveCertificates()": {
        "notice": "Get total active certificates"
      },
      "getTotalCertificateTypes()": {
        "notice": "Get total certificate types"
      },
      "getTotalCertificatesIssued()": {
        "notice": "Get total certificates issued"
      },
      "getTotalRevokedCertificates()": {
        "notice": "Get total revoked certificates"
      },
      "getTotalVerifiedCertificates()": {
        "notice": "Get total verified certificates"
      },
      "isAuthorizedIssuer(address)": {
        "notice": "Check if address is authorized issuer"
      },
      "isAuthorizedVerifier(address)": {
        "notice": "Check if address is authorized verifier"
      },
      "isCertificateExpired(uint256)": {
        "notice": "Check if certificate is expired"
      },
      "isCertificateValid(uint256)": {
        "notice": "Check if certificate is valid"
      },
      "issueCertificate(address,uint256,string,uint256)": {
        "notice": "Issue a certificate to a student"
      },
      "revokeCertificate(uint256,string)": {
        "notice": "Revoke a certificate"
      },
      "revokeIssuer(address)": {
        "notice": "Revoke issuer authorization"
      },
      "revokeVerifier(address)": {
        "notice": "Revoke verifier authorization"
      },
      "verifyCertificate(uint256)": {
        "notice": "Verify a certificate"
      }
    },
    "version": 1
  },
  "storageLayout": {
    "storage": [
      {
        "astId": 326,
        "contract": "contracts/modules/009-certification/CertificationSystem.sol:CertificationSystem",
        "label": "_balances",
        "offset": 0,
        "slot": "0",
        "type": "t_mapping(t_uint256,t_mapping(t_address,t_uint256))"
      },
      {
        "astId": 332,
        "contract": "contracts/modules/009-certification/CertificationSystem.sol:CertificationSystem",
        "label": "_operatorApprovals",
        "offset": 0,
        "slot": "1",
        "type": "t_mapping(t_address,t_mapping(t_address,t_bool))"
      },
      {
        "astId": 334,
        "contract": "contracts/modules/009-certification/CertificationSystem.sol:CertificationSystem",
        "label": "_uri",
        "offset": 0,
        "slot": "2",
        "type": "t_string_storage"
      },
      {
        "astId": 8,
        "contract": "contracts/modules/009-certification/CertificationSystem.sol:CertificationSystem",
        "label": "_owner",
        "offset": 0,
        "slot": "3",
        "type": "t_address"
      },
      {
        "astId": 6255,
        "contract": "contracts/modules/009-certification/CertificationSystem.sol:CertificationSystem",
        "label": "certificateTypeCounter",
        "offset": 0,
        "slot": "4",
        "type": "t_uint256"
      },
      {
        "astId": 6257,
        "contract": "contracts/modules/009-certification/CertificationSystem.sol:CertificationSystem",
        "label": "certificateTokenCounter",
        "offset": 0,
        "slot": "5",
        "type": "t_uint256"
      },
      {
        "astId": 6262,
        "contract": "contracts/modules/009-certification/CertificationSystem.sol:CertificationSystem",
        "label": "certificateTypes",
        "offset": 0,
        "slot": "6",
        "type": "t_mapping(t_uint256,t_struct(CertificateType)6230_storage)"
      },
      {
        "astId": 6267,
        "contract": "contracts/modules/009-certification/CertificationSystem.sol:CertificationSystem",
        "label": "certificates",
        "offset": 0,
        "slot": "7",
        "type": "t_mapping(t_uint256,t_struct(Certificate)6245_storage)"
      },
      {
        "astId": 6272,
        "contract": "contracts/modules/009-certification/CertificationSystem.sol:CertificationSystem",
        "label": "studentCertificates",
        "offset": 0,
        "slot": "8",
        "type": "t_mapping(t_address,t_array(t_uint256)dyn_storage)"
      },
      {
        "astId": 6277,
        "contract": "contracts/modules/009-certification/CertificationSystem.sol:CertificationSystem",
        "label": "issuers",
        "offset": 0,
        "slot": "9",
        "type": "t_mapping(t_address,t_struct(IssuerInfo)6253_storage)"
      },
      {
        "astId": 6281,
        "contract": "contracts/modules/009-certification/CertificationSystem.sol:CertificationSystem",
        "label": "authorizedVerifiers",
        "offset": 0,
        "slot": "10",
        "type": "t_mapping(t_address,t_bool)"
      },
      {
        "astId": 6287,
        "contract": "contracts/modules/009-certification/CertificationSystem.sol:CertificationSystem",
        "label": "revokedByType",
        "offset": 0,
        "slot": "11",
        "type": "t_mapping(t_uint256,t_mapping(t_address,t_bool))"
      },
      {
        "astId": 6289,
        "contract": "contracts/modules/009-certification/CertificationSystem.sol:CertificationSystem",
        "label": "totalCertificatesIssued",
        "offset": 0,
        "slot": "12",
        "type": "t_uint256"
      },
      {
        "astId": 6291,
        "contract": "contracts/modules/009-certification/CertificationSystem.sol:CertificationSystem",
        "label": "totalRevokedCertificates",
        "offset": 0,
        "slot": "13",
        "type": "t_uint256"
      },
      {
        "astId": 6293,
        "contract": "contracts/modules/009-certification/CertificationSystem.sol:CertificationSystem",
        "label": "totalVerifiedCertificates",
        "offset": 0,
        "slot": "14",
        "type": "t_uint256"
      }
    ],
    "types": {
      "t_address": {
        "encoding": "inplace",
        "label": "address",
        "numberOfBytes": "20"
      },
      "t_array(t_uint256)dyn_storage": {
        "base": "t_uint256",
        "encoding": "dynamic_array",
        "label": "uint256[]",
        "numberOfBytes": "32"
      },
      "t_bool": {
        "encoding": "inplace",
        "label": "bool",
        "numberOfBytes": "1"
      },
      "t_mapping(t_address,t_array(t_uint256)dyn_storage)": {
        "encoding": "mapping",
        "key": "t_address",
        "label": "mapping(address => uint256[])",
        "numberOfBytes": "32",
        "value": "t_array(t_uint256)dyn_storage"
      },
      "t_mapping(t_address,t_bool)": {
        "encoding": "mapping",
        "key": "t_address",
        "label": "mapping(address => bool)",
        "numberOfBytes": "32",
        "value": "t_bool"
      },
      "t_mapping(t_address,t_mapping(t_address,t_bool))": {
        "encoding": "mapping",
        "key": "t_address",
        "label": "mapping(address => mapping(address => bool))",
        "numberOfBytes": "32",
        "value": "t_mapping(t_address,t_bool)"
      },
      "t_mapping(t_address,t_struct(IssuerInfo)6253_storage)": {
        "encoding": "mapping",
        "key": "t_address",
        "label": "mapping(address => struct CertificationSystem.IssuerInfo)",
        "numberOfBytes": "32",
        "value": "t_struct(IssuerInfo)6253_storage"
      },
      "t_mapping(t_address,t_uint256)": {
        "encoding": "mapping",
        "key": "t_address",
        "label": "mapping(address => uint256)",
        "numberOfBytes": "32",
        "value": "t_uint256"
      },
      "t_mapping(t_uint256,t_mapping(t_address,t_bool))": {
        "encoding": "mapping",
        "key": "t_uint256",
        "label": "mapping(uint256 => mapping(address => bool))",
        "numberOfBytes": "32",
        "value": "t_mapping(t_address,t_bool)"
      },
      "t_mapping(t_uint256,t_mapping(t_address,t_uint256))": {
        "encoding": "mapping",
        "key": "t_uint256",
        "label": "mapping(uint256 => mapping(address => uint256))",
        "numberOfBytes": "32",
        "value": "t_mapping(t_address,t_uint256)"
      },
      "t_mapping(t_uint256,t_struct(Certificate)6245_storage)": {
        "encoding": "mapping",
        "key": "t_uint256",
        "label": "mapping(uint256 => struct CertificationSystem.Certificate)",
        "numberOfBytes": "32",
        "value": "t_struct(Certificate)6245_storage"
      },
      "t_mapping(t_uint256,t_struct(CertificateType)6230_storage)": {
        "encoding": "mapping",
        "key": "t_uint256",
        "label": "mapping(uint256 => struct CertificationSystem.CertificateType)",
        "numberOfBytes": "32",
        "value": "t_struct(CertificateType)6230_storage"
      },
      "t_string_storage": {
        "encoding": "bytes",
        "label": "string",
        "numberOfBytes": "32"
      },
      "t_struct(Certificate)6245_storage": {
        "encoding": "inplace",
        "label": "struct CertificationSystem.Certificate",
        "members": [
          {
            "astId": 6232,
            "contract": "contracts/modules/009-certification/CertificationSystem.sol:CertificationSystem",
            "label": "student",
            "offset": 0,
            "slot": "0",
            "type": "t_address"
          },
          {
            "astId": 6234,
            "contract": "contracts/modules/009-certification/CertificationSystem.sol:CertificationSystem",
            "label": "certificateTypeId",
            "offset": 0,
            "slot": "1",
            "type": "t_uint256"
          },
          {
            "astId": 6236,
            "contract": "contracts/modules/009-certification/CertificationSystem.sol:CertificationSystem",
            "label": "issuedAt",
            "offset": 0,
            "slot": "2",
            "type": "t_uint256"
          },
          {
            "astId": 6238,
            "contract": "contracts/modules/009-certification/CertificationSystem.sol:CertificationSystem",
            "label": "expiryDate",
            "offset": 0,
            "slot": "3",
            "type": "t_uint256"
          },
          {
            "astId": 6240,
            "contract": "contracts/modules/009-certification/CertificationSystem.sol:CertificationSystem",
            "label": "isRevoked",
            "offset": 0,
            "slot": "4",
            "type": "t_bool"
          },
          {
            "astId": 6242,
            "contract": "contracts/modules/009-certification/CertificationSystem.sol:CertificationSystem",
            "label": "isVerified",
            "offset": 1,
            "slot": "4",
            "type": "t_bool"
          },
          {
            "astId": 6244,
            "contract": "contracts/modules/009-certification/CertificationSystem.sol:CertificationSystem",
            "label": "metadataURI",
            "offset": 0,
            "slot": "5",
            "type": "t_string_storage"
          }
        ],
        "numberOfBytes": "192"
      },
      "t_struct(CertificateType)6230_storage": {
        "encoding": "inplace",
        "label": "struct CertificationSystem.CertificateType",
        "members": [
          {
            "astId": 6221,
            "contract": "contracts/modules/009-certification/CertificationSystem.sol:CertificationSystem",
            "label": "name",
            "offset": 0,
            "slot": "0",
            "type": "t_string_storage"
          },
          {
            "astId": 6223,
            "contract": "contracts/modules/009-certification/CertificationSystem.sol:CertificationSystem",
            "label": "description",
            "offset": 0,
            "slot": "1",
            "type": "t_string_storage"
          },
          {
            "astId": 6225,
            "contract": "contracts/modules/009-certification/CertificationSystem.sol:CertificationSystem",
            "label": "metadataURI",
            "offset": 0,
            "slot": "2",
            "type": "t_string_storage"
          },
          {
            "astId": 6227,
            "contract": "contracts/modules/009-certification/CertificationSystem.sol:CertificationSystem",
            "label": "createdAt",
            "offset": 0,
            "slot": "3",
            "type": "t_uint256"
          },
          {
            "astId": 6229,
            "contract": "contracts/modules/009-certification/CertificationSystem.sol:CertificationSystem",
            "label": "totalIssued",
            "offset": 0,
            "slot": "4",
            "type": "t_uint256"
          }
        ],
        "numberOfBytes": "160"
      },
      "t_struct(IssuerInfo)6253_storage": {
        "encoding": "inplace",
        "label": "struct CertificationSystem.IssuerInfo",
        "members": [
          {
            "astId": 6247,
            "contract": "contracts/modules/009-certification/CertificationSystem.sol:CertificationSystem",
            "label": "isAuthorized",
            "offset": 0,
            "slot": "0",
            "type": "t_bool"
          },
          {
            "astId": 6250,
            "contract": "contracts/modules/009-certification/CertificationSystem.sol:CertificationSystem",
            "label": "authorizedCertificateTypes",
            "offset": 0,
            "slot": "1",
            "type": "t_array(t_uint256)dyn_storage"
          },
          {
            "astId": 6252,
            "contract": "contracts/modules/009-certification/CertificationSystem.sol:CertificationSystem",
            "label": "certificatesIssued",
            "offset": 0,
            "slot": "2",
            "type": "t_uint256"
          }
        ],
        "numberOfBytes": "96"
      },
      "t_uint256": {
        "encoding": "inplace",
        "label": "uint256",
        "numberOfBytes": "32"
      }
    }
  }
}