{
  "address": "0x2ec4Cf8Abfb952Eb3d5844C72925Ebe9FBa70B9e",
  "abi": [
    {
      "inputs": [
        {
          "internalType": "address",
          "name": "_vndc",
          "type": "address"
        },
        {
          "internalType": "address",
          "name": "_activityBadge",
          "type": "address"
        }
      ],
      "stateMutability": "nonpayable",
      "type": "constructor"
    },
    {
      "inputs": [],
      "name": "EnforcedPause",
      "type": "error"
    },
    {
      "inputs": [],
      "name": "ExpectedPause",
      "type": "error"
    },
    {
      "inputs": [
        {
          "internalType": "address",
          "name": "owner",
          "type": "address"
        }
      ],
      "name": "OwnableInvalidOwner",
      "type": "error"
    },
    {
      "inputs": [
        {
          "internalType": "address",
          "name": "account",
          "type": "address"
        }
      ],
      "name": "OwnableUnauthorizedAccount",
      "type": "error"
    },
    {
      "anonymous": false,
      "inputs": [
        {
          "indexed": true,
          "internalType": "uint256",
          "name": "recordId",
          "type": "uint256"
        },
        {
          "indexed": true,
          "internalType": "address",
          "name": "student",
          "type": "address"
        },
        {
          "indexed": false,
          "internalType": "uint256",
          "name": "rewardAmount",
          "type": "uint256"
        }
      ],
      "name": "ActivityClaimed",
      "type": "event"
    },
    {
      "anonymous": false,
      "inputs": [
        {
          "indexed": true,
          "internalType": "uint256",
          "name": "activityId",
          "type": "uint256"
        }
      ],
      "name": "ActivityDeactivated",
      "type": "event"
    },
    {
      "anonymous": false,
      "inputs": [
        {
          "indexed": true,
          "internalType": "uint256",
          "name": "recordId",
          "type": "uint256"
        },
        {
          "indexed": true,
          "internalType": "address",
          "name": "student",
          "type": "address"
        },
        {
          "indexed": true,
          "internalType": "uint256",
          "name": "activityId",
          "type": "uint256"
        }
      ],
      "name": "ActivityLogged",
      "type": "event"
    },
    {
      "anonymous": false,
      "inputs": [
        {
          "indexed": true,
          "internalType": "uint256",
          "name": "activityId",
          "type": "uint256"
        },
        {
          "indexed": false,
          "internalType": "string",
          "name": "name",
          "type": "string"
        },
        {
          "indexed": false,
          "internalType": "uint256",
          "name": "rewardAmount",
          "type": "uint256"
        }
      ],
      "name": "ActivityRegistered",
      "type": "event"
    },
    {
      "anonymous": false,
      "inputs": [
        {
          "indexed": true,
          "internalType": "address",
          "name": "issuer",
          "type": "address"
        }
      ],
      "name": "IssuerAdded",
      "type": "event"
    },
    {
      "anonymous": false,
      "inputs": [
        {
          "indexed": true,
          "internalType": "address",
          "name": "issuer",
          "type": "address"
        }
      ],
      "name": "IssuerRemoved",
      "type": "event"
    },
    {
      "anonymous": false,
      "inputs": [
        {
          "indexed": true,
          "internalType": "address",
          "name": "previousOwner",
          "type": "address"
        },
        {
          "indexed": true,
          "internalType": "address",
          "name": "newOwner",
          "type": "address"
        }
      ],
      "name": "OwnershipTransferred",
      "type": "event"
    },
    {
      "anonymous": false,
      "inputs": [
        {
          "indexed": false,
          "internalType": "address",
          "name": "account",
          "type": "address"
        }
      ],
      "name": "Paused",
      "type": "event"
    },
    {
      "anonymous": false,
      "inputs": [
        {
          "indexed": false,
          "internalType": "address",
          "name": "account",
          "type": "address"
        }
      ],
      "name": "Unpaused",
      "type": "event"
    },
    {
      "inputs": [
        {
          "internalType": "uint256",
          "name": "",
          "type": "uint256"
        }
      ],
      "name": "activities",
      "outputs": [
        {
          "internalType": "string",
          "name": "name",
          "type": "string"
        },
        {
          "internalType": "string",
          "name": "description",
          "type": "string"
        },
        {
          "internalType": "uint256",
          "name": "rewardAmount",
          "type": "uint256"
        },
        {
          "internalType": "uint256",
          "name": "badgeTokenId",
          "type": "uint256"
        },
        {
          "internalType": "uint256",
          "name": "maxClaimsPerStudent",
          "type": "uint256"
        },
        {
          "internalType": "bool",
          "name": "active",
          "type": "bool"
        },
        {
          "internalType": "uint256",
          "name": "createdAt",
          "type": "uint256"
        }
      ],
      "stateMutability": "view",
      "type": "function"
    },
    {
      "inputs": [],
      "name": "activityBadge",
      "outputs": [
        {
          "internalType": "contract IActivityBadge",
          "name": "",
          "type": "address"
        }
      ],
      "stateMutability": "view",
      "type": "function"
    },
    {
      "inputs": [
        {
          "internalType": "uint256",
          "name": "",
          "type": "uint256"
        }
      ],
      "name": "activityIds",
      "outputs": [
        {
          "internalType": "uint256",
          "name": "",
          "type": "uint256"
        }
      ],
      "stateMutability": "view",
      "type": "function"
    },
    {
      "inputs": [
        {
          "internalType": "uint256",
          "name": "",
          "type": "uint256"
        }
      ],
      "name": "activityRecords",
      "outputs": [
        {
          "internalType": "address",
          "name": "student",
          "type": "address"
        },
        {
          "internalType": "uint256",
          "name": "activityId",
          "type": "uint256"
        },
        {
          "internalType": "uint256",
          "name": "timestamp",
          "type": "uint256"
        },
        {
          "internalType": "bool",
          "name": "rewarded",
          "type": "bool"
        },
        {
          "internalType": "string",
          "name": "metadata",
          "type": "string"
        }
      ],
      "stateMutability": "view",
      "type": "function"
    },
    {
      "inputs": [
        {
          "internalType": "address",
          "name": "issuer",
          "type": "address"
        }
      ],
      "name": "addIssuer",
      "outputs": [],
      "stateMutability": "nonpayable",
      "type": "function"
    },
    {
      "inputs": [
        {
          "internalType": "uint256",
          "name": "recordId",
          "type": "uint256"
        }
      ],
      "name": "claimActivity",
      "outputs": [],
      "stateMutability": "nonpayable",
      "type": "function"
    },
    {
      "inputs": [
        {
          "internalType": "address",
          "name": "",
          "type": "address"
        },
        {
          "internalType": "uint256",
          "name": "",
          "type": "uint256"
        }
      ],
      "name": "claimCounts",
      "outputs": [
        {
          "internalType": "uint256",
          "name": "",
          "type": "uint256"
        }
      ],
      "stateMutability": "view",
      "type": "function"
    },
    {
      "inputs": [
        {
          "internalType": "string",
          "name": "name",
          "type": "string"
        },
        {
          "internalType": "string",
          "name": "uri",
          "type": "string"
        }
      ],
      "name": "createActivityBadge",
      "outputs": [
        {
          "internalType": "uint256",
          "name": "",
          "type": "uint256"
        }
      ],
      "stateMutability": "nonpayable",
      "type": "function"
    },
    {
      "inputs": [
        {
          "internalType": "uint256",
          "name": "activityId",
          "type": "uint256"
        }
      ],
      "name": "deactivateActivity",
      "outputs": [],
      "stateMutability": "nonpayable",
      "type": "function"
    },
    {
      "inputs": [],
      "name": "getActivities",
      "outputs": [
        {
          "internalType": "uint256[]",
          "name": "",
          "type": "uint256[]"
        }
      ],
      "stateMutability": "view",
      "type": "function"
    },
    {
      "inputs": [
        {
          "internalType": "uint256",
          "name": "activityId",
          "type": "uint256"
        }
      ],
      "name": "getActivity",
      "outputs": [
        {
          "components": [
            {
              "internalType": "string",
              "name": "name",
              "type": "string"
            },
            {
              "internalType": "string",
              "name": "description",
              "type": "string"
            },
            {
              "internalType": "uint256",
              "name": "rewardAmount",
              "type": "uint256"
            },
            {
              "internalType": "uint256",
              "name": "badgeTokenId",
              "type": "uint256"
            },
            {
              "internalType": "uint256",
              "name": "maxClaimsPerStudent",
              "type": "uint256"
            },
            {
              "internalType": "bool",
              "name": "active",
              "type": "bool"
            },
            {
              "internalType": "uint256",
              "name": "createdAt",
              "type": "uint256"
            }
          ],
          "internalType": "struct IExtracurricularReward.Activity",
          "name": "",
          "type": "tuple"
        }
      ],
      "stateMutability": "view",
      "type": "function"
    },
    {
      "inputs": [
        {
          "internalType": "uint256",
          "name": "recordId",
          "type": "uint256"
        }
      ],
      "name": "getActivityRecord",
      "outputs": [
        {
          "components": [
            {
              "internalType": "address",
              "name": "student",
              "type": "address"
            },
            {
              "internalType": "uint256",
              "name": "activityId",
              "type": "uint256"
            },
            {
              "internalType": "uint256",
              "name": "timestamp",
              "type": "uint256"
            },
            {
              "internalType": "bool",
              "name": "rewarded",
              "type": "bool"
            },
            {
              "internalType": "string",
              "name": "metadata",
              "type": "string"
            }
          ],
          "internalType": "struct IExtracurricularReward.ActivityRecord",
          "name": "",
          "type": "tuple"
        }
      ],
      "stateMutability": "view",
      "type": "function"
    },
    {
      "inputs": [
        {
          "internalType": "address",
          "name": "student",
          "type": "address"
        },
        {
          "internalType": "uint256",
          "name": "activityId",
          "type": "uint256"
        }
      ],
      "name": "getClaimCount",
      "outputs": [
        {
          "internalType": "uint256",
          "name": "",
          "type": "uint256"
        }
      ],
      "stateMutability": "view",
      "type": "function"
    },
    {
      "inputs": [
        {
          "internalType": "address",
          "name": "student",
          "type": "address"
        }
      ],
      "name": "getCompletedActivities",
      "outputs": [
        {
          "internalType": "uint256[]",
          "name": "",
          "type": "uint256[]"
        }
      ],
      "stateMutability": "view",
      "type": "function"
    },
    {
      "inputs": [
        {
          "internalType": "address",
          "name": "student",
          "type": "address"
        }
      ],
      "name": "getStudentActivities",
      "outputs": [
        {
          "internalType": "uint256[]",
          "name": "",
          "type": "uint256[]"
        }
      ],
      "stateMutability": "view",
      "type": "function"
    },
    {
      "inputs": [
        {
          "internalType": "address",
          "name": "addr",
          "type": "address"
        }
      ],
      "name": "isIssuer",
      "outputs": [
        {
          "internalType": "bool",
          "name": "",
          "type": "bool"
        }
      ],
      "stateMutability": "view",
      "type": "function"
    },
    {
      "inputs": [
        {
          "internalType": "address",
          "name": "",
          "type": "address"
        }
      ],
      "name": "issuers",
      "outputs": [
        {
          "internalType": "bool",
          "name": "",
          "type": "bool"
        }
      ],
      "stateMutability": "view",
      "type": "function"
    },
    {
      "inputs": [
        {
          "internalType": "address",
          "name": "student",
          "type": "address"
        },
        {
          "internalType": "uint256",
          "name": "activityId",
          "type": "uint256"
        },
        {
          "internalType": "string",
          "name": "metadata",
          "type": "string"
        }
      ],
      "name": "logActivity",
      "outputs": [
        {
          "internalType": "uint256",
          "name": "",
          "type": "uint256"
        }
      ],
      "stateMutability": "nonpayable",
      "type": "function"
    },
    {
      "inputs": [],
      "name": "owner",
      "outputs": [
        {
          "internalType": "address",
          "name": "",
          "type": "address"
        }
      ],
      "stateMutability": "view",
      "type": "function"
    },
    {
      "inputs": [],
      "name": "pause",
      "outputs": [],
      "stateMutability": "nonpayable",
      "type": "function"
    },
    {
      "inputs": [],
      "name": "paused",
      "outputs": [
        {
          "internalType": "bool",
          "name": "",
          "type": "bool"
        }
      ],
      "stateMutability": "view",
      "type": "function"
    },
    {
      "inputs": [
        {
          "internalType": "string",
          "name": "name",
          "type": "string"
        },
        {
          "internalType": "string",
          "name": "description",
          "type": "string"
        },
        {
          "internalType": "uint256",
          "name": "rewardAmount",
          "type": "uint256"
        },
        {
          "internalType": "uint256",
          "name": "badgeTokenId",
          "type": "uint256"
        },
        {
          "internalType": "uint256",
          "name": "maxClaimsPerStudent",
          "type": "uint256"
        }
      ],
      "name": "registerActivity",
      "outputs": [
        {
          "internalType": "uint256",
          "name": "",
          "type": "uint256"
        }
      ],
      "stateMutability": "nonpayable",
      "type": "function"
    },
    {
      "inputs": [
        {
          "internalType": "address",
          "name": "issuer",
          "type": "address"
        }
      ],
      "name": "removeIssuer",
      "outputs": [],
      "stateMutability": "nonpayable",
      "type": "function"
    },
    {
      "inputs": [],
      "name": "renounceOwnership",
      "outputs": [],
      "stateMutability": "nonpayable",
      "type": "function"
    },
    {
      "inputs": [
        {
          "internalType": "address",
          "name": "",
          "type": "address"
        },
        {
          "internalType": "uint256",
          "name": "",
          "type": "uint256"
        }
      ],
      "name": "studentActivities",
      "outputs": [
        {
          "internalType": "uint256",
          "name": "",
          "type": "uint256"
        }
      ],
      "stateMutability": "view",
      "type": "function"
    },
    {
      "inputs": [
        {
          "internalType": "address",
          "name": "newOwner",
          "type": "address"
        }
      ],
      "name": "transferOwnership",
      "outputs": [],
      "stateMutability": "nonpayable",
      "type": "function"
    },
    {
      "inputs": [],
      "name": "unpause",
      "outputs": [],
      "stateMutability": "nonpayable",
      "type": "function"
    },
    {
      "inputs": [],
      "name": "vndc",
      "outputs": [
        {
          "internalType": "contract VNDC",
          "name": "",
          "type": "address"
        }
      ],
      "stateMutability": "view",
      "type": "function"
    }
  ],
  "transactionHash": "0xfbcc0718543cb6568bbb9d721dc0706d65805c30c4314c71b8dc28df04c5f747",
  "args": [
    "0x682053A38Dfaae87a6c3e469C61aC798B2a3aD48",
    "0xf0756Abeea0a6DbC05651d0c2df63374aEBf2290"
  ],
  "numDeployments": 1,
  "solcInputHash": "f7a2af3361beb97db2b043165e51f0a0",
  "bytecode": "0x6080346200019a5762001cf0601f38829003908101601f19168301906001600160401b038211848310176200019f57808491604094859485528339810103126200019a576200005c60206200005484620001b5565b9301620001b5565b913315620001825760008054336001600160a01b031980831682178455855196939490936001600160a01b0393909284929183167f8be0079c531659141344cd1fd0a4f28419497f9722a3daafe3b4186f6b6457e08880a31695861562000140575016908115620000fc5783948160015416176001556002541617600255338152600960205220600160ff1982541617905551611b259081620001cb8239f35b835162461bcd60e51b815260206004820152601560248201527f496e76616c6964206261646765206164647265737300000000000000000000006044820152606490fd5b62461bcd60e51b815260206004820152601460248201527f496e76616c696420564e444320616464726573730000000000000000000000006044820152606490fd5b8151631e4fbdf760e01b815260006004820152602490fd5b600080fd5b634e487b7160e01b600052604160045260246000fd5b51906001600160a01b03821682036200019a5756fe608080604052600436101561001357600080fd5b600090813560e01c90816307f0e073146116ff575080630d1657e81461166257806314fc72e1146115ec578063154e2933146115c357806320694db01461154f57806326966c81146114f95780632e09dc22146113a557806338a7543e14610d585780633f4ba83a1461133457806347bc7093146112c357806355a3c9ad14610fa45780635c975abb14610f7f5780636b40826a14610df8578063715018a614610f2557806371aa17c614610ea357806376170a3c14610e3b57806383a6afc714610df85780638456cb5914610d97578063877b9a6714610d585780638da5cb5b14610d31578063922635d814610c0b578063a143949a14610ba4578063b4980961146106dc578063c2152d2414610664578063e1df9dd11461032b578063e85bf157146102d9578063f2fde38b146102495763fbd426de1461015557600080fd5b34610246576020806003193601126102425761023e60406004359360606080835161017f81611779565b83815283878201528385820152838382015201528481526005845260018060a01b03946101b286848420541615156119c3565b8152600584522091604051926101c784611779565b848154168452600181015482850190815260028201549060408601918252610202600460ff60038601541694606089019515158652016117b5565b936080870194855260405197889782895251169087015251604086015251606085015251151560808401525160a08084015260c083019061185a565b0390f35b5080fd5b80fd5b50346102465760203660031901126102465761026361189a565b61026b611acb565b6001600160a01b039081169081156102c057600054826bffffffffffffffffffffffff60a01b821617600055167f8be0079c531659141344cd1fd0a4f28419497f9722a3daafe3b4186f6b6457e0600080a380f35b604051631e4fbdf760e01b815260048101849052602490fd5b5034610246576020366003190112610246576004356004548110156102425760209060046000527f8a35acfbc15ff81a39ae7d344fd709f28e8600b4aa8c65c6b64bfe7fe36bd19b0154604051908152f35b50346102465760603660031901126102465761034561189a565b906001600160401b0360243560443582811161066057610369903690600401611909565b90923385526020956009875260ff60408720541615610623576001600160a01b039081169283156105ec5791600487926104558a956103aa84548a10611a44565b888652600387526103c460ff600560408920015416611a02565b600654996103d18b611987565b600655604051936103e185611779565b8985526005898601998c8b528d610408604089019542875260608a01978d89523691611a85565b9a608089019b8c52525260408d209451166bffffffffffffffffffffffff60a01b8554161784556001975188850155516002840155511515600383019060ff801983541691151516179055565b01915180519182116105d857819061046d8454611724565b601f8111610587575b508990601f831160011461052857899261051d575b5050600019600383901b1c191690831b1790555b8185526007865260408520805490600160401b821015610507576104c692820181556118f1565b81549060031b9085821b91600019901b1916179055827fa4e4ed977a2a790c4690ae84d48ce05ed08fc383d9f45b02a599647ff8eae19b6040519580a48152f35b634e487b7160e01b600052604160045260246000fd5b01519050388061048b565b848a528a8a208694509190601f1984168b5b8d8282106105715750508411610558575b505050811b01905561049f565b015160001960f88460031b161c1916905538808061054b565b838501518655899790950194938401930161053a565b909150838952898920601f840160051c8101918b85106105ce575b84939291601f88920160051c01915b8281106105bf575050610476565b600081558594508791016105b1565b90915081906105a2565b634e487b7160e01b88526041600452602488fd5b60405162461bcd60e51b815260048101899052600f60248201526e125b9d985b1a59081cdd1d59195b9d608a1b6044820152606490fd5b60405162461bcd60e51b81526004810188905260156024820152742737ba1030baba3437b934bd32b21034b9b9bab2b960591b6044820152606490fd5b8380fd5b503461024657602036600319011261024657604090600435815260056020522060018060a01b0381541661023e6001830154926002810154906106b1600460ff60038401541692016117b5565b916040519586958652602086015260408501521515606084015260a0608084015260a083019061185a565b50346102465760a0366003190112610246576004356001600160401b0381116102425761070d903690600401611909565b906024356001600160401b0381116106605761072d903690600401611909565b60849391933561073b611acb565b8215610b6f5760443515610b2a578015610ae55761077760045495604051936107638561175e565b61076e368789611a85565b85523691611a85565b6020830152604435604083015260643560608301526080820152600160a08201524260c08201528385526003602052604085209080518051906001600160401b0382116105d85781906107ca8554611724565b601f8111610a97575b50602090601f8311600114610a2e578992610a23575b50508160011b916000199060031b1c19161782555b60208101518051906001600160401b0382116105d8576108216001850154611724565b601f81116109de575b50602090601f831160011461096c5791806006949260c0948b92610961575b50508160011b916000199060031b1c19161760018501555b60408101516002850155606081015160038501556080810151600485015561089e60a08201511515600586019060ff801983541691151516179055565b015191015560045490600160401b82101561050757600182018060045582101561094b576060849382602097867f6ef45fc7c580579118d7696aff8f793c16ecf4879f63914df66a7025f88336bb9660046000527f8a35acfbc15ff81a39ae7d344fd709f28e8600b4aa8c65c6b64bfe7fe36bd19b0155604051948593604085528160408601528585013782820184015260443588830152601f01601f19168101030190a2604051908152f35b634e487b7160e01b600052603260045260246000fd5b015190503880610849565b906001850189526020892091895b601f19851681106109c65750926006949260019260c09583601f198116106109ad575b505050811b016001850155610861565b015160001960f88460031b161c1916905538808061099d565b9192602060018192868501518155019401920161097a565b60018501895260208920601f840160051c810160208510610a1c575b601f830160051c82018110610a1057505061082a565b600081556001016109fa565b50806109fa565b0151905038806107e9565b9250848952602089209089935b601f1984168510610a7c576001945083601f19811610610a63575b505050811b0182556107fe565b015160001960f88460031b161c19169055388080610a56565b81810151835560209485019460019093019290910190610a3b565b90915084895260208920601f840160051c810160208510610ade575b90849392915b601f830160051c82018110610acf5750506107d3565b60008155859450600101610ab9565b5080610ab3565b60405162461bcd60e51b815260206004820152601b60248201527f4d617820636c61696d73206d75737420626520706f73697469766500000000006044820152606490fd5b60405162461bcd60e51b815260206004820152601760248201527f526577617264206d75737420626520706f7369746976650000000000000000006044820152606490fd5b60405162461bcd60e51b815260206004820152600d60248201526c13985b59481c995c5d5a5c9959609a1b6044820152606490fd5b5034610246576040366003190112610246576001600160401b03600435818111610c0757610bd6903690600401611909565b505060243590811161024257610bf0903690600401611909565b5050610bfa611acb565b6020600454604051908152f35b8280fd5b50346102465760208060031936011261024257604060e0926004358160c08451610c348161175e565b6060815260608782015282868201528260608201528260808201528260a08201520152610c646004548210611a44565b8152600383522060405191610c788361175e565b610c81826117b5565b8352610c8f600183016117b5565b9181840192835260028101549260408501938452600382015460608601908152610d0c60048401549260808801938452610cf9600660ff6005880154169660a08b01971515885201549660c08a019788526040519a8b9a828c5251918b01526101008a019061185a565b9051888203601f190160408a015261185a565b945160608701525160808601525160a085015251151560c08401525160e08301520390f35b5034610246578060031936011261024657546040516001600160a01b039091168152602090f35b50346102465760203660031901126102465760209060ff906040906001600160a01b03610d8361189a565b168152600984522054166040519015158152f35b5034610246578060031936011261024657610db0611acb565b610db8611af7565b805460ff60a01b1916600160a01b1781556040513381527f62e78cea01bee320cd4e420270b5ea74000d11b0c9f74754ebdbfc544b05a25890602090a180f35b5034610246576040366003190112610246576020906040906001600160a01b03610e2061189a565b16815260088352818120602435825283522054604051908152f35b503461024657602036600319011261024657600435610e58611acb565b610e656004548210611a44565b808252600360205260408220600501805460ff191690557f6c11e84e00154355a22a0d64ef1013586fceb67665a23afbfd4bc94a88cf06ee8280a280f35b5034610246578060031936011261024657604051600480548083529083526020808301937f8a35acfbc15ff81a39ae7d344fd709f28e8600b4aa8c65c6b64bfe7fe36bd19b92915b828210610f0e5761023e85610f0281890382611794565b604051918291826118b5565b835486529485019460019384019390910190610eeb565b5034610246578060031936011261024657610f3e611acb565b600080546001600160a01b0319811682556001600160a01b03167f8be0079c531659141344cd1fd0a4f28419497f9722a3daafe3b4186f6b6457e08280a380f35b503461024657806003193601126102465760ff6020915460a01c166040519015158152f35b50346102465760208060031936011261024257600435610fc2611af7565b808352600582526040832080546001600160a01b039081169391610fe78515156119c3565b84330361127e576003810180549560ff87166112475760018301549182895260038652604089209761101f60ff60058b015416611a02565b828a526008875260408a20848b52875260408a205460048a0154111561120b5760019060ff1916179055875260088452604087209087528352604086206110668154611987565b9055600154815460028701805460405163a9059cbb60e01b81529286166004840152602483015296918590829060449082908c9089165af19081156112005788916111c6575b501561118f5760030154806110ef575b50907f061cf80397c63a95c834dcea946860a3a28b2a0e901b345b510f37e876a18c3a929154169354604051908152a380f35b8683600254169184845416833b15610c0757606490836040519586948593630ab714fb60e11b855260048501526024840152600160448401525af1801561118457156110bc576001600160401b03819792971161117057604052947f061cf80397c63a95c834dcea946860a3a28b2a0e901b345b510f37e876a18c3a6110bc565b634e487b7160e01b82526041600452602482fd5b6040513d89823e3d90fd5b60405162461bcd60e51b815260048101859052600f60248201526e151c985b9cd9995c8819985a5b1959608a1b6044820152606490fd5b90508481813d83116111f9575b6111dd8183611794565b810103126111f5575180151581036111f557386110ac565b8780fd5b503d6111d3565b6040513d8a823e3d90fd5b60405162461bcd60e51b815260048101889052601460248201527310db185a5b481b1a5b5a5d08195e18d95959195960621b6044820152606490fd5b60405162461bcd60e51b815260048101869052600f60248201526e105b1c9958591e4818db185a5b5959608a1b6044820152606490fd5b60405162461bcd60e51b815260048101849052601a60248201527f4e6f742074686520616374697669747920706572666f726d65720000000000006044820152606490fd5b5034610246576020366003190112610246576112dd61189a565b6112e5611acb565b6001600160a01b03166112f9811515611936565b808252600960205260408220805460ff191690557faf66545c919a3be306ee446d8f42a9558b5b022620df880517bc9593ec0f2d528280a280f35b503461024657806003193601126102465761134d611acb565b805460ff8160a01c16156113935760ff60a01b191681556040513381527f5db9ee0a495bf2e6ff9c91a7834c1ba4fdd244a5e8aa4e537bd38aeae4b073aa90602090a180f35b604051638dfc202b60e01b8152600490fd5b50346102465760209081600319360112610246576001600160a01b036113c961189a565b168152600782526040812090604051808385829554938481520190845285842092845b878282106114e35750505061140392500383611794565b8092815b835181101561144d5761141a8185611973565b5183526005825260ff600360408520015416611439575b600101611407565b93611445600191611987565b949050611431565b5091611458846119ac565b936114666040519586611794565b808552611475601f19916119ac565b01368486013781805b82518110156114d5578061149460019285611973565b5183526005865260ff6003604085200154166114b1575b0161147e565b6114bb8185611973565b516114cf6114c887611987565b9689611973565b526114ab565b6040518061023e88826118b5565b85548452600195860195889550930192016113ec565b50346102465760403660031901126102465761151361189a565b6001600160a01b031681526007602052604081208054602435929083101561024657602061154184846118f1565b90546040519160031b1c8152f35b50346102465760203660031901126102465761156961189a565b611571611acb565b6001600160a01b0316611585811515611936565b808252600960205260408220805460ff191660011790557f05e7c881d716bee8cb7ed92293133ba156704252439e5c502c277448f04e20c28280a280f35b50346102465780600319360112610246576002546040516001600160a01b039091168152602090f35b503461024657602080600319360112610242576001600160a01b0361160f61189a565b1682526007602052604082209160405180926020855492838152019483526020832092905b82821061164b5761023e85610f0281890382611794565b835486529485019460019384019390910190611634565b50346102465760203660031901126102465760406116d191600435815260036020522061168e816117b5565b9061169b600182016117b5565b60028201549160038101546004820154906116df600660ff6005860154169401549460405198899860e08a5260e08a019061185a565b9088820360208a015261185a565b94604087015260608601526080850152151560a084015260c08301520390f35b9050346102425781600319360112610242576001546001600160a01b03168152602090f35b90600182811c92168015611754575b602083101461173e57565b634e487b7160e01b600052602260045260246000fd5b91607f1691611733565b60e081019081106001600160401b0382111761050757604052565b60a081019081106001600160401b0382111761050757604052565b90601f801991011681019081106001600160401b0382111761050757604052565b906040519182600082546117c881611724565b9081845260209460019160018116908160001461183857506001146117f9575b5050506117f792500383611794565b565b600090815285812095935091905b8183106118205750506117f793508201013880806117e8565b85548884018501529485019487945091830191611807565b925050506117f794925060ff191682840152151560051b8201013880806117e8565b919082519283825260005b848110611886575050826000602080949584010152601f8019910116010190565b602081830181015184830182015201611865565b600435906001600160a01b03821682036118b057565b600080fd5b602090602060408183019282815285518094520193019160005b8281106118dd575050505090565b8351855293810193928101926001016118cf565b805482101561094b5760005260206000200190600090565b9181601f840112156118b0578235916001600160401b0383116118b057602083818601950101116118b057565b1561193d57565b60405162461bcd60e51b815260206004820152600e60248201526d24b73b30b634b21034b9b9bab2b960911b6044820152606490fd5b805182101561094b5760209160051b010190565b60001981146119965760010190565b634e487b7160e01b600052601160045260246000fd5b6001600160401b0381116105075760051b60200190565b156119ca57565b60405162461bcd60e51b815260206004820152601060248201526f149958dbdc99081b9bdd08199bdd5b9960821b6044820152606490fd5b15611a0957565b60405162461bcd60e51b81526020600482015260136024820152724163746976697479206e6f742061637469766560681b6044820152606490fd5b15611a4b57565b60405162461bcd60e51b81526020600482015260126024820152711058dd1a5d9a5d1e481b9bdd08199bdd5b9960721b6044820152606490fd5b9291926001600160401b0382116105075760405191611aae601f8201601f191660200184611794565b8294818452818301116118b0578281602093846000960137010152565b6000546001600160a01b03163303611adf57565b60405163118cdaa760e01b8152336004820152602490fd5b60ff60005460a01c16611b0657565b60405163d93c066560e01b8152600490fdfea164736f6c6343000818000a",
  "devdoc": {
    "details": "Issues badges and VNDC tokens for student activities",
    "errors": {
      "EnforcedPause()": [
        {
          "details": "The operation failed because the contract is paused."
        }
      ],
      "ExpectedPause()": [
        {
          "details": "The operation failed because the contract is not paused."
        }
      ],
      "OwnableInvalidOwner(address)": [
        {
          "details": "The owner is not a valid owner account. (eg. `address(0)`)"
        }
      ],
      "OwnableUnauthorizedAccount(address)": [
        {
          "details": "The caller account is not authorized to perform an operation."
        }
      ]
    },
    "events": {
      "Paused(address)": {
        "details": "Emitted when the pause is triggered by `account`."
      },
      "Unpaused(address)": {
        "details": "Emitted when the pause is lifted by `account`."
      }
    },
    "kind": "dev",
    "methods": {
      "addIssuer(address)": {
        "params": {
          "issuer": "Address to add as issuer"
        }
      },
      "claimActivity(uint256)": {
        "params": {
          "recordId": "Activity record ID"
        }
      },
      "createActivityBadge(string,string)": {
        "params": {
          "name": "Badge name",
          "uri": "Badge URI"
        },
        "returns": {
          "_0": "badgeId ID of created badge"
        }
      },
      "deactivateActivity(uint256)": {
        "params": {
          "activityId": "Activity ID"
        }
      },
      "getActivities()": {
        "returns": {
          "_0": "Array of activity IDs"
        }
      },
      "getActivity(uint256)": {
        "params": {
          "activityId": "Activity ID"
        },
        "returns": {
          "_0": "Activity struct"
        }
      },
      "getActivityRecord(uint256)": {
        "params": {
          "recordId": "Record ID"
        },
        "returns": {
          "_0": "ActivityRecord struct"
        }
      },
      "getClaimCount(address,uint256)": {
        "params": {
          "activityId": "Activity ID",
          "student": "Student address"
        },
        "returns": {
          "_0": "Number of claims"
        }
      },
      "getCompletedActivities(address)": {
        "params": {
          "student": "Student address"
        },
        "returns": {
          "_0": "Array of completed record IDs"
        }
      },
      "getStudentActivities(address)": {
        "params": {
          "student": "Student address"
        },
        "returns": {
          "_0": "Array of record IDs"
        }
      },
      "isIssuer(address)": {
        "params": {
          "addr": "Address to check"
        },
        "returns": {
          "_0": "true if address is authorized issuer"
        }
      },
      "logActivity(address,uint256,string)": {
        "params": {
          "activityId": "Activity ID",
          "metadata": "Additional metadata",
          "student": "Student address"
        },
        "returns": {
          "_0": "recordId ID of the activity record"
        }
      },
      "owner()": {
        "details": "Returns the address of the current owner."
      },
      "paused()": {
        "details": "Returns true if the contract is paused, and false otherwise."
      },
      "registerActivity(string,string,uint256,uint256,uint256)": {
        "params": {
          "badgeTokenId": "Badge token ID",
          "description": "Activity description",
          "maxClaimsPerStudent": "Max claims allowed per student",
          "name": "Activity name",
          "rewardAmount": "VNDC reward amount"
        },
        "returns": {
          "_0": "activityId ID of registered activity"
        }
      },
      "removeIssuer(address)": {
        "params": {
          "issuer": "Address to remove as issuer"
        }
      },
      "renounceOwnership()": {
        "details": "Leaves the contract without owner. It will not be possible to call `onlyOwner` functions. Can only be called by the current owner. NOTE: Renouncing ownership will leave the contract without an owner, thereby disabling any functionality that is only available to the owner."
      },
      "transferOwnership(address)": {
        "details": "Transfers ownership of the contract to a new account (`newOwner`). Can only be called by the current owner."
      }
    },
    "title": "ExtracurricularReward",
    "version": 1
  },
  "userdoc": {
    "events": {
      "IssuerAdded(address)": {
        "notice": "Events"
      }
    },
    "kind": "user",
    "methods": {
      "activities(uint256)": {
        "notice": "Activity storage"
      },
      "activityBadge()": {
        "notice": "Reference to activity badge contract"
      },
      "activityRecords(uint256)": {
        "notice": "Activity records"
      },
      "addIssuer(address)": {
        "notice": "Add authorized issuer"
      },
      "claimActivity(uint256)": {
        "notice": "Claim reward for logged activity"
      },
      "claimCounts(address,uint256)": {
        "notice": "Track claims per student per activity"
      },
      "constructor": {
        "notice": "Initialize with VNDC and badge contracts"
      },
      "createActivityBadge(string,string)": {
        "notice": "Create activity badge (helper for deployment)"
      },
      "deactivateActivity(uint256)": {
        "notice": "Deactivate activity"
      },
      "getActivities()": {
        "notice": "Get all activities"
      },
      "getActivity(uint256)": {
        "notice": "Get activity details"
      },
      "getActivityRecord(uint256)": {
        "notice": "Get activity record details"
      },
      "getClaimCount(address,uint256)": {
        "notice": "Get student's claimed rewards count for activity"
      },
      "getCompletedActivities(address)": {
        "notice": "Get student's completed (claimed) activities"
      },
      "getStudentActivities(address)": {
        "notice": "Get student's activity records"
      },
      "isIssuer(address)": {
        "notice": "Check if address is issuer"
      },
      "issuers(address)": {
        "notice": "Issuer management"
      },
      "logActivity(address,uint256,string)": {
        "notice": "Log student participation in activity"
      },
      "pause()": {
        "notice": "Pause activity claiming"
      },
      "registerActivity(string,string,uint256,uint256,uint256)": {
        "notice": "Register new activity type"
      },
      "removeIssuer(address)": {
        "notice": "Remove authorized issuer"
      },
      "studentActivities(address,uint256)": {
        "notice": "Student activity history"
      },
      "unpause()": {
        "notice": "Resume activity claiming"
      },
      "vndc()": {
        "notice": "Reference to VNDC token"
      }
    },
    "notice": "Manages extracurricular activity rewards",
    "version": 1
  },
  "storageLayout": {
    "storage": [
      {
        "astId": 8,
        "contract": "contracts/modules/004-rewards-extracurricular/ExtracurricularReward.sol:ExtracurricularReward",
        "label": "_owner",
        "offset": 0,
        "slot": "0",
        "type": "t_address"
      },
      {
        "astId": 4971,
        "contract": "contracts/modules/004-rewards-extracurricular/ExtracurricularReward.sol:ExtracurricularReward",
        "label": "_paused",
        "offset": 20,
        "slot": "0",
        "type": "t_bool"
      },
      {
        "astId": 14623,
        "contract": "contracts/modules/004-rewards-extracurricular/ExtracurricularReward.sol:ExtracurricularReward",
        "label": "vndc",
        "offset": 0,
        "slot": "1",
        "type": "t_contract(VNDC)11945"
      },
      {
        "astId": 14627,
        "contract": "contracts/modules/004-rewards-extracurricular/ExtracurricularReward.sol:ExtracurricularReward",
        "label": "activityBadge",
        "offset": 0,
        "slot": "2",
        "type": "t_contract(IActivityBadge)15378"
      },
      {
        "astId": 14633,
        "contract": "contracts/modules/004-rewards-extracurricular/ExtracurricularReward.sol:ExtracurricularReward",
        "label": "activities",
        "offset": 0,
        "slot": "3",
        "type": "t_mapping(t_uint256,t_struct(Activity)15394_storage)"
      },
      {
        "astId": 14636,
        "contract": "contracts/modules/004-rewards-extracurricular/ExtracurricularReward.sol:ExtracurricularReward",
        "label": "activityIds",
        "offset": 0,
        "slot": "4",
        "type": "t_array(t_uint256)dyn_storage"
      },
      {
        "astId": 14642,
        "contract": "contracts/modules/004-rewards-extracurricular/ExtracurricularReward.sol:ExtracurricularReward",
        "label": "activityRecords",
        "offset": 0,
        "slot": "5",
        "type": "t_mapping(t_uint256,t_struct(ActivityRecord)15406_storage)"
      },
      {
        "astId": 14644,
        "contract": "contracts/modules/004-rewards-extracurricular/ExtracurricularReward.sol:ExtracurricularReward",
        "label": "_recordIdCounter",
        "offset": 0,
        "slot": "6",
        "type": "t_uint256"
      },
      {
        "astId": 14650,
        "contract": "contracts/modules/004-rewards-extracurricular/ExtracurricularReward.sol:ExtracurricularReward",
        "label": "studentActivities",
        "offset": 0,
        "slot": "7",
        "type": "t_mapping(t_address,t_array(t_uint256)dyn_storage)"
      },
      {
        "astId": 14657,
        "contract": "contracts/modules/004-rewards-extracurricular/ExtracurricularReward.sol:ExtracurricularReward",
        "label": "claimCounts",
        "offset": 0,
        "slot": "8",
        "type": "t_mapping(t_address,t_mapping(t_uint256,t_uint256))"
      },
      {
        "astId": 14662,
        "contract": "contracts/modules/004-rewards-extracurricular/ExtracurricularReward.sol:ExtracurricularReward",
        "label": "issuers",
        "offset": 0,
        "slot": "9",
        "type": "t_mapping(t_address,t_bool)"
      }
    ],
    "types": {
      "t_address": {
        "encoding": "inplace",
        "label": "address",
        "numberOfBytes": "20"
      },
      "t_array(t_uint256)dyn_storage": {
        "base": "t_uint256",
        "encoding": "dynamic_array",
        "label": "uint256[]",
        "numberOfBytes": "32"
      },
      "t_bool": {
        "encoding": "inplace",
        "label": "bool",
        "numberOfBytes": "1"
      },
      "t_contract(IActivityBadge)15378": {
        "encoding": "inplace",
        "label": "contract IActivityBadge",
        "numberOfBytes": "20"
      },
      "t_contract(VNDC)11945": {
        "encoding": "inplace",
        "label": "contract VNDC",
        "numberOfBytes": "20"
      },
      "t_mapping(t_address,t_array(t_uint256)dyn_storage)": {
        "encoding": "mapping",
        "key": "t_address",
        "label": "mapping(address => uint256[])",
        "numberOfBytes": "32",
        "value": "t_array(t_uint256)dyn_storage"
      },
      "t_mapping(t_address,t_bool)": {
        "encoding": "mapping",
        "key": "t_address",
        "label": "mapping(address => bool)",
        "numberOfBytes": "32",
        "value": "t_bool"
      },
      "t_mapping(t_address,t_mapping(t_uint256,t_uint256))": {
        "encoding": "mapping",
        "key": "t_address",
        "label": "mapping(address => mapping(uint256 => uint256))",
        "numberOfBytes": "32",
        "value": "t_mapping(t_uint256,t_uint256)"
      },
      "t_mapping(t_uint256,t_struct(Activity)15394_storage)": {
        "encoding": "mapping",
        "key": "t_uint256",
        "label": "mapping(uint256 => struct IExtracurricularReward.Activity)",
        "numberOfBytes": "32",
        "value": "t_struct(Activity)15394_storage"
      },
      "t_mapping(t_uint256,t_struct(ActivityRecord)15406_storage)": {
        "encoding": "mapping",
        "key": "t_uint256",
        "label": "mapping(uint256 => struct IExtracurricularReward.ActivityRecord)",
        "numberOfBytes": "32",
        "value": "t_struct(ActivityRecord)15406_storage"
      },
      "t_mapping(t_uint256,t_uint256)": {
        "encoding": "mapping",
        "key": "t_uint256",
        "label": "mapping(uint256 => uint256)",
        "numberOfBytes": "32",
        "value": "t_uint256"
      },
      "t_string_storage": {
        "encoding": "bytes",
        "label": "string",
        "numberOfBytes": "32"
      },
      "t_struct(Activity)15394_storage": {
        "encoding": "inplace",
        "label": "struct IExtracurricularReward.Activity",
        "members": [
          {
            "astId": 15381,
            "contract": "contracts/modules/004-rewards-extracurricular/ExtracurricularReward.sol:ExtracurricularReward",
            "label": "name",
            "offset": 0,
            "slot": "0",
            "type": "t_string_storage"
          },
          {
            "astId": 15383,
            "contract": "contracts/modules/004-rewards-extracurricular/ExtracurricularReward.sol:ExtracurricularReward",
            "label": "description",
            "offset": 0,
            "slot": "1",
            "type": "t_string_storage"
          },
          {
            "astId": 15385,
            "contract": "contracts/modules/004-rewards-extracurricular/ExtracurricularReward.sol:ExtracurricularReward",
            "label": "rewardAmount",
            "offset": 0,
            "slot": "2",
            "type": "t_uint256"
          },
          {
            "astId": 15387,
            "contract": "contracts/modules/004-rewards-extracurricular/ExtracurricularReward.sol:ExtracurricularReward",
            "label": "badgeTokenId",
            "offset": 0,
            "slot": "3",
            "type": "t_uint256"
          },
          {
            "astId": 15389,
            "contract": "contracts/modules/004-rewards-extracurricular/ExtracurricularReward.sol:ExtracurricularReward",
            "label": "maxClaimsPerStudent",
            "offset": 0,
            "slot": "4",
            "type": "t_uint256"
          },
          {
            "astId": 15391,
            "contract": "contracts/modules/004-rewards-extracurricular/ExtracurricularReward.sol:ExtracurricularReward",
            "label": "active",
            "offset": 0,
            "slot": "5",
            "type": "t_bool"
          },
          {
            "astId": 15393,
            "contract": "contracts/modules/004-rewards-extracurricular/ExtracurricularReward.sol:ExtracurricularReward",
            "label": "createdAt",
            "offset": 0,
            "slot": "6",
            "type": "t_uint256"
          }
        ],
        "numberOfBytes": "224"
      },
      "t_struct(ActivityRecord)15406_storage": {
        "encoding": "inplace",
        "label": "struct IExtracurricularReward.ActivityRecord",
        "members": [
          {
            "astId": 15397,
            "contract": "contracts/modules/004-rewards-extracurricular/ExtracurricularReward.sol:ExtracurricularReward",
            "label": "student",
            "offset": 0,
            "slot": "0",
            "type": "t_address"
          },
          {
            "astId": 15399,
            "contract": "contracts/modules/004-rewards-extracurricular/ExtracurricularReward.sol:ExtracurricularReward",
            "label": "activityId",
            "offset": 0,
            "slot": "1",
            "type": "t_uint256"
          },
          {
            "astId": 15401,
            "contract": "contracts/modules/004-rewards-extracurricular/ExtracurricularReward.sol:ExtracurricularReward",
            "label": "timestamp",
            "offset": 0,
            "slot": "2",
            "type": "t_uint256"
          },
          {
            "astId": 15403,
            "contract": "contracts/modules/004-rewards-extracurricular/ExtracurricularReward.sol:ExtracurricularReward",
            "label": "rewarded",
            "offset": 0,
            "slot": "3",
            "type": "t_bool"
          },
          {
            "astId": 15405,
            "contract": "contracts/modules/004-rewards-extracurricular/ExtracurricularReward.sol:ExtracurricularReward",
            "label": "metadata",
            "offset": 0,
            "slot": "4",
            "type": "t_string_storage"
          }
        ],
        "numberOfBytes": "160"
      },
      "t_uint256": {
        "encoding": "inplace",
        "label": "uint256",
        "numberOfBytes": "32"
      }
    }
  }
}