{
  "address": "0x8413712C5C4EeC5a000DB328B50D1Bf738532fEC",
  "abi": [
    {
      "inputs": [
        {
          "internalType": "address",
          "name": "_paymentToken",
          "type": "address"
        }
      ],
      "stateMutability": "nonpayable",
      "type": "constructor"
    },
    {
      "inputs": [
        {
          "internalType": "address",
          "name": "owner",
          "type": "address"
        }
      ],
      "name": "OwnableInvalidOwner",
      "type": "error"
    },
    {
      "inputs": [
        {
          "internalType": "address",
          "name": "account",
          "type": "address"
        }
      ],
      "name": "OwnableUnauthorizedAccount",
      "type": "error"
    },
    {
      "inputs": [],
      "name": "ReentrancyGuardReentrantCall",
      "type": "error"
    },
    {
      "anonymous": false,
      "inputs": [
        {
          "indexed": true,
          "internalType": "uint256",
          "name": "campaignId",
          "type": "uint256"
        },
        {
          "indexed": false,
          "internalType": "uint256",
          "name": "timestamp",
          "type": "uint256"
        }
      ],
      "name": "CampaignCancelled",
      "type": "event"
    },
    {
      "anonymous": false,
      "inputs": [
        {
          "indexed": true,
          "internalType": "uint256",
          "name": "campaignId",
          "type": "uint256"
        },
        {
          "indexed": true,
          "internalType": "address",
          "name": "creator",
          "type": "address"
        },
        {
          "indexed": false,
          "internalType": "string",
          "name": "title",
          "type": "string"
        },
        {
          "indexed": false,
          "internalType": "uint256",
          "name": "goalAmount",
          "type": "uint256"
        },
        {
          "indexed": false,
          "internalType": "uint256",
          "name": "deadline",
          "type": "uint256"
        },
        {
          "indexed": false,
          "internalType": "uint256",
          "name": "timestamp",
          "type": "uint256"
        }
      ],
      "name": "CampaignCreated",
      "type": "event"
    },
    {
      "anonymous": false,
      "inputs": [
        {
          "indexed": true,
          "internalType": "uint256",
          "name": "campaignId",
          "type": "uint256"
        },
        {
          "indexed": false,
          "internalType": "string",
          "name": "newDescription",
          "type": "string"
        },
        {
          "indexed": false,
          "internalType": "uint256",
          "name": "timestamp",
          "type": "uint256"
        }
      ],
      "name": "CampaignUpdated",
      "type": "event"
    },
    {
      "anonymous": false,
      "inputs": [
        {
          "indexed": true,
          "internalType": "uint256",
          "name": "campaignId",
          "type": "uint256"
        },
        {
          "indexed": true,
          "internalType": "address",
          "name": "donor",
          "type": "address"
        },
        {
          "indexed": false,
          "internalType": "uint256",
          "name": "amount",
          "type": "uint256"
        },
        {
          "indexed": false,
          "internalType": "string",
          "name": "message",
          "type": "string"
        },
        {
          "indexed": false,
          "internalType": "uint256",
          "name": "timestamp",
          "type": "uint256"
        }
      ],
      "name": "DonationMade",
      "type": "event"
    },
    {
      "anonymous": false,
      "inputs": [
        {
          "indexed": true,
          "internalType": "uint256",
          "name": "campaignId",
          "type": "uint256"
        },
        {
          "indexed": true,
          "internalType": "address",
          "name": "creator",
          "type": "address"
        },
        {
          "indexed": false,
          "internalType": "uint256",
          "name": "amount",
          "type": "uint256"
        },
        {
          "indexed": false,
          "internalType": "uint256",
          "name": "timestamp",
          "type": "uint256"
        }
      ],
      "name": "FundsWithdrawn",
      "type": "event"
    },
    {
      "anonymous": false,
      "inputs": [
        {
          "indexed": true,
          "internalType": "uint256",
          "name": "campaignId",
          "type": "uint256"
        },
        {
          "indexed": false,
          "internalType": "uint256",
          "name": "matchedAmount",
          "type": "uint256"
        },
        {
          "indexed": false,
          "internalType": "uint256",
          "name": "timestamp",
          "type": "uint256"
        }
      ],
      "name": "MatchingFundApplied",
      "type": "event"
    },
    {
      "anonymous": false,
      "inputs": [
        {
          "indexed": true,
          "internalType": "address",
          "name": "depositor",
          "type": "address"
        },
        {
          "indexed": false,
          "internalType": "uint256",
          "name": "amount",
          "type": "uint256"
        },
        {
          "indexed": false,
          "internalType": "uint256",
          "name": "timestamp",
          "type": "uint256"
        }
      ],
      "name": "MatchingFundDeposited",
      "type": "event"
    },
    {
      "anonymous": false,
      "inputs": [
        {
          "indexed": true,
          "internalType": "uint256",
          "name": "campaignId",
          "type": "uint256"
        },
        {
          "indexed": false,
          "internalType": "uint256",
          "name": "milestoneIndex",
          "type": "uint256"
        },
        {
          "indexed": false,
          "internalType": "string",
          "name": "description",
          "type": "string"
        },
        {
          "indexed": false,
          "internalType": "uint256",
          "name": "targetAmount",
          "type": "uint256"
        },
        {
          "indexed": false,
          "internalType": "uint256",
          "name": "timestamp",
          "type": "uint256"
        }
      ],
      "name": "MilestoneAdded",
      "type": "event"
    },
    {
      "anonymous": false,
      "inputs": [
        {
          "indexed": true,
          "internalType": "uint256",
          "name": "campaignId",
          "type": "uint256"
        },
        {
          "indexed": false,
          "internalType": "uint256",
          "name": "milestoneIndex",
          "type": "uint256"
        },
        {
          "indexed": false,
          "internalType": "uint256",
          "name": "timestamp",
          "type": "uint256"
        }
      ],
      "name": "MilestoneCompleted",
      "type": "event"
    },
    {
      "anonymous": false,
      "inputs": [
        {
          "indexed": true,
          "internalType": "address",
          "name": "previousOwner",
          "type": "address"
        },
        {
          "indexed": true,
          "internalType": "address",
          "name": "newOwner",
          "type": "address"
        }
      ],
      "name": "OwnershipTransferred",
      "type": "event"
    },
    {
      "anonymous": false,
      "inputs": [
        {
          "indexed": true,
          "internalType": "uint256",
          "name": "campaignId",
          "type": "uint256"
        },
        {
          "indexed": true,
          "internalType": "address",
          "name": "donor",
          "type": "address"
        },
        {
          "indexed": false,
          "internalType": "uint256",
          "name": "amount",
          "type": "uint256"
        },
        {
          "indexed": false,
          "internalType": "uint256",
          "name": "timestamp",
          "type": "uint256"
        }
      ],
      "name": "RefundClaimed",
      "type": "event"
    },
    {
      "inputs": [
        {
          "internalType": "uint256",
          "name": "campaignId",
          "type": "uint256"
        },
        {
          "internalType": "string",
          "name": "description",
          "type": "string"
        },
        {
          "internalType": "uint256",
          "name": "targetAmount",
          "type": "uint256"
        }
      ],
      "name": "addMilestone",
      "outputs": [],
      "stateMutability": "nonpayable",
      "type": "function"
    },
    {
      "inputs": [
        {
          "internalType": "uint256",
          "name": "campaignId",
          "type": "uint256"
        },
        {
          "internalType": "uint256",
          "name": "matchAmount",
          "type": "uint256"
        }
      ],
      "name": "applyMatchingFund",
      "outputs": [],
      "stateMutability": "nonpayable",
      "type": "function"
    },
    {
      "inputs": [
        {
          "internalType": "uint256",
          "name": "campaignId",
          "type": "uint256"
        }
      ],
      "name": "cancelCampaign",
      "outputs": [],
      "stateMutability": "nonpayable",
      "type": "function"
    },
    {
      "inputs": [
        {
          "internalType": "uint256",
          "name": "campaignId",
          "type": "uint256"
        }
      ],
      "name": "claimRefund",
      "outputs": [],
      "stateMutability": "nonpayable",
      "type": "function"
    },
    {
      "inputs": [
        {
          "internalType": "uint256",
          "name": "campaignId",
          "type": "uint256"
        },
        {
          "internalType": "uint256",
          "name": "milestoneIndex",
          "type": "uint256"
        }
      ],
      "name": "completeMilestone",
      "outputs": [],
      "stateMutability": "nonpayable",
      "type": "function"
    },
    {
      "inputs": [
        {
          "internalType": "string",
          "name": "title",
          "type": "string"
        },
        {
          "internalType": "string",
          "name": "description",
          "type": "string"
        },
        {
          "internalType": "string",
          "name": "imageURI",
          "type": "string"
        },
        {
          "internalType": "uint8",
          "name": "category",
          "type": "uint8"
        },
        {
          "internalType": "uint256",
          "name": "goalAmount",
          "type": "uint256"
        },
        {
          "internalType": "uint256",
          "name": "durationDays",
          "type": "uint256"
        },
        {
          "internalType": "uint256",
          "name": "minDonation",
          "type": "uint256"
        }
      ],
      "name": "createCampaign",
      "outputs": [
        {
          "internalType": "uint256",
          "name": "campaignId",
          "type": "uint256"
        }
      ],
      "stateMutability": "nonpayable",
      "type": "function"
    },
    {
      "inputs": [
        {
          "internalType": "uint256",
          "name": "amount",
          "type": "uint256"
        }
      ],
      "name": "depositMatchingFund",
      "outputs": [],
      "stateMutability": "nonpayable",
      "type": "function"
    },
    {
      "inputs": [
        {
          "internalType": "uint256",
          "name": "campaignId",
          "type": "uint256"
        },
        {
          "internalType": "uint256",
          "name": "amount",
          "type": "uint256"
        },
        {
          "internalType": "string",
          "name": "message",
          "type": "string"
        }
      ],
      "name": "donate",
      "outputs": [],
      "stateMutability": "nonpayable",
      "type": "function"
    },
    {
      "inputs": [
        {
          "internalType": "uint256",
          "name": "campaignId",
          "type": "uint256"
        }
      ],
      "name": "getCampaign",
      "outputs": [
        {
          "internalType": "address",
          "name": "creator",
          "type": "address"
        },
        {
          "internalType": "string",
          "name": "title",
          "type": "string"
        },
        {
          "internalType": "string",
          "name": "description",
          "type": "string"
        },
        {
          "internalType": "string",
          "name": "imageURI",
          "type": "string"
        },
        {
          "internalType": "enum IFundraising.CampaignCategory",
          "name": "category",
          "type": "uint8"
        },
        {
          "internalType": "uint256",
          "name": "goalAmount",
          "type": "uint256"
        },
        {
          "internalType": "uint256",
          "name": "raisedAmount",
          "type": "uint256"
        },
        {
          "internalType": "uint256",
          "name": "donorCount",
          "type": "uint256"
        },
        {
          "internalType": "uint256",
          "name": "deadline",
          "type": "uint256"
        },
        {
          "internalType": "uint256",
          "name": "minDonation",
          "type": "uint256"
        },
        {
          "internalType": "enum IFundraising.CampaignStatus",
          "name": "status",
          "type": "uint8"
        },
        {
          "internalType": "uint256",
          "name": "createdAt",
          "type": "uint256"
        }
      ],
      "stateMutability": "view",
      "type": "function"
    },
    {
      "inputs": [
        {
          "internalType": "uint256",
          "name": "campaignId",
          "type": "uint256"
        }
      ],
      "name": "getCampaignDonors",
      "outputs": [
        {
          "internalType": "address[]",
          "name": "",
          "type": "address[]"
        }
      ],
      "stateMutability": "view",
      "type": "function"
    },
    {
      "inputs": [
        {
          "internalType": "uint256",
          "name": "campaignId",
          "type": "uint256"
        },
        {
          "internalType": "address",
          "name": "donor",
          "type": "address"
        }
      ],
      "name": "getDonation",
      "outputs": [
        {
          "internalType": "uint256",
          "name": "amount",
          "type": "uint256"
        },
        {
          "internalType": "string",
          "name": "lastMessage",
          "type": "string"
        },
        {
          "internalType": "uint256",
          "name": "lastDonatedAt",
          "type": "uint256"
        }
      ],
      "stateMutability": "view",
      "type": "function"
    },
    {
      "inputs": [
        {
          "internalType": "uint256",
          "name": "campaignId",
          "type": "uint256"
        }
      ],
      "name": "getMilestones",
      "outputs": [
        {
          "internalType": "string[]",
          "name": "descriptions",
          "type": "string[]"
        },
        {
          "internalType": "uint256[]",
          "name": "targets",
          "type": "uint256[]"
        },
        {
          "internalType": "bool[]",
          "name": "completed",
          "type": "bool[]"
        }
      ],
      "stateMutability": "view",
      "type": "function"
    },
    {
      "inputs": [],
      "name": "getPlatformStats",
      "outputs": [
        {
          "internalType": "uint256",
          "name": "totalCampaigns",
          "type": "uint256"
        },
        {
          "internalType": "uint256",
          "name": "totalRaised",
          "type": "uint256"
        },
        {
          "internalType": "uint256",
          "name": "totalDonors",
          "type": "uint256"
        },
        {
          "internalType": "uint256",
          "name": "totalSuccessful",
          "type": "uint256"
        },
        {
          "internalType": "uint256",
          "name": "matchingFundBalance_",
          "type": "uint256"
        }
      ],
      "stateMutability": "view",
      "type": "function"
    },
    {
      "inputs": [],
      "name": "getTotalCampaigns",
      "outputs": [
        {
          "internalType": "uint256",
          "name": "",
          "type": "uint256"
        }
      ],
      "stateMutability": "view",
      "type": "function"
    },
    {
      "inputs": [
        {
          "internalType": "address",
          "name": "user",
          "type": "address"
        }
      ],
      "name": "getUserCampaigns",
      "outputs": [
        {
          "internalType": "uint256[]",
          "name": "",
          "type": "uint256[]"
        }
      ],
      "stateMutability": "view",
      "type": "function"
    },
    {
      "inputs": [
        {
          "internalType": "address",
          "name": "user",
          "type": "address"
        }
      ],
      "name": "getUserDonations",
      "outputs": [
        {
          "internalType": "uint256[]",
          "name": "",
          "type": "uint256[]"
        }
      ],
      "stateMutability": "view",
      "type": "function"
    },
    {
      "inputs": [],
      "name": "matchingFundBalance",
      "outputs": [
        {
          "internalType": "uint256",
          "name": "",
          "type": "uint256"
        }
      ],
      "stateMutability": "view",
      "type": "function"
    },
    {
      "inputs": [],
      "name": "nextCampaignId",
      "outputs": [
        {
          "internalType": "uint256",
          "name": "",
          "type": "uint256"
        }
      ],
      "stateMutability": "view",
      "type": "function"
    },
    {
      "inputs": [],
      "name": "owner",
      "outputs": [
        {
          "internalType": "address",
          "name": "",
          "type": "address"
        }
      ],
      "stateMutability": "view",
      "type": "function"
    },
    {
      "inputs": [],
      "name": "paymentToken",
      "outputs": [
        {
          "internalType": "contract IERC20",
          "name": "",
          "type": "address"
        }
      ],
      "stateMutability": "view",
      "type": "function"
    },
    {
      "inputs": [],
      "name": "platformFeeBps",
      "outputs": [
        {
          "internalType": "uint256",
          "name": "",
          "type": "uint256"
        }
      ],
      "stateMutability": "view",
      "type": "function"
    },
    {
      "inputs": [],
      "name": "renounceOwnership",
      "outputs": [],
      "stateMutability": "nonpayable",
      "type": "function"
    },
    {
      "inputs": [
        {
          "internalType": "uint256",
          "name": "feeBps",
          "type": "uint256"
        }
      ],
      "name": "setPlatformFeeBps",
      "outputs": [],
      "stateMutability": "nonpayable",
      "type": "function"
    },
    {
      "inputs": [],
      "name": "totalDonorsPlatform",
      "outputs": [
        {
          "internalType": "uint256",
          "name": "",
          "type": "uint256"
        }
      ],
      "stateMutability": "view",
      "type": "function"
    },
    {
      "inputs": [],
      "name": "totalRaisedPlatform",
      "outputs": [
        {
          "internalType": "uint256",
          "name": "",
          "type": "uint256"
        }
      ],
      "stateMutability": "view",
      "type": "function"
    },
    {
      "inputs": [],
      "name": "totalSuccessfulCampaigns",
      "outputs": [
        {
          "internalType": "uint256",
          "name": "",
          "type": "uint256"
        }
      ],
      "stateMutability": "view",
      "type": "function"
    },
    {
      "inputs": [
        {
          "internalType": "address",
          "name": "newOwner",
          "type": "address"
        }
      ],
      "name": "transferOwnership",
      "outputs": [],
      "stateMutability": "nonpayable",
      "type": "function"
    },
    {
      "inputs": [
        {
          "internalType": "uint256",
          "name": "campaignId",
          "type": "uint256"
        },
        {
          "internalType": "string",
          "name": "newDescription",
          "type": "string"
        },
        {
          "internalType": "string",
          "name": "newImageURI",
          "type": "string"
        }
      ],
      "name": "updateCampaign",
      "outputs": [],
      "stateMutability": "nonpayable",
      "type": "function"
    },
    {
      "inputs": [
        {
          "internalType": "uint256",
          "name": "campaignId",
          "type": "uint256"
        }
      ],
      "name": "withdrawFunds",
      "outputs": [],
      "stateMutability": "nonpayable",
      "type": "function"
    },
    {
      "inputs": [
        {
          "internalType": "uint256",
          "name": "amount",
          "type": "uint256"
        }
      ],
      "name": "withdrawPlatformFees",
      "outputs": [],
      "stateMutability": "nonpayable",
      "type": "function"
    }
  ],
  "transactionHash": "0xac4ddc0f4853e194a45575a888266ca951252f35c3664a95fd15694ee7c2e852",
  "args": [
    "0xEFaA690F939cac21Cdf197B83742c06FF95298b7"
  ],
  "numDeployments": 1,
  "solcInputHash": "eb601d3608d3af4a7c3e286f9180c4ea",
  "bytecode": "0x6080346200011557601f6200283538819003918201601f19168301916001600160401b038311848410176200011a578084926020946040528339810103126200011557516001600160a01b038082169182900362000115573315620000fc576000549060018060a01b0319913383821617600055604051913391167f8be0079c531659141344cd1fd0a4f28419497f9722a3daafe3b4186f6b6457e0600080a3600180558215620000cd57506002541617600255600160035560fa6004556040516127049081620001318239f35b62461bcd60e51b815260206004820152600a6024820152692d32b937903a37b5b2b760b11b6044820152606490fd5b604051631e4fbdf760e01b815260006004820152602490fd5b600080fd5b634e487b7160e01b600052604160045260246000fdfe608060408181526004908136101561001657600080fd5b60009260e08435811c918262d6403d14612118575081630401a3a2146120f957816309a30ff4146120da5781631026373f14611fc8578163136d888314611f79578163155dd5ee14611dc457816316c3cdf514611a8157816316f43dd414611a41578163209b7d5f1461198d57816322dcd13e1461196e5781633013ce291461194557816342c549c01461118957816345598b4a1461109f578163478e16f814610ddf5781634828e15514610dc05781635598f8cc14610c4b575080635b7baf6414610a8f578063617b8a5c1461098b5780636aa21416146108e5578063715018a614610888578063732435b21461084d5780637903a7561461082e5780637b693708146106e35780638da5cb5b146106bb57806398df912e14610497578063a1e5084c14610445578063c2bacfa8146103bd578063c580c94214610364578063f2fde38b146102dd5763f326206b1461016f57600080fd5b346102d95761017d366121f1565b909283855260096020528285209061019f60018060a01b038354163314612207565b60108201548310156102a657601282019160ff6101bc8585612604565b90549060031b1c1661026f576101da8460116006840154930161249c565b90549060031b1c11610237575090610214817fd4dbda378623f00b72ef135b4579b7ba064c49645217eb107d663831efac63589493612604565b81549060031b9060ff6001831b921b19161790558151908152426020820152a280f35b606490602085519162461bcd60e51b83528201526012602482015271139bdd081c995858da1959081d185c99d95d60721b6044820152fd5b845162461bcd60e51b81526020818401526011602482015270105b1c9958591e4818dbdb5c1b195d1959607a1b6044820152606490fd5b606490602085519162461bcd60e51b8352820152600d60248201526c092dcecc2d8d2c840d2dcc8caf609b1b6044820152fd5b8280fd5b5090346102d95760203660031901126102d9576102f86121db565b906103016126cb565b6001600160a01b0391821692831561034e57505082546001600160a01b0319811683178455167f8be0079c531659141344cd1fd0a4f28419497f9722a3daafe3b4186f6b6457e08380a380f35b51631e4fbdf760e01b8152908101849052602490fd5b5090346102d95760203660031901126102d9578035916103826126cb565b6103e8831161039057505580f35b906020606492519162461bcd60e51b835282015260076024820152664d61782031302560c81b6044820152fd5b508290346104415780600319360112610441576024356001600160a01b03811693908490036102d9573582526009602052808220928252600d830160205261041d818084205493600e8601602052600f828220960160205220549361250e565b9261043982519485948552606060208601526060850190612167565b918301520390f35b5080fd5b83823461044157602036600319011261044157610493916104809082906001600160a01b036104726121db565b168152600a602052206125b3565b90519182916020835260208301906121a7565b0390f35b5082903461044157606036600319011261044157823590602493843567ffffffffffffffff81116106b7576104cf9036908301612134565b9290956044359085875260096020528287206104f560018060a01b038254163314612207565b60ff600982015416858110156106a55761050f9015612241565b85156106765782151580610668575b15610635576010810190815490600160401b918281101561062357806001610549920185558461249c565b610612579061055b898d6012946122b4565b61056886601183016124ca565b01805491821015610600579061058391600182018155612604565b60ff82549160031b1b19169055549360001985019485116105ef5750506105df7f9a9d239b8adb10007d5005bf50c7aa61972faf2aeff3e1eefe642dd9e1487d97959697835195869586526080602087015260808601916123d9565b918301524260608301520390a280f35b634e487b7160e01b88526011905286fd5b634e487b7160e01b8a5260418752838afd5b634e487b7160e01b8b528a8852848bfd5b634e487b7160e01b8b5260418852848bfd5b835162461bcd60e51b8152602081870152600e818401526d125b9d985b1a59081d185c99d95d60921b6044820152606490fd5b50600581015483111561051e565b835162461bcd60e51b8152602081870152600a8184015269456d707479206465736360b01b6044820152606490fd5b634e487b7160e01b8952602186528289fd5b8480fd5b838234610441578160031936011261044157905490516001600160a01b039091168152602090f35b50919034610441576106f4366121f1565b6106fc6126cb565b818452600960205284842091610717600a8401541515612457565b600983019360ff8554168181101561081b576107339015612241565b8215158061080f575b156107cc5750906005917f6b63d76ea5dd230b165d1ee31c130f35a4cc4530b73a34978cc6f1e670b915a6876107738486546123fa565b8555600686019361078581865461248f565b85556107938160065461248f565b6006558151908152426020820152a25491015411156107b0575080f35b600160ff198254161790556107c66008546124ff565b60085580f35b606490602088519162461bcd60e51b8352820152601a60248201527f496e73756666696369656e74206d61746368696e672066756e640000000000006044820152fd5b5060055483111561073c565b634e487b7160e01b875260218252602487fd5b8382346104415781600319360112610441576020906003549051908152f35b83823461044157602036600319011261044157610493916104809082906001600160a01b0361087a6121db565b168152600b602052206125b3565b83346108e257806003193601126108e2576108a16126cb565b80546001600160a01b03198116825581906001600160a01b03167f8be0079c531659141344cd1fd0a4f28419497f9722a3daafe3b4186f6b6457e08280a380f35b80fd5b50346102d95760203660031901126102d9576020610942926109056126cb565b6002548554845163a9059cbb60e01b81526001600160a01b0391821684820190815293356020850152958693919092169183918891839160400190565b03925af19081156109825750610956575080f35b6109779060203d60201161097b575b61096f818361241d565b81019061243f565b5080f35b503d610965565b513d84823e3d90fd5b5082903461044157602090816003193601126102d9578335918215610a5f5760025482516323b872dd60e01b8152339681019687523060208801526040870185905294958291869182900360600190829089906001600160a01b03165af1938415610a55577f55acf6cd0a86f35bc17b38548c268b9ea6b192fc3a3acb33fe5c85608e35faaf9394610a38575b50610a258460055461248f565b600555815193845242908401523392a280f35b610a4e90823d841161097b5761096f818361241d565b5085610a18565b82513d87823e3d90fd5b8490606492519162461bcd60e51b8352820152600b60248201526a16995c9bc8185b5bdd5b9d60aa1b6044820152fd5b5082903461044157602090816003193601126102d957833590610ab0612624565b8184526009835280842092610ac483612647565b60ff60098501541686811015610c385760028114908115610c2d575b5015610bfa57600d84019333865284825282862054948515610bc957610b599697600684938893338c5285528a8781205501610b1d8382546123fa565b9055600254855163a9059cbb60e01b8152339281019283526020830193909352919788926001600160a01b03169183918b918391604090910190565b03925af1948515610bbf577f8faa8f78dba131fcf5a374c153d58b8f646053b7c2789321a5449f127258e1cd939495610ba2575b50815194855242908501523393a36001805580f35b610bb890823d841161097b5761096f818361241d565b5086610b8d565b82513d88823e3d90fd5b835162461bcd60e51b8152808901849052600b60248201526a2737903237b730ba34b7b760a91b6044820152606490fd5b8590606492519162461bcd60e51b8352820152600e60248201526d4e6f7420726566756e6461626c6560901b6044820152fd5b600391501487610ae0565b634e487b7160e01b865260218752602486fd5b905083346108e25760203660031901126108e2578335815260096020528281209060ff6009830154169085821015610d6b57811580610db3575b610d91575b600160a01b600190038354168684015460ff1694600585015490600686015490600c87015491600788015493600889015495600a8a01549960018101610ccf9061250e565b9c610cdc6002830161250e565b91600301610ce99061250e565b9281519e8f916101809083528060208401528201610d0691612167565b91818303910152610d1691612167565b8c810360608e0152610d2791612167565b996007811015610d7e5760808c015260a08b015260c08a015288015261010087015261012086015285821015610d6b57508394506101408401526101608301520390f35b634e487b7160e01b815260218652602490fd5b634e487b7160e01b885260218d52602488fd5b6006830154600584015491925010610dac5760015b90610c8a565b6002610da6565b5060078301544211610c85565b8483346104415781600319360112610441576020906005549051908152f35b84929150346102d9573660031901126104415767ffffffffffffffff91833583811161044157610e129036908601612134565b94602492833586811161044157610e2c9036908401612134565b966044359081116102d957610e449036908501612134565b9590936064359460ff86168096036106b7576084359760a435948c1561106f57891561104257600186101580611036575b15610ffe5760068811610fc957908c95949392916003549c610e968e6124ff565b6003558d895260096020528c892080546001600160a01b0319163317815597610ec3908c60018b016122b4565b610ed091600289016122b4565b610edd91600387016122b4565b6007861015610fb85780840160ff1996878254161790558760058501556201518092838102938185041490151715610fa75750507f9a6f279818b6c3ecad22dd882c63460a80cee0df2841c888adb08588aff26c2293610f79898960209c96829996610f4c610f8c974261248f565b956007820196875560c435600883015560098201908154169055600a42910155338152600a8e52206124ca565b54918751936080855260808501916123d9565b9488830152858201524260608201528033940390a351908152f35b634e487b7160e01b85526011905283fd5b634e487b7160e01b85526021905283fd5b8a5162461bcd60e51b81526020818601526010818701526f496e76616c69642063617465676f727960801b6044820152606490fd5b8a5162461bcd60e51b8152602081860152601381870152724475726174696f6e20312d333635206461797360681b6044820152606490fd5b5061016d861115610e75565b8a5162461bcd60e51b8152602081860152600881870152670476f616c203e20360c41b6044820152606490fd5b8a5162461bcd60e51b8152602081860152600b818701526a456d707479207469746c6560a81b6044820152606490fd5b5050346102d95760203660031901126102d957813580845260096020528184208054919391336001600160a01b039182161490811561117c575b5015611148576009019081549060ff8216908082101561113557509160037f36acd1dcb6f0ee33dd3de4e8247261b42637734a3841c141a5e17acd37ef5845949261112660209515612241565b60ff191617905551428152a280f35b634e487b7160e01b875260219052602486fd5b506020606492519162461bcd60e51b8352820152600e60248201526d139bdd08185d5d1a1bdc9a5e995960921b6044820152fd5b90508554163314386110d9565b92939050346108e257602090816003193601126108e2578435815260098252828120936010906010860190601287019682549867ffffffffffffffff8a116119325750908693918451996111e2888260051b018c61241d565b808b52878b01809588528888208989925b848410611906575050505050601161120b91016125b3565b918685519182968793838d54918281520192839d8b52848b20968b915b83601f8401106117305750859061134f985494848410611719575b8484106116ff575b8484106116e5575b8484106116cb575b8484106116b2575b848410611698575b84841061167e575b848410611664575b84841061164a575b50838310611630575b838310611616575b8383106115fc575b8383106115e2575b8383106115c8575b8383106115ae575b838310611594575b83831061157a575b838310611560575b838310611546575b83831061152c575b838310611512575b8383106114f8575b8383106114de575b8383106114c4575b8383106114aa575b838310611490575b838310611476575b83831061145c575b838310611444575b5082821061142c575b828210611414575b5010611404575b509050999897959694939299038361241d565b8351978897606089019060608a5251809152608089019060808160051b8b0101939188905b8282106113cb575050505081611392918986959403858b01526121a7565b938785039088015251928381520193925b8281106113b257505050500390f35b83511515855286955093810193928101926001016113a3565b91939496806113ee600193959899829c9b9d9e607f199082030186528951612167565b9701920192018b9a999798969594939192611374565b60f81c151581520187903861133c565b6001919460ff8560f01c161515815201930184611335565b6001919460ff8560e81c16151581520193018461132d565b9460ff85600194971c16151581520193018438611324565b91948160019160ff8760d81c16151581520195019161131c565b91948160019160ff8760d01c161515815201950191611314565b91948160019160ff8760c81c16151581520195019161130c565b91948160019160ff8760c01c161515815201950191611304565b91948160019160ff8760b81c1615158152019501916112fc565b91948160019160ff8760b01c1615158152019501916112f4565b91948160019160ff8760a81c1615158152019501916112ec565b91948160019160ff8760a01c1615158152019501916112e4565b91948160019160ff8760981c1615158152019501916112dc565b91948160019160ff8760901c1615158152019501916112d4565b91948160019160ff8760881c1615158152019501916112cc565b91948160019160ff8760801c1615158152019501916112c4565b91948160019160ff8760781c1615158152019501916112bc565b91948160019160ff8760701c1615158152019501916112b4565b91948160019160ff8760681c1615158152019501916112ac565b91948160019160ff8760601c1615158152019501916112a4565b91948160019160ff8760581c16151581520195019161129c565b91948160019160ff8760501c161515815201950191611294565b91948160019160ff8760481c16151581520195019161128c565b600191939660ff8785931c1615158152019501918e611283565b92958260019160ff8860381c16151581520196019261127b565b92958260019160ff8860301c161515815201960192611273565b92958260019160ff8860281c16151581520196019261126b565b92958260019160ff88831c161515815201960192611263565b92958260019160ff8860181c16151581520196019261125b565b92958260019160ff8860101c161515815201960192611253565b92958260019160ff8860081c16151581520196019261124b565b92958260019160ff88161515815201960192611243565b959296509361040090858488600195978c5493849384809360ff828198978298958380971615158d52838360081c161515908d01521c161515818a015282828d82828d606090838360181c1615158282015283836080961c16151585820152838360a099828260281c1615158b85015260c09d8e848460301c16151590860152838360381c161515908501521c161515610100820152838360481c161515610120820152838360501c161515610140820152610160848460581c1615159101521c1615156101808d0152828260681c1615156101a08d0152828260701c1615156101c08d0152828260781c1615156101e08d01521c1615156102008a0152828260881c1615156102208a0152828260901c1615156102408a0152828260981c1615156102608a01521c161515610280870152828260a81c1615156102a0870152828260b01c1615156102c0870152828260b81c1615156102e08701521c161515610300840152808260c81c161515610320840152808260d01c161515610340840152808260d81c1615156103608401528082891c161515610380840152808260e81c1615156103a08401528160f01c1615156103c083015260f81c15156103e082015201960191019388948c9296938c95611228565b8293949596979950906001929161191d849361250e565b815201920192019091898b98969594936111f3565b634e487b7160e01b865260419052602485fd5b84833461044157816003193601126104415760025490516001600160a01b039091168152602090f35b505090346102d957826003193601126102d95760209250549051908152f35b505091346108e257602091826003193601126104415792919235815260098352600c82822001908251808584549182815201908194845286842090845b818110611a2457505050816119e091038261241d565b83519485948186019282875251809352850193925b828110611a0457505050500390f35b83516001600160a01b0316855286955093810193928101926001016119f5565b82546001600160a01b0316845292880192600192830192016119ca565b83858434610441578160031936011261044157600354600019810192908311611a6e576020838351908152f35b634e487b7160e01b815260118452602490fd5b838584346104415760603660031901126104415782356024359160443567ffffffffffffffff81116106b757611aba9036908701612134565b929093611ac5612624565b8186526020946009865283872094611ae2600a8701541515612457565b600986019660ff8854168a811015611db157611afe9015612241565b60078701544211611d855760088701548410611d575760025486516323b872dd60e01b815233818d01908152306020820152604081018790526001600160a01b03928491839185169082908f90829060600103925af18015611d4d5784868a8e600e60068f9e9d9c9b9a9998978f90611bac98611d30575b50019d8e611b858d825461248f565b9055338352600d81018952838320611b9e8d825461248f565b9055338352018752206122b4565b338b52600f8901825242878c2055611bc68560065461248f565b600655338b52600c8252868b20868c52825260ff878c20541615611c67575b5060059798999a5091611c299160607f707c35403bf1440654a18246688e63a40331b786fa0a986f60c12beeb6e813409594885195865285015260608401916123d9565b9342908201528033940390a3549101541115611c48575b506001805580f35b600160ff19825416179055611c5e6008546124ff565b60085581611c40565b338b52600c808352878c20878d528352878c20805460ff191660011790558901805490600160401b821015611d1c578c9d5092611cfe888a60059d9e9f611c299896611cde877f707c35403bf1440654a18246688e63a40331b786fa0a986f60c12beeb6e813409d9c9a600160609a01815561249c565b819291549060031b9133831b921b1916179055338152600b8552206124ca565b611d096007546124ff565b6007559294955050918b9a999850611be5565b50634e487b7160e01b8c5260418d5260248cfd5b611d46908b3d8d1161097b5761096f818361241d565b5038611b76565b88513d8d823e3d90fd5b8960649187519162461bcd60e51b835282015260096024820152682132b637bb9036b4b760b91b6044820152fd5b8960649187519162461bcd60e51b83528201526007602482015266115e1c1a5c995960ca1b6044820152fd5b634e487b7160e01b8a5260218b5260248afd5b8285853461044157602092836003193601126102d957813590611de5612624565b8184526009855280842080546001600160a01b03969190611e099088163314612207565b600b810160ff815416611f4257611e1f85612647565b60ff60098301541686811015611f2f57600103611efb57805460ff191660011790556006015484548082029082158383049091141715611ee85796611e6e8392612710611ea0999a04906123fa565b600254855163a9059cbb60e01b8152339881019889526020890183905298919789939091169183918b91839160400190565b03925af1948515610bbf577f3dbb1a26f29aef1264c12ca1285deb60cca5666d8b17100c7ea1602c0a4014f6939495610ba25750815194855242908501523393a36001805580f35b634e487b7160e01b875260118652602487fd5b835162461bcd60e51b8152808701849052600e60248201526d139bdd081cdd58d8d95cdcd99d5b60921b6044820152606490fd5b634e487b7160e01b885260218752602488fd5b835162461bcd60e51b8152808701849052601160248201527020b63932b0b23c903bb4ba34323930bbb760791b6044820152606490fd5b83858434610441578160031936011261044157600354600019810192908311611a6e5760a083836006549060075460085491600554938151958652602086015284015260608301526080820152f35b838584346104415760603660031901126104415782359067ffffffffffffffff906024358281116106b7576120009036908701612134565b926044359081116120d6576120189036908801612134565b85875260096020528387209161203860018060a01b038454163314612207565b60ff600984015416898110156120c357916120a3939161207c7f9ab9062b5287d083fd6fd99f5d5f9c6bafa499d8ae40cbcd58429d25925321e29897969415612241565b61208a8785600286016122b4565b816120af575b50505082519383859485528401916123d9565b4260208301520390a280f35b60036120bb93016122b4565b878080612090565b634e487b7160e01b895260218a52602489fd5b8580fd5b8483346104415781600319360112610441576020906008549051908152f35b8483346104415781600319360112610441576020906007549051908152f35b8590346104415781600319360112610441576020906006548152f35b9181601f840112156121625782359167ffffffffffffffff8311612162576020838186019501011161216257565b600080fd5b919082519283825260005b848110612193575050826000602080949584010152601f8019910116010190565b602081830181015184830182015201612172565b90815180825260208080930193019160005b8281106121c7575050505090565b8351855293810193928101926001016121b9565b600435906001600160a01b038216820361216257565b6040906003190112612162576004359060243590565b1561220e57565b60405162461bcd60e51b815260206004820152600b60248201526a2737ba1031b932b0ba37b960a91b6044820152606490fd5b1561224857565b60405162461bcd60e51b815260206004820152600a6024820152694e6f742061637469766560b01b6044820152606490fd5b90600182811c921680156122aa575b602083101461229457565b634e487b7160e01b600052602260045260246000fd5b91607f1691612289565b90929167ffffffffffffffff81116123c3576122d0825461227a565b601f8111612379575b506000601f82116001146123145781929394600092612309575b50508160011b916000199060031b1c1916179055565b0135905038806122f3565b601f19821694838252602091602081209281905b88821061236157505083600195969710612347575b505050811b019055565b0135600019600384901b60f8161c1916905538808061233d565b80600184968294958701358155019501920190612328565b6000836000526020600020601f840160051c810192602085106123b9575b601f0160051c01915b8281106123ae5750506122d9565b8181556001016123a0565b9092508290612397565b634e487b7160e01b600052604160045260246000fd5b908060209392818452848401376000828201840152601f01601f1916010190565b9190820391821161240757565b634e487b7160e01b600052601160045260246000fd5b90601f8019910116810190811067ffffffffffffffff8211176123c357604052565b90816020910312612162575180151581036121625790565b1561245e57565b60405162461bcd60e51b8152602060048201526009602482015268139bdd08199bdd5b9960ba1b6044820152606490fd5b9190820180921161240757565b80548210156124b45760005260206000200190600090565b634e487b7160e01b600052603260045260246000fd5b8054600160401b8110156123c3576124e79160018201815561249c565b819291549060031b91821b91600019901b1916179055565b60001981146124075760010190565b906040519182600082546125218161227a565b908184526020946001916001811690816000146125915750600114612552575b5050506125509250038361241d565b565b600090815285812095935091905b8183106125795750506125509350820101388080612541565b85548884018501529485019487945091830191612560565b9250505061255094925060ff191682840152151560051b820101388080612541565b90604051918281549182825260209260208301916000526020600020936000905b8282106125ea575050506125509250038361241d565b8554845260019586019588955093810193909101906125d4565b91909180548310156124b457600052601f60206000208360051c01921690565b600260015414612635576002600155565b604051633ee5aeb560e01b8152600490fd5b60005260096020526040600020600981019081549060ff821660048110156126b5576126b05760078101544211156126b0576006810154600590910154116126a55750600160ff198254161790556126a06008546124ff565b600855565b60ff19166002179055565b505050565b634e487b7160e01b600052602160045260246000fd5b6000546001600160a01b031633036126df57565b60405163118cdaa760e01b8152336004820152602490fdfea164736f6c6343000818000a",
  "devdoc": {
    "author": "VNDC Education Platform",
    "details": "Module 020  counters start at 1, Ownable(msg.sender)",
    "errors": {
      "OwnableInvalidOwner(address)": [
        {
          "details": "The owner is not a valid owner account. (eg. `address(0)`)"
        }
      ],
      "OwnableUnauthorizedAccount(address)": [
        {
          "details": "The caller account is not authorized to perform an operation."
        }
      ],
      "ReentrancyGuardReentrantCall()": [
        {
          "details": "Unauthorized reentrant call."
        }
      ]
    },
    "kind": "dev",
    "methods": {
      "owner()": {
        "details": "Returns the address of the current owner."
      },
      "renounceOwnership()": {
        "details": "Leaves the contract without owner. It will not be possible to call `onlyOwner` functions. Can only be called by the current owner. NOTE: Renouncing ownership will leave the contract without an owner, thereby disabling any functionality that is only available to the owner."
      },
      "transferOwnership(address)": {
        "details": "Transfers ownership of the contract to a new account (`newOwner`). Can only be called by the current owner."
      }
    },
    "title": "Fundraising",
    "version": 1
  },
  "userdoc": {
    "kind": "user",
    "methods": {
      "withdrawPlatformFees(uint256)": {
        "notice": "Owner can withdraw accumulated platform fees"
      }
    },
    "notice": "Campus crowdfunding  create campaigns, donate VNDC, matching fund.         Students can raise funds for projects, research, clubs, events, and startups.         Supports milestones, refunds on failed campaigns, and admin matching fund.",
    "version": 1
  },
  "storageLayout": {
    "storage": [
      {
        "astId": 8,
        "contract": "contracts/modules/020-fundraising/Fundraising.sol:Fundraising",
        "label": "_owner",
        "offset": 0,
        "slot": "0",
        "type": "t_address"
      },
      {
        "astId": 266,
        "contract": "contracts/modules/020-fundraising/Fundraising.sol:Fundraising",
        "label": "_status",
        "offset": 0,
        "slot": "1",
        "type": "t_uint256"
      },
      {
        "astId": 343,
        "contract": "contracts/modules/020-fundraising/Fundraising.sol:Fundraising",
        "label": "paymentToken",
        "offset": 0,
        "slot": "2",
        "type": "t_contract(IERC20)225"
      },
      {
        "astId": 345,
        "contract": "contracts/modules/020-fundraising/Fundraising.sol:Fundraising",
        "label": "nextCampaignId",
        "offset": 0,
        "slot": "3",
        "type": "t_uint256"
      },
      {
        "astId": 347,
        "contract": "contracts/modules/020-fundraising/Fundraising.sol:Fundraising",
        "label": "platformFeeBps",
        "offset": 0,
        "slot": "4",
        "type": "t_uint256"
      },
      {
        "astId": 349,
        "contract": "contracts/modules/020-fundraising/Fundraising.sol:Fundraising",
        "label": "matchingFundBalance",
        "offset": 0,
        "slot": "5",
        "type": "t_uint256"
      },
      {
        "astId": 351,
        "contract": "contracts/modules/020-fundraising/Fundraising.sol:Fundraising",
        "label": "totalRaisedPlatform",
        "offset": 0,
        "slot": "6",
        "type": "t_uint256"
      },
      {
        "astId": 353,
        "contract": "contracts/modules/020-fundraising/Fundraising.sol:Fundraising",
        "label": "totalDonorsPlatform",
        "offset": 0,
        "slot": "7",
        "type": "t_uint256"
      },
      {
        "astId": 355,
        "contract": "contracts/modules/020-fundraising/Fundraising.sol:Fundraising",
        "label": "totalSuccessfulCampaigns",
        "offset": 0,
        "slot": "8",
        "type": "t_uint256"
      },
      {
        "astId": 411,
        "contract": "contracts/modules/020-fundraising/Fundraising.sol:Fundraising",
        "label": "campaigns",
        "offset": 0,
        "slot": "9",
        "type": "t_mapping(t_uint256,t_struct(Campaign)406_storage)"
      },
      {
        "astId": 416,
        "contract": "contracts/modules/020-fundraising/Fundraising.sol:Fundraising",
        "label": "_userCampaigns",
        "offset": 0,
        "slot": "10",
        "type": "t_mapping(t_address,t_array(t_uint256)dyn_storage)"
      },
      {
        "astId": 421,
        "contract": "contracts/modules/020-fundraising/Fundraising.sol:Fundraising",
        "label": "_userDonations",
        "offset": 0,
        "slot": "11",
        "type": "t_mapping(t_address,t_array(t_uint256)dyn_storage)"
      },
      {
        "astId": 427,
        "contract": "contracts/modules/020-fundraising/Fundraising.sol:Fundraising",
        "label": "_hasDonated",
        "offset": 0,
        "slot": "12",
        "type": "t_mapping(t_address,t_mapping(t_uint256,t_bool))"
      }
    ],
    "types": {
      "t_address": {
        "encoding": "inplace",
        "label": "address",
        "numberOfBytes": "20"
      },
      "t_array(t_address)dyn_storage": {
        "base": "t_address",
        "encoding": "dynamic_array",
        "label": "address[]",
        "numberOfBytes": "32"
      },
      "t_array(t_bool)dyn_storage": {
        "base": "t_bool",
        "encoding": "dynamic_array",
        "label": "bool[]",
        "numberOfBytes": "32"
      },
      "t_array(t_string_storage)dyn_storage": {
        "base": "t_string_storage",
        "encoding": "dynamic_array",
        "label": "string[]",
        "numberOfBytes": "32"
      },
      "t_array(t_uint256)dyn_storage": {
        "base": "t_uint256",
        "encoding": "dynamic_array",
        "label": "uint256[]",
        "numberOfBytes": "32"
      },
      "t_bool": {
        "encoding": "inplace",
        "label": "bool",
        "numberOfBytes": "1"
      },
      "t_contract(IERC20)225": {
        "encoding": "inplace",
        "label": "contract IERC20",
        "numberOfBytes": "20"
      },
      "t_enum(CampaignCategory)1694": {
        "encoding": "inplace",
        "label": "enum IFundraising.CampaignCategory",
        "numberOfBytes": "1"
      },
      "t_enum(CampaignStatus)1686": {
        "encoding": "inplace",
        "label": "enum IFundraising.CampaignStatus",
        "numberOfBytes": "1"
      },
      "t_mapping(t_address,t_array(t_uint256)dyn_storage)": {
        "encoding": "mapping",
        "key": "t_address",
        "label": "mapping(address => uint256[])",
        "numberOfBytes": "32",
        "value": "t_array(t_uint256)dyn_storage"
      },
      "t_mapping(t_address,t_mapping(t_uint256,t_bool))": {
        "encoding": "mapping",
        "key": "t_address",
        "label": "mapping(address => mapping(uint256 => bool))",
        "numberOfBytes": "32",
        "value": "t_mapping(t_uint256,t_bool)"
      },
      "t_mapping(t_address,t_string_storage)": {
        "encoding": "mapping",
        "key": "t_address",
        "label": "mapping(address => string)",
        "numberOfBytes": "32",
        "value": "t_string_storage"
      },
      "t_mapping(t_address,t_uint256)": {
        "encoding": "mapping",
        "key": "t_address",
        "label": "mapping(address => uint256)",
        "numberOfBytes": "32",
        "value": "t_uint256"
      },
      "t_mapping(t_uint256,t_bool)": {
        "encoding": "mapping",
        "key": "t_uint256",
        "label": "mapping(uint256 => bool)",
        "numberOfBytes": "32",
        "value": "t_bool"
      },
      "t_mapping(t_uint256,t_struct(Campaign)406_storage)": {
        "encoding": "mapping",
        "key": "t_uint256",
        "label": "mapping(uint256 => struct Fundraising.Campaign)",
        "numberOfBytes": "32",
        "value": "t_struct(Campaign)406_storage"
      },
      "t_string_storage": {
        "encoding": "bytes",
        "label": "string",
        "numberOfBytes": "32"
      },
      "t_struct(Campaign)406_storage": {
        "encoding": "inplace",
        "label": "struct Fundraising.Campaign",
        "members": [
          {
            "astId": 357,
            "contract": "contracts/modules/020-fundraising/Fundraising.sol:Fundraising",
            "label": "creator",
            "offset": 0,
            "slot": "0",
            "type": "t_address"
          },
          {
            "astId": 359,
            "contract": "contracts/modules/020-fundraising/Fundraising.sol:Fundraising",
            "label": "title",
            "offset": 0,
            "slot": "1",
            "type": "t_string_storage"
          },
          {
            "astId": 361,
            "contract": "contracts/modules/020-fundraising/Fundraising.sol:Fundraising",
            "label": "description",
            "offset": 0,
            "slot": "2",
            "type": "t_string_storage"
          },
          {
            "astId": 363,
            "contract": "contracts/modules/020-fundraising/Fundraising.sol:Fundraising",
            "label": "imageURI",
            "offset": 0,
            "slot": "3",
            "type": "t_string_storage"
          },
          {
            "astId": 366,
            "contract": "contracts/modules/020-fundraising/Fundraising.sol:Fundraising",
            "label": "category",
            "offset": 0,
            "slot": "4",
            "type": "t_enum(CampaignCategory)1694"
          },
          {
            "astId": 368,
            "contract": "contracts/modules/020-fundraising/Fundraising.sol:Fundraising",
            "label": "goalAmount",
            "offset": 0,
            "slot": "5",
            "type": "t_uint256"
          },
          {
            "astId": 370,
            "contract": "contracts/modules/020-fundraising/Fundraising.sol:Fundraising",
            "label": "raisedAmount",
            "offset": 0,
            "slot": "6",
            "type": "t_uint256"
          },
          {
            "astId": 372,
            "contract": "contracts/modules/020-fundraising/Fundraising.sol:Fundraising",
            "label": "deadline",
            "offset": 0,
            "slot": "7",
            "type": "t_uint256"
          },
          {
            "astId": 374,
            "contract": "contracts/modules/020-fundraising/Fundraising.sol:Fundraising",
            "label": "minDonation",
            "offset": 0,
            "slot": "8",
            "type": "t_uint256"
          },
          {
            "astId": 377,
            "contract": "contracts/modules/020-fundraising/Fundraising.sol:Fundraising",
            "label": "status",
            "offset": 0,
            "slot": "9",
            "type": "t_enum(CampaignStatus)1686"
          },
          {
            "astId": 379,
            "contract": "contracts/modules/020-fundraising/Fundraising.sol:Fundraising",
            "label": "createdAt",
            "offset": 0,
            "slot": "10",
            "type": "t_uint256"
          },
          {
            "astId": 381,
            "contract": "contracts/modules/020-fundraising/Fundraising.sol:Fundraising",
            "label": "fundsWithdrawn",
            "offset": 0,
            "slot": "11",
            "type": "t_bool"
          },
          {
            "astId": 384,
            "contract": "contracts/modules/020-fundraising/Fundraising.sol:Fundraising",
            "label": "donors",
            "offset": 0,
            "slot": "12",
            "type": "t_array(t_address)dyn_storage"
          },
          {
            "astId": 388,
            "contract": "contracts/modules/020-fundraising/Fundraising.sol:Fundraising",
            "label": "donations",
            "offset": 0,
            "slot": "13",
            "type": "t_mapping(t_address,t_uint256)"
          },
          {
            "astId": 392,
            "contract": "contracts/modules/020-fundraising/Fundraising.sol:Fundraising",
            "label": "lastMessage",
            "offset": 0,
            "slot": "14",
            "type": "t_mapping(t_address,t_string_storage)"
          },
          {
            "astId": 396,
            "contract": "contracts/modules/020-fundraising/Fundraising.sol:Fundraising",
            "label": "lastDonatedAt",
            "offset": 0,
            "slot": "15",
            "type": "t_mapping(t_address,t_uint256)"
          },
          {
            "astId": 399,
            "contract": "contracts/modules/020-fundraising/Fundraising.sol:Fundraising",
            "label": "milestoneDescs",
            "offset": 0,
            "slot": "16",
            "type": "t_array(t_string_storage)dyn_storage"
          },
          {
            "astId": 402,
            "contract": "contracts/modules/020-fundraising/Fundraising.sol:Fundraising",
            "label": "milestoneTargets",
            "offset": 0,
            "slot": "17",
            "type": "t_array(t_uint256)dyn_storage"
          },
          {
            "astId": 405,
            "contract": "contracts/modules/020-fundraising/Fundraising.sol:Fundraising",
            "label": "milestoneCompleted",
            "offset": 0,
            "slot": "18",
            "type": "t_array(t_bool)dyn_storage"
          }
        ],
        "numberOfBytes": "608"
      },
      "t_uint256": {
        "encoding": "inplace",
        "label": "uint256",
        "numberOfBytes": "32"
      }
    }
  }
}