{
  "address": "0x4E4721f966F454007127b7f4D049f22961D91596",
  "abi": [
    {
      "inputs": [],
      "stateMutability": "nonpayable",
      "type": "constructor"
    },
    {
      "inputs": [
        {
          "internalType": "address",
          "name": "owner",
          "type": "address"
        }
      ],
      "name": "OwnableInvalidOwner",
      "type": "error"
    },
    {
      "inputs": [
        {
          "internalType": "address",
          "name": "account",
          "type": "address"
        }
      ],
      "name": "OwnableUnauthorizedAccount",
      "type": "error"
    },
    {
      "inputs": [],
      "name": "ReentrancyGuardReentrantCall",
      "type": "error"
    },
    {
      "anonymous": false,
      "inputs": [
        {
          "indexed": true,
          "internalType": "uint256",
          "name": "orderId",
          "type": "uint256"
        },
        {
          "indexed": true,
          "internalType": "address",
          "name": "opener",
          "type": "address"
        },
        {
          "indexed": false,
          "internalType": "string",
          "name": "reason",
          "type": "string"
        },
        {
          "indexed": false,
          "internalType": "uint256",
          "name": "timestamp",
          "type": "uint256"
        }
      ],
      "name": "DisputeOpened",
      "type": "event"
    },
    {
      "anonymous": false,
      "inputs": [
        {
          "indexed": true,
          "internalType": "uint256",
          "name": "orderId",
          "type": "uint256"
        },
        {
          "indexed": false,
          "internalType": "string",
          "name": "resolution",
          "type": "string"
        },
        {
          "indexed": false,
          "internalType": "uint256",
          "name": "timestamp",
          "type": "uint256"
        }
      ],
      "name": "DisputeResolved",
      "type": "event"
    },
    {
      "anonymous": false,
      "inputs": [
        {
          "indexed": true,
          "internalType": "uint256",
          "name": "orderId",
          "type": "uint256"
        },
        {
          "indexed": true,
          "internalType": "address",
          "name": "buyer",
          "type": "address"
        },
        {
          "indexed": true,
          "internalType": "uint256",
          "name": "shopId",
          "type": "uint256"
        },
        {
          "indexed": false,
          "internalType": "uint256",
          "name": "totalAmount",
          "type": "uint256"
        },
        {
          "indexed": false,
          "internalType": "uint256",
          "name": "timestamp",
          "type": "uint256"
        }
      ],
      "name": "OrderCreated",
      "type": "event"
    },
    {
      "anonymous": false,
      "inputs": [
        {
          "indexed": true,
          "internalType": "uint256",
          "name": "orderId",
          "type": "uint256"
        },
        {
          "indexed": false,
          "internalType": "uint256",
          "name": "amount",
          "type": "uint256"
        },
        {
          "indexed": false,
          "internalType": "string",
          "name": "reason",
          "type": "string"
        },
        {
          "indexed": false,
          "internalType": "uint256",
          "name": "timestamp",
          "type": "uint256"
        }
      ],
      "name": "OrderRefunded",
      "type": "event"
    },
    {
      "anonymous": false,
      "inputs": [
        {
          "indexed": true,
          "internalType": "uint256",
          "name": "orderId",
          "type": "uint256"
        },
        {
          "indexed": false,
          "internalType": "enum IMarketplace.OrderStatus",
          "name": "newStatus",
          "type": "uint8"
        },
        {
          "indexed": false,
          "internalType": "uint256",
          "name": "timestamp",
          "type": "uint256"
        }
      ],
      "name": "OrderStatusUpdated",
      "type": "event"
    },
    {
      "anonymous": false,
      "inputs": [
        {
          "indexed": true,
          "internalType": "address",
          "name": "previousOwner",
          "type": "address"
        },
        {
          "indexed": true,
          "internalType": "address",
          "name": "newOwner",
          "type": "address"
        }
      ],
      "name": "OwnershipTransferred",
      "type": "event"
    },
    {
      "anonymous": false,
      "inputs": [
        {
          "indexed": true,
          "internalType": "address",
          "name": "user",
          "type": "address"
        },
        {
          "indexed": true,
          "internalType": "uint256",
          "name": "productId",
          "type": "uint256"
        },
        {
          "indexed": false,
          "internalType": "uint256",
          "name": "timestamp",
          "type": "uint256"
        }
      ],
      "name": "ProductAddedToWishlist",
      "type": "event"
    },
    {
      "anonymous": false,
      "inputs": [
        {
          "indexed": true,
          "internalType": "uint256",
          "name": "productId",
          "type": "uint256"
        },
        {
          "indexed": true,
          "internalType": "uint256",
          "name": "shopId",
          "type": "uint256"
        },
        {
          "indexed": false,
          "internalType": "string",
          "name": "name",
          "type": "string"
        },
        {
          "indexed": false,
          "internalType": "uint256",
          "name": "price",
          "type": "uint256"
        },
        {
          "indexed": false,
          "internalType": "uint256",
          "name": "timestamp",
          "type": "uint256"
        }
      ],
      "name": "ProductListed",
      "type": "event"
    },
    {
      "anonymous": false,
      "inputs": [
        {
          "indexed": true,
          "internalType": "address",
          "name": "user",
          "type": "address"
        },
        {
          "indexed": true,
          "internalType": "uint256",
          "name": "productId",
          "type": "uint256"
        },
        {
          "indexed": false,
          "internalType": "uint256",
          "name": "timestamp",
          "type": "uint256"
        }
      ],
      "name": "ProductRemovedFromWishlist",
      "type": "event"
    },
    {
      "anonymous": false,
      "inputs": [
        {
          "indexed": true,
          "internalType": "uint256",
          "name": "productId",
          "type": "uint256"
        },
        {
          "indexed": false,
          "internalType": "enum IMarketplace.ProductStatus",
          "name": "newStatus",
          "type": "uint8"
        },
        {
          "indexed": false,
          "internalType": "uint256",
          "name": "timestamp",
          "type": "uint256"
        }
      ],
      "name": "ProductStatusChanged",
      "type": "event"
    },
    {
      "anonymous": false,
      "inputs": [
        {
          "indexed": true,
          "internalType": "uint256",
          "name": "productId",
          "type": "uint256"
        },
        {
          "indexed": false,
          "internalType": "uint256",
          "name": "timestamp",
          "type": "uint256"
        }
      ],
      "name": "ProductUpdated",
      "type": "event"
    },
    {
      "anonymous": false,
      "inputs": [
        {
          "indexed": true,
          "internalType": "uint256",
          "name": "productId",
          "type": "uint256"
        },
        {
          "indexed": true,
          "internalType": "address",
          "name": "reviewer",
          "type": "address"
        },
        {
          "indexed": false,
          "internalType": "uint256",
          "name": "rating",
          "type": "uint256"
        },
        {
          "indexed": false,
          "internalType": "uint256",
          "name": "timestamp",
          "type": "uint256"
        }
      ],
      "name": "ReviewSubmitted",
      "type": "event"
    },
    {
      "anonymous": false,
      "inputs": [
        {
          "indexed": true,
          "internalType": "uint256",
          "name": "shopId",
          "type": "uint256"
        },
        {
          "indexed": false,
          "internalType": "uint256",
          "name": "timestamp",
          "type": "uint256"
        }
      ],
      "name": "ShopReactivated",
      "type": "event"
    },
    {
      "anonymous": false,
      "inputs": [
        {
          "indexed": true,
          "internalType": "address",
          "name": "owner",
          "type": "address"
        },
        {
          "indexed": true,
          "internalType": "uint256",
          "name": "shopId",
          "type": "uint256"
        },
        {
          "indexed": false,
          "internalType": "string",
          "name": "shopName",
          "type": "string"
        },
        {
          "indexed": false,
          "internalType": "uint256",
          "name": "timestamp",
          "type": "uint256"
        }
      ],
      "name": "ShopRegistered",
      "type": "event"
    },
    {
      "anonymous": false,
      "inputs": [
        {
          "indexed": true,
          "internalType": "uint256",
          "name": "shopId",
          "type": "uint256"
        },
        {
          "indexed": false,
          "internalType": "string",
          "name": "reason",
          "type": "string"
        },
        {
          "indexed": false,
          "internalType": "uint256",
          "name": "timestamp",
          "type": "uint256"
        }
      ],
      "name": "ShopSuspended",
      "type": "event"
    },
    {
      "anonymous": false,
      "inputs": [
        {
          "indexed": true,
          "internalType": "address",
          "name": "owner",
          "type": "address"
        },
        {
          "indexed": true,
          "internalType": "uint256",
          "name": "shopId",
          "type": "uint256"
        },
        {
          "indexed": false,
          "internalType": "uint256",
          "name": "timestamp",
          "type": "uint256"
        }
      ],
      "name": "ShopUpdated",
      "type": "event"
    },
    {
      "inputs": [
        {
          "internalType": "uint256",
          "name": "productId",
          "type": "uint256"
        },
        {
          "internalType": "uint256",
          "name": "quantity",
          "type": "uint256"
        }
      ],
      "name": "addToCart",
      "outputs": [],
      "stateMutability": "nonpayable",
      "type": "function"
    },
    {
      "inputs": [
        {
          "internalType": "uint256",
          "name": "productId",
          "type": "uint256"
        }
      ],
      "name": "addToWishlist",
      "outputs": [],
      "stateMutability": "nonpayable",
      "type": "function"
    },
    {
      "inputs": [
        {
          "internalType": "uint256",
          "name": "orderId",
          "type": "uint256"
        }
      ],
      "name": "approveRefund",
      "outputs": [],
      "stateMutability": "nonpayable",
      "type": "function"
    },
    {
      "inputs": [
        {
          "internalType": "uint256",
          "name": "orderId",
          "type": "uint256"
        },
        {
          "internalType": "string",
          "name": "",
          "type": "string"
        }
      ],
      "name": "cancelOrder",
      "outputs": [],
      "stateMutability": "nonpayable",
      "type": "function"
    },
    {
      "inputs": [
        {
          "internalType": "uint256",
          "name": "productId",
          "type": "uint256"
        },
        {
          "internalType": "enum IMarketplace.ProductStatus",
          "name": "newStatus",
          "type": "uint8"
        }
      ],
      "name": "changeProductStatus",
      "outputs": [],
      "stateMutability": "nonpayable",
      "type": "function"
    },
    {
      "inputs": [],
      "name": "clearCart",
      "outputs": [],
      "stateMutability": "nonpayable",
      "type": "function"
    },
    {
      "inputs": [
        {
          "internalType": "uint256",
          "name": "orderId",
          "type": "uint256"
        }
      ],
      "name": "completeOrder",
      "outputs": [],
      "stateMutability": "nonpayable",
      "type": "function"
    },
    {
      "inputs": [
        {
          "internalType": "uint256",
          "name": "orderId",
          "type": "uint256"
        }
      ],
      "name": "confirmDelivery",
      "outputs": [],
      "stateMutability": "nonpayable",
      "type": "function"
    },
    {
      "inputs": [
        {
          "internalType": "uint256",
          "name": "orderId",
          "type": "uint256"
        }
      ],
      "name": "confirmOrder",
      "outputs": [],
      "stateMutability": "nonpayable",
      "type": "function"
    },
    {
      "inputs": [
        {
          "internalType": "uint256[]",
          "name": "productIds",
          "type": "uint256[]"
        },
        {
          "internalType": "uint256[]",
          "name": "quantities",
          "type": "uint256[]"
        },
        {
          "internalType": "string",
          "name": "shippingAddress",
          "type": "string"
        },
        {
          "internalType": "string",
          "name": "note",
          "type": "string"
        }
      ],
      "name": "createOrder",
      "outputs": [
        {
          "internalType": "uint256",
          "name": "orderId",
          "type": "uint256"
        }
      ],
      "stateMutability": "nonpayable",
      "type": "function"
    },
    {
      "inputs": [
        {
          "internalType": "uint256",
          "name": "",
          "type": "uint256"
        }
      ],
      "name": "disputes",
      "outputs": [
        {
          "internalType": "uint256",
          "name": "orderId",
          "type": "uint256"
        },
        {
          "internalType": "address",
          "name": "opener",
          "type": "address"
        },
        {
          "internalType": "string",
          "name": "reason",
          "type": "string"
        },
        {
          "internalType": "string",
          "name": "resolution",
          "type": "string"
        },
        {
          "internalType": "bool",
          "name": "resolved",
          "type": "bool"
        },
        {
          "internalType": "uint256",
          "name": "openedAt",
          "type": "uint256"
        },
        {
          "internalType": "uint256",
          "name": "resolvedAt",
          "type": "uint256"
        }
      ],
      "stateMutability": "view",
      "type": "function"
    },
    {
      "inputs": [],
      "name": "feeRecipient",
      "outputs": [
        {
          "internalType": "address",
          "name": "",
          "type": "address"
        }
      ],
      "stateMutability": "view",
      "type": "function"
    },
    {
      "inputs": [
        {
          "internalType": "address",
          "name": "buyer",
          "type": "address"
        }
      ],
      "name": "getBuyerOrders",
      "outputs": [
        {
          "internalType": "uint256[]",
          "name": "",
          "type": "uint256[]"
        }
      ],
      "stateMutability": "view",
      "type": "function"
    },
    {
      "inputs": [
        {
          "internalType": "address",
          "name": "user",
          "type": "address"
        }
      ],
      "name": "getCart",
      "outputs": [
        {
          "internalType": "uint256[]",
          "name": "productIds_",
          "type": "uint256[]"
        },
        {
          "internalType": "uint256[]",
          "name": "quantities_",
          "type": "uint256[]"
        }
      ],
      "stateMutability": "view",
      "type": "function"
    },
    {
      "inputs": [
        {
          "internalType": "uint256",
          "name": "orderId",
          "type": "uint256"
        }
      ],
      "name": "getOrder",
      "outputs": [
        {
          "internalType": "uint256",
          "name": "id_",
          "type": "uint256"
        },
        {
          "internalType": "address",
          "name": "buyer_",
          "type": "address"
        },
        {
          "internalType": "uint256",
          "name": "shopId_",
          "type": "uint256"
        },
        {
          "internalType": "uint256",
          "name": "totalAmount_",
          "type": "uint256"
        },
        {
          "internalType": "string",
          "name": "shippingAddress_",
          "type": "string"
        },
        {
          "internalType": "string",
          "name": "note_",
          "type": "string"
        },
        {
          "internalType": "string",
          "name": "trackingCode_",
          "type": "string"
        },
        {
          "internalType": "enum IMarketplace.OrderStatus",
          "name": "status_",
          "type": "uint8"
        },
        {
          "internalType": "uint256",
          "name": "createdAt_",
          "type": "uint256"
        },
        {
          "internalType": "uint256",
          "name": "updatedAt_",
          "type": "uint256"
        }
      ],
      "stateMutability": "view",
      "type": "function"
    },
    {
      "inputs": [
        {
          "internalType": "uint256",
          "name": "orderId",
          "type": "uint256"
        }
      ],
      "name": "getOrderItems",
      "outputs": [
        {
          "internalType": "uint256[]",
          "name": "productIds_",
          "type": "uint256[]"
        },
        {
          "internalType": "uint256[]",
          "name": "quantities_",
          "type": "uint256[]"
        },
        {
          "internalType": "uint256[]",
          "name": "prices_",
          "type": "uint256[]"
        }
      ],
      "stateMutability": "view",
      "type": "function"
    },
    {
      "inputs": [],
      "name": "getPlatformStats",
      "outputs": [
        {
          "internalType": "uint256",
          "name": "totalShops_",
          "type": "uint256"
        },
        {
          "internalType": "uint256",
          "name": "totalProducts_",
          "type": "uint256"
        },
        {
          "internalType": "uint256",
          "name": "totalOrders_",
          "type": "uint256"
        },
        {
          "internalType": "uint256",
          "name": "totalVolume_",
          "type": "uint256"
        },
        {
          "internalType": "uint256",
          "name": "totalReviews_",
          "type": "uint256"
        }
      ],
      "stateMutability": "view",
      "type": "function"
    },
    {
      "inputs": [
        {
          "internalType": "uint256",
          "name": "productId",
          "type": "uint256"
        }
      ],
      "name": "getProduct",
      "outputs": [
        {
          "internalType": "uint256",
          "name": "id_",
          "type": "uint256"
        },
        {
          "internalType": "uint256",
          "name": "shopId_",
          "type": "uint256"
        },
        {
          "internalType": "string",
          "name": "name_",
          "type": "string"
        },
        {
          "internalType": "string",
          "name": "description_",
          "type": "string"
        },
        {
          "internalType": "uint256",
          "name": "price_",
          "type": "uint256"
        },
        {
          "internalType": "uint256",
          "name": "stock_",
          "type": "uint256"
        },
        {
          "internalType": "uint256",
          "name": "sold_",
          "type": "uint256"
        },
        {
          "internalType": "string",
          "name": "category_",
          "type": "string"
        },
        {
          "internalType": "string",
          "name": "imageURI_",
          "type": "string"
        },
        {
          "internalType": "string",
          "name": "condition_",
          "type": "string"
        },
        {
          "internalType": "enum IMarketplace.ProductStatus",
          "name": "status_",
          "type": "uint8"
        },
        {
          "internalType": "uint256",
          "name": "totalRating_",
          "type": "uint256"
        },
        {
          "internalType": "uint256",
          "name": "reviewCount_",
          "type": "uint256"
        },
        {
          "internalType": "uint256",
          "name": "createdAt_",
          "type": "uint256"
        }
      ],
      "stateMutability": "view",
      "type": "function"
    },
    {
      "inputs": [
        {
          "internalType": "uint256",
          "name": "productId",
          "type": "uint256"
        }
      ],
      "name": "getProductReviews",
      "outputs": [
        {
          "internalType": "address[]",
          "name": "reviewers_",
          "type": "address[]"
        },
        {
          "internalType": "uint256[]",
          "name": "ratings_",
          "type": "uint256[]"
        },
        {
          "internalType": "string[]",
          "name": "comments_",
          "type": "string[]"
        },
        {
          "internalType": "string[]",
          "name": "imageURIs_",
          "type": "string[]"
        },
        {
          "internalType": "uint256[]",
          "name": "timestamps_",
          "type": "uint256[]"
        }
      ],
      "stateMutability": "view",
      "type": "function"
    },
    {
      "inputs": [
        {
          "internalType": "string",
          "name": "category",
          "type": "string"
        }
      ],
      "name": "getProductsByCategory",
      "outputs": [
        {
          "internalType": "uint256[]",
          "name": "",
          "type": "uint256[]"
        }
      ],
      "stateMutability": "view",
      "type": "function"
    },
    {
      "inputs": [
        {
          "internalType": "uint256",
          "name": "shopId",
          "type": "uint256"
        }
      ],
      "name": "getShopInfo",
      "outputs": [
        {
          "internalType": "address",
          "name": "owner_",
          "type": "address"
        },
        {
          "internalType": "string",
          "name": "shopName_",
          "type": "string"
        },
        {
          "internalType": "string",
          "name": "description_",
          "type": "string"
        },
        {
          "internalType": "string",
          "name": "avatarURI_",
          "type": "string"
        },
        {
          "internalType": "string",
          "name": "category_",
          "type": "string"
        },
        {
          "internalType": "enum IMarketplace.ShopStatus",
          "name": "status_",
          "type": "uint8"
        },
        {
          "internalType": "uint256",
          "name": "totalProducts_",
          "type": "uint256"
        },
        {
          "internalType": "uint256",
          "name": "totalSales_",
          "type": "uint256"
        },
        {
          "internalType": "uint256",
          "name": "totalRevenue_",
          "type": "uint256"
        },
        {
          "internalType": "uint256",
          "name": "totalRating_",
          "type": "uint256"
        },
        {
          "internalType": "uint256",
          "name": "reviewCount_",
          "type": "uint256"
        },
        {
          "internalType": "uint256",
          "name": "createdAt_",
          "type": "uint256"
        }
      ],
      "stateMutability": "view",
      "type": "function"
    },
    {
      "inputs": [
        {
          "internalType": "uint256",
          "name": "shopId",
          "type": "uint256"
        }
      ],
      "name": "getShopOrders",
      "outputs": [
        {
          "internalType": "uint256[]",
          "name": "",
          "type": "uint256[]"
        }
      ],
      "stateMutability": "view",
      "type": "function"
    },
    {
      "inputs": [
        {
          "internalType": "uint256",
          "name": "shopId",
          "type": "uint256"
        }
      ],
      "name": "getShopProducts",
      "outputs": [
        {
          "internalType": "uint256[]",
          "name": "",
          "type": "uint256[]"
        }
      ],
      "stateMutability": "view",
      "type": "function"
    },
    {
      "inputs": [
        {
          "internalType": "address",
          "name": "owner",
          "type": "address"
        }
      ],
      "name": "getShopsByOwner",
      "outputs": [
        {
          "internalType": "uint256[]",
          "name": "",
          "type": "uint256[]"
        }
      ],
      "stateMutability": "view",
      "type": "function"
    },
    {
      "inputs": [],
      "name": "getTotalOrders",
      "outputs": [
        {
          "internalType": "uint256",
          "name": "",
          "type": "uint256"
        }
      ],
      "stateMutability": "view",
      "type": "function"
    },
    {
      "inputs": [],
      "name": "getTotalProducts",
      "outputs": [
        {
          "internalType": "uint256",
          "name": "",
          "type": "uint256"
        }
      ],
      "stateMutability": "view",
      "type": "function"
    },
    {
      "inputs": [],
      "name": "getTotalShops",
      "outputs": [
        {
          "internalType": "uint256",
          "name": "",
          "type": "uint256"
        }
      ],
      "stateMutability": "view",
      "type": "function"
    },
    {
      "inputs": [
        {
          "internalType": "address",
          "name": "user",
          "type": "address"
        }
      ],
      "name": "getWishlist",
      "outputs": [
        {
          "internalType": "uint256[]",
          "name": "",
          "type": "uint256[]"
        }
      ],
      "stateMutability": "view",
      "type": "function"
    },
    {
      "inputs": [
        {
          "internalType": "uint256",
          "name": "shopId",
          "type": "uint256"
        },
        {
          "internalType": "string",
          "name": "name",
          "type": "string"
        },
        {
          "internalType": "string",
          "name": "description",
          "type": "string"
        },
        {
          "internalType": "uint256",
          "name": "price",
          "type": "uint256"
        },
        {
          "internalType": "uint256",
          "name": "stock",
          "type": "uint256"
        },
        {
          "internalType": "string",
          "name": "category",
          "type": "string"
        },
        {
          "internalType": "string",
          "name": "imageURI",
          "type": "string"
        },
        {
          "internalType": "string",
          "name": "condition",
          "type": "string"
        }
      ],
      "name": "listProduct",
      "outputs": [
        {
          "internalType": "uint256",
          "name": "productId",
          "type": "uint256"
        }
      ],
      "stateMutability": "nonpayable",
      "type": "function"
    },
    {
      "inputs": [],
      "name": "nextOrderId",
      "outputs": [
        {
          "internalType": "uint256",
          "name": "",
          "type": "uint256"
        }
      ],
      "stateMutability": "view",
      "type": "function"
    },
    {
      "inputs": [],
      "name": "nextProductId",
      "outputs": [
        {
          "internalType": "uint256",
          "name": "",
          "type": "uint256"
        }
      ],
      "stateMutability": "view",
      "type": "function"
    },
    {
      "inputs": [],
      "name": "nextShopId",
      "outputs": [
        {
          "internalType": "uint256",
          "name": "",
          "type": "uint256"
        }
      ],
      "stateMutability": "view",
      "type": "function"
    },
    {
      "inputs": [
        {
          "internalType": "uint256",
          "name": "orderId",
          "type": "uint256"
        },
        {
          "internalType": "string",
          "name": "reason",
          "type": "string"
        }
      ],
      "name": "openDispute",
      "outputs": [],
      "stateMutability": "nonpayable",
      "type": "function"
    },
    {
      "inputs": [
        {
          "internalType": "uint256",
          "name": "",
          "type": "uint256"
        }
      ],
      "name": "orders",
      "outputs": [
        {
          "internalType": "uint256",
          "name": "id",
          "type": "uint256"
        },
        {
          "internalType": "address",
          "name": "buyer",
          "type": "address"
        },
        {
          "internalType": "uint256",
          "name": "shopId",
          "type": "uint256"
        },
        {
          "internalType": "uint256",
          "name": "totalAmount",
          "type": "uint256"
        },
        {
          "internalType": "string",
          "name": "shippingAddress",
          "type": "string"
        },
        {
          "internalType": "string",
          "name": "note",
          "type": "string"
        },
        {
          "internalType": "string",
          "name": "trackingCode",
          "type": "string"
        },
        {
          "internalType": "enum IMarketplace.OrderStatus",
          "name": "status",
          "type": "uint8"
        },
        {
          "internalType": "uint256",
          "name": "createdAt",
          "type": "uint256"
        },
        {
          "internalType": "uint256",
          "name": "updatedAt",
          "type": "uint256"
        }
      ],
      "stateMutability": "view",
      "type": "function"
    },
    {
      "inputs": [],
      "name": "owner",
      "outputs": [
        {
          "internalType": "address",
          "name": "",
          "type": "address"
        }
      ],
      "stateMutability": "view",
      "type": "function"
    },
    {
      "inputs": [],
      "name": "platformFeeBps",
      "outputs": [
        {
          "internalType": "uint256",
          "name": "",
          "type": "uint256"
        }
      ],
      "stateMutability": "view",
      "type": "function"
    },
    {
      "inputs": [
        {
          "internalType": "uint256",
          "name": "",
          "type": "uint256"
        }
      ],
      "name": "products",
      "outputs": [
        {
          "internalType": "uint256",
          "name": "id",
          "type": "uint256"
        },
        {
          "internalType": "uint256",
          "name": "shopId",
          "type": "uint256"
        },
        {
          "internalType": "string",
          "name": "name",
          "type": "string"
        },
        {
          "internalType": "string",
          "name": "description",
          "type": "string"
        },
        {
          "internalType": "uint256",
          "name": "price",
          "type": "uint256"
        },
        {
          "internalType": "uint256",
          "name": "stock",
          "type": "uint256"
        },
        {
          "internalType": "uint256",
          "name": "sold",
          "type": "uint256"
        },
        {
          "internalType": "string",
          "name": "category",
          "type": "string"
        },
        {
          "internalType": "string",
          "name": "imageURI",
          "type": "string"
        },
        {
          "internalType": "string",
          "name": "condition",
          "type": "string"
        },
        {
          "internalType": "enum IMarketplace.ProductStatus",
          "name": "status",
          "type": "uint8"
        },
        {
          "internalType": "uint256",
          "name": "totalRating",
          "type": "uint256"
        },
        {
          "internalType": "uint256",
          "name": "reviewCount",
          "type": "uint256"
        },
        {
          "internalType": "uint256",
          "name": "createdAt",
          "type": "uint256"
        }
      ],
      "stateMutability": "view",
      "type": "function"
    },
    {
      "inputs": [
        {
          "internalType": "uint256",
          "name": "shopId",
          "type": "uint256"
        }
      ],
      "name": "reactivateShop",
      "outputs": [],
      "stateMutability": "nonpayable",
      "type": "function"
    },
    {
      "inputs": [
        {
          "internalType": "string",
          "name": "shopName",
          "type": "string"
        },
        {
          "internalType": "string",
          "name": "description",
          "type": "string"
        },
        {
          "internalType": "string",
          "name": "avatarURI",
          "type": "string"
        },
        {
          "internalType": "string",
          "name": "category",
          "type": "string"
        }
      ],
      "name": "registerShop",
      "outputs": [
        {
          "internalType": "uint256",
          "name": "shopId",
          "type": "uint256"
        }
      ],
      "stateMutability": "nonpayable",
      "type": "function"
    },
    {
      "inputs": [
        {
          "internalType": "uint256",
          "name": "productId",
          "type": "uint256"
        }
      ],
      "name": "removeFromCart",
      "outputs": [],
      "stateMutability": "nonpayable",
      "type": "function"
    },
    {
      "inputs": [
        {
          "internalType": "uint256",
          "name": "productId",
          "type": "uint256"
        }
      ],
      "name": "removeFromWishlist",
      "outputs": [],
      "stateMutability": "nonpayable",
      "type": "function"
    },
    {
      "inputs": [],
      "name": "renounceOwnership",
      "outputs": [],
      "stateMutability": "nonpayable",
      "type": "function"
    },
    {
      "inputs": [
        {
          "internalType": "uint256",
          "name": "orderId",
          "type": "uint256"
        },
        {
          "internalType": "string",
          "name": "reason",
          "type": "string"
        }
      ],
      "name": "requestRefund",
      "outputs": [],
      "stateMutability": "nonpayable",
      "type": "function"
    },
    {
      "inputs": [
        {
          "internalType": "uint256",
          "name": "orderId",
          "type": "uint256"
        },
        {
          "internalType": "string",
          "name": "resolution",
          "type": "string"
        },
        {
          "internalType": "bool",
          "name": "refundBuyer",
          "type": "bool"
        }
      ],
      "name": "resolveDispute",
      "outputs": [],
      "stateMutability": "nonpayable",
      "type": "function"
    },
    {
      "inputs": [
        {
          "internalType": "string",
          "name": "",
          "type": "string"
        }
      ],
      "name": "searchProducts",
      "outputs": [
        {
          "internalType": "uint256[]",
          "name": "",
          "type": "uint256[]"
        }
      ],
      "stateMutability": "view",
      "type": "function"
    },
    {
      "inputs": [
        {
          "internalType": "address",
          "name": "_recipient",
          "type": "address"
        }
      ],
      "name": "setFeeRecipient",
      "outputs": [],
      "stateMutability": "nonpayable",
      "type": "function"
    },
    {
      "inputs": [
        {
          "internalType": "uint256",
          "name": "_feeBps",
          "type": "uint256"
        }
      ],
      "name": "setPlatformFee",
      "outputs": [],
      "stateMutability": "nonpayable",
      "type": "function"
    },
    {
      "inputs": [
        {
          "internalType": "uint256",
          "name": "orderId",
          "type": "uint256"
        },
        {
          "internalType": "string",
          "name": "trackingCode",
          "type": "string"
        }
      ],
      "name": "shipOrder",
      "outputs": [],
      "stateMutability": "nonpayable",
      "type": "function"
    },
    {
      "inputs": [
        {
          "internalType": "uint256",
          "name": "",
          "type": "uint256"
        }
      ],
      "name": "shops",
      "outputs": [
        {
          "internalType": "address",
          "name": "owner",
          "type": "address"
        },
        {
          "internalType": "string",
          "name": "shopName",
          "type": "string"
        },
        {
          "internalType": "string",
          "name": "description",
          "type": "string"
        },
        {
          "internalType": "string",
          "name": "avatarURI",
          "type": "string"
        },
        {
          "internalType": "string",
          "name": "category",
          "type": "string"
        },
        {
          "internalType": "enum IMarketplace.ShopStatus",
          "name": "status",
          "type": "uint8"
        },
        {
          "internalType": "uint256",
          "name": "totalProducts",
          "type": "uint256"
        },
        {
          "internalType": "uint256",
          "name": "totalSales",
          "type": "uint256"
        },
        {
          "internalType": "uint256",
          "name": "totalRevenue",
          "type": "uint256"
        },
        {
          "internalType": "uint256",
          "name": "totalRating",
          "type": "uint256"
        },
        {
          "internalType": "uint256",
          "name": "reviewCount",
          "type": "uint256"
        },
        {
          "internalType": "uint256",
          "name": "createdAt",
          "type": "uint256"
        }
      ],
      "stateMutability": "view",
      "type": "function"
    },
    {
      "inputs": [
        {
          "internalType": "uint256",
          "name": "productId",
          "type": "uint256"
        },
        {
          "internalType": "uint256",
          "name": "orderId",
          "type": "uint256"
        },
        {
          "internalType": "uint256",
          "name": "rating",
          "type": "uint256"
        },
        {
          "internalType": "string",
          "name": "comment",
          "type": "string"
        },
        {
          "internalType": "string",
          "name": "imageURI",
          "type": "string"
        }
      ],
      "name": "submitReview",
      "outputs": [],
      "stateMutability": "nonpayable",
      "type": "function"
    },
    {
      "inputs": [
        {
          "internalType": "uint256",
          "name": "shopId",
          "type": "uint256"
        },
        {
          "internalType": "string",
          "name": "reason",
          "type": "string"
        }
      ],
      "name": "suspendShop",
      "outputs": [],
      "stateMutability": "nonpayable",
      "type": "function"
    },
    {
      "inputs": [],
      "name": "totalPlatformReviews",
      "outputs": [
        {
          "internalType": "uint256",
          "name": "",
          "type": "uint256"
        }
      ],
      "stateMutability": "view",
      "type": "function"
    },
    {
      "inputs": [],
      "name": "totalPlatformVolume",
      "outputs": [
        {
          "internalType": "uint256",
          "name": "",
          "type": "uint256"
        }
      ],
      "stateMutability": "view",
      "type": "function"
    },
    {
      "inputs": [
        {
          "internalType": "address",
          "name": "newOwner",
          "type": "address"
        }
      ],
      "name": "transferOwnership",
      "outputs": [],
      "stateMutability": "nonpayable",
      "type": "function"
    },
    {
      "inputs": [
        {
          "internalType": "uint256",
          "name": "productId",
          "type": "uint256"
        },
        {
          "internalType": "uint256",
          "name": "quantity",
          "type": "uint256"
        }
      ],
      "name": "updateCartQuantity",
      "outputs": [],
      "stateMutability": "nonpayable",
      "type": "function"
    },
    {
      "inputs": [
        {
          "internalType": "uint256",
          "name": "productId",
          "type": "uint256"
        },
        {
          "internalType": "string",
          "name": "name",
          "type": "string"
        },
        {
          "internalType": "string",
          "name": "description",
          "type": "string"
        },
        {
          "internalType": "uint256",
          "name": "price",
          "type": "uint256"
        },
        {
          "internalType": "uint256",
          "name": "stock",
          "type": "uint256"
        },
        {
          "internalType": "string",
          "name": "category",
          "type": "string"
        },
        {
          "internalType": "string",
          "name": "imageURI",
          "type": "string"
        }
      ],
      "name": "updateProduct",
      "outputs": [],
      "stateMutability": "nonpayable",
      "type": "function"
    },
    {
      "inputs": [
        {
          "internalType": "uint256",
          "name": "shopId",
          "type": "uint256"
        },
        {
          "internalType": "string",
          "name": "shopName",
          "type": "string"
        },
        {
          "internalType": "string",
          "name": "description",
          "type": "string"
        },
        {
          "internalType": "string",
          "name": "avatarURI",
          "type": "string"
        },
        {
          "internalType": "string",
          "name": "category",
          "type": "string"
        }
      ],
      "name": "updateShop",
      "outputs": [],
      "stateMutability": "nonpayable",
      "type": "function"
    }
  ],
  "transactionHash": "0x26c2f85673849bd23f7061055fc0a9af169aaaac03a7cfd89edd2b68d212ee12",
  "args": [],
  "numDeployments": 1,
  "solcInputHash": "0652be389ba435d67d2133c58d8ac7f7",
  "bytecode": "0x6080806040523461009e5733156100885760008054336001600160a01b0319808316821784556040519390926001600160a01b0316907f8be0079c531659141344cd1fd0a4f28419497f9722a3daafe3b4186f6b6457e09080a36001805560016002556001600355600160045560fa600555339060065416176006556154469081620000a48239f35b631e4fbdf760e01b815260006004820152602490fd5b600080fdfe6080604052600436101561001257600080fd5b60003560e01c80630b6fea80146143795780630f2db24714613eb35780630f8f1e0d14613e0957806312e8e2c314613dab578063136d888314613d4857806315c7dad914613c9b57806322dcd13e14613c7d578063267f2098146139105780632a58b330146138f25780633184d09a14613804578063348a71a61461366b57806336f691c4146135cb578063375f16a7146135a05780633ab9bbb61461348a578063469048401461346157806346a4237b146132a457806346b3d269146131e85780634de91a63146131ca578063514bbc801461312a57806352e33fb5146130745780635438327d14613056578063564a565d14612fae578063570aea8a14612f83578063574fde9714612ed0578063665e20f214612e675780636dc0947e14612d5a5780636dda373e146128ed578063713aca7414612855578063715018a6146127fc5780637acc0b201461275c5780637f69c11f146125ed5780638ac7d79c1461252c5780638b9db8fa146124b15780638da5cb5b146124885780638f38cc7b146123f957806394582de0146123db5780639d07a8e914612228578063a45f2ebc146121ad578063a85c38ef14612129578063ad7e218114611f3b578063b6adaaff14611da3578063b9d3c0dd14611d0d578063b9db15b414611c69578063c33d392f14611690578063c5ac3d4b146115c1578063c9b7dfbd14611596578063ca29610e1461146a578063d09ef241146113e3578063d7117ee014611368578063d80325d414610c84578063e0e83bb3146105e6578063e28b2079146105c8578063e74b981b14610548578063f2fde38b146104bd578063f8e27f8714610440578063fb13e2eb146103615763fd84cb971461028f57600080fd5b3461035c57602036600319011261035c5760043580600052600b60205260406000206102c860018060a01b036001830154163314614d53565b60078101805460ff81166008811015610346576002036103125760039060ff191617905560094291015560008051602061541a8339815191526040805160038152426020820152a2005b60405162461bcd60e51b815260206004820152600c60248201526b4e6f74207368697070696e6760a01b6044820152606490fd5b634e487b7160e01b600052602160045260246000fd5b600080fd5b3461035c57602036600319011261035c57600435600052600f602052604060002080549061038e82614f59565b9061039883614f59565b926103a281614f59565b9160005b8281106103ed576103cd856103e9866103db8a604051958695606087526060870190614878565b908582036020870152614878565b908382036040850152614878565b0390f35b806103fa60019284614e8e565b50546104068288614fd5565b52816104128285614e8e565b50015461041f8289614fd5565b52600261042c8285614e8e565b5001546104398287614fd5565b52016103a6565b3461035c5760208060031936011261035c57600435600052600e8152604060002090604051808383829554938481520190600052836000209260005b858282106104a75750505061049392500383614983565b6103e9604051928284938452830190614878565b855484526001958601958895509301920161047c565b3461035c57602036600319011261035c576004356001600160a01b038181169182900361035c576104ec615070565b811561052f57600054826001600160601b0360a01b821617600055167f8be0079c531659141344cd1fd0a4f28419497f9722a3daafe3b4186f6b6457e0600080a3005b604051631e4fbdf760e01b815260006004820152602490fd5b3461035c57602036600319011261035c576004356001600160a01b0381169081900361035c57610576615070565b8015610594576001600160601b0360a01b6006541617600655600080f35b60405162461bcd60e51b815260206004820152600c60248201526b5a65726f206164647265737360a01b6044820152606490fd5b3461035c57600036600319011261035c576020600254604051908152f35b3461035c57608036600319011261035c576004356001600160401b03811161035c57610616903690600401614c13565b906024356001600160401b03811161035c57610636903690600401614c13565b90916044356001600160401b03811161035c57610657903690600401614802565b9390916064356001600160401b03811161035c57610679903690600401614802565b949093600260015414610c725760026001558715610c3f57818803610c08578235600052600a6020526001604060002001549560009560005b8a8110610a255750600454986106c78a614c7c565b60045589600052600b6020526040600020938a855560018501336001600160601b0360a01b8254161790558960028601558860038601556001600160401b038211610917576107268261071d6004880154614949565b60048801614c8b565b600090601f83116001146109b4576107579291600091836109a9575b50508160011b916000199060031b1c19161790565b60048401555b6001600160401b038211610917576107858261077c6005860154614949565b60058601614c8b565b600090601f8311600114610938576107b592916000918361092d5750508160011b916000199060031b1c19161790565b60058201555b6007810160ff19815416905542600882015560094291015560005b87811061084c57602087878733600052601084526107f8836040600020614d0f565b81600052600e845261080e836040600020614d0f565b6040519081524284820152827f92669f7499828c9972b3a5b6c0b107ca011f143600fd7b32517024d4a3d7ab2860403393a460018055604051908152f35b86600052600f602052604060002090610866818a86615060565b3591610873828588615060565b3561087f838c88615060565b35600052600a60205260046040600020015490604051948560608101106001600160401b0360608801111761091757606086016040528552602085015260408401528054600160401b811015610917576108de91600182018155614e8e565b6109015760026040846001955184556020810151868501550151910155016107d6565b634e487b7160e01b600052600060045260246000fd5b634e487b7160e01b600052604160045260246000fd5b013590508b80610742565b600584939293016000526020600020906000935b601f1984168510610991576001945083601f19811610610977575b505050811b0160058201556107bb565b0135600019600384901b60f8161c191690558a8080610967565b8181013583556020948501946001909301920161094c565b013590508d80610742565b600486939293016000526020600020906000935b601f1984168510610a0d576001945083601f198116106109f3575b505050811b01600484015561075d565b0135600019600384901b60f8161c191690558c80806109e3565b818101358355602094850194600190930192016109c8565b96610a31888c88615060565b35600052600a6020526040600020978960018a015403610bc357600a8901549860ff8a16600481101561034657610b8957600581015492610a7383898c615060565b358410610b4f57610a90610a88848a8d615060565b351515614eea565b600482015490610aa1848a8d615060565b358281810204811483151715610b3957610abc920290614ded565b99610ac883898c615060565b358481810311610b3957848160019603600585015514610aeb575b5050016106b2565b83600a9160ff191617910155610b02818d89615060565b357f36abbca87ffb0c1b1bbdcfb8a1d932915c6ed3a2dba4bad322d85cce96ff699b60408051858152426020820152a28c80610ae3565b634e487b7160e01b600052601160045260246000fd5b60405162461bcd60e51b8152602060048201526012602482015271496e73756666696369656e742073746f636b60701b6044820152606490fd5b60405162461bcd60e51b815260206004820152601260248201527150726f64756374206e6f742061637469766560701b6044820152606490fd5b60405162461bcd60e51b815260206004820152601e60248201527f4d756c74692d73686f70206f72646572206e6f7420737570706f7274656400006044820152606490fd5b60405162461bcd60e51b815260206004820152600f60248201526e098cadccee8d040dad2e6dac2e8c6d608b1b6044820152606490fd5b60405162461bcd60e51b815260206004820152600b60248201526a22b6b83a3c9037b93232b960a91b6044820152606490fd5b604051633ee5aeb560e01b8152600490fd5b3461035c5761010036600319011261035c576024356001600160401b03811161035c57610cb5903690600401614802565b6044356001600160401b03811161035c57610cd4903690600401614802565b91909260a4356001600160401b03811161035c57610cf6903690600401614802565b60c4929192356001600160401b03811161035c57610d18903690600401614802565b93906001600160401b0360e4351161035c57610d393660e435600401614802565b9890956004356000526009602052604060002092610d6160018060a01b038554163314615023565b60ff60058501541660038110156103465761133157606435156112f857610d89891515614c43565b60035499610d968b614c7c565b6003558a600052600a6020526040600020938b855560043560018601556001600160401b038b1161091757610ddb8b610dd26002880154614949565b60028801614c8b565b60008b601f81116001146112865780610e0a9260009161127b575b508160011b916000199060031b1c19161790565b60028601555b6001600160401b03821161091757610e3882610e2f6003880154614949565b60038801614c8b565b600090601f831160011461120a57610e689291600091836111ff5750508160011b916000199060031b1c19161790565b60038401555b606435600484015560843560058401556001600160401b03861161091757610ea686610e9d6007860154614949565b60078601614c8b565b600086601f81116001146111925780610ed49260009161118757508160011b916000199060031b1c19161790565b60078401555b6001600160401b03821161091757610f0282610ef96008860154614949565b60088601614c8b565b600090601f831160011461111957610f3292916000918361110e5750508160011b916000199060031b1c19161790565b60088201555b6001600160401b03891161091757888896610f6560209b610f5c6009860154614949565b60098601614c8b565b600090601f831160011461106c57946006611027958a95610fc78f9596806110399c987feb3a2d34787383310534d3ce1d5ca5ad93752576ace9beb6343335604be160d29e9c6000926110615750508160011b916000199060031b1c19161790565b60098201555b6084351561105757610fe460005b600a8301614e37565b600d4291015501610ff58154614c7c565b9055600435600052600d825261100f846040600020614d0f565b82604051938492833781016017815203019020614d0f565b60405194606086526060860191614d32565b926064358682015242604082015280600435940390a3604051908152f35b610fe46001610fdb565b013590503880610742565b600984016000528b6000209160005b601f19851681106110f45750611027958a9560018f95966110399b977feb3a2d34787383310534d3ce1d5ca5ad93752576ace9beb6343335604be160d29d9b9660069683601f198116106110da575b505050811b016009820155610fcd565b0135600019600384901b60f8161c191690553880806110ca565b8183013584558c9a50600190930192908d01908d0161107b565b013590508c80610742565b601f198316916008850160005260206000209260005b81811061116f5750908460019594939210611155575b505050811b016008820155610f38565b0135600019600384901b60f8161c191690558b8080611145565b9193602060018192878701358155019501920161112f565b90508701358e610df6565b506007840160005260206000209060005b601f19891681106111e7575087601f198116106111cd575b5050600186811b016007840155610eda565b860135600019600389901b60f8161c191690558b806111bb565b9091602060018192858b0135815501930191016111a3565b013590508e80610742565b600386939293016000526020600020906000935b601f1984168510611263576001945083601f19811610611249575b505050811b016003840155610e6e565b0135600019600384901b60f8161c191690558d8080611239565b8181013583556020948501946001909301920161121e565b90508b013538610df6565b50600286016000526020600020908c8b6000915b601f191682106112de5750508c601f198116106112c4575b505060018b811b016002860155610e10565b8a013560001960038e901b60f8161c191690558d806112b2565b600183946020939484930135815501930191018b8e61129a565b60405162461bcd60e51b815260206004820152601160248201527005072696365206d757374206265203e203607c1b6044820152606490fd5b60405162461bcd60e51b815260206004820152600f60248201526e53686f70206e6f742061637469766560881b6044820152606490fd5b3461035c5760208060031936011261035c576004356001600160a01b0381169081900361035c57600052600c8152604060002090604051808383829554938481520190600052836000209260005b858282106113cd5750505061049392500383614983565b85548452600195860195889550930192016113b6565b3461035c57602036600319011261035c57600435600052600b602052604060002080546103e960018060a01b036001840154169260028101549060038101549160ff60078301541690600883015492600981015494611444600483016149a4565b9061145d6006611456600586016149a4565b94016149a4565b936040519a8b9a8b614b9c565b3461035c5760208060031936011261035c5760043590336000526016815260406000208260005281526040600020546114a4811515614fe9565b336000526015825260406000209081549060001991828101908111610b395782820190828211610b3957808203611530575b5050508154801561151a5701906114ed8282614f26565b61090157600181600080935501555533600052601681526040600020916000525260006040812055600080f35b634e487b7160e01b600052603160045260246000fd5b61153a9085614f26565b506115458286614f26565b91909161090157808203611582575b5050336000526016855261156d60406000209185614f26565b505460005284526040600020558480806114d6565b600181819254845501549101558680611554565b3461035c57600036600319011261035c576002546000198101908111610b3957602090604051908152f35b3461035c576115cf3661482f565b82600093929352600b60205260ff600760406000206115fb60018060a01b036001830154163314614d53565b015416600881101590816103465760018114918215611682575b8215611671575b50501561163c5761163a92611632913691614d8b565b90339061509c565b005b60405162461bcd60e51b815260206004820152600d60248201526c10d85b9b9bdd081c99599d5b99609a1b6044820152606490fd5b90915061034657600314848061161c565b506002811491506000611615565b3461035c5760e036600319011261035c57602480356001600160401b03811161035c576116c1903690600401614802565b916044356001600160401b03811161035c576116e1903690600401614802565b60a4356001600160401b03811161035c57611700903690600401614802565b9160c4356001600160401b03811161035c57611720903690600401614802565b949097600435600052600a6020526040600020976001890154600052600960205260018060a01b03604060002054163303611c395760ff600a8a0154166004811015611c2457600314611bf6576001600160401b038211611be1576117958261178c60028c0154614949565b60028c01614c8b565b600090601f8311600114611b70576117c592916000918361092d5750508160011b916000199060031b1c19161790565b60028801555b6001600160401b038211611b5b576117f3826117ea60038a0154614949565b60038a01614c8b565b600090601f8311600114611aea57611823929160009183611adf5750508160011b916000199060031b1c19161790565b60038601555b606435600486015560843560058601556001600160401b038211611aca57611861826118586007880154614949565b60078801614c8b565b600090601f8311600114611a5957611891929160009183611a4e5750508160011b916000199060031b1c19161790565b60078401555b60088301906001600160401b038111611a39576118be816118b88454614949565b84614c8b565b6000601f82116001146119d25781906118f0939495966000926119c75750508160011b916000199060031b1c19161790565b90555b60843515808061199a575b15611944575050600a01805460ff191660011790555b6040514281527f1a58b4c176a67828ebe2456bc637af85e69b115be11597e049b0669d13bea999602060043592a2005b159081611969575b50611958575b50611914565b600a01805460ff1916905580611952565b600a83015460ff169150600482101561198657506001148261194c565b634e487b7160e01b60009081526021600452fd5b5060ff600a8401541660048110156119b257156118fe565b82634e487b7160e01b60005260216004526000fd5b013590508680610742565b601f198216958360005260206000209160005b888110611a2157508360019596979810611a07575b505050811b0190556118f3565b0135600019600384901b60f8161c191690558580806119fa565b909260206001819286860135815501940191016119e5565b82634e487b7160e01b60005260416004526000fd5b013590508780610742565b600786939293016000526020600020906000935b601f1984168510611ab2576001945083601f19811610611a98575b505050811b016007840155611897565b0135600019600384901b60f8161c19169055868080611a88565b81810135835560209485019460019093019201611a6d565b83634e487b7160e01b60005260416004526000fd5b013590508980610742565b600388939293016000526020600020906000935b601f1984168510611b43576001945083601f19811610611b29575b505050811b016003860155611829565b0135600019600384901b60f8161c19169055888080611b19565b81810135835560209485019460019093019201611afe565b85634e487b7160e01b60005260416004526000fd5b60028a939293016000526020600020906000935b601f1984168510611bc9576001945083601f19811610611baf575b505050811b0160028801556117cb565b0135600019600384901b60f8161c191690558a8080611b9f565b81810135835560209485019460019093019201611b84565b87634e487b7160e01b60005260416004526000fd5b60405162461bcd60e51b8152602060048201526007818a01526611195b195d195960ca1b6044820152606490fd5b88634e487b7160e01b60005260216004526000fd5b60405162461bcd60e51b8152602060048201526009818a0152682737ba1037bbb732b960b91b6044820152606490fd5b3461035c57602036600319011261035c57600435600052600a602052604060002080546103e9600183015492600481015460058201549160068101549260ff600a8301541690600b83015492600c81015494600d82015496611ccd600284016149a4565b93611cda600385016149a4565b92611ce7600786016149a4565b93611d006009611cf9600889016149a4565b97016149a4565b966040519e8f9e8f614aea565b3461035c57602036600319011261035c576004356000526009602052604060002060018060a01b038154166103e960ff600584015416600684015460078501546008860154600987015491600a88015493600b89015495611d7060018b016149a4565b99611d7d600282016149a4565b90611d966004611d8f600384016149a4565b92016149a4565b916040519c8d9c8d614a49565b3461035c5760208060031936011261035c576004359081600052600b8152604060002060018060a01b0390611deb600192806001840154163314908115611f1d575b50614dfa565b60078101805460ff8116600881101561034657600303611ee85760049060ff191617905542600982015560028101546000526009835260406000209184600052600f84526040600020816000905b611e98575b8660008051602061541a833981519152604088611e868960038a60078301611e668154614c7c565b90550190611e7b600883549201918254614ded565b905554600754614ded565b600755815190600482524290820152a2005b8154811015611ee35790828281611eb0819585614e8e565b500154611ebd8285614e8e565b5054600052600a8952611ed96006604060002001918254614ded565b9055019091611e39565b611e3e565b60405162461bcd60e51b815260048101869052600d60248201526c139bdd0819195b1a5d995c9959609a1b6044820152606490fd5b90506002830154600052600985523390604060002054161486611de5565b3461035c57611f493661482f565b5050806000526020600b8152604060002060018060a01b03611f83600191808385015416331490811561210b575b81156120fd5750614dfa565b600782019060ff808354166008811015610346578281159182156120f3575b5050156120be576000868152600f8652604081209091835b611ff4575b8760008051602061541a8339815191526040898989600560ff19825416179055600942910155815190600582524290820152a2005b81548310156120b9576120078383614e8e565b5054600052600a92838852604060002093856120238386614e8e565b5001549461203660058201968754614ded565b80965501908154918383169260048410156103465787968780951490816120af575b50612067575b50500192611fba565b60ff191690556120778185614e8e565b50547f36abbca87ffb0c1b1bbdcfb8a1d932915c6ed3a2dba4bad322d85cce96ff699b6040805160008152428d820152a28a8061205e565b905015158d612058565b611fbf565b60405162461bcd60e51b815260048101869052600d60248201526c10d85b9b9bdd0818d85b98d95b609a1b6044820152606490fd5b1490508288611fa2565b600054163314905086611de5565b90506002840154600052600985523381604060002054161490611f77565b3461035c57602036600319011261035c57600435600052600b602052604060002080546103e960018060a01b03600184015416926002810154906003810154612174600483016149a4565b612180600584016149a4565b61218c600685016149a4565b9160ff6007860154169360096008870154960154966040519a8b9a8b614b9c565b3461035c5760208060031936011261035c576004356001600160a01b0381169081900361035c5760005260108152604060002090604051808383829554938481520190600052836000209260005b858282106122125750505061049392500383614983565b85548452600195860195889550930192016121fb565b3461035c576122363661482f565b82600093929352602090600b825260406000209060028201546000526009835261226e60018060a01b03604060002054163314615023565b600782019060ff8254169060088210156103465760018092036123a65760068401916001600160401b038211610917576122b2826122ac8554614949565b85614c8b565b600090601f8311600114612328575081604096959493926122fa9260008051602061541a833981519152999a60009261231d5750508160011b916000199060031b1c19161790565b90555b600260ff19825416179055600942910155815190600282524290820152a2005b013590508a80610742565b90601f1983168460005287600020926000905b82821061238f5750509160008051602061541a833981519152989984926040999897969560019510612375575b505050811b0190556122fd565b0135600019600384901b60f8161c19169055898080612368565b8b840135855593840193928901929089019061233b565b60405162461bcd60e51b815260048101869052600d60248201526c139bdd0818dbdb999a5c9b5959609a1b6044820152606490fd5b3461035c57600036600319011261035c576020600754604051908152f35b3461035c5760208060031936011261035c576004356001600160401b03811161035c5761242b82913690600401614802565b91908260405193849283378101601781520301902090604051808383829554938481520190600052836000209260005b858282106124725750505061049392500383614983565b855484526001958601958895509301920161245b565b3461035c57600036600319011261035c576000546040516001600160a01b039091168152602090f35b3461035c5760208060031936011261035c576004356001600160a01b0381169081900361035c5760005260138152604060002090604051808383829554938481520190600052836000209260005b858282106125165750505061049392500383614983565b85548452600195860195889550930192016124ff565b3461035c57602036600319011261035c5760043580600052600b60205260406000206002810154600052600960205261257360018060a01b03604060002054163314615023565b60078101805460ff81166008811015610346576125ba5760019060ff191617905560094291015560008051602061541a8339815191526040805160018152426020820152a2005b60405162461bcd60e51b815260206004820152600b60248201526a4e6f742070656e64696e6760a81b6044820152606490fd5b3461035c5760208060031936011261035c57600435903360005260148152604060002082600052815260ff60406000205416156127265733600052601481526040600020826000528152604060002060ff19815416905533600052601381526040600020908260005b83548082101561271c57829061266c8387614ce1565b929054600393841b1c14612684575050600101612656565b909394925060001991828201918211610b39576126b46126a76126cd9386614ce1565b905490871b1c9185614ce1565b90919082549060031b91821b91600019901b1916179055565b8154801561151a578101926126e28484614ce1565b81939154921b1b19169055555b7ffaecd1e12214ec6f7fe2e66c6f49dc374a32669540b7e7174f3cc941ec01f980604051914283523392a3005b50505090506126ef565b6064906040519062461bcd60e51b82526004820152600f60248201526e139bdd081a5b881dda5cda1b1a5cdd608a1b6044820152fd5b3461035c57602036600319011261035c57600435600052600a602052604060002080546103e9600183015492612794600282016149a4565b906127a1600382016149a4565b6004820154600583015460068401546127bc600786016149a4565b6127c8600887016149a4565b916127d5600988016149a4565b9360ff600a8901541695600b89015497600d600c8b01549a01549a6040519e8f9e8f614aea565b3461035c57600036600319011261035c57612815615070565b600080546001600160a01b0319811682556001600160a01b03167f8be0079c531659141344cd1fd0a4f28419497f9722a3daafe3b4186f6b6457e08280a3005b3461035c57602036600319011261035c57600435600090815260096020526040902080546001600160a01b03166103e9612891600184016149a4565b9261289e600282016149a4565b906128ab600382016149a4565b6128b7600483016149a4565b60ff6005840154166006840154600785015491600886015493600987015495600b600a890154980154986040519c8d9c8d614a49565b3461035c5760a036600319011261035c576024356001600160401b03811161035c5761291d903690600401614802565b906044356001600160401b03811161035c5761293d903690600401614802565b6064929192356001600160401b03811161035c5761295f903690600401614802565b916084356001600160401b03811161035c5761297f903690600401614802565b95909660043560005260096020526040600020956129a760018060a01b038854163314615023565b60ff600588015416600381101561034657600214612d27576001600160401b038211610917576129e7826129de60018a0154614949565b60018a01614c8b565b600090601f8311600114612cb657612a1792916000918361231d5750508160011b916000199060031b1c19161790565b60018601555b6001600160401b03821161091757612a3c82610dd26002880154614949565b600090601f8311600114612c4557612a6c929160009183612c3a5750508160011b916000199060031b1c19161790565b60028401555b6001600160401b03821161091757612a9a82612a916003860154614949565b60038601614c8b565b600090601f8311600114612bc7579180612ace9260049594600092611a4e5750508160011b916000199060031b1c19161790565b60038201555b01906001600160401b03811161091757612af2816118b88454614949565b6000601f8211600114612b62578190612b229394600092612b575750508160011b916000199060031b1c19161790565b90555b604051428152600435907ff63b7942f47d50b53d5efd316e00056ea9e2ea2f5b4d574ea93c95dcc73b0fd960203392a3005b013590508480610742565b601f198216938360005260206000209160005b868110612baf5750836001959610612b95575b505050811b019055612b25565b0135600019600384901b60f8161c19169055838080612b88565b90926020600181928686013581550194019101612b75565b6003840160005260206000209160005b601f1985168110612c22575091839160019360049695601f19811610612c08575b505050811b016003820155612ad4565b0135600019600384901b60f8161c19169055868080612bf8565b90926020600181928686013581550194019101612bd7565b013590508880610742565b600286939293016000526020600020906000935b601f1984168510612c9e576001945083601f19811610612c84575b505050811b016002840155612a72565b0135600019600384901b60f8161c19169055878080612c74565b81810135835560209485019460019093019201612c59565b600188939293016000526020600020906000935b601f1984168510612d0f576001945083601f19811610612cf5575b505050811b016001860155612a1d565b0135600019600384901b60f8161c19169055898080612ce5565b81810135835560209485019460019093019201612cca565b60405162461bcd60e51b815260206004820152600b60248201526a14da1bdc0818db1bdcd95960aa1b6044820152606490fd5b3461035c5760208060031936011261035c576004356001600160401b03811161035c57612d8b903690600401614802565b50506003546000198101908111610b3957600060015b82811115612e225750612db390614f59565b9060009260015b82811115612dd857604051602080825281906103e990820187614878565b8060005260ff600a808452604060002001541690600482101561034657612e039115612e0857614c7c565b612dba565b80612e1c612e1588614c7c565b9787614fd5565b52614c7c565b8060005260ff600a808652604060002001541660048110156103465715612e52575b612e4d90614c7c565b612da1565b90612e5f612e4d91614c7c565b919050612e44565b3461035c5760208060031936011261035c57600435600052600d8152604060002090604051808383829554938481520190600052836000209260005b85828210612eba5750505061049392500383614983565b8554845260019586019588955093019201612ea3565b3461035c57600036600319011261035c573360005260206015602052604060002060005b8154811015612f2b5760019033600052601684526040600020612f178285614f26565b505460005284526000604081205501612ef4565b336000526015602052604060002080546000825580612f4657005b6001916001600160ff1b0382168203610b395760005260206000209060011b8101905b818110612f7257005b600080825583820155600201612f69565b3461035c57600036600319011261035c576003546000198101908111610b3957602090604051908152f35b3461035c57602036600319011261035c576004356000908152601860205260409020805460018201546001600160a01b031691612fed600282016149a4565b612ff9600383016149a4565b9161304060ff6004830154169361303260066005850154940154946040519889988952602089015260e0604089015260e08801906148ac565b9086820360608801526148ac565b921515608085015260a084015260c08301520390f35b3461035c57600036600319011261035c576020600854604051908152f35b3461035c57602036600319011261035c576004356001600160a01b0381169081900361035c576000526015602052604060002080546130b281614f59565b906130bc81614f59565b9260005b8281106130f1576130e3846103e987604051938493604085526040850190614878565b908382036020850152614878565b806130fe60019284614f26565b505461310a8287614fd5565b52816131168285614f26565b5001546131238288614fd5565b52016130c0565b3461035c5761313836614862565b9033600052601660205260406000209060005260205260406000205461315f811515614fe9565b81156131905733600052601560205260406000206000198201918211610b395760019161318b91614f26565b500155005b60405162461bcd60e51b8152602060048201526012602482015271155cd9481c995b5bdd99519c9bdb50d85c9d60721b6044820152606490fd5b3461035c57600036600319011261035c576020600354604051908152f35b3461035c576131f63661482f565b906131ff615070565b82600052600960205260056040600020019182549260ff84166003811015610346576132725760017ffd8f6184aa7ba639dd84f5845f6a63fe25f4ed68c127f7ef3970993dc740689d9460ff1916179055613267604051928392604084526040840191614d32565b4260208301520390a2005b60405162461bcd60e51b815260206004820152600a6024820152694e6f742061637469766560b01b6044820152606490fd5b3461035c5760208060031936011261035c576004356000526011815260406000208054906132d182614f42565b916132df6040519384614983565b8083526132eb81614f42565b8385019490601f190136863761330082614f59565b61330983614f8b565b9161331384614f8b565b9361331d81614f59565b9560005b8281106133b5575050506040519560a087019060a088525180915260c08701979060005b8181106133985750505061338a9261336e886103e997969461337c948a809c03908b0152614878565b9087820360408901526148ec565b9085820360608701526148ec565b908382036080850152614878565b82516001600160a01b03168a529883019891830191600101613345565b806133c260019284614dd1565b50828060a01b039054166133d6828c614fd5565b52816133e28285614dd1565b5001546133ef8288614fd5565b5261340660026133ff8386614dd1565b50016149a4565b6134108289614fd5565b5261341b8188614fd5565b5061342b60036133ff8386614dd1565b613435828a614fd5565b526134408189614fd5565b50600461344d8285614dd1565b50015461345a828b614fd5565b5201613321565b3461035c57600036600319011261035c576006546040516001600160a01b039091168152602090f35b3461035c5761349836614862565b90806000526020600a81526134b36040600020541515614eaa565b6134be831515614eea565b3360009081526016825260408082208483528352902054918215613514575060159033600052526040600020906000198101908111610b395761350660019161351093614f26565b5001918254614ded565b9055005b9150913360005260158352604060002060405190604082018281106001600160401b03821117610917576040528382528482019283528054600160401b8110156109175761356791600182018155614f26565b92909261090157600191518355519101553360005260158252604060002054916016815260406000209160005252604060002055600080f35b3461035c57600036600319011261035c576004546000198101908111610b3957602090604051908152f35b3461035c576135d93661482f565b6000838152600b602052604090206001810154929392336001600160a01b039182161491821561364b575b50501561361a5761163a92611632913691614d8b565b60405162461bcd60e51b81526020600482015260096024820152684e6f7420706172747960b81b6044820152606490fd5b600291925001546000526009602052339060406000205416148480613604565b3461035c5760208060031936011261035c576004356000818152600b8352604080822060028101548352600985529120546136ba90336001600160a01b03918216149081156137f65750614dfa565b600781019160ff9060ff8454166008811015610346578060066136e692141590816137ea575b50614e4f565b80600052600f855260406000209260005b84548110156137815761370a8186614e8e565b5054600052600a9081885260406000206137248288614e8e565b50926001809401549161373c60058201938454614ded565b809355019081549087821694600486101561034657600195149081613777575b5061376a575b5050016136f7565b60ff191690558880613762565b905015158b61375c565b5060a086606060037f1a59f8e0693664d9d0e26f3d8a9f6c6a69774d19e9d0ecdc586c24ad95b12eca9489600660ff198254161790554260098201550154916040519283528201526008606082015267105c1c1c9bdd995960c21b6080820152426040820152a2005b600591501415876136e0565b600054163314905085611de5565b3461035c5760208060031936011261035c57600435903360005260148152604060002082600052815260ff604060002054166138b85781600052600a81526138526040600020541515614eaa565b336000526014815260406000208260005281526040600020600160ff19825416179055336000526013815261388b826040600020614d0f565b7feaf7b9cb3a470cb4a1bed9cfbd601730844205231f845c8b0560dea13f8605a9604051914283523392a3005b6064906040519062461bcd60e51b825260048201526013602482015272105b1c9958591e481a5b881dda5cda1b1a5cdd606a1b6044820152fd5b3461035c57600036600319011261035c576020600454604051908152f35b3461035c57606036600319011261035c576001600160401b0360243581811161035c57613941903690600401614802565b60449291923515156044350361035c57613959615070565b6004356000526018602052604060002091600583015415613c4b5761398560ff60048501541615614e4f565b8111610917576139a58161399c6003850154614949565b60038501614c8b565b600081601f8111600114613bde57806139d392600091613bd357508160011b916000199060031b1c19161790565b60038301555b60019160ff1990600182600483015416176004820155600642910155600435600052600b602052604060002092604435600014613b9557600f6020528060406000206000915b613b05575b505050907f619a485783a3870e8a79daa87da1f5dc43342edeb762bd43a859a89c36dc0025613ac860ff95859460066007809801918254161790556003850154604051908152606060208201527f1a59f8e0693664d9d0e26f3d8a9f6c6a69774d19e9d0ecdc586c24ad95b12eca613aa0606083018785614d32565b9142604082015280600435930390a25b42600986015560405193604085526040850191614d32565b9142602082015280600435930390a2015416613ae76040518092614b8f565b42602082015260008051602061541a833981519152604060043592a2005b8054821015613b9057613b188282614e8e565b5054600052600a8060205260406000209084613b348585614e8e565b50015491613b4760058201938454614ded565b809355019283549360ff851660048110156103465786958694858a93149081613b86575b50613b7b575b5050500191613a1f565b169055898681613b71565b905015158d613b6b565b613a24565b50907f619a485783a3870e8a79daa87da1f5dc43342edeb762bd43a859a89c36dc0025613ac860ff9585946004600780980191825416179055613ab0565b905085013586610df6565b506003830160005260206000209060005b601f1984168110613c33575082601f19811610613c19575b5050600181811b0160038301556139d9565b840135600019600384901b60f8161c191690558380613c07565b90916020600181928589013581550193019101613bef565b60405162461bcd60e51b815260206004820152600a6024820152694e6f206469737075746560b01b6044820152606490fd5b3461035c57600036600319011261035c576020600554604051908152f35b3461035c57604036600319011261035c57600435602435600481101561035c5760407f36abbca87ffb0c1b1bbdcfb8a1d932915c6ed3a2dba4bad322d85cce96ff699b9183600052600a602052613d2581600a8460002060018101546000526009602052613d1f60018060a01b03808860002054163314908115613d3a5750614dfa565b01614e37565b613d3182518092614add565b426020820152a2005b60005416331490508a611de5565b3461035c57600036600319011261035c5760025460001990818101908111610b3957600354828101908111610b3957600454928301928311610b395760a09260075490600854926040519485526020850152604084015260608301526080820152f35b3461035c57602036600319011261035c57600435613dc7615070565b6103e88111613dd557600555005b60405162461bcd60e51b815260206004820152600c60248201526b08ccaca40e8dede40d0d2ced60a31b6044820152606490fd5b3461035c57602036600319011261035c57600435613e25615070565b8060005260096020526005604060002001805460ff8116600381101561034657600103613e7e5760ff191690557f0b1cbcfc314c149826a472eb01b60020cbf19e496ac75fd033ba376e3501f0406020604051428152a2005b60405162461bcd60e51b815260206004820152600d60248201526c139bdd081cdd5cdc195b991959609a1b6044820152606490fd5b3461035c5760a036600319011261035c5760443560043560246001600160401b03813560643582811161035c57613eee903690600401614802565b9160843584811161035c57613f07903690600401614802565b949095600195868a10158061436e575b1561433d5783600052602097600b895260406000209460ff600760018060a01b0397613f49898d830154163314614d53565b0154166008811015614328576004811490811561431d575b50156142e957604051908a8201903360601b82528c6034840152605483015260548252608082019082821087831117611b5b578160405282519020918260005260128c5260ff604060002054166142b55750506000526012895260406000208860ff1982541617905589600052601189526040600020956040519760a0890189811087821117611b5b57614018928e949261400992604052338c528d8c019586523691614d8b565b9360408a019485523691614d8b565b94606088019586526080880196428852805490600160401b821015611b5b5790614046918b82018155614dd1565b9890986142a0575188546001600160a01b031916911617875551878701555180516002870191848211611aca57614081826122ac8554614949565b8990601f831160011461423c576140b09291600091836142315750508160011b916000199060031b1c19161790565b90555b60038501925190815192831161421d57506140d2826122ac8554614949565b8690601f83116001146141b55791806141069260049695946000926141aa5750508160011b916000199060031b1c19161790565b90555b5191015582600052600a82526040600020600b8101614129868254614ded565b9055600c81016141398154614c7c565b9055015460005260098152600a60406000206009810161415a868254614ded565b9055016141678154614c7c565b9055614174600854614c7c565b60085560405192835242908301527f518d146ee16cf963a3db803a868f4149ffd755023b16678d5cdbc7289546077060403393a3005b015190508b80610742565b9392918691601f1982169084600052896000209160005b8b8282106142075750509683600498106141ee575b505050811b019055614109565b015160001960f88460031b161c191690558a80806141e1565b838a015185558b969094019392830192016141cc565b634e487b7160e01b60009081526041600452fd5b015190508d80610742565b899291601f19831691856000528c600020928d6000905b8282106142895750508411614270575b505050811b0190556140b3565b015160001960f88460031b161c191690558c8080614263565b8385015186558e979095019493840193018e614253565b84634e487b7160e01b60005260006004526000fd5b906f105b1c9958591e481c995d9a595dd95960821b60c46064938e62461bcd60e51b85526084820152601060a48201520152fd5b60405162461bcd60e51b8152600481018b9052600d818601526c139bdd0818dbdb5c1b195d1959609a1b6044820152606490fd5b60039150148d613f61565b84634e487b7160e01b60005260216004526000fd5b60405162461bcd60e51b815260206004820152600a8184015269526174696e6720312d3560b01b6044820152606490fd5b5060058a1115613f17565b3461035c57608036600319011261035c576004356001600160401b03811161035c576143a9903690600401614802565b906024356001600160401b03811161035c576143c9903690600401614802565b90926044356001600160401b03811161035c576143ea903690600401614802565b94906064356001600160401b03811161035c5761440b903690600401614802565b919096614419851515614c43565b6002549561442687614c7c565b600255600087815260096020526040902080546001600160a01b03191633178155946001600160401b03871161091757614470876144676001890154614949565b60018901614c8b565b600087601f8111600114614793578061449e9260009161478857508160011b916000199060031b1c19161790565b60018701555b6001600160401b038211610917576144cc826144c36002890154614949565b60028901614c8b565b600090601f831160011461471a576144fc92916000918361092d5750508160011b916000199060031b1c19161790565b60028501555b60038401916001600160401b03821161091757614523826122ac8554614949565b600090601f83116001146146b25761455392916000918361231d5750508160011b916000199060031b1c19161790565b90555b60048201906001600160401b0381116109175760209661457a826122ac8554614949565b600090601f831160011461462457926145d3838899947f361ee46795782943b45ad8e39fae351c59de279e645314bfaf7a587028c5d45c97946146109760009261110e5750508160011b916000199060031b1c19161790565b90555b6005810160ff198154169055600b4291015533600052600c87526145fe856040600020614d0f565b60405193604085526040850191614d32565b9142868201528033930390a3604051908152f35b601f1983169184600052896000209260005b81811061469b5750937f361ee46795782943b45ad8e39fae351c59de279e645314bfaf7a587028c5d45c96936146109693600193838c9d9810614681575b505050811b0190556145d6565b0135600019600384901b60f8161c191690558b8080614674565b91938b600181928787013581550195019201614636565b601f198316918460005260206000209260005b81811061470257509084600195949392106146e8575b505050811b019055614556565b0135600019600384901b60f8161c191690558980806146db565b919360206001819287870135815501950192016146c5565b601f198316916002880160005260206000209260005b8181106147705750908460019594939210614756575b505050811b016002850155614502565b0135600019600384901b60f8161c191690558a8080614746565b91936020600181928787013581550195019201614730565b90508b01358d610df6565b506001870160005260206000209060005b8b601f198b1682106147ea57505088601f198116106147d0575b5050600187811b0160018701556144a4565b8a013560001960038a901b60f8161c191690558a806147be565b600183946020939484930135815501930191016147a4565b9181601f8401121561035c578235916001600160401b03831161035c576020838186019501011161035c57565b90604060031983011261035c5760043591602435906001600160401b03821161035c5761485e91600401614802565b9091565b604090600319011261035c576004359060243590565b90815180825260208080930193019160005b828110614898575050505090565b83518552938101939281019260010161488a565b919082519283825260005b8481106148d8575050826000602080949584010152601f8019910116010190565b6020818301810151848301820152016148b7565b90808251908181526020809101926020808460051b8301019501936000915b84831061491b5750505050505090565b9091929394958480614939600193601f198682030187528a516148ac565b980193019301919493929061490b565b90600182811c92168015614979575b602083101461496357565b634e487b7160e01b600052602260045260246000fd5b91607f1691614958565b90601f801991011681019081106001600160401b0382111761091757604052565b906040519182600082546149b781614949565b90818452602094600191600181169081600014614a2757506001146149e8575b5050506149e692500383614983565b565b600090815285812095935091905b818310614a0f5750506149e693508201013880806149d7565b855488840185015294850194879450918301916149f6565b925050506149e694925060ff191682840152151560051b8201013880806149d7565b989599969c9b9a979492614a8e90614a80614a9c948c614aaa9895602061018092839260018060a01b0316815201528d01906148ac565b908b820360408d01526148ac565b9089820360608b01526148ac565b9087820360808901526148ac565b986003871015610346576101609660a087015260c086015260e08501526101008401526101208301526101408201520152565b9060048210156103465752565b9a9e9d9c999596614b7397614b649660806101a09f9c978f9690614b2d614b5599614b7f9f98614b3b946101c0918c5260208c01528060408c01528a01906148ac565b9088820360608a01526148ac565b95015260a08d015260c08c01528a820360e08c01526148ac565b908882036101008a01526148ac565b908682036101208801526148ac565b97610140850190614add565b6101608301526101808201520152565b9060088210156103465752565b9692614c0995610120999c9b9a9792614bfe96614be293614bf096610140938d5260018060a01b031660208d015260408c015260608b01528060808b01528901906148ac565b9087820360a08901526148ac565b9085820360c08701526148ac565b9660e0840190614b8f565b6101008201520152565b9181601f8401121561035c578235916001600160401b03831161035c576020808501948460051b01011161035c57565b15614c4a57565b60405162461bcd60e51b815260206004820152600a602482015269456d707479206e616d6560b01b6044820152606490fd5b6000198114610b395760010190565b90601f8111614c9957505050565b6000916000526020600020906020601f850160051c83019410614cd7575b601f0160051c01915b828110614ccc57505050565b818155600101614cc0565b9092508290614cb7565b8054821015614cf95760005260206000200190600090565b634e487b7160e01b600052603260045260246000fd5b90815491600160401b83101561091757826126b49160016149e695018155614ce1565b908060209392818452848401376000828201840152601f01601f1916010190565b15614d5a57565b60405162461bcd60e51b81526020600482015260096024820152682737ba10313abcb2b960b91b6044820152606490fd5b9291926001600160401b0382116109175760405191614db4601f8201601f191660200184614983565b82948184528183011161035c578281602093846000960137010152565b8054821015614cf9576000526005602060002091020190600090565b91908201809211610b3957565b15614e0157565b60405162461bcd60e51b815260206004820152600e60248201526d139bdd08185d5d1a1bdc9a5e995960921b6044820152606490fd5b9060048110156103465760ff80198354169116179055565b15614e5657565b60405162461bcd60e51b815260206004820152601060248201526f105b1c9958591e481c995cdbdb1d995960821b6044820152606490fd5b8054821015614cf9576000526003602060002091020190600090565b15614eb157565b60405162461bcd60e51b8152602060048201526011602482015270141c9bd91d58dd081b9bdd08199bdd5b99607a1b6044820152606490fd5b15614ef157565b60405162461bcd60e51b815260206004820152600d60248201526c5a65726f207175616e7469747960981b6044820152606490fd5b8054821015614cf95760005260206000209060011b0190600090565b6001600160401b0381116109175760051b60200190565b90614f6382614f42565b614f706040519182614983565b8281528092614f81601f1991614f42565b0190602036910137565b90614f9582614f42565b614fa26040519182614983565b8281528092614fb3601f1991614f42565b019060005b828110614fc457505050565b806060602080938501015201614fb8565b8051821015614cf95760209160051b010190565b15614ff057565b60405162461bcd60e51b815260206004820152600b60248201526a139bdd081a5b8818d85c9d60aa1b6044820152606490fd5b1561502a57565b60405162461bcd60e51b815260206004820152600e60248201526d2737ba1039b437b81037bbb732b960911b6044820152606490fd5b9190811015614cf95760051b0190565b6000546001600160a01b0316330361508457565b60405163118cdaa760e01b8152336004820152602490fd5b918260005260186020526150bb60ff6004604060002001541615614e4f565b8260005260186020526005604060002001546153e35782600052600b602052604060002060078101600760ff198254161790556009429101556040519060e08201916001600160401b039281811084821117610917576040528481526020810160018060a01b0391828616825260408101848152604051906020820182811088821117610917576040526000825260608301918252600060808401524260a0840152600060c08401528860005260186020526040600020938351855585600186019151166001600160601b0360a01b825416179055600284019051805190888211610917576151ae826122ac8554614949565b602090601f831160011461537b576151de9291600091836152d15750508160011b916000199060031b1c19161790565b90555b51948551908111610917578795615208826151ff6003870154614949565b60038701614c8b565b602090601f83116001146152dc576152a59593615265847f9ba592891920c93074eb53d5a05f624599949799402552946403a669e040dccc99979560069560c0956000926152d15750508160011b916000199060031b1c19161790565b60038501555b600484016080820151151560ff8019835416911617905560a0810151600585015501519101556040519283926040845260408401906148ac565b9542602084015216940390a360008051602061541a8339815191526040805160078152426020820152a2565b015190503880610742565b906003850160005260206000209160005b601f198516811061536057509360018460069460c0946152a59a987f9ba592891920c93074eb53d5a05f624599949799402552946403a669e040dccc9c9a98601f19811610615347575b505050811b01600385015561526b565b015160001960f88460031b161c19169055388080615337565b8183015184558b9950600190930192602092830192016152ed565b90601f198316918460005260206000209260005b8181106153cb57509084600195949392106153b2575b505050811b0190556151e1565b015160001960f88460031b161c191690553880806153a5565b9293602060018192878601518155019501930161538f565b60405162461bcd60e51b815260206004820152600e60248201526d446973707574652065786973747360901b6044820152606490fdfe3018f5631b85cb4b5b9aa9ef3efcc97db1d01e5e12d98808f8fba7f0f9e1dbf8a164736f6c6343000818000a",
  "devdoc": {
    "author": "VNDC Education Platform",
    "details": "Module 019  follows platform conventions (counters start at 1, Ownable)",
    "errors": {
      "OwnableInvalidOwner(address)": [
        {
          "details": "The owner is not a valid owner account. (eg. `address(0)`)"
        }
      ],
      "OwnableUnauthorizedAccount(address)": [
        {
          "details": "The caller account is not authorized to perform an operation."
        }
      ],
      "ReentrancyGuardReentrantCall()": [
        {
          "details": "Unauthorized reentrant call."
        }
      ]
    },
    "kind": "dev",
    "methods": {
      "owner()": {
        "details": "Returns the address of the current owner."
      },
      "renounceOwnership()": {
        "details": "Leaves the contract without owner. It will not be possible to call `onlyOwner` functions. Can only be called by the current owner. NOTE: Renouncing ownership will leave the contract without an owner, thereby disabling any functionality that is only available to the owner."
      },
      "transferOwnership(address)": {
        "details": "Transfers ownership of the contract to a new account (`newOwner`). Can only be called by the current owner."
      }
    },
    "title": "Marketplace",
    "version": 1
  },
  "userdoc": {
    "kind": "user",
    "methods": {},
    "notice": "Full-featured campus e-commerce marketplace for students & teachers         Product listing, ordering, reviews, wishlist, cart, disputes.",
    "version": 1
  },
  "storageLayout": {
    "storage": [
      {
        "astId": 8,
        "contract": "contracts/modules/019-marketplace/Marketplace.sol:Marketplace",
        "label": "_owner",
        "offset": 0,
        "slot": "0",
        "type": "t_address"
      },
      {
        "astId": 188,
        "contract": "contracts/modules/019-marketplace/Marketplace.sol:Marketplace",
        "label": "_status",
        "offset": 0,
        "slot": "1",
        "type": "t_uint256"
      },
      {
        "astId": 838,
        "contract": "contracts/modules/019-marketplace/Marketplace.sol:Marketplace",
        "label": "nextShopId",
        "offset": 0,
        "slot": "2",
        "type": "t_uint256"
      },
      {
        "astId": 840,
        "contract": "contracts/modules/019-marketplace/Marketplace.sol:Marketplace",
        "label": "nextProductId",
        "offset": 0,
        "slot": "3",
        "type": "t_uint256"
      },
      {
        "astId": 842,
        "contract": "contracts/modules/019-marketplace/Marketplace.sol:Marketplace",
        "label": "nextOrderId",
        "offset": 0,
        "slot": "4",
        "type": "t_uint256"
      },
      {
        "astId": 844,
        "contract": "contracts/modules/019-marketplace/Marketplace.sol:Marketplace",
        "label": "platformFeeBps",
        "offset": 0,
        "slot": "5",
        "type": "t_uint256"
      },
      {
        "astId": 846,
        "contract": "contracts/modules/019-marketplace/Marketplace.sol:Marketplace",
        "label": "feeRecipient",
        "offset": 0,
        "slot": "6",
        "type": "t_address"
      },
      {
        "astId": 848,
        "contract": "contracts/modules/019-marketplace/Marketplace.sol:Marketplace",
        "label": "totalPlatformVolume",
        "offset": 0,
        "slot": "7",
        "type": "t_uint256"
      },
      {
        "astId": 850,
        "contract": "contracts/modules/019-marketplace/Marketplace.sol:Marketplace",
        "label": "totalPlatformReviews",
        "offset": 0,
        "slot": "8",
        "type": "t_uint256"
      },
      {
        "astId": 971,
        "contract": "contracts/modules/019-marketplace/Marketplace.sol:Marketplace",
        "label": "shops",
        "offset": 0,
        "slot": "9",
        "type": "t_mapping(t_uint256,t_struct(Shop)876_storage)"
      },
      {
        "astId": 976,
        "contract": "contracts/modules/019-marketplace/Marketplace.sol:Marketplace",
        "label": "products",
        "offset": 0,
        "slot": "10",
        "type": "t_mapping(t_uint256,t_struct(Product)906_storage)"
      },
      {
        "astId": 981,
        "contract": "contracts/modules/019-marketplace/Marketplace.sol:Marketplace",
        "label": "orders",
        "offset": 0,
        "slot": "11",
        "type": "t_mapping(t_uint256,t_struct(Order)928_storage)"
      },
      {
        "astId": 986,
        "contract": "contracts/modules/019-marketplace/Marketplace.sol:Marketplace",
        "label": "_ownerShops",
        "offset": 0,
        "slot": "12",
        "type": "t_mapping(t_address,t_array(t_uint256)dyn_storage)"
      },
      {
        "astId": 991,
        "contract": "contracts/modules/019-marketplace/Marketplace.sol:Marketplace",
        "label": "_shopProductIds",
        "offset": 0,
        "slot": "13",
        "type": "t_mapping(t_uint256,t_array(t_uint256)dyn_storage)"
      },
      {
        "astId": 996,
        "contract": "contracts/modules/019-marketplace/Marketplace.sol:Marketplace",
        "label": "_shopOrderIds",
        "offset": 0,
        "slot": "14",
        "type": "t_mapping(t_uint256,t_array(t_uint256)dyn_storage)"
      },
      {
        "astId": 1002,
        "contract": "contracts/modules/019-marketplace/Marketplace.sol:Marketplace",
        "label": "_orderItems",
        "offset": 0,
        "slot": "15",
        "type": "t_mapping(t_uint256,t_array(t_struct(OrderItem)935_storage)dyn_storage)"
      },
      {
        "astId": 1007,
        "contract": "contracts/modules/019-marketplace/Marketplace.sol:Marketplace",
        "label": "_buyerOrders",
        "offset": 0,
        "slot": "16",
        "type": "t_mapping(t_address,t_array(t_uint256)dyn_storage)"
      },
      {
        "astId": 1013,
        "contract": "contracts/modules/019-marketplace/Marketplace.sol:Marketplace",
        "label": "_productReviews",
        "offset": 0,
        "slot": "17",
        "type": "t_mapping(t_uint256,t_array(t_struct(Review)946_storage)dyn_storage)"
      },
      {
        "astId": 1017,
        "contract": "contracts/modules/019-marketplace/Marketplace.sol:Marketplace",
        "label": "_hasReviewed",
        "offset": 0,
        "slot": "18",
        "type": "t_mapping(t_bytes32,t_bool)"
      },
      {
        "astId": 1022,
        "contract": "contracts/modules/019-marketplace/Marketplace.sol:Marketplace",
        "label": "_wishlist",
        "offset": 0,
        "slot": "19",
        "type": "t_mapping(t_address,t_array(t_uint256)dyn_storage)"
      },
      {
        "astId": 1028,
        "contract": "contracts/modules/019-marketplace/Marketplace.sol:Marketplace",
        "label": "_inWishlist",
        "offset": 0,
        "slot": "20",
        "type": "t_mapping(t_address,t_mapping(t_uint256,t_bool))"
      },
      {
        "astId": 1034,
        "contract": "contracts/modules/019-marketplace/Marketplace.sol:Marketplace",
        "label": "_cart",
        "offset": 0,
        "slot": "21",
        "type": "t_mapping(t_address,t_array(t_struct(CartItem)951_storage)dyn_storage)"
      },
      {
        "astId": 1040,
        "contract": "contracts/modules/019-marketplace/Marketplace.sol:Marketplace",
        "label": "_cartIndex",
        "offset": 0,
        "slot": "22",
        "type": "t_mapping(t_address,t_mapping(t_uint256,t_uint256))"
      },
      {
        "astId": 1045,
        "contract": "contracts/modules/019-marketplace/Marketplace.sol:Marketplace",
        "label": "_categoryProducts",
        "offset": 0,
        "slot": "23",
        "type": "t_mapping(t_string_memory_ptr,t_array(t_uint256)dyn_storage)"
      },
      {
        "astId": 1050,
        "contract": "contracts/modules/019-marketplace/Marketplace.sol:Marketplace",
        "label": "disputes",
        "offset": 0,
        "slot": "24",
        "type": "t_mapping(t_uint256,t_struct(Dispute)966_storage)"
      }
    ],
    "types": {
      "t_address": {
        "encoding": "inplace",
        "label": "address",
        "numberOfBytes": "20"
      },
      "t_array(t_struct(CartItem)951_storage)dyn_storage": {
        "base": "t_struct(CartItem)951_storage",
        "encoding": "dynamic_array",
        "label": "struct Marketplace.CartItem[]",
        "numberOfBytes": "32"
      },
      "t_array(t_struct(OrderItem)935_storage)dyn_storage": {
        "base": "t_struct(OrderItem)935_storage",
        "encoding": "dynamic_array",
        "label": "struct Marketplace.OrderItem[]",
        "numberOfBytes": "32"
      },
      "t_array(t_struct(Review)946_storage)dyn_storage": {
        "base": "t_struct(Review)946_storage",
        "encoding": "dynamic_array",
        "label": "struct Marketplace.Review[]",
        "numberOfBytes": "32"
      },
      "t_array(t_uint256)dyn_storage": {
        "base": "t_uint256",
        "encoding": "dynamic_array",
        "label": "uint256[]",
        "numberOfBytes": "32"
      },
      "t_bool": {
        "encoding": "inplace",
        "label": "bool",
        "numberOfBytes": "1"
      },
      "t_bytes32": {
        "encoding": "inplace",
        "label": "bytes32",
        "numberOfBytes": "32"
      },
      "t_enum(OrderStatus)263": {
        "encoding": "inplace",
        "label": "enum IMarketplace.OrderStatus",
        "numberOfBytes": "1"
      },
      "t_enum(ProductStatus)254": {
        "encoding": "inplace",
        "label": "enum IMarketplace.ProductStatus",
        "numberOfBytes": "1"
      },
      "t_enum(ShopStatus)267": {
        "encoding": "inplace",
        "label": "enum IMarketplace.ShopStatus",
        "numberOfBytes": "1"
      },
      "t_mapping(t_address,t_array(t_struct(CartItem)951_storage)dyn_storage)": {
        "encoding": "mapping",
        "key": "t_address",
        "label": "mapping(address => struct Marketplace.CartItem[])",
        "numberOfBytes": "32",
        "value": "t_array(t_struct(CartItem)951_storage)dyn_storage"
      },
      "t_mapping(t_address,t_array(t_uint256)dyn_storage)": {
        "encoding": "mapping",
        "key": "t_address",
        "label": "mapping(address => uint256[])",
        "numberOfBytes": "32",
        "value": "t_array(t_uint256)dyn_storage"
      },
      "t_mapping(t_address,t_mapping(t_uint256,t_bool))": {
        "encoding": "mapping",
        "key": "t_address",
        "label": "mapping(address => mapping(uint256 => bool))",
        "numberOfBytes": "32",
        "value": "t_mapping(t_uint256,t_bool)"
      },
      "t_mapping(t_address,t_mapping(t_uint256,t_uint256))": {
        "encoding": "mapping",
        "key": "t_address",
        "label": "mapping(address => mapping(uint256 => uint256))",
        "numberOfBytes": "32",
        "value": "t_mapping(t_uint256,t_uint256)"
      },
      "t_mapping(t_bytes32,t_bool)": {
        "encoding": "mapping",
        "key": "t_bytes32",
        "label": "mapping(bytes32 => bool)",
        "numberOfBytes": "32",
        "value": "t_bool"
      },
      "t_mapping(t_string_memory_ptr,t_array(t_uint256)dyn_storage)": {
        "encoding": "mapping",
        "key": "t_string_memory_ptr",
        "label": "mapping(string => uint256[])",
        "numberOfBytes": "32",
        "value": "t_array(t_uint256)dyn_storage"
      },
      "t_mapping(t_uint256,t_array(t_struct(OrderItem)935_storage)dyn_storage)": {
        "encoding": "mapping",
        "key": "t_uint256",
        "label": "mapping(uint256 => struct Marketplace.OrderItem[])",
        "numberOfBytes": "32",
        "value": "t_array(t_struct(OrderItem)935_storage)dyn_storage"
      },
      "t_mapping(t_uint256,t_array(t_struct(Review)946_storage)dyn_storage)": {
        "encoding": "mapping",
        "key": "t_uint256",
        "label": "mapping(uint256 => struct Marketplace.Review[])",
        "numberOfBytes": "32",
        "value": "t_array(t_struct(Review)946_storage)dyn_storage"
      },
      "t_mapping(t_uint256,t_array(t_uint256)dyn_storage)": {
        "encoding": "mapping",
        "key": "t_uint256",
        "label": "mapping(uint256 => uint256[])",
        "numberOfBytes": "32",
        "value": "t_array(t_uint256)dyn_storage"
      },
      "t_mapping(t_uint256,t_bool)": {
        "encoding": "mapping",
        "key": "t_uint256",
        "label": "mapping(uint256 => bool)",
        "numberOfBytes": "32",
        "value": "t_bool"
      },
      "t_mapping(t_uint256,t_struct(Dispute)966_storage)": {
        "encoding": "mapping",
        "key": "t_uint256",
        "label": "mapping(uint256 => struct Marketplace.Dispute)",
        "numberOfBytes": "32",
        "value": "t_struct(Dispute)966_storage"
      },
      "t_mapping(t_uint256,t_struct(Order)928_storage)": {
        "encoding": "mapping",
        "key": "t_uint256",
        "label": "mapping(uint256 => struct Marketplace.Order)",
        "numberOfBytes": "32",
        "value": "t_struct(Order)928_storage"
      },
      "t_mapping(t_uint256,t_struct(Product)906_storage)": {
        "encoding": "mapping",
        "key": "t_uint256",
        "label": "mapping(uint256 => struct Marketplace.Product)",
        "numberOfBytes": "32",
        "value": "t_struct(Product)906_storage"
      },
      "t_mapping(t_uint256,t_struct(Shop)876_storage)": {
        "encoding": "mapping",
        "key": "t_uint256",
        "label": "mapping(uint256 => struct Marketplace.Shop)",
        "numberOfBytes": "32",
        "value": "t_struct(Shop)876_storage"
      },
      "t_mapping(t_uint256,t_uint256)": {
        "encoding": "mapping",
        "key": "t_uint256",
        "label": "mapping(uint256 => uint256)",
        "numberOfBytes": "32",
        "value": "t_uint256"
      },
      "t_string_memory_ptr": {
        "encoding": "bytes",
        "label": "string",
        "numberOfBytes": "32"
      },
      "t_string_storage": {
        "encoding": "bytes",
        "label": "string",
        "numberOfBytes": "32"
      },
      "t_struct(CartItem)951_storage": {
        "encoding": "inplace",
        "label": "struct Marketplace.CartItem",
        "members": [
          {
            "astId": 948,
            "contract": "contracts/modules/019-marketplace/Marketplace.sol:Marketplace",
            "label": "productId",
            "offset": 0,
            "slot": "0",
            "type": "t_uint256"
          },
          {
            "astId": 950,
            "contract": "contracts/modules/019-marketplace/Marketplace.sol:Marketplace",
            "label": "quantity",
            "offset": 0,
            "slot": "1",
            "type": "t_uint256"
          }
        ],
        "numberOfBytes": "64"
      },
      "t_struct(Dispute)966_storage": {
        "encoding": "inplace",
        "label": "struct Marketplace.Dispute",
        "members": [
          {
            "astId": 953,
            "contract": "contracts/modules/019-marketplace/Marketplace.sol:Marketplace",
            "label": "orderId",
            "offset": 0,
            "slot": "0",
            "type": "t_uint256"
          },
          {
            "astId": 955,
            "contract": "contracts/modules/019-marketplace/Marketplace.sol:Marketplace",
            "label": "opener",
            "offset": 0,
            "slot": "1",
            "type": "t_address"
          },
          {
            "astId": 957,
            "contract": "contracts/modules/019-marketplace/Marketplace.sol:Marketplace",
            "label": "reason",
            "offset": 0,
            "slot": "2",
            "type": "t_string_storage"
          },
          {
            "astId": 959,
            "contract": "contracts/modules/019-marketplace/Marketplace.sol:Marketplace",
            "label": "resolution",
            "offset": 0,
            "slot": "3",
            "type": "t_string_storage"
          },
          {
            "astId": 961,
            "contract": "contracts/modules/019-marketplace/Marketplace.sol:Marketplace",
            "label": "resolved",
            "offset": 0,
            "slot": "4",
            "type": "t_bool"
          },
          {
            "astId": 963,
            "contract": "contracts/modules/019-marketplace/Marketplace.sol:Marketplace",
            "label": "openedAt",
            "offset": 0,
            "slot": "5",
            "type": "t_uint256"
          },
          {
            "astId": 965,
            "contract": "contracts/modules/019-marketplace/Marketplace.sol:Marketplace",
            "label": "resolvedAt",
            "offset": 0,
            "slot": "6",
            "type": "t_uint256"
          }
        ],
        "numberOfBytes": "224"
      },
      "t_struct(Order)928_storage": {
        "encoding": "inplace",
        "label": "struct Marketplace.Order",
        "members": [
          {
            "astId": 908,
            "contract": "contracts/modules/019-marketplace/Marketplace.sol:Marketplace",
            "label": "id",
            "offset": 0,
            "slot": "0",
            "type": "t_uint256"
          },
          {
            "astId": 910,
            "contract": "contracts/modules/019-marketplace/Marketplace.sol:Marketplace",
            "label": "buyer",
            "offset": 0,
            "slot": "1",
            "type": "t_address"
          },
          {
            "astId": 912,
            "contract": "contracts/modules/019-marketplace/Marketplace.sol:Marketplace",
            "label": "shopId",
            "offset": 0,
            "slot": "2",
            "type": "t_uint256"
          },
          {
            "astId": 914,
            "contract": "contracts/modules/019-marketplace/Marketplace.sol:Marketplace",
            "label": "totalAmount",
            "offset": 0,
            "slot": "3",
            "type": "t_uint256"
          },
          {
            "astId": 916,
            "contract": "contracts/modules/019-marketplace/Marketplace.sol:Marketplace",
            "label": "shippingAddress",
            "offset": 0,
            "slot": "4",
            "type": "t_string_storage"
          },
          {
            "astId": 918,
            "contract": "contracts/modules/019-marketplace/Marketplace.sol:Marketplace",
            "label": "note",
            "offset": 0,
            "slot": "5",
            "type": "t_string_storage"
          },
          {
            "astId": 920,
            "contract": "contracts/modules/019-marketplace/Marketplace.sol:Marketplace",
            "label": "trackingCode",
            "offset": 0,
            "slot": "6",
            "type": "t_string_storage"
          },
          {
            "astId": 923,
            "contract": "contracts/modules/019-marketplace/Marketplace.sol:Marketplace",
            "label": "status",
            "offset": 0,
            "slot": "7",
            "type": "t_enum(OrderStatus)263"
          },
          {
            "astId": 925,
            "contract": "contracts/modules/019-marketplace/Marketplace.sol:Marketplace",
            "label": "createdAt",
            "offset": 0,
            "slot": "8",
            "type": "t_uint256"
          },
          {
            "astId": 927,
            "contract": "contracts/modules/019-marketplace/Marketplace.sol:Marketplace",
            "label": "updatedAt",
            "offset": 0,
            "slot": "9",
            "type": "t_uint256"
          }
        ],
        "numberOfBytes": "320"
      },
      "t_struct(OrderItem)935_storage": {
        "encoding": "inplace",
        "label": "struct Marketplace.OrderItem",
        "members": [
          {
            "astId": 930,
            "contract": "contracts/modules/019-marketplace/Marketplace.sol:Marketplace",
            "label": "productId",
            "offset": 0,
            "slot": "0",
            "type": "t_uint256"
          },
          {
            "astId": 932,
            "contract": "contracts/modules/019-marketplace/Marketplace.sol:Marketplace",
            "label": "quantity",
            "offset": 0,
            "slot": "1",
            "type": "t_uint256"
          },
          {
            "astId": 934,
            "contract": "contracts/modules/019-marketplace/Marketplace.sol:Marketplace",
            "label": "price",
            "offset": 0,
            "slot": "2",
            "type": "t_uint256"
          }
        ],
        "numberOfBytes": "96"
      },
      "t_struct(Product)906_storage": {
        "encoding": "inplace",
        "label": "struct Marketplace.Product",
        "members": [
          {
            "astId": 878,
            "contract": "contracts/modules/019-marketplace/Marketplace.sol:Marketplace",
            "label": "id",
            "offset": 0,
            "slot": "0",
            "type": "t_uint256"
          },
          {
            "astId": 880,
            "contract": "contracts/modules/019-marketplace/Marketplace.sol:Marketplace",
            "label": "shopId",
            "offset": 0,
            "slot": "1",
            "type": "t_uint256"
          },
          {
            "astId": 882,
            "contract": "contracts/modules/019-marketplace/Marketplace.sol:Marketplace",
            "label": "name",
            "offset": 0,
            "slot": "2",
            "type": "t_string_storage"
          },
          {
            "astId": 884,
            "contract": "contracts/modules/019-marketplace/Marketplace.sol:Marketplace",
            "label": "description",
            "offset": 0,
            "slot": "3",
            "type": "t_string_storage"
          },
          {
            "astId": 886,
            "contract": "contracts/modules/019-marketplace/Marketplace.sol:Marketplace",
            "label": "price",
            "offset": 0,
            "slot": "4",
            "type": "t_uint256"
          },
          {
            "astId": 888,
            "contract": "contracts/modules/019-marketplace/Marketplace.sol:Marketplace",
            "label": "stock",
            "offset": 0,
            "slot": "5",
            "type": "t_uint256"
          },
          {
            "astId": 890,
            "contract": "contracts/modules/019-marketplace/Marketplace.sol:Marketplace",
            "label": "sold",
            "offset": 0,
            "slot": "6",
            "type": "t_uint256"
          },
          {
            "astId": 892,
            "contract": "contracts/modules/019-marketplace/Marketplace.sol:Marketplace",
            "label": "category",
            "offset": 0,
            "slot": "7",
            "type": "t_string_storage"
          },
          {
            "astId": 894,
            "contract": "contracts/modules/019-marketplace/Marketplace.sol:Marketplace",
            "label": "imageURI",
            "offset": 0,
            "slot": "8",
            "type": "t_string_storage"
          },
          {
            "astId": 896,
            "contract": "contracts/modules/019-marketplace/Marketplace.sol:Marketplace",
            "label": "condition",
            "offset": 0,
            "slot": "9",
            "type": "t_string_storage"
          },
          {
            "astId": 899,
            "contract": "contracts/modules/019-marketplace/Marketplace.sol:Marketplace",
            "label": "status",
            "offset": 0,
            "slot": "10",
            "type": "t_enum(ProductStatus)254"
          },
          {
            "astId": 901,
            "contract": "contracts/modules/019-marketplace/Marketplace.sol:Marketplace",
            "label": "totalRating",
            "offset": 0,
            "slot": "11",
            "type": "t_uint256"
          },
          {
            "astId": 903,
            "contract": "contracts/modules/019-marketplace/Marketplace.sol:Marketplace",
            "label": "reviewCount",
            "offset": 0,
            "slot": "12",
            "type": "t_uint256"
          },
          {
            "astId": 905,
            "contract": "contracts/modules/019-marketplace/Marketplace.sol:Marketplace",
            "label": "createdAt",
            "offset": 0,
            "slot": "13",
            "type": "t_uint256"
          }
        ],
        "numberOfBytes": "448"
      },
      "t_struct(Review)946_storage": {
        "encoding": "inplace",
        "label": "struct Marketplace.Review",
        "members": [
          {
            "astId": 937,
            "contract": "contracts/modules/019-marketplace/Marketplace.sol:Marketplace",
            "label": "reviewer",
            "offset": 0,
            "slot": "0",
            "type": "t_address"
          },
          {
            "astId": 939,
            "contract": "contracts/modules/019-marketplace/Marketplace.sol:Marketplace",
            "label": "rating",
            "offset": 0,
            "slot": "1",
            "type": "t_uint256"
          },
          {
            "astId": 941,
            "contract": "contracts/modules/019-marketplace/Marketplace.sol:Marketplace",
            "label": "comment",
            "offset": 0,
            "slot": "2",
            "type": "t_string_storage"
          },
          {
            "astId": 943,
            "contract": "contracts/modules/019-marketplace/Marketplace.sol:Marketplace",
            "label": "imageURI",
            "offset": 0,
            "slot": "3",
            "type": "t_string_storage"
          },
          {
            "astId": 945,
            "contract": "contracts/modules/019-marketplace/Marketplace.sol:Marketplace",
            "label": "timestamp",
            "offset": 0,
            "slot": "4",
            "type": "t_uint256"
          }
        ],
        "numberOfBytes": "160"
      },
      "t_struct(Shop)876_storage": {
        "encoding": "inplace",
        "label": "struct Marketplace.Shop",
        "members": [
          {
            "astId": 852,
            "contract": "contracts/modules/019-marketplace/Marketplace.sol:Marketplace",
            "label": "owner",
            "offset": 0,
            "slot": "0",
            "type": "t_address"
          },
          {
            "astId": 854,
            "contract": "contracts/modules/019-marketplace/Marketplace.sol:Marketplace",
            "label": "shopName",
            "offset": 0,
            "slot": "1",
            "type": "t_string_storage"
          },
          {
            "astId": 856,
            "contract": "contracts/modules/019-marketplace/Marketplace.sol:Marketplace",
            "label": "description",
            "offset": 0,
            "slot": "2",
            "type": "t_string_storage"
          },
          {
            "astId": 858,
            "contract": "contracts/modules/019-marketplace/Marketplace.sol:Marketplace",
            "label": "avatarURI",
            "offset": 0,
            "slot": "3",
            "type": "t_string_storage"
          },
          {
            "astId": 860,
            "contract": "contracts/modules/019-marketplace/Marketplace.sol:Marketplace",
            "label": "category",
            "offset": 0,
            "slot": "4",
            "type": "t_string_storage"
          },
          {
            "astId": 863,
            "contract": "contracts/modules/019-marketplace/Marketplace.sol:Marketplace",
            "label": "status",
            "offset": 0,
            "slot": "5",
            "type": "t_enum(ShopStatus)267"
          },
          {
            "astId": 865,
            "contract": "contracts/modules/019-marketplace/Marketplace.sol:Marketplace",
            "label": "totalProducts",
            "offset": 0,
            "slot": "6",
            "type": "t_uint256"
          },
          {
            "astId": 867,
            "contract": "contracts/modules/019-marketplace/Marketplace.sol:Marketplace",
            "label": "totalSales",
            "offset": 0,
            "slot": "7",
            "type": "t_uint256"
          },
          {
            "astId": 869,
            "contract": "contracts/modules/019-marketplace/Marketplace.sol:Marketplace",
            "label": "totalRevenue",
            "offset": 0,
            "slot": "8",
            "type": "t_uint256"
          },
          {
            "astId": 871,
            "contract": "contracts/modules/019-marketplace/Marketplace.sol:Marketplace",
            "label": "totalRating",
            "offset": 0,
            "slot": "9",
            "type": "t_uint256"
          },
          {
            "astId": 873,
            "contract": "contracts/modules/019-marketplace/Marketplace.sol:Marketplace",
            "label": "reviewCount",
            "offset": 0,
            "slot": "10",
            "type": "t_uint256"
          },
          {
            "astId": 875,
            "contract": "contracts/modules/019-marketplace/Marketplace.sol:Marketplace",
            "label": "createdAt",
            "offset": 0,
            "slot": "11",
            "type": "t_uint256"
          }
        ],
        "numberOfBytes": "384"
      },
      "t_uint256": {
        "encoding": "inplace",
        "label": "uint256",
        "numberOfBytes": "32"
      }
    }
  }
}