{
  "address": "0xe5AA2b90aC87F4271982E26e3D8Be46014f6b30e",
  "abi": [
    {
      "inputs": [],
      "stateMutability": "nonpayable",
      "type": "constructor"
    },
    {
      "inputs": [
        {
          "internalType": "address",
          "name": "owner",
          "type": "address"
        }
      ],
      "name": "OwnableInvalidOwner",
      "type": "error"
    },
    {
      "inputs": [
        {
          "internalType": "address",
          "name": "account",
          "type": "address"
        }
      ],
      "name": "OwnableUnauthorizedAccount",
      "type": "error"
    },
    {
      "inputs": [
        {
          "internalType": "address",
          "name": "token",
          "type": "address"
        }
      ],
      "name": "SafeERC20FailedOperation",
      "type": "error"
    },
    {
      "anonymous": false,
      "inputs": [
        {
          "indexed": true,
          "internalType": "address",
          "name": "previousOwner",
          "type": "address"
        },
        {
          "indexed": true,
          "internalType": "address",
          "name": "newOwner",
          "type": "address"
        }
      ],
      "name": "OwnershipTransferred",
      "type": "event"
    },
    {
      "anonymous": false,
      "inputs": [
        {
          "indexed": false,
          "internalType": "string",
          "name": "paymentMethod",
          "type": "string"
        },
        {
          "indexed": false,
          "internalType": "address",
          "name": "tokenAddress",
          "type": "address"
        }
      ],
      "name": "PaymentMethodAdded",
      "type": "event"
    },
    {
      "anonymous": false,
      "inputs": [
        {
          "indexed": false,
          "internalType": "string",
          "name": "paymentMethod",
          "type": "string"
        }
      ],
      "name": "PaymentMethodRemoved",
      "type": "event"
    },
    {
      "anonymous": false,
      "inputs": [
        {
          "indexed": true,
          "internalType": "uint256",
          "name": "paymentId",
          "type": "uint256"
        },
        {
          "indexed": true,
          "internalType": "address",
          "name": "student",
          "type": "address"
        },
        {
          "indexed": true,
          "internalType": "address",
          "name": "merchant",
          "type": "address"
        },
        {
          "indexed": false,
          "internalType": "uint256",
          "name": "amount",
          "type": "uint256"
        },
        {
          "indexed": false,
          "internalType": "string",
          "name": "paymentMethod",
          "type": "string"
        },
        {
          "indexed": false,
          "internalType": "uint256",
          "name": "timestamp",
          "type": "uint256"
        }
      ],
      "name": "PaymentProcessed",
      "type": "event"
    },
    {
      "anonymous": false,
      "inputs": [
        {
          "indexed": true,
          "internalType": "uint256",
          "name": "paymentId",
          "type": "uint256"
        },
        {
          "indexed": true,
          "internalType": "address",
          "name": "student",
          "type": "address"
        },
        {
          "indexed": false,
          "internalType": "uint256",
          "name": "refundAmount",
          "type": "uint256"
        },
        {
          "indexed": false,
          "internalType": "string",
          "name": "reason",
          "type": "string"
        },
        {
          "indexed": false,
          "internalType": "uint256",
          "name": "timestamp",
          "type": "uint256"
        }
      ],
      "name": "PaymentRefunded",
      "type": "event"
    },
    {
      "anonymous": false,
      "inputs": [
        {
          "indexed": true,
          "internalType": "address",
          "name": "student",
          "type": "address"
        },
        {
          "indexed": false,
          "internalType": "string",
          "name": "paymentMethod",
          "type": "string"
        },
        {
          "indexed": false,
          "internalType": "string",
          "name": "walletId",
          "type": "string"
        }
      ],
      "name": "WalletLinked",
      "type": "event"
    },
    {
      "anonymous": false,
      "inputs": [
        {
          "indexed": true,
          "internalType": "address",
          "name": "student",
          "type": "address"
        },
        {
          "indexed": false,
          "internalType": "string",
          "name": "paymentMethod",
          "type": "string"
        }
      ],
      "name": "WalletUnlinked",
      "type": "event"
    },
    {
      "inputs": [
        {
          "internalType": "string",
          "name": "name",
          "type": "string"
        },
        {
          "internalType": "address",
          "name": "tokenAddress",
          "type": "address"
        },
        {
          "internalType": "uint256",
          "name": "minAmount",
          "type": "uint256"
        },
        {
          "internalType": "uint256",
          "name": "maxAmount",
          "type": "uint256"
        }
      ],
      "name": "addPaymentMethod",
      "outputs": [],
      "stateMutability": "nonpayable",
      "type": "function"
    },
    {
      "inputs": [
        {
          "internalType": "address",
          "name": "student",
          "type": "address"
        },
        {
          "internalType": "string",
          "name": "paymentMethod",
          "type": "string"
        }
      ],
      "name": "getLinkedWallet",
      "outputs": [
        {
          "internalType": "string",
          "name": "",
          "type": "string"
        }
      ],
      "stateMutability": "view",
      "type": "function"
    },
    {
      "inputs": [
        {
          "internalType": "address",
          "name": "merchant",
          "type": "address"
        }
      ],
      "name": "getMerchantPayments",
      "outputs": [
        {
          "components": [
            {
              "internalType": "uint256",
              "name": "paymentId",
              "type": "uint256"
            },
            {
              "internalType": "address",
              "name": "student",
              "type": "address"
            },
            {
              "internalType": "address",
              "name": "merchant",
              "type": "address"
            },
            {
              "internalType": "uint256",
              "name": "amount",
              "type": "uint256"
            },
            {
              "internalType": "string",
              "name": "paymentMethod",
              "type": "string"
            },
            {
              "internalType": "uint256",
              "name": "timestamp",
              "type": "uint256"
            },
            {
              "internalType": "bool",
              "name": "isRefunded",
              "type": "bool"
            },
            {
              "internalType": "uint256",
              "name": "refundAmount",
              "type": "uint256"
            },
            {
              "internalType": "string",
              "name": "refundReason",
              "type": "string"
            },
            {
              "internalType": "uint256",
              "name": "refundTimestamp",
              "type": "uint256"
            }
          ],
          "internalType": "struct IPaymentProcessor.PaymentRecord[]",
          "name": "",
          "type": "tuple[]"
        }
      ],
      "stateMutability": "view",
      "type": "function"
    },
    {
      "inputs": [
        {
          "internalType": "string",
          "name": "paymentMethod",
          "type": "string"
        }
      ],
      "name": "getPaymentMethod",
      "outputs": [
        {
          "components": [
            {
              "internalType": "string",
              "name": "name",
              "type": "string"
            },
            {
              "internalType": "address",
              "name": "tokenAddress",
              "type": "address"
            },
            {
              "internalType": "bool",
              "name": "isActive",
              "type": "bool"
            },
            {
              "internalType": "uint256",
              "name": "minAmount",
              "type": "uint256"
            },
            {
              "internalType": "uint256",
              "name": "maxAmount",
              "type": "uint256"
            }
          ],
          "internalType": "struct IPaymentProcessor.PaymentMethod",
          "name": "",
          "type": "tuple"
        }
      ],
      "stateMutability": "view",
      "type": "function"
    },
    {
      "inputs": [
        {
          "internalType": "uint256",
          "name": "paymentId",
          "type": "uint256"
        }
      ],
      "name": "getPaymentRecord",
      "outputs": [
        {
          "components": [
            {
              "internalType": "uint256",
              "name": "paymentId",
              "type": "uint256"
            },
            {
              "internalType": "address",
              "name": "student",
              "type": "address"
            },
            {
              "internalType": "address",
              "name": "merchant",
              "type": "address"
            },
            {
              "internalType": "uint256",
              "name": "amount",
              "type": "uint256"
            },
            {
              "internalType": "string",
              "name": "paymentMethod",
              "type": "string"
            },
            {
              "internalType": "uint256",
              "name": "timestamp",
              "type": "uint256"
            },
            {
              "internalType": "bool",
              "name": "isRefunded",
              "type": "bool"
            },
            {
              "internalType": "uint256",
              "name": "refundAmount",
              "type": "uint256"
            },
            {
              "internalType": "string",
              "name": "refundReason",
              "type": "string"
            },
            {
              "internalType": "uint256",
              "name": "refundTimestamp",
              "type": "uint256"
            }
          ],
          "internalType": "struct IPaymentProcessor.PaymentRecord",
          "name": "",
          "type": "tuple"
        }
      ],
      "stateMutability": "view",
      "type": "function"
    },
    {
      "inputs": [
        {
          "internalType": "address",
          "name": "student",
          "type": "address"
        }
      ],
      "name": "getStudentPayments",
      "outputs": [
        {
          "components": [
            {
              "internalType": "uint256",
              "name": "paymentId",
              "type": "uint256"
            },
            {
              "internalType": "address",
              "name": "student",
              "type": "address"
            },
            {
              "internalType": "address",
              "name": "merchant",
              "type": "address"
            },
            {
              "internalType": "uint256",
              "name": "amount",
              "type": "uint256"
            },
            {
              "internalType": "string",
              "name": "paymentMethod",
              "type": "string"
            },
            {
              "internalType": "uint256",
              "name": "timestamp",
              "type": "uint256"
            },
            {
              "internalType": "bool",
              "name": "isRefunded",
              "type": "bool"
            },
            {
              "internalType": "uint256",
              "name": "refundAmount",
              "type": "uint256"
            },
            {
              "internalType": "string",
              "name": "refundReason",
              "type": "string"
            },
            {
              "internalType": "uint256",
              "name": "refundTimestamp",
              "type": "uint256"
            }
          ],
          "internalType": "struct IPaymentProcessor.PaymentRecord[]",
          "name": "",
          "type": "tuple[]"
        }
      ],
      "stateMutability": "view",
      "type": "function"
    },
    {
      "inputs": [
        {
          "internalType": "address",
          "name": "merchant",
          "type": "address"
        }
      ],
      "name": "getTotalMerchantRevenue",
      "outputs": [
        {
          "internalType": "uint256",
          "name": "",
          "type": "uint256"
        }
      ],
      "stateMutability": "view",
      "type": "function"
    },
    {
      "inputs": [],
      "name": "getTotalPaymentCount",
      "outputs": [
        {
          "internalType": "uint256",
          "name": "",
          "type": "uint256"
        }
      ],
      "stateMutability": "view",
      "type": "function"
    },
    {
      "inputs": [
        {
          "internalType": "address",
          "name": "student",
          "type": "address"
        }
      ],
      "name": "getTotalStudentPayments",
      "outputs": [
        {
          "internalType": "uint256",
          "name": "",
          "type": "uint256"
        }
      ],
      "stateMutability": "view",
      "type": "function"
    },
    {
      "inputs": [
        {
          "internalType": "string",
          "name": "paymentMethod",
          "type": "string"
        }
      ],
      "name": "isPaymentMethodSupported",
      "outputs": [
        {
          "internalType": "bool",
          "name": "",
          "type": "bool"
        }
      ],
      "stateMutability": "view",
      "type": "function"
    },
    {
      "inputs": [
        {
          "internalType": "string",
          "name": "paymentMethod",
          "type": "string"
        },
        {
          "internalType": "string",
          "name": "walletId",
          "type": "string"
        }
      ],
      "name": "linkWallet",
      "outputs": [],
      "stateMutability": "nonpayable",
      "type": "function"
    },
    {
      "inputs": [],
      "name": "owner",
      "outputs": [
        {
          "internalType": "address",
          "name": "",
          "type": "address"
        }
      ],
      "stateMutability": "view",
      "type": "function"
    },
    {
      "inputs": [
        {
          "internalType": "address",
          "name": "merchant",
          "type": "address"
        },
        {
          "internalType": "uint256",
          "name": "amount",
          "type": "uint256"
        },
        {
          "internalType": "string",
          "name": "paymentMethod",
          "type": "string"
        }
      ],
      "name": "processPayment",
      "outputs": [
        {
          "internalType": "uint256",
          "name": "paymentId",
          "type": "uint256"
        }
      ],
      "stateMutability": "nonpayable",
      "type": "function"
    },
    {
      "inputs": [
        {
          "internalType": "uint256",
          "name": "paymentId",
          "type": "uint256"
        },
        {
          "internalType": "string",
          "name": "reason",
          "type": "string"
        }
      ],
      "name": "refundPayment",
      "outputs": [],
      "stateMutability": "nonpayable",
      "type": "function"
    },
    {
      "inputs": [
        {
          "internalType": "string",
          "name": "paymentMethod",
          "type": "string"
        }
      ],
      "name": "removePaymentMethod",
      "outputs": [],
      "stateMutability": "nonpayable",
      "type": "function"
    },
    {
      "inputs": [],
      "name": "renounceOwnership",
      "outputs": [],
      "stateMutability": "nonpayable",
      "type": "function"
    },
    {
      "inputs": [
        {
          "internalType": "address",
          "name": "newOwner",
          "type": "address"
        }
      ],
      "name": "transferOwnership",
      "outputs": [],
      "stateMutability": "nonpayable",
      "type": "function"
    },
    {
      "inputs": [
        {
          "internalType": "string",
          "name": "paymentMethod",
          "type": "string"
        }
      ],
      "name": "unlinkWallet",
      "outputs": [],
      "stateMutability": "nonpayable",
      "type": "function"
    }
  ],
  "transactionHash": "0x0a9e501a90da9cfc4e4cf6dd64e18458b06a1912f1b2e3eaa6d6eb254ea78de4",
  "args": [],
  "numDeployments": 1,
  "solcInputHash": "1aa8ff3bf9f59c178ddc86ab91003649",
  "bytecode": "0x608060409080825234620002c8573315620002b2575060008054336001600160a01b03198216811783556001600160a01b039182167f8be0079c531659141344cd1fd0a4f28419497f9722a3daafe3b4186f6b6457e08480a36001808055835192906001600160401b0390848601828111868210176200029e57865260048086526020928387019563564e444360e01b8752885185875b8581106200028b57505060248160038660ff940152205416620002485788519160a0830190811183821017620002355786888a6003948d9485528187526200011e6200010b8b808a0195878752888b01958d875260608c0198895260808c01996000198b5251938492839251928391620002cd565b81016002815203019020975188620002f2565b88870192511682549160ff60a01b9051151560a01b169160018060a81b03191617179055516002840155519101558651838188516200015f81838b620002cd565b810160038152030190208260ff19825416179055600854916801000000000000000083101562000222578201806008558210156200020f575092828592620001d77f1f923472a606918817d60b35b26645e6c2118d98dd89af79aa3402af9307bb1797620001f19760086060985283852001620002f2565b8751958694898652518094818b88015287870190620002cd565b830152601f01601f19168101030190a1516120249081620004578239f35b634e487b7160e01b845260329052602483fd5b634e487b7160e01b855260418252602485fd5b634e487b7160e01b875260418452602487fd5b885162461bcd60e51b8152808401869052601d60248201527f5061796d656e74206d6574686f6420616c7265616479206578697374730000006044820152606490fd5b81818c0101518184015201869062000096565b634e487b7160e01b84526041600452602484fd5b631e4fbdf760e01b815260006004820152602490fd5b600080fd5b60005b838110620002e15750506000910152565b8181015183820152602001620002d0565b81519091906001600160401b0381116200044057825460019283821691841c821562000437575b602092838210146200042157601f8111620003d3575b5081601f84116001146200036c575092829391839260009462000360575b50501b916000199060031b1c1916179055565b0151925038806200034d565b919083601f1981168760005284600020946000905b88838310620003b857505050106200039e575b505050811b019055565b015160001960f88460031b161c1916905538808062000394565b85870151885590960195948501948793509081019062000381565b8560005282600020601f850160051c81019184861062000416575b601f0160051c019085905b828110620004095750506200032f565b60008155018590620003f9565b9091508190620003ee565b634e487b7160e01b600052602260045260246000fd5b607f1662000319565b634e487b7160e01b600052604160045260246000fdfe608080604052600436101561001357600080fd5b60e060003560e01c9182630b5d3a4314611762575081631e91bd3a14611641578163250cbca31461123a5781633e1bc7a5146111b45781634591d57514611173578163467510821461108657816358d66fba14610f58578163715018a614610eff5781637b23d47314610bd25781638da5cb5b14610ba9578163934614b51461097d578163a356a1281461082657508063a9c2f1a214610548578063ab27b10e146104cc578063c1d446be146103e7578063ca3d46bd14610300578063e0d589111461017b5763f2fde38b146100e857600080fd5b34610176576020366003190112610176576101016118a4565b610109611f22565b6001600160a01b0390811690811561015d57600054826bffffffffffffffffffffffff60a01b821617600055167f8be0079c531659141344cd1fd0a4f28419497f9722a3daafe3b4186f6b6457e0600080a3005b604051631e4fbdf760e01b815260006004820152602490fd5b600080fd5b3461017657602080600319360112610176576001600160401b03600435818111610176576101ad9036906004016119f3565b916101b6611f22565b6101d660ff60405185858237868187810160038152030190205416611c4f565b6101e1368484611e49565b8481519101206040516040810192818410908411176102ea578563564e444360e01b917f8fec1bc68425449857ef1b1311884eae0371bd4ab9604e218a48d5e648f858c494604052600481520152146102b057916102ab7fa6155147946bba2b28d44bcf4813fd6eccee75ca89edc40c8c15d2b60d9e6bdf9360016040518583823760028682019081528190038501902001805460ff60a01b19169055604051848282378381868101600381520301902060ff198154169055604051938385948552840191611db8565b0390a1005b60405162461bcd60e51b815260048101849052601260248201527143616e6e6f742072656d6f766520564e444360701b6044820152606490fd5b634e487b7160e01b600052604160045260246000fd5b34610176576020806003193601126101765761031a6118a4565b6001600160a01b03166000908152600582526040808220905181548082529183528383209091829081860190855b878282106103d15750505061035f92500382611a57565b60005b81518110156103c7576103758183611b2d565b516000526004845260ff6006604060002001541615610397575b600101610362565b916103bf6001916103a88585611b2d565b516000526004865260036040600020015490611dfc565b92905061038f565b5050604051908152f35b8554845260019586019587955093019201610348565b346101765760208060031936011261017657600435610404611a8f565b50806000526004825261041d6040600020541515611e09565b6000526004815260406000209060096040519261043984611a20565b8054845260018101546001600160a01b039081168486015260028201541660408501526003810154606085015261047260048201611b91565b6080850152600581015460a085015260ff600682015416151560c0850152600781015460e08501526104a660088201611b91565b61010085015201546101208301526104c8604051928284938452830190611902565b0390f35b34610176576040366003190112610176576104e56118a4565b602435906001600160401b0382116101765761052f6105349161050f6104c89436906004016119f3565b6001600160a01b0390921660009081526007602052604090209190611c36565b611b91565b6040519182916020835260208301906118dd565b34610176576080366003190112610176576004356001600160401b038111610176576105789036906004016119f3565b6001600160a01b0391602480358481169290839003610176576105ab60443591606435956105a4611f22565b3691611e49565b948551156107e2578482116107a7576040519486519260ff6020978881818c01976105d781838b6118ba565b8101600381520301902054166107635791600361069294928894604051936105fe85611a3c565b8b85528b878601918b835261064b6106398a8a60408b01956001875260608c0198895260808c01998a526040519384928392519283916118ba565b81016002815203019020975188611f4e565b6001870192511682549160ff60a01b9051151560a01b16916affffffffffffffffffffff60a81b1617179055516002840155519101556040518093819289519283916118ba565b81016003815203019020600160ff1982541617905560085490600160401b82101561074f57600182018060085582101561073b577f1f923472a606918817d60b35b26645e6c2118d98dd89af79aa3402af9307bb1761073286868661071e838860086000527ff3f7a9fe364faab93b216da50a3214154f22a0a2b415b23a84c8169e8b636ee301611f4e565b6040519384936040855260408501906118dd565b918301520390a1005b634e487b7160e01b60009081526032600452fd5b634e487b7160e01b60009081526041600452fd5b60405162461bcd60e51b815260048101889052601d818701527f5061796d656e74206d6574686f6420616c7265616479206578697374730000006044820152606490fd5b60405162461bcd60e51b81526020600482015260148185015273496e76616c696420616d6f756e742072616e676560601b6044820152606490fd5b60405162461bcd60e51b815260206004820152601b818501527f496e76616c6964207061796d656e74206d6574686f64206e616d6500000000006044820152606490fd5b346101765760209081600319360112610176576001600160a01b03918261084b6118a4565b1660005260069260068252604060002092604051808585829754938481520190600052856000209260005b878282106109675750505061088d92500385611a57565b6108978451611add565b9460005b855181101561095957806108b160019288611b2d565b516000526004865260406000206009604051916108cd83611a20565b8054835287858201541689840152876002820154166040840152600381015460608401526108fd60048201611b91565b6080840152600581015460a084015260ff8682015416151560c084015260078101548784015261092f60088201611b91565b6101008401520154610120820152610947828a611b2d565b526109528189611b2d565b500161089b565b604051806104c8898261198f565b855484526001958601958a955093019201610876565b34610176576040366003190112610176576001600160401b03600435818111610176576109ae9036906004016119f3565b90602435838111610176576109c79036906004016119f3565b60409391935194828487376109ef60ff87858101600381526020998a91030190205416611c9b565b60405183858237610a1860ff600186840193600285528a81839603019020015460a01c16611ce7565b8215610b70573360005260078752610a3560406000208587611c36565b9183116102ea57610a5083610a4a8454611b57565b84611d4a565b600090601f8411600114610ae25750917f2b9dca98ea9c8c7760d7e97b477bdc1f088918bf885b95173e75b4a31194b162959691610aa98280610ad296600091610ad7575b508160011b916000199060031b1c19161790565b90555b610ac3604051958695604087526040870191611db8565b91848303908501523396611db8565b0390a2005b90508a01358b610a95565b90601f1984168360005288600020926000905b828210610b59575050917f2b9dca98ea9c8c7760d7e97b477bdc1f088918bf885b95173e75b4a31194b1629798939185610ad2969410610b3f575b5050600182811b019055610aac565b890135600019600385901b60f8161c191690558880610b30565b89840135855593840193928a0192908a0190610af5565b60405162461bcd60e51b8152600481018890526011602482015270125b9d985b1a59081dd85b1b195d081251607a1b6044820152606490fd5b34610176576000366003190112610176576000546040516001600160a01b039091168152602090f35b34610176576040366003190112610176576024356001600160401b03811161017657610c029036906004016119f3565b6004356000526004602052604060002091610c1f83541515611e09565b6006830160ff815416610eba5760018401546001600160a01b03163381148015610ea6575b15610e6b57604051600486018054600091610c5e82611b57565b9160018116908115610e535750600114610e1d575b50509060208183600260019552030190200154610c9560ff8260a01c16611ce7565b6001600160a01b031680610dfa575b5050600160ff1982541617905560038301918254600785015560088401936001600160401b0382116102ea57610ce482610cde8754611b57565b87611d4a565b600094601f8311600114610d7357610d3683807fa1bed4ae78d169b64730bc4ab3a88895fbf2518edaaf7d4f317a3f28d16f23da969798600091610d6857508160011b916000199060031b1c19161790565b90555b4260098201556001808060a01b0391015416935490610d6360405192839260043596429285611dd9565b0390a3005b905087013589610a95565b601f198316958160005260206000209060005b888110610de25750847fa1bed4ae78d169b64730bc4ab3a88895fbf2518edaaf7d4f317a3f28d16f23da96979810610dc8575b5050600183811b019055610d39565b860135600019600386901b60f8161c191690558680610db9565b9091602060018192858a013581550193019101610d86565b610e169160018060a01b03600288015416600388015492611e8f565b8480610ca4565b90915060005260206000206000905b828210610e3f5750508101602082610c73565b600181602092548487015201910190610e2c565b60ff1916855250508015150282019050602082610c73565b60405162461bcd60e51b8152602060048201526013602482015272155b985d5d1a1bdc9a5e9959081c99599d5b99606a1b6044820152606490fd5b506000546001600160a01b03163314610c44565b60405162461bcd60e51b815260206004820152601860248201527f5061796d656e7420616c726561647920726566756e64656400000000000000006044820152606490fd5b3461017657600036600319011261017657610f18611f22565b600080546001600160a01b0319811682556001600160a01b03167f8be0079c531659141344cd1fd0a4f28419497f9722a3daafe3b4186f6b6457e08280a3005b3461017657602080600319360112610176576004356001600160401b03811161017657610f899036906004016119f3565b3360005260078352610fa9610fa360406000208385611c36565b54611b57565b1561104e57907fe2774273c022001af52683f3a0a2415c2446f90832092bdb0cb37f3fe1849112913360005260078452610fe860406000208284611c36565b610ff28154611b57565b9081611011575b5050610ad26040519283928684523396840191611db8565b81601f600093116001146110295750555b8480610ff9565b908083918252611047601f898420940160051c840160018501611d33565b5555611022565b60405162461bcd60e51b815260048101849052601060248201526f139bc81b1a5b9ad959081dd85b1b195d60821b6044820152606490fd5b3461017657602080600319360112610176576110a06118a4565b60009060018060a01b031660005260069060068352604060002090604051808386829554938481520190600052866000209260005b8882821061115d575050506110ec92500383611a57565b60005b8251811015611153576111028184611b2d565b516000526004855260ff84604060002001541615611123575b6001016110ef565b9061114b6001916111348486611b2d565b516000526004875260036040600020015490611dfc565b91905061111b565b8482604051908152f35b85548452600195860195889550930192016110d5565b3461017657600036600319011261017657600154600019810190811161119e57602090604051908152f35b634e487b7160e01b600052601160045260246000fd5b34610176576020366003190112610176576004356001600160401b038111610176576111e660209136906004016119f3565b60ff604051828482378481848101600381520301902054169182611211575b50506040519015158152f35b60ff9250908360019282604051938492833781016002815203019020015460a01c168280611205565b34610176576060366003190112610176576112536118a4565b60249081356044908135926001600160401b03938481116101765761127c9036906004016119f3565b60409391935196818589376112a460ff898481016003815260209b8c91030190205416611c9b565b60405193828686376112ce60ff84870160028152878c6001998a9303019020015460a01c16611ce7565b6001600160a01b038181169788156115ff5785156115bd5788331461158657604051858982378b818781016002815203019020906002820154871061154d5760038201548711611512575086015416908490826114ff575b505050835496600019948589146114ea5780890181558860005260048a526040600020928984558184016bffffffffffffffffffffffff60a01b9033828254161790558960028601918254161790558560038501556004840192851161074f57509083929161139b8a9695610a4a8454611b57565b600096601f8511600114611459575050906006916113f284807f68e3d6ea1b1d06bfb0c86b3ea10fba3055bf4080221492f842b319bfec219dce989960009161144e57508160011b916000199060031b1c19161790565b90555b4260058201550160ff198154169055336000526005885261141a846040600020611d8f565b8560005260068852611430846040600020611d8f565b6114436040519283923397429285611dd9565b0390a4604051908152f35b90508a01358e610a95565b909196601f19851691886000528c600020928d6000905b8c8383106114d357505050917f68e3d6ea1b1d06bfb0c86b3ea10fba3055bf4080221492f842b319bfec219dce98999391876006979694106114bb575b50505084811b0190556113f5565b60f88860031b161c19908b01351690558c80806114ad565b85013586558e9a509486019493840193018e611470565b82634e487b7160e01b60005260116004526000fd5b61150a923390611e8f565b888381611326565b8b75416d6f756e742065786365656473206d6178696d756d60501b6064926016886040519462461bcd60e51b86526004860152840152820152fd5b8b73416d6f756e742062656c6f77206d696e696d756d60601b6064926014886040519462461bcd60e51b86526004860152840152820152fd5b8a7121b0b73737ba103830bc903a379039b2b63360711b6064926012876040519462461bcd60e51b86526004860152840152820152fd5b8a7f416d6f756e74206d7573742062652067726561746572207468616e2030000000606492601d876040519462461bcd60e51b86526004860152840152820152fd5b8a7f496e76616c6964206d65726368616e74206164647265737300000000000000006064926018876040519462461bcd60e51b86526004860152840152820152fd5b346101765760208060031936011261017657600435906001600160401b038211610176578061167660a09336906004016119f3565b91906000608060405161168881611a3c565b60608152828582015282604082015282606082015201526116bf60ff60405185848237848187810160038152030190205416611c4f565b82604051938492833781016002815203019020604051916116df83611a3c565b6116e882611b91565b8352600182015491600180861b039282850193808216855260ff6040870192881c161515825261174260036002850154946060890195865201549460808801958652604051988998828a52519189015260c08801906118dd565b945116604086015251151560608501525160808401525160a08301520390f35b3461017657602080600319360112610176576001600160a01b03806117856118a4565b166000526005936005835260406000208481549182825285820190600052856000209260005b8782821061188e575050506117c292500385611a57565b6117cc8451611add565b9460005b855181101561095957806117e660019288611b2d565b5160005260048652604060002060096040519161180283611a20565b80548352878582015416898401528760028201541660408401526003810154606084015261183260048201611b91565b60808401528581015460a084015260ff600682015416151560c084015260078101548784015261186460088201611b91565b610100840152015461012082015261187c828a611b2d565b526118878189611b2d565b50016117d0565b855484526001958601958a9550930192016117ab565b600435906001600160a01b038216820361017657565b60005b8381106118cd5750506000910152565b81810151838201526020016118bd565b906020916118f6815180928185528580860191016118ba565b601f01601f1916010190565b9061198161194d61014084518452602085015160018060a01b0380911660208601526040860151166040850152606085015160608501526080850151908060808601528401906118dd565b60a084015160a084015260c0840151151560c084015260e084015160e08401526101008085015190848303908501526118dd565b916101208091015191015290565b6020808201906020835283518092526040830192602060408460051b8301019501936000915b8483106119c55750505050505090565b90919293949584806119e3600193603f198682030187528a51611902565b98019301930191949392906119b5565b9181601f84011215610176578235916001600160401b038311610176576020838186019501011161017657565b61014081019081106001600160401b038211176102ea57604052565b60a081019081106001600160401b038211176102ea57604052565b90601f801991011681019081106001600160401b038211176102ea57604052565b6001600160401b0381116102ea5760051b60200190565b60405190611a9c82611a20565b81610120600091828152826020820152826040820152826060820152606060808201528260a08201528260c08201528260e082015260606101008201520152565b90611ae782611a78565b611af46040519182611a57565b8281528092611b05601f1991611a78565b019060005b828110611b1657505050565b602090611b21611a8f565b82828501015201611b0a565b8051821015611b415760209160051b010190565b634e487b7160e01b600052603260045260246000fd5b90600182811c92168015611b87575b6020831014611b7157565b634e487b7160e01b600052602260045260246000fd5b91607f1691611b66565b90604051918260008254611ba481611b57565b90818452602094600191600181169081600014611c145750600114611bd5575b505050611bd392500383611a57565b565b600090815285812095935091905b818310611bfc575050611bd39350820101388080611bc4565b85548884018501529485019487945091830191611be3565b92505050611bd394925060ff191682840152151560051b820101388080611bc4565b6020919283604051948593843782019081520301902090565b15611c5657565b60405162461bcd60e51b815260206004820152601860248201527f5061796d656e74206d6574686f64206e6f7420666f756e6400000000000000006044820152606490fd5b15611ca257565b60405162461bcd60e51b815260206004820152601c60248201527f5061796d656e74206d6574686f64206e6f7420737570706f72746564000000006044820152606490fd5b15611cee57565b60405162461bcd60e51b815260206004820152601a60248201527f5061796d656e74206d6574686f6420697320696e6163746976650000000000006044820152606490fd5b818110611d3e575050565b60008155600101611d33565b9190601f8111611d5957505050565b611bd3926000526020600020906020601f840160051c83019310611d85575b601f0160051c0190611d33565b9091508190611d78565b805490600160401b8210156102ea5760018201808255821015611b415760005260206000200155565b908060209392818452848401376000828201840152601f01601f1916010190565b94939291604092611df7928752606060208801526060870191611db8565b930152565b9190820180921161119e57565b15611e1057565b60405162461bcd60e51b815260206004820152601160248201527014185e5b595b9d081b9bdd08199bdd5b99607a1b6044820152606490fd5b9291926001600160401b0382116102ea5760405191611e72601f8201601f191660200184611a57565b829481845281830111610176578281602093846000960137010152565b9260209160009160405190848201926323b872dd60e01b845260018060a01b0396878092166024850152166044830152606482015260648152611ed181611a3c565b519082865af115611f16576000513d611f0d57508082163b155b611ef3575050565b604051635274afe760e01b81529116600482015260249150fd5b60011415611eeb565b6040513d6000823e3d90fd5b6000546001600160a01b03163303611f3657565b60405163118cdaa760e01b8152336004820152602490fd5b91909182516001600160401b0381116102ea57611f6f81610a4a8454611b57565b602080601f8311600114611fb257508190611fa3939495600092611fa7575b50508160011b916000199060031b1c19161790565b9055565b015190503880611f8e565b90601f19831695846000526020600020926000905b888210611fff57505083600195969710611fe6575b505050811b019055565b015160001960f88460031b161c19169055388080611fdc565b80600185968294968601518155019501930190611fc756fea164736f6c6343000818000a",
  "devdoc": {
    "details": "Payment processing system supporting multiple payment methods Allows students to make payments to merchants using VNDC or other tokens",
    "errors": {
      "OwnableInvalidOwner(address)": [
        {
          "details": "The owner is not a valid owner account. (eg. `address(0)`)"
        }
      ],
      "OwnableUnauthorizedAccount(address)": [
        {
          "details": "The caller account is not authorized to perform an operation."
        }
      ],
      "SafeERC20FailedOperation(address)": [
        {
          "details": "An operation with an ERC-20 token failed."
        }
      ]
    },
    "kind": "dev",
    "methods": {
      "addPaymentMethod(string,address,uint256,uint256)": {
        "details": "Add a new payment method"
      },
      "getLinkedWallet(address,string)": {
        "details": "Get wallet ID linked to payment method"
      },
      "getMerchantPayments(address)": {
        "details": "Get all payments for a merchant"
      },
      "getPaymentMethod(string)": {
        "details": "Get payment method details"
      },
      "getPaymentRecord(uint256)": {
        "details": "Get payment record by ID"
      },
      "getStudentPayments(address)": {
        "details": "Get all payments for a student"
      },
      "getTotalMerchantRevenue(address)": {
        "details": "Get total payments received by merchant"
      },
      "getTotalPaymentCount()": {
        "details": "Get total transaction count"
      },
      "getTotalStudentPayments(address)": {
        "details": "Get total payments made by student"
      },
      "isPaymentMethodSupported(string)": {
        "details": "Check if a payment method is supported"
      },
      "linkWallet(string,string)": {
        "details": "Link a wallet to a payment method"
      },
      "owner()": {
        "details": "Returns the address of the current owner."
      },
      "processPayment(address,uint256,string)": {
        "details": "Process a payment from student to merchant"
      },
      "refundPayment(uint256,string)": {
        "details": "Refund a payment"
      },
      "removePaymentMethod(string)": {
        "details": "Remove a payment method"
      },
      "renounceOwnership()": {
        "details": "Leaves the contract without owner. It will not be possible to call `onlyOwner` functions. Can only be called by the current owner. NOTE: Renouncing ownership will leave the contract without an owner, thereby disabling any functionality that is only available to the owner."
      },
      "transferOwnership(address)": {
        "details": "Transfers ownership of the contract to a new account (`newOwner`). Can only be called by the current owner."
      },
      "unlinkWallet(string)": {
        "details": "Unlink a wallet from a payment method"
      }
    },
    "title": "PaymentProcessor",
    "version": 1
  },
  "userdoc": {
    "kind": "user",
    "methods": {},
    "version": 1
  },
  "storageLayout": {
    "storage": [
      {
        "astId": 8,
        "contract": "contracts/modules/005-payment-processor/PaymentProcessor.sol:PaymentProcessor",
        "label": "_owner",
        "offset": 0,
        "slot": "0",
        "type": "t_address"
      },
      {
        "astId": 1538,
        "contract": "contracts/modules/005-payment-processor/PaymentProcessor.sol:PaymentProcessor",
        "label": "paymentIdCounter",
        "offset": 0,
        "slot": "1",
        "type": "t_uint256"
      },
      {
        "astId": 1543,
        "contract": "contracts/modules/005-payment-processor/PaymentProcessor.sol:PaymentProcessor",
        "label": "paymentMethods",
        "offset": 0,
        "slot": "2",
        "type": "t_mapping(t_string_memory_ptr,t_struct(PaymentMethod)2737_storage)"
      },
      {
        "astId": 1547,
        "contract": "contracts/modules/005-payment-processor/PaymentProcessor.sol:PaymentProcessor",
        "label": "supportedMethods",
        "offset": 0,
        "slot": "3",
        "type": "t_mapping(t_string_memory_ptr,t_bool)"
      },
      {
        "astId": 1552,
        "contract": "contracts/modules/005-payment-processor/PaymentProcessor.sol:PaymentProcessor",
        "label": "paymentRecords",
        "offset": 0,
        "slot": "4",
        "type": "t_mapping(t_uint256,t_struct(PaymentRecord)2726_storage)"
      },
      {
        "astId": 1557,
        "contract": "contracts/modules/005-payment-processor/PaymentProcessor.sol:PaymentProcessor",
        "label": "studentPayments",
        "offset": 0,
        "slot": "5",
        "type": "t_mapping(t_address,t_array(t_uint256)dyn_storage)"
      },
      {
        "astId": 1562,
        "contract": "contracts/modules/005-payment-processor/PaymentProcessor.sol:PaymentProcessor",
        "label": "merchantPayments",
        "offset": 0,
        "slot": "6",
        "type": "t_mapping(t_address,t_array(t_uint256)dyn_storage)"
      },
      {
        "astId": 1568,
        "contract": "contracts/modules/005-payment-processor/PaymentProcessor.sol:PaymentProcessor",
        "label": "linkedWallets",
        "offset": 0,
        "slot": "7",
        "type": "t_mapping(t_address,t_mapping(t_string_memory_ptr,t_string_storage))"
      },
      {
        "astId": 1571,
        "contract": "contracts/modules/005-payment-processor/PaymentProcessor.sol:PaymentProcessor",
        "label": "paymentMethodsList",
        "offset": 0,
        "slot": "8",
        "type": "t_array(t_string_storage)dyn_storage"
      }
    ],
    "types": {
      "t_address": {
        "encoding": "inplace",
        "label": "address",
        "numberOfBytes": "20"
      },
      "t_array(t_string_storage)dyn_storage": {
        "base": "t_string_storage",
        "encoding": "dynamic_array",
        "label": "string[]",
        "numberOfBytes": "32"
      },
      "t_array(t_uint256)dyn_storage": {
        "base": "t_uint256",
        "encoding": "dynamic_array",
        "label": "uint256[]",
        "numberOfBytes": "32"
      },
      "t_bool": {
        "encoding": "inplace",
        "label": "bool",
        "numberOfBytes": "1"
      },
      "t_mapping(t_address,t_array(t_uint256)dyn_storage)": {
        "encoding": "mapping",
        "key": "t_address",
        "label": "mapping(address => uint256[])",
        "numberOfBytes": "32",
        "value": "t_array(t_uint256)dyn_storage"
      },
      "t_mapping(t_address,t_mapping(t_string_memory_ptr,t_string_storage))": {
        "encoding": "mapping",
        "key": "t_address",
        "label": "mapping(address => mapping(string => string))",
        "numberOfBytes": "32",
        "value": "t_mapping(t_string_memory_ptr,t_string_storage)"
      },
      "t_mapping(t_string_memory_ptr,t_bool)": {
        "encoding": "mapping",
        "key": "t_string_memory_ptr",
        "label": "mapping(string => bool)",
        "numberOfBytes": "32",
        "value": "t_bool"
      },
      "t_mapping(t_string_memory_ptr,t_string_storage)": {
        "encoding": "mapping",
        "key": "t_string_memory_ptr",
        "label": "mapping(string => string)",
        "numberOfBytes": "32",
        "value": "t_string_storage"
      },
      "t_mapping(t_string_memory_ptr,t_struct(PaymentMethod)2737_storage)": {
        "encoding": "mapping",
        "key": "t_string_memory_ptr",
        "label": "mapping(string => struct IPaymentProcessor.PaymentMethod)",
        "numberOfBytes": "32",
        "value": "t_struct(PaymentMethod)2737_storage"
      },
      "t_mapping(t_uint256,t_struct(PaymentRecord)2726_storage)": {
        "encoding": "mapping",
        "key": "t_uint256",
        "label": "mapping(uint256 => struct IPaymentProcessor.PaymentRecord)",
        "numberOfBytes": "32",
        "value": "t_struct(PaymentRecord)2726_storage"
      },
      "t_string_memory_ptr": {
        "encoding": "bytes",
        "label": "string",
        "numberOfBytes": "32"
      },
      "t_string_storage": {
        "encoding": "bytes",
        "label": "string",
        "numberOfBytes": "32"
      },
      "t_struct(PaymentMethod)2737_storage": {
        "encoding": "inplace",
        "label": "struct IPaymentProcessor.PaymentMethod",
        "members": [
          {
            "astId": 2728,
            "contract": "contracts/modules/005-payment-processor/PaymentProcessor.sol:PaymentProcessor",
            "label": "name",
            "offset": 0,
            "slot": "0",
            "type": "t_string_storage"
          },
          {
            "astId": 2730,
            "contract": "contracts/modules/005-payment-processor/PaymentProcessor.sol:PaymentProcessor",
            "label": "tokenAddress",
            "offset": 0,
            "slot": "1",
            "type": "t_address"
          },
          {
            "astId": 2732,
            "contract": "contracts/modules/005-payment-processor/PaymentProcessor.sol:PaymentProcessor",
            "label": "isActive",
            "offset": 20,
            "slot": "1",
            "type": "t_bool"
          },
          {
            "astId": 2734,
            "contract": "contracts/modules/005-payment-processor/PaymentProcessor.sol:PaymentProcessor",
            "label": "minAmount",
            "offset": 0,
            "slot": "2",
            "type": "t_uint256"
          },
          {
            "astId": 2736,
            "contract": "contracts/modules/005-payment-processor/PaymentProcessor.sol:PaymentProcessor",
            "label": "maxAmount",
            "offset": 0,
            "slot": "3",
            "type": "t_uint256"
          }
        ],
        "numberOfBytes": "128"
      },
      "t_struct(PaymentRecord)2726_storage": {
        "encoding": "inplace",
        "label": "struct IPaymentProcessor.PaymentRecord",
        "members": [
          {
            "astId": 2707,
            "contract": "contracts/modules/005-payment-processor/PaymentProcessor.sol:PaymentProcessor",
            "label": "paymentId",
            "offset": 0,
            "slot": "0",
            "type": "t_uint256"
          },
          {
            "astId": 2709,
            "contract": "contracts/modules/005-payment-processor/PaymentProcessor.sol:PaymentProcessor",
            "label": "student",
            "offset": 0,
            "slot": "1",
            "type": "t_address"
          },
          {
            "astId": 2711,
            "contract": "contracts/modules/005-payment-processor/PaymentProcessor.sol:PaymentProcessor",
            "label": "merchant",
            "offset": 0,
            "slot": "2",
            "type": "t_address"
          },
          {
            "astId": 2713,
            "contract": "contracts/modules/005-payment-processor/PaymentProcessor.sol:PaymentProcessor",
            "label": "amount",
            "offset": 0,
            "slot": "3",
            "type": "t_uint256"
          },
          {
            "astId": 2715,
            "contract": "contracts/modules/005-payment-processor/PaymentProcessor.sol:PaymentProcessor",
            "label": "paymentMethod",
            "offset": 0,
            "slot": "4",
            "type": "t_string_storage"
          },
          {
            "astId": 2717,
            "contract": "contracts/modules/005-payment-processor/PaymentProcessor.sol:PaymentProcessor",
            "label": "timestamp",
            "offset": 0,
            "slot": "5",
            "type": "t_uint256"
          },
          {
            "astId": 2719,
            "contract": "contracts/modules/005-payment-processor/PaymentProcessor.sol:PaymentProcessor",
            "label": "isRefunded",
            "offset": 0,
            "slot": "6",
            "type": "t_bool"
          },
          {
            "astId": 2721,
            "contract": "contracts/modules/005-payment-processor/PaymentProcessor.sol:PaymentProcessor",
            "label": "refundAmount",
            "offset": 0,
            "slot": "7",
            "type": "t_uint256"
          },
          {
            "astId": 2723,
            "contract": "contracts/modules/005-payment-processor/PaymentProcessor.sol:PaymentProcessor",
            "label": "refundReason",
            "offset": 0,
            "slot": "8",
            "type": "t_string_storage"
          },
          {
            "astId": 2725,
            "contract": "contracts/modules/005-payment-processor/PaymentProcessor.sol:PaymentProcessor",
            "label": "refundTimestamp",
            "offset": 0,
            "slot": "9",
            "type": "t_uint256"
          }
        ],
        "numberOfBytes": "320"
      },
      "t_uint256": {
        "encoding": "inplace",
        "label": "uint256",
        "numberOfBytes": "32"
      }
    }
  }
}