{
  "address": "0x6e2B4a19c44623b63379c35F1643fc076765f936",
  "abi": [
    {
      "inputs": [],
      "stateMutability": "nonpayable",
      "type": "constructor"
    },
    {
      "inputs": [
        {
          "internalType": "address",
          "name": "owner",
          "type": "address"
        }
      ],
      "name": "OwnableInvalidOwner",
      "type": "error"
    },
    {
      "inputs": [
        {
          "internalType": "address",
          "name": "account",
          "type": "address"
        }
      ],
      "name": "OwnableUnauthorizedAccount",
      "type": "error"
    },
    {
      "anonymous": false,
      "inputs": [
        {
          "indexed": true,
          "internalType": "address",
          "name": "previousOwner",
          "type": "address"
        },
        {
          "indexed": true,
          "internalType": "address",
          "name": "newOwner",
          "type": "address"
        }
      ],
      "name": "OwnershipTransferred",
      "type": "event"
    },
    {
      "anonymous": false,
      "inputs": [
        {
          "indexed": true,
          "internalType": "address",
          "name": "researcher",
          "type": "address"
        },
        {
          "indexed": true,
          "internalType": "uint256",
          "name": "projectId",
          "type": "uint256"
        }
      ],
      "name": "PaperPublished",
      "type": "event"
    },
    {
      "anonymous": false,
      "inputs": [
        {
          "indexed": true,
          "internalType": "uint256",
          "name": "projectId",
          "type": "uint256"
        }
      ],
      "name": "ProjectCompleted",
      "type": "event"
    },
    {
      "anonymous": false,
      "inputs": [
        {
          "indexed": true,
          "internalType": "uint256",
          "name": "projectId",
          "type": "uint256"
        },
        {
          "indexed": false,
          "internalType": "string",
          "name": "title",
          "type": "string"
        },
        {
          "indexed": false,
          "internalType": "address",
          "name": "pi",
          "type": "address"
        }
      ],
      "name": "ProjectCreated",
      "type": "event"
    },
    {
      "anonymous": false,
      "inputs": [
        {
          "indexed": true,
          "internalType": "uint256",
          "name": "projectId",
          "type": "uint256"
        },
        {
          "indexed": true,
          "internalType": "address",
          "name": "member",
          "type": "address"
        }
      ],
      "name": "TeamMemberAdded",
      "type": "event"
    },
    {
      "inputs": [
        {
          "internalType": "uint256",
          "name": "projectId",
          "type": "uint256"
        },
        {
          "internalType": "address",
          "name": "member",
          "type": "address"
        }
      ],
      "name": "addTeamMember",
      "outputs": [],
      "stateMutability": "nonpayable",
      "type": "function"
    },
    {
      "inputs": [
        {
          "internalType": "uint256",
          "name": "projectId",
          "type": "uint256"
        }
      ],
      "name": "completeProject",
      "outputs": [],
      "stateMutability": "nonpayable",
      "type": "function"
    },
    {
      "inputs": [
        {
          "internalType": "string",
          "name": "title",
          "type": "string"
        },
        {
          "internalType": "string",
          "name": "description",
          "type": "string"
        },
        {
          "internalType": "uint256",
          "name": "startDate",
          "type": "uint256"
        },
        {
          "internalType": "uint256",
          "name": "endDate",
          "type": "uint256"
        },
        {
          "internalType": "uint256",
          "name": "teamSize",
          "type": "uint256"
        }
      ],
      "name": "createResearchProject",
      "outputs": [
        {
          "internalType": "uint256",
          "name": "",
          "type": "uint256"
        }
      ],
      "stateMutability": "nonpayable",
      "type": "function"
    },
    {
      "inputs": [
        {
          "internalType": "address",
          "name": "researcher",
          "type": "address"
        }
      ],
      "name": "getResearcherStats",
      "outputs": [
        {
          "internalType": "uint256",
          "name": "projectsCompleted",
          "type": "uint256"
        },
        {
          "internalType": "uint256",
          "name": "papers",
          "type": "uint256"
        }
      ],
      "stateMutability": "view",
      "type": "function"
    },
    {
      "inputs": [],
      "name": "getTotalProjects",
      "outputs": [
        {
          "internalType": "uint256",
          "name": "",
          "type": "uint256"
        }
      ],
      "stateMutability": "view",
      "type": "function"
    },
    {
      "inputs": [],
      "name": "owner",
      "outputs": [
        {
          "internalType": "address",
          "name": "",
          "type": "address"
        }
      ],
      "stateMutability": "view",
      "type": "function"
    },
    {
      "inputs": [
        {
          "internalType": "uint256",
          "name": "projectId",
          "type": "uint256"
        }
      ],
      "name": "publishPaper",
      "outputs": [],
      "stateMutability": "nonpayable",
      "type": "function"
    },
    {
      "inputs": [],
      "name": "renounceOwnership",
      "outputs": [],
      "stateMutability": "nonpayable",
      "type": "function"
    },
    {
      "inputs": [
        {
          "internalType": "address",
          "name": "newOwner",
          "type": "address"
        }
      ],
      "name": "transferOwnership",
      "outputs": [],
      "stateMutability": "nonpayable",
      "type": "function"
    }
  ],
  "transactionHash": "0xf22d39593b85b63651e00d125605e6545f15a11da3be9f327816dd8a8373407b",
  "args": [],
  "numDeployments": 1,
  "solcInputHash": "5f00d4c9402f980f96140ab3f200c928",
  "bytecode": "0x6080806040523461007e5733156100685760008054336001600160a01b03198216811783556040519290916001600160a01b0316907f8be0079c531659141344cd1fd0a4f28419497f9722a3daafe3b4186f6b6457e09080a360018055610b7b90816100848239f35b631e4fbdf760e01b815260006004820152602490fd5b600080fdfe6080604052600436101561001257600080fd5b60003560e01c80632245f152146108b4578063715018a61461085b578063812739a21461081a5780638da5cb5b146107f1578063948c8d6e146107165780639f0183281461066d578063b6a602e314610627578063d8b90f46146101125763f2fde38b1461007f57600080fd5b3461010d57602036600319011261010d5761009861096c565b6100a0610b42565b6001600160a01b039081169081156100f457600054826bffffffffffffffffffffffff60a01b821617600055167f8be0079c531659141344cd1fd0a4f28419497f9722a3daafe3b4186f6b6457e0600080a3005b604051631e4fbdf760e01b815260006004820152602490fd5b600080fd5b3461010d5760a036600319011261010d5760043567ffffffffffffffff811161010d57610143903690600401610982565b90602490813567ffffffffffffffff811161010d57610166903690600401610982565b909290606435604435818110156105f3576001549561018487610ae0565b60015560405193610100850185811067ffffffffffffffff8211176105de576040528785526101c591906101b9368b8a610aef565b60208701523691610aef565b6040840152336060840152608083015260a082015260405180604081011067ffffffffffffffff60408301111761054c5760408101604052600681526561637469766560d01b602082015260c082015260843560e082015283600052600260205260406000209181518355602082015180519067ffffffffffffffff821161054c5781906102638261025a60018901546109e5565b60018901610a36565b602090601f831160011461056c57600092610561575b50508160011b916000199060031b1c19161760018401555b604082015180519067ffffffffffffffff821161054c5781906102c4826102bb60028901546109e5565b60028901610a36565b602090601f83116001146104da576000926104cf575b50508160011b916000199060031b1c19161760028401555b6003830160018060a01b036060840151166bffffffffffffffffffffffff60a01b8254161790556080820151600484015560a08201516005840155600683019060c083015180519167ffffffffffffffff83116104bb5750918160209895936103688998969461036285546109e5565b85610a36565b8990601f831160011461041f5793606095938360079460e0947fc0c54fed07481d0998e1446b2c13759606bf4f26b78306307413ac4c4309aa829b9a98600092610414575b50508160011b916000199060031b1c19161790555b015191015533600052600587526103dd856040600020610aab565b82604051938492604084528160408501528484013760008282018401523388830152601f01601f19168101030190a2604051908152f35b015190508e806103ad565b9796959493929190601f19821698836000528b6000209960005b8181106104a15750837fc0c54fed07481d0998e1446b2c13759606bf4f26b78306307413ac4c4309aa829a9b6060999897946007979460e09760019510610488575b505050811b0190556103c2565b015160001960f88460031b161c191690558e808061047b565b838301518c556001909b019a8c9a50928d01928d01610439565b634e487b7160e01b60009081526041600452fd5b0151905088806102da565b9250600286016000526020600020906000935b601f1984168510610531576001945083601f19811610610518575b505050811b0160028401556102f2565b015160001960f88460031b161c19169055888080610508565b818101518355602094850194600190930192909101906104ed565b82634e487b7160e01b60005260416004526000fd5b015190508880610279565b9250600186016000526020600020906000935b601f19841685106105c3576001945083601f198116106105aa575b505050811b016001840155610291565b015160001960f88460031b161c1916905588808061059a565b8181015183556020948501946001909301929091019061057f565b86634e487b7160e01b60005260416004526000fd5b60405162461bcd60e51b815260206004820152600d818601526c496e76616c696420646174657360981b6044820152606490fd5b3461010d57602036600319011261010d576001600160a01b0361064861096c565b1660005260036020526040806000206004600382015491015482519182526020820152f35b3461010d57602036600319011261010d576004358015158061070b575b156106d45733600052600360205260046040600020016106aa8154610ae0565b9055337fdc1252ea00b8705b496770ad21c82751bc18fd164f57da672863ca80823d1f52600080a3005b60405162461bcd60e51b815260206004820152600f60248201526e125b9d985b1a59081c1c9bda9958dd608a1b6044820152606490fd5b50600154811061068a565b3461010d57604036600319011261010d576001600160a01b03602435818116916004359183900361010d5781600052600260205261075f816003604060002001541633146109b0565b81600052600460205260406000208054600160401b8110156107db5761078a91600182018155610a7d565b819291549060031b9185831b921b19161790558160005260056020526107b4816040600020610aab565b7f1ecb79e38af33b5e8751cc9cf391eb185feff6f68630686146e1e2e2753f00d8600080a3005b634e487b7160e01b600052604160045260246000fd5b3461010d57600036600319011261010d576000546040516001600160a01b039091168152602090f35b3461010d57600036600319011261010d57600154600019810190811161084557602090604051908152f35b634e487b7160e01b600052601160045260246000fd5b3461010d57600036600319011261010d57610874610b42565b600080546001600160a01b0319811682556001600160a01b03167f8be0079c531659141344cd1fd0a4f28419497f9722a3daafe3b4186f6b6457e08280a3005b3461010d57602036600319011261010d576004358060005260026020526108ec60018060a01b036003604060002001541633146109b0565b806000526002602052600660406000200161090781546109e5565b601f811161094a575b5060126818dbdb5c1b195d195960ba1b0190557f60d8df137e489b6216738e436244ca4700bd6d0c8371d3c8d9c80b54538111b9600080a2005b6109669082600052601f6020600020910160051c810190610a1f565b82610910565b600435906001600160a01b038216820361010d57565b9181601f8401121561010d5782359167ffffffffffffffff831161010d576020838186019501011161010d57565b156109b757565b60405162461bcd60e51b81526020600482015260066024820152654e6f7420504960d01b6044820152606490fd5b90600182811c92168015610a15575b60208310146109ff57565b634e487b7160e01b600052602260045260246000fd5b91607f16916109f4565b818110610a2a575050565b60008155600101610a1f565b9190601f8111610a4557505050565b610a71926000526020600020906020601f840160051c83019310610a73575b601f0160051c0190610a1f565b565b9091508190610a64565b8054821015610a955760005260206000200190600090565b634e487b7160e01b600052603260045260246000fd5b8054600160401b8110156107db57610ac891600182018155610a7d565b819291549060031b91821b91600019901b1916179055565b60001981146108455760010190565b92919267ffffffffffffffff918281116107db5760405192601f8201601f19908116603f01168401908111848210176107db5760405282948184528183011161010d578281602093846000960137010152565b6000546001600160a01b03163303610b5657565b60405163118cdaa760e01b8152336004820152602490fdfea164736f6c6343000818000a",
  "devdoc": {
    "details": "Module 015: Research collaboration management",
    "errors": {
      "OwnableInvalidOwner(address)": [
        {
          "details": "The owner is not a valid owner account. (eg. `address(0)`)"
        }
      ],
      "OwnableUnauthorizedAccount(address)": [
        {
          "details": "The caller account is not authorized to perform an operation."
        }
      ]
    },
    "kind": "dev",
    "methods": {
      "owner()": {
        "details": "Returns the address of the current owner."
      },
      "renounceOwnership()": {
        "details": "Leaves the contract without owner. It will not be possible to call `onlyOwner` functions. Can only be called by the current owner. NOTE: Renouncing ownership will leave the contract without an owner, thereby disabling any functionality that is only available to the owner."
      },
      "transferOwnership(address)": {
        "details": "Transfers ownership of the contract to a new account (`newOwner`). Can only be called by the current owner."
      }
    },
    "title": "ResearchCollaborationPlatform",
    "version": 1
  },
  "userdoc": {
    "kind": "user",
    "methods": {},
    "version": 1
  },
  "storageLayout": {
    "storage": [
      {
        "astId": 8,
        "contract": "contracts/modules/015-research/ResearchCollaborationPlatform.sol:ResearchCollaborationPlatform",
        "label": "_owner",
        "offset": 0,
        "slot": "0",
        "type": "t_address"
      },
      {
        "astId": 3200,
        "contract": "contracts/modules/015-research/ResearchCollaborationPlatform.sol:ResearchCollaborationPlatform",
        "label": "projectCounter",
        "offset": 0,
        "slot": "1",
        "type": "t_uint256"
      },
      {
        "astId": 3205,
        "contract": "contracts/modules/015-research/ResearchCollaborationPlatform.sol:ResearchCollaborationPlatform",
        "label": "projects",
        "offset": 0,
        "slot": "2",
        "type": "t_mapping(t_uint256,t_struct(ResearchProject)3186_storage)"
      },
      {
        "astId": 3210,
        "contract": "contracts/modules/015-research/ResearchCollaborationPlatform.sol:ResearchCollaborationPlatform",
        "label": "researchers",
        "offset": 0,
        "slot": "3",
        "type": "t_mapping(t_address,t_struct(Researcher)3198_storage)"
      },
      {
        "astId": 3215,
        "contract": "contracts/modules/015-research/ResearchCollaborationPlatform.sol:ResearchCollaborationPlatform",
        "label": "projectTeams",
        "offset": 0,
        "slot": "4",
        "type": "t_mapping(t_uint256,t_array(t_address)dyn_storage)"
      },
      {
        "astId": 3220,
        "contract": "contracts/modules/015-research/ResearchCollaborationPlatform.sol:ResearchCollaborationPlatform",
        "label": "researcherProjects",
        "offset": 0,
        "slot": "5",
        "type": "t_mapping(t_address,t_array(t_uint256)dyn_storage)"
      }
    ],
    "types": {
      "t_address": {
        "encoding": "inplace",
        "label": "address",
        "numberOfBytes": "20"
      },
      "t_array(t_address)dyn_storage": {
        "base": "t_address",
        "encoding": "dynamic_array",
        "label": "address[]",
        "numberOfBytes": "32"
      },
      "t_array(t_string_storage)dyn_storage": {
        "base": "t_string_storage",
        "encoding": "dynamic_array",
        "label": "string[]",
        "numberOfBytes": "32"
      },
      "t_array(t_uint256)dyn_storage": {
        "base": "t_uint256",
        "encoding": "dynamic_array",
        "label": "uint256[]",
        "numberOfBytes": "32"
      },
      "t_mapping(t_address,t_array(t_uint256)dyn_storage)": {
        "encoding": "mapping",
        "key": "t_address",
        "label": "mapping(address => uint256[])",
        "numberOfBytes": "32",
        "value": "t_array(t_uint256)dyn_storage"
      },
      "t_mapping(t_address,t_struct(Researcher)3198_storage)": {
        "encoding": "mapping",
        "key": "t_address",
        "label": "mapping(address => struct ResearchCollaborationPlatform.Researcher)",
        "numberOfBytes": "32",
        "value": "t_struct(Researcher)3198_storage"
      },
      "t_mapping(t_uint256,t_array(t_address)dyn_storage)": {
        "encoding": "mapping",
        "key": "t_uint256",
        "label": "mapping(uint256 => address[])",
        "numberOfBytes": "32",
        "value": "t_array(t_address)dyn_storage"
      },
      "t_mapping(t_uint256,t_struct(ResearchProject)3186_storage)": {
        "encoding": "mapping",
        "key": "t_uint256",
        "label": "mapping(uint256 => struct ResearchCollaborationPlatform.ResearchProject)",
        "numberOfBytes": "32",
        "value": "t_struct(ResearchProject)3186_storage"
      },
      "t_string_storage": {
        "encoding": "bytes",
        "label": "string",
        "numberOfBytes": "32"
      },
      "t_struct(ResearchProject)3186_storage": {
        "encoding": "inplace",
        "label": "struct ResearchCollaborationPlatform.ResearchProject",
        "members": [
          {
            "astId": 3171,
            "contract": "contracts/modules/015-research/ResearchCollaborationPlatform.sol:ResearchCollaborationPlatform",
            "label": "projectId",
            "offset": 0,
            "slot": "0",
            "type": "t_uint256"
          },
          {
            "astId": 3173,
            "contract": "contracts/modules/015-research/ResearchCollaborationPlatform.sol:ResearchCollaborationPlatform",
            "label": "title",
            "offset": 0,
            "slot": "1",
            "type": "t_string_storage"
          },
          {
            "astId": 3175,
            "contract": "contracts/modules/015-research/ResearchCollaborationPlatform.sol:ResearchCollaborationPlatform",
            "label": "description",
            "offset": 0,
            "slot": "2",
            "type": "t_string_storage"
          },
          {
            "astId": 3177,
            "contract": "contracts/modules/015-research/ResearchCollaborationPlatform.sol:ResearchCollaborationPlatform",
            "label": "principalInvestigator",
            "offset": 0,
            "slot": "3",
            "type": "t_address"
          },
          {
            "astId": 3179,
            "contract": "contracts/modules/015-research/ResearchCollaborationPlatform.sol:ResearchCollaborationPlatform",
            "label": "startDate",
            "offset": 0,
            "slot": "4",
            "type": "t_uint256"
          },
          {
            "astId": 3181,
            "contract": "contracts/modules/015-research/ResearchCollaborationPlatform.sol:ResearchCollaborationPlatform",
            "label": "endDate",
            "offset": 0,
            "slot": "5",
            "type": "t_uint256"
          },
          {
            "astId": 3183,
            "contract": "contracts/modules/015-research/ResearchCollaborationPlatform.sol:ResearchCollaborationPlatform",
            "label": "status",
            "offset": 0,
            "slot": "6",
            "type": "t_string_storage"
          },
          {
            "astId": 3185,
            "contract": "contracts/modules/015-research/ResearchCollaborationPlatform.sol:ResearchCollaborationPlatform",
            "label": "teamSize",
            "offset": 0,
            "slot": "7",
            "type": "t_uint256"
          }
        ],
        "numberOfBytes": "256"
      },
      "t_struct(Researcher)3198_storage": {
        "encoding": "inplace",
        "label": "struct ResearchCollaborationPlatform.Researcher",
        "members": [
          {
            "astId": 3188,
            "contract": "contracts/modules/015-research/ResearchCollaborationPlatform.sol:ResearchCollaborationPlatform",
            "label": "researcherAddr",
            "offset": 0,
            "slot": "0",
            "type": "t_address"
          },
          {
            "astId": 3190,
            "contract": "contracts/modules/015-research/ResearchCollaborationPlatform.sol:ResearchCollaborationPlatform",
            "label": "name",
            "offset": 0,
            "slot": "1",
            "type": "t_string_storage"
          },
          {
            "astId": 3193,
            "contract": "contracts/modules/015-research/ResearchCollaborationPlatform.sol:ResearchCollaborationPlatform",
            "label": "specializations",
            "offset": 0,
            "slot": "2",
            "type": "t_array(t_string_storage)dyn_storage"
          },
          {
            "astId": 3195,
            "contract": "contracts/modules/015-research/ResearchCollaborationPlatform.sol:ResearchCollaborationPlatform",
            "label": "projectsCompleted",
            "offset": 0,
            "slot": "3",
            "type": "t_uint256"
          },
          {
            "astId": 3197,
            "contract": "contracts/modules/015-research/ResearchCollaborationPlatform.sol:ResearchCollaborationPlatform",
            "label": "publishedPapers",
            "offset": 0,
            "slot": "4",
            "type": "t_uint256"
          }
        ],
        "numberOfBytes": "160"
      },
      "t_uint256": {
        "encoding": "inplace",
        "label": "uint256",
        "numberOfBytes": "32"
      }
    }
  }
}