{
  "address": "0x8a328848cf9F911F1E54f2333125AB2dB6964cAd",
  "abi": [
    {
      "inputs": [],
      "stateMutability": "nonpayable",
      "type": "constructor"
    },
    {
      "inputs": [
        {
          "internalType": "address",
          "name": "owner",
          "type": "address"
        }
      ],
      "name": "OwnableInvalidOwner",
      "type": "error"
    },
    {
      "inputs": [
        {
          "internalType": "address",
          "name": "account",
          "type": "address"
        }
      ],
      "name": "OwnableUnauthorizedAccount",
      "type": "error"
    },
    {
      "anonymous": false,
      "inputs": [
        {
          "indexed": true,
          "internalType": "address",
          "name": "previousOwner",
          "type": "address"
        },
        {
          "indexed": true,
          "internalType": "address",
          "name": "newOwner",
          "type": "address"
        }
      ],
      "name": "OwnershipTransferred",
      "type": "event"
    },
    {
      "anonymous": false,
      "inputs": [
        {
          "indexed": true,
          "internalType": "address",
          "name": "creator",
          "type": "address"
        },
        {
          "indexed": true,
          "internalType": "address",
          "name": "bank",
          "type": "address"
        },
        {
          "indexed": true,
          "internalType": "address",
          "name": "registry",
          "type": "address"
        },
        {
          "indexed": false,
          "internalType": "address",
          "name": "certificate",
          "type": "address"
        },
        {
          "indexed": false,
          "internalType": "address",
          "name": "token",
          "type": "address"
        },
        {
          "indexed": false,
          "internalType": "string",
          "name": "name",
          "type": "string"
        },
        {
          "indexed": false,
          "internalType": "string",
          "name": "symbol",
          "type": "string"
        }
      ],
      "name": "SavingBankCreated",
      "type": "event"
    },
    {
      "inputs": [
        {
          "internalType": "contract IERC20",
          "name": "token",
          "type": "address"
        },
        {
          "internalType": "string",
          "name": "name_",
          "type": "string"
        },
        {
          "internalType": "string",
          "name": "symbol_",
          "type": "string"
        }
      ],
      "name": "createSavingBank",
      "outputs": [
        {
          "internalType": "address",
          "name": "bank",
          "type": "address"
        },
        {
          "internalType": "address",
          "name": "registry",
          "type": "address"
        },
        {
          "internalType": "address",
          "name": "certificate",
          "type": "address"
        }
      ],
      "stateMutability": "nonpayable",
      "type": "function"
    },
    {
      "inputs": [
        {
          "internalType": "contract IERC20",
          "name": "token",
          "type": "address"
        },
        {
          "internalType": "address",
          "name": "registry",
          "type": "address"
        },
        {
          "internalType": "address",
          "name": "certificate",
          "type": "address"
        }
      ],
      "name": "createSavingBankWithExistingState",
      "outputs": [
        {
          "internalType": "address",
          "name": "bank",
          "type": "address"
        }
      ],
      "stateMutability": "nonpayable",
      "type": "function"
    },
    {
      "inputs": [
        {
          "internalType": "address",
          "name": "user",
          "type": "address"
        }
      ],
      "name": "getUserBanks",
      "outputs": [
        {
          "internalType": "address[]",
          "name": "",
          "type": "address[]"
        }
      ],
      "stateMutability": "view",
      "type": "function"
    },
    {
      "inputs": [],
      "name": "owner",
      "outputs": [
        {
          "internalType": "address",
          "name": "",
          "type": "address"
        }
      ],
      "stateMutability": "view",
      "type": "function"
    },
    {
      "inputs": [],
      "name": "renounceOwnership",
      "outputs": [],
      "stateMutability": "nonpayable",
      "type": "function"
    },
    {
      "inputs": [
        {
          "internalType": "address",
          "name": "newOwner",
          "type": "address"
        }
      ],
      "name": "transferOwnership",
      "outputs": [],
      "stateMutability": "nonpayable",
      "type": "function"
    },
    {
      "inputs": [
        {
          "internalType": "address",
          "name": "",
          "type": "address"
        },
        {
          "internalType": "uint256",
          "name": "",
          "type": "uint256"
        }
      ],
      "name": "userBanks",
      "outputs": [
        {
          "internalType": "address",
          "name": "",
          "type": "address"
        }
      ],
      "stateMutability": "view",
      "type": "function"
    }
  ],
  "transactionHash": "0xaa01ae7f4d4b9cbe3119738f2502b2ce408738c93b92d04b33178580e3684c76",
  "args": [],
  "numDeployments": 1,
  "solcInputHash": "87926638cb65439efbdaecca7968b8ea",
  "bytecode": "0x6080806040523461007a5733156100645760008054336001600160a01b03198216811783556040519290916001600160a01b0316907f8be0079c531659141344cd1fd0a4f28419497f9722a3daafe3b4186f6b6457e09080a3615bc290816100808239f35b631e4fbdf760e01b815260006004820152602490fd5b600080fdfe6040608081526004908136101561001557600080fd5b600091823560e01c8063715018a6146109525780638da5cb5b1461092a578063b35c5e30146108d1578063bc7eec7914610573578063df72a009146104c1578063e209c9bd146101015763f2fde38b1461006e57600080fd5b346100fd5760203660031901126100fd576100876109ac565b90610090610c23565b6001600160a01b039182169283156100e7575050600054826bffffffffffffffffffffffff60a01b821617600055167f8be0079c531659141344cd1fd0a4f28419497f9722a3daafe3b4186f6b6457e0600080a380f35b51631e4fbdf760e01b8152908101849052602490fd5b8280fd5b5090346100fd57600319906060368301126104bd5761011e6109ac565b60249081359467ffffffffffffffff958681116103dd576101429036908301610a5d565b6044358781116104b9576101599036908401610a5d565b6001600160a01b0393841693909290610173851515610aa4565b8651610bff808201908282108c83111761045d5790829161234a833903908bf09889156104af5787516116fa808201908282108483111761049d579180918e93610c508339039082f08015610491578316998a3b156104095781868c606083898f8f978e6101fe9961020c93519a8b998a9889976303bf912560e11b89528801526064870190610bc1565b928584030190850152610bc1565b30604483015203925af180156104875761046f575b5050875190612c6d8083019182118383101761045d579180918d9493612f498339039083f08015610453578116991695893b15610409578751637c643b2f60e11b81526001600160a01b038781168583019081528982166020820152908b1660408201523360608201528390829081900360800181838f5af180156104215790839161043f575b5050863b1561040957875163beaca01f60e01b81528381018b90526001828201528281604481838c5af180156104215790839161042b575b5050883b156104095787516327ebf0bf60e01b81528381018b905282818381838e5af180156104215790839161040d575b5050883b1561040957875163f2fde38b60e01b8082523385830152919083818381838f5af180156103ff579084916103eb575b5050873b156100fd578851938492835233908301528183895af180156103e1576103c9575b50917fceaf037737b24f18442cbe1084afb63e89ab249ac9129ee99ec5d86598f9798b879285946103a6858960609d338152600160205220610afc565b6103b7885192839233968c85610be6565b0390a481519384526020840152820152f35b6103d389916109f5565b6103dd5738610369565b8780fd5b86513d8b823e3d90fd5b6103f4906109f5565b6100fd578238610344565b8a513d86823e3d90fd5b5080fd5b610416906109f5565b610409578138610311565b89513d85823e3d90fd5b610434906109f5565b6104095781386102e0565b610448906109f5565b6104095781386102a8565b88513d84823e3d90fd5b634e487b7160e01b8d5260418552888dfd5b610478906109f5565b610483578a38610221565b8a80fd5b8a513d84823e3d90fd5b508851903d90823e3d90fd5b634e487b7160e01b8e5260418652898efd5b87513d8c823e3d90fd5b8880fd5b8380fd5b5050346104095760209182600319360112610570576001600160a01b0390816104e86109ac565b1681526001916001855283822094845191828288549182815201908198865283862090865b81811061055b5750505083610523910384610a1f565b855195828701938388525180945286019693905b8382106105445786880387f35b845181168852968201969382019390850190610537565b8254851684529285019291880191880161050d565b80fd5b5090346100fd5760603660031901126100fd5761058e6109ac565b6024938435936001600160a01b0380861693918487036104bd576044359382851693848603610409578316926105c5841515610aa4565b86156108a4578415610876578751638da5cb5b60e01b80825260209b918c8187818d5afa90811561086c57859161084f575b50833391160361081d5789519081528b8186818a5afa9081156103ff5784916107f0575b5082339116036107be57885190612c6d8083019183831067ffffffffffffffff8411176107ad5750908291612f498339039083f08015610453571697883b15610409578751637c643b2f60e11b81526001600160a01b03808616858301908152928116602084015287166040830152336060830152908290829081906080010381838d5af180156104535761079e575b5090338252600189526106c088888420610afc565b86516306fdde0360e01b81529382858381845afa948515610794578395610776575b5082908851928380926395d89b4160e01b82525afa91821561076b57889594927fceaf037737b24f18442cbe1084afb63e89ab249ac9129ee99ec5d86598f9798b94928261073f9392610748575b50508851938493339785610be6565b0390a451908152f35b61076492503d8091833e61075c8183610a1f565b810190610b5f565b3880610730565b8751903d90823e3d90fd5b8391955061078d903d8084833e61075c8183610a1f565b94906106e2565b88513d85823e3d90fd5b6107a7906109f5565b386106ab565b634e487b7160e01b86526041875285fd5b83600e6064928d8c519362461bcd60e51b85528401528201526d2727aa2fa1a2a92a2fa7aba722a960911b6044820152fd5b61081091508c8d3d10610816575b6108088183610a1f565b810190610add565b3861061b565b503d6107fe565b895162461bcd60e51b81528086018d9052600d818401526c2727aa2fa922a3afa7aba722a960991b6044820152606490fd5b61086691508d803d10610816576108088183610a1f565b386105f7565b8b513d87823e3d90fd5b875162461bcd60e51b81526020818501526009818c015268434552545f5a45524f60b81b6044820152606490fd5b875162461bcd60e51b81526020818501526008818c0152675245475f5a45524f60c01b6044820152606490fd5b5050346104095780600319360112610409576108eb6109ac565b6001600160a01b039081168352600160205281832080546024359490851015610570575060209361091b916109c7565b92905490519260031b1c168152f35b505034610409578160031936011261040957905490516001600160a01b039091168152602090f35b833461057057806003193601126105705761096b610c23565b80546001600160a01b03198116825581906001600160a01b03167f8be0079c531659141344cd1fd0a4f28419497f9722a3daafe3b4186f6b6457e08280a380f35b600435906001600160a01b03821682036109c257565b600080fd5b80548210156109df5760005260206000200190600090565b634e487b7160e01b600052603260045260246000fd5b67ffffffffffffffff8111610a0957604052565b634e487b7160e01b600052604160045260246000fd5b90601f8019910116810190811067ffffffffffffffff821117610a0957604052565b67ffffffffffffffff8111610a0957601f01601f191660200190565b81601f820112156109c257803590610a7482610a41565b92610a826040519485610a1f565b828452602083830101116109c257816000926020809301838601378301015290565b15610aab57565b60405162461bcd60e51b815260206004820152600a602482015269544f4b454e5f5a45524f60b01b6044820152606490fd5b908160209103126109c257516001600160a01b03811681036109c25790565b805468010000000000000000811015610a0957610b1e916001820181556109c7565b60018060a09493941b038084549260031b9316831b921b1916179055565b60005b838110610b4f5750506000910152565b8181015183820152602001610b3f565b6020818303126109c25780519067ffffffffffffffff82116109c2570181601f820112156109c2578051610b9281610a41565b92610ba06040519485610a1f565b818452602082840101116109c257610bbe9160208085019101610b3c565b90565b90602091610bda81518092818552858086019101610b3c565b601f01601f1916010190565b6001600160a01b03918216815291166020820152608060408201819052610bbe939192610c1591840190610bc1565b916060818403910152610bc1565b6000546001600160a01b03163303610c3757565b60405163118cdaa760e01b8152336004820152602490fdfe60808060405234610016576116de908161001c8239f35b600080fdfe60806040908082526004918236101561001757600080fd5b600092833560e01c92836301ffc9a714610f985750826306fdde0314610ec6578263077f224a14610a43578263081812fc146109f8578263095ea7b31461091557826323b872dd146108fd57826327ebf0bf146108a85782633150f8221461084857826342842e0e146108795782636352211e1461084857826370a08231146107f4578263715018a61461078a5782638da5cb5b1461075457826390b6c36d1461072c57826393b16b451461065357826395d89b4114610547578263a22cb465146104a8578263a5015dd11461025a578263b88d4fde146101ea578263c87b56dd1461019857508163e985e9c514610148575063f2fde38b1461011957600080fd5b346101455760203660031901126101455761014261013561110d565b61013d61147b565b6113bf565b80f35b80fd5b90503461019457806003193601126101945760ff8160209361016861110d565b610179610173611123565b91611386565b6001600160a01b039091168252855220549151911615158152f35b5080fd5b838234610194576020366003190112610194576101b86101e69335611433565b508181516101c581611043565b528051916101d283611043565b825251918291602083526020830190611003565b0390f35b8390346101945760803660031901126101945761020561110d565b61020d611123565b6044359060643567ffffffffffffffff811161025657366023820112156102565761014294816024610244933693013591016110b3565b926102508383836111a8565b336114b4565b8580fd5b909150346104a457816003193601126104a45761027561110d565b8354602493906001600160a01b03908535908216330361049457825161029a81611043565b87815282851694851561047e5782895288838760008051602061169283398151915260209781895289852054169083821515958661045f575b6102dc8861134d565b80546001019055528852888d2080546001600160a01b031916831790557fddf252ad1be2c89b69c2b068fc378daa952ba7f163c4a11628f55a4df523b3ef8d80a4610449573b61032a578780f35b9082888861036a899a9b969798999589519586948594630a85bd0160e11b998a875233908701528501526044840152608060648401526084830190611003565b0381868a5af1839181610405575b506103cd5750503d156103c5573d61038f81611097565b9061039c85519283611075565b81528091833d92013e5b805191826103c2575050505191633250574960e11b8352820152fd5b01fd5b5060606103a6565b919695949392506001600160e01b0319909116036103f45750505050388080808080808780f35b51633250574960e11b815291820152fd5b9091508481813d8311610442575b61041d8183611075565b8101031261043e57516001600160e01b03198116810361043e579038610378565b8380fd5b503d610413565b84516339e3563760e11b81528088018a90528890fd5b61046882611640565b6104718461134d565b80546000190190556102d3565b8451633250574960e11b81528088018a90528890fd5b8251633d8cc43f60e01b81528590fd5b8280fd5b9150346104a457806003193601126104a4576104c261110d565b9060243591821515809303610543576001600160a01b031692831561052e57506104eb33611386565b83855260205280842060ff1981541660ff8416179055519081527f17307eab39ab6107e8899845ad3d59bd9653f200f220920489ca2b5937696c3160203392a380f35b836024925191630b61174360e31b8352820152fd5b8480fd5b50823461014557806003193601126101455781519182827f80bb2b638cc20bc4d0a60d66940f3ab4a00c1d7b313497ca82fb0b4ab007930193845461058b8161116e565b91828552602096600192886001821691826000146106295750506001146105ce575b85886101e6896105bf848a0385611075565b51928284938452830190611003565b815286935091907ff4bad0a69248f59680a4f2b3000328cec71a413447c96781cfe5996daa8c456e5b82841061061157505050820101816105bf6101e6886105ad565b8054848a0186015288955087949093019281016105f7565b60ff19168882015294151560051b870190940194508593506105bf92506101e691508990506105ad565b9150346104a45760203660031901126104a4578254823591906001600160a01b03908116330361071c5782855282856000805160206116928339815191529283602052848220541680159384156106fd575b83835260205284822080546001600160a01b03191690557fddf252ad1be2c89b69c2b068fc378daa952ba7f163c4a11628f55a4df523b3ef8280a46106e8578380f35b51637e27328960e01b81529182015260249150fd5b61070684611640565b61070f8261134d565b80546000190190556106a5565b8151633d8cc43f60e01b81528490fd5b838234610194578160031936011261019457905490516001600160a01b039091168152602090f35b8382346101945781600319360112610194576000805160206116728339815191525490516001600160a01b039091168152602090f35b83346101455780600319360112610145576107a361147b565b60008051602061167283398151915280546001600160a01b0319811690915581906001600160a01b03167f8be0079c531659141344cd1fd0a4f28419497f9722a3daafe3b4186f6b6457e08280a380f35b909150346104a45760203660031901126104a45761081061110d565b926001600160a01b038416156108345760208361082c8661134d565b549051908152f35b60249251916322718ad960e21b8352820152fd5b908334610145576020366003190112610145575061086860209235611433565b90516001600160a01b039091168152f35b838234610194576101429061088d36611139565b9192519261089a84611043565b8584526102508383836111a8565b909150346104a45760203660031901126104a4576108c461110d565b6108cc61147b565b6001600160a01b03169182156108f057505081546001600160a01b03191617815580f35b5163d92e233d60e01b8152fd5b83346101455761014261090f36611139565b916111a8565b9150346104a457806003193601126104a45761092f61110d565b916024359061093d82611433565b90331515806109e5575b806109c8575b6109b157506001600160a01b039384169382918591167f8c5be1e5ebec7d5bd14f71427d1e84f3dd0314c0f7b2291e5b200ac8c7c3b9258780a483526000805160206116b2833981519152602052822080546001600160a01b031916909117905580f35b60249084519063a9fbf51f60e01b82523390820152fd5b506109d282611386565b33875260205260ff84872054161561094d565b506001600160a01b038216331415610947565b909150346104a45760203660031901126104a4579160209235610a1a81611433565b5081526000805160206116b283398151915283528190205490516001600160a01b039091168152f35b909150346104a45760603660031901126104a45767ffffffffffffffff813581811161054357610a7690369084016110ef565b9060243581811161025657610a8e90369085016110ef565b6044356001600160a01b03811692909190838303610ec2577ff0c57e16840df040f15088dc2f81fe391c3923bec73e23a9662efc9c229c6a009586549560ff878a1c16159583881697881580610ebb575b6001809a149081610eb1575b159081610ea8575b50610e985767ffffffffffffffff19811689178a5587610e79575b5015610e6a57610b1c6115ff565b610b246115ff565b8051838111610e5757807f80bb2b638cc20bc4d0a60d66940f3ab4a00c1d7b313497ca82fb0b4ab007930092610b5a845461116e565b601f8111610de5575b506020908d601f8411600114610d685792610d5d575b5050600019600383901b1c191690881b1790555b8251918211610d4a57507f80bb2b638cc20bc4d0a60d66940f3ab4a00c1d7b313497ca82fb0b4ab007930191610bc3835461116e565b601f8111610ce5575b50602090601f8311600114610c6257610c0e949392918a9183610c57575b5050600019600383901b1c191690861b1790555b610c066115ff565b61013d6115ff565b610c16578380f35b7fc7f505b2f371ae2175ee4913f4499e1f2633a7b5936321eed1cdaeb6115181d29260209268ff000000000000000019815416905551908152a13880808380f35b015190503880610bea565b838a5293929186917ff4bad0a69248f59680a4f2b3000328cec71a413447c96781cfe5996daa8c456e90601f1983168c5b818110610ccd57509683610c0e9810610cb4575b505050811b019055610bfe565b015160001960f88460031b161c19169055388080610ca7565b8289015184558a959093019260209283019201610c93565b838a527ff4bad0a69248f59680a4f2b3000328cec71a413447c96781cfe5996daa8c456e601f840160051c81019160208510610d40575b601f0160051c019087905b828110610d35575050610bcc565b8b8155018790610d27565b9091508190610d1c565b634e487b7160e01b895260419052602488fd5b015190503880610b79565b91908b9450601f1984168684527f37c58c799b6609234b945e882912ee9ad34948a1dfaa20a97485e1a7752bbf81935b818110610dcd57508411610db4575b505050811b019055610b8d565b015160001960f88460031b161c19169055388080610da7565b8284015185558d969094019360209384019301610d98565b909150838d527f37c58c799b6609234b945e882912ee9ad34948a1dfaa20a97485e1a7752bbf81601f840160051c81019160208510610e4d575b8e85949392601f8e930160051c0192905b838210610e3f57505050610b63565b81558594508c91018f610e30565b9091508190610e1f565b634e487b7160e01b8b526041835260248bfd5b50875163d92e233d60e01b8152fd5b68ffffffffffffffffff19166801000000000000000117895538610b0e565b8a5163f92ee8a960e01b81528490fd5b90501538610af3565b303b159150610aeb565b5087610adf565b8780fd5b50823461014557806003193601126101455781519182827f80bb2b638cc20bc4d0a60d66940f3ab4a00c1d7b313497ca82fb0b4ab0079300938454610f0a8161116e565b9182855260209660019288600182169182600014610629575050600114610f3d5785886101e6896105bf848a0385611075565b815286935091907f37c58c799b6609234b945e882912ee9ad34948a1dfaa20a97485e1a7752bbf815b828410610f8057505050820101816105bf6101e6886105ad565b8054848a018601528895508794909301928101610f66565b8491346104a45760203660031901126104a4573563ffffffff60e01b81168091036104a457602092506380ac58cd60e01b8114908115610ff2575b8115610fe1575b5015158152f35b6301ffc9a760e01b14905083610fda565b635b5e139f60e01b81149150610fd3565b919082519283825260005b84811061102f575050826000602080949584010152601f8019910116010190565b60208183018101518483018201520161100e565b6020810190811067ffffffffffffffff82111761105f57604052565b634e487b7160e01b600052604160045260246000fd5b90601f8019910116810190811067ffffffffffffffff82111761105f57604052565b67ffffffffffffffff811161105f57601f01601f191660200190565b9291926110bf82611097565b916110cd6040519384611075565b8294818452818301116110ea578281602093846000960137010152565b600080fd5b9080601f830112156110ea5781602061110a933591016110b3565b90565b600435906001600160a01b03821682036110ea57565b602435906001600160a01b03821682036110ea57565b60609060031901126110ea576001600160a01b039060043582811681036110ea579160243590811681036110ea579060443590565b90600182811c9216801561119e575b602083101461118857565b634e487b7160e01b600052602260045260246000fd5b91607f169161117d565b6001600160a01b0382811693918415611334578260009581875260008051602061169283398151915295866020526040978589822054169788923315158061128e575b509061121d7fddf252ad1be2c89b69c2b068fc378daa952ba7f163c4a11628f55a4df523b3ef93928561126f5761134d565b8054600101905585825260205289812080546001600160a01b0319168517905580a4169283830361124e5750505050565b6064945051926364283d7b60e01b8452600484015260248301526044820152fd5b61127888611640565b6112818661134d565b805460001901905561134d565b91935091939450806112e5575b156112ac57918791879493386111eb565b8887896112c9576024915190637e27328960e01b82526004820152fd5b604491519063177e802f60e01b82523360048301526024820152fd5b503388148015611318575b8061129b57508683526000805160206116b283398151915260205233868a852054161461129b565b5061132288611386565b33845260205260ff89842054166112f0565b604051633250574960e11b815260006004820152602490fd5b6001600160a01b031660009081527f80bb2b638cc20bc4d0a60d66940f3ab4a00c1d7b313497ca82fb0b4ab00793036020526040902090565b6001600160a01b031660009081527f80bb2b638cc20bc4d0a60d66940f3ab4a00c1d7b313497ca82fb0b4ab00793056020526040902090565b6001600160a01b0390811690811561141a5760008051602061167283398151915280546001600160a01b031981168417909155167f8be0079c531659141344cd1fd0a4f28419497f9722a3daafe3b4186f6b6457e0600080a3565b604051631e4fbdf760e01b815260006004820152602490fd5b600081815260008051602061169283398151915260205260409020546001600160a01b0316908115611463575090565b60249060405190637e27328960e01b82526004820152fd5b600080516020611672833981519152546001600160a01b0316330361149c57565b60405163118cdaa760e01b8152336004820152602490fd5b909192833b6114c5575b5050505050565b604051630a85bd0160e11b8082526001600160a01b039384166004830152938316602482015260448101919091526080606482015260209591909316939091908390611515906084830190611003565b039285816000958187895af18491816115bf575b50611589575050503d600014611581573d61154381611097565b906115516040519283611075565b81528091843d92013e5b8051928361157c57604051633250574960e11b815260048101849052602490fd5b019050fd5b50606061155b565b919450915063ffffffff60e01b16036115a7575038808080806114be565b60249060405190633250574960e11b82526004820152fd5b9091508681813d83116115f8575b6115d78183611075565b8101031261054357516001600160e01b031981168103610543579038611529565b503d6115cd565b60ff7ff0c57e16840df040f15088dc2f81fe391c3923bec73e23a9662efc9c229c6a005460401c161561162e57565b604051631afcd79f60e31b8152600490fd5b6000526000805160206116b283398151915260205260406000206bffffffffffffffffffffffff60a01b815416905556fe9016d09d72d40fdae2fd8ceac6b6234c7706214fd39c1cd1e609a0528c19930080bb2b638cc20bc4d0a60d66940f3ab4a00c1d7b313497ca82fb0b4ab007930280bb2b638cc20bc4d0a60d66940f3ab4a00c1d7b313497ca82fb0b4ab0079304a164736f6c6343000818000a6080806040523461007e5733156100685760008054336001600160a01b03198216811783556040519290916001600160a01b0316907f8be0079c531659141344cd1fd0a4f28419497f9722a3daafe3b4186f6b6457e09080a360018055610b7b90816100848239f35b631e4fbdf760e01b815260006004820152602490fd5b600080fdfe6080806040526004908136101561001557600080fd5b60003560e01c9081630f1b3c2f1461065f575080631bed276c14610601578063715018a6146106065780637375a999146104f55780638070a4bd1461051f5780638c87ed4e146106015780638da5cb5b146105d85780639baeba601461053d578063ad76dc971461051f578063adba553e146104f5578063b02c43d01461032e578063beaca01f146102d8578063f2fde38b14610249578063f9f6a8fc146101ae5763fed1d036146100c657600080fd5b346101a95760203660031901126101a957803533600052600360205260ff60406000205416156101995780600052600260205260406000208054158015610184575b61017357828101805460ff8160e01c16600581101561015e5761014d5760ff60e01b1916600160e01b1790556002015461014b92506001600160a01b0316610a9c565b005b604051636ca34c6b60e01b81528590fd5b602186634e487b7160e01b6000525260246000fd5b604051635972996f60e11b81528390fd5b5060028101546001600160a01b031615610108565b506040516363677a7560e01b8152fd5b600080fd5b50346101a95760203660031901126101a957803533600052600360205260ff60406000205416156101995780600052600260205260406000208054158015610234575b61017357828101805460ff8160e01c16600581101561015e5761014d5760ff60e01b1916600360e01b1790556002015461014b92506001600160a01b0316610a9c565b5060028101546001600160a01b0316156101f1565b50346101a95760203660031901126101a95761026361069a565b61026b610a70565b6001600160a01b039081169182156102c05750600054826bffffffffffffffffffffffff60a01b821617600055167f8be0079c531659141344cd1fd0a4f28419497f9722a3daafe3b4186f6b6457e0600080a3005b602490600060405191631e4fbdf760e01b8352820152fd5b346101a95760403660031901126101a9576102f161069a565b602435908115158092036101a957610307610a70565b60018060a01b0316600052600360205260406000209060ff80198354169116179055600080f35b50346101a95760203660031901126101a95760006101206040516103518161080a565b8281528260208201528260408201528260608201528260808201528260a08201528260c08201528260e082015282610100820152015280356000526002602052604060002081604051916103a48361080a565b805483526001810154602084015260018060a01b03600282015416604084015260038101546060840152015463ffffffff8116608083015263ffffffff8160201c1660a083015263ffffffff8160401c1660c083015267ffffffffffffffff8160601c1660e083015267ffffffffffffffff8160a01c16610100830152600560ff8260e01c1610156104e05760ff9060e01c1661012082015261012060405191805183526020810151602084015260018060a01b0360408201511660408401526060810151606084015263ffffffff608082015116608084015263ffffffff60a08201511660a084015263ffffffff60c08201511660c084015267ffffffffffffffff60e08201511660e084015267ffffffffffffffff61010082015116610100840152015160058110156104e0576101409250610120820152f35b602183634e487b7160e01b6000525260246000fd5b346101a95760206105176105083661078f565b9695909594919493929361083d565b604051908152f35b346101a95760003660031901126101a9576020600154604051908152f35b50346101a95760203660031901126101a957803533600052600360205260ff604060002054161561019957806000526002602052604060002080541580156105c3575b61017357828101805460ff8160e01c16600581101561015e5761014d5760ff60e01b1916600160e11b1790556002015461014b92506001600160a01b0316610a9c565b5060028101546001600160a01b031615610580565b346101a95760003660031901126101a9576000546040516001600160a01b039091168152602090f35b6106b0565b346101a95760003660031901126101a95761061f610a70565b600080546001600160a01b0319811682556001600160a01b03167f8be0079c531659141344cd1fd0a4f28419497f9722a3daafe3b4186f6b6457e08280a3005b346101a95760203660031901126101a9576020906001600160a01b0361068361069a565b166000526003825260ff6040600020541615158152f35b600435906001600160a01b03821682036101a957565b346101a9576020806003193601126101a9576001600160a01b036106d261069a565b1690600091825260048152604082209060405190818184549182815201908194865282862090865b8482821061077b5750505050829003601f01601f191682019367ffffffffffffffff8511838610176107675790918493928460405280850191818652518092526040850193925b82811061075057505050500390f35b835185528695509381019392810192600101610741565b634e487b7160e01b81526041600452602490fd5b8354855290930192600192830192016106fa565b6101009060031901126101a9576004356001600160a01b03811681036101a95790602435906044359063ffffffff60643581811681036101a9579160843582811681036101a9579160a43590811681036101a9579067ffffffffffffffff9060c43582811681036101a9579160e43590811681036101a95790565b610140810190811067ffffffffffffffff82111761082757604052565b634e487b7160e01b600052604160045260246000fd5b9496919392959096600096338852600360205260409660ff888a20541615610a31576001600160a01b03908116968715610a20576001549a6000198c14610a0c57918b9593918b98979593600188016001558b519261089b8461080a565b888452602084019182528c8401918c8352606085019384528d608086019c8d63ffffffff80991690528760a088019d168d528760c088019916895260e087019967ffffffffffffffff8091168b5261010088019b168b5261012087019b818d52815260026020522094518555516001850155600284019151166bffffffffffffffffffffffff60a01b8254161790555160038201556004019651168654955160201b67ffffffff00000000169151891b6bffffffff0000000000000000169267ffffffffffffffff60601b905160601b169367ffffffffffffffff60a01b905160a01b16945160058110156109f8576001600160e81b0319909616171717171760e09190911b60ff60e01b161790558252600460205281208054916801000000000000000083101561076757506109dc82849260016109f595018155610a42565b90919082549060031b91821b91600019901b1916179055565b90565b634e487b7160e01b8b52602160045260248bfd5b634e487b7160e01b8b52601160045260248bfd5b88516349e27cff60e01b8152600490fd5b87516363677a7560e01b8152600490fd5b8054821015610a5a5760005260206000200190600090565b634e487b7160e01b600052603260045260246000fd5b6000546001600160a01b03163303610a8457565b60405163118cdaa760e01b8152336004820152602490fd5b6001600160a01b031660009081526004602081905260408220909291805b825480821015610b66578490610ad08386610a42565b929054600393841b1c14610ae8575050600101610aba565b93945094919060001993848101908111610b5357906109dc610b0d610b1a9388610a42565b905490891b1c9187610a42565b8354918215610b40575050810192610b328484610a42565b81939154921b1b1916905555565b634e487b7160e01b825260319052602490fd5b634e487b7160e01b835260118452602483fd5b50505050505056fea164736f6c6343000818000a6080806040523461001657612c51908161001c8239f35b600080fdfe60808060405260043610156200001457600080fd5b600090813560e01c9081630225d3cc1462001b4f575080630a55ba55146200177a5780631bed276c146200170c5780632d3b6d98146200158e5780632dbf7b9814620015635780633945c08014620015445780633f4ba83a14620014c65780635c975abb14620014935780635f8d26b214620014735780636b5b96961462001143578063715018a614620010d35780637b10399914620010a85780638456cb5914620010395780638da5cb5b14620010005780639cacb6a41462000da1578063abe73ef51462000d29578063b16206161462000cae578063b3f006741462000819578063b40afc1c1462000be0578063d68b395214620008dd578063e6e6286b1462000844578063e8a353921462000819578063ed12e8ef1462000780578063ee7ba97e146200051b578063efdcd97414620004ad578063f2fde38b146200047e578063f8c8765e14620001d4578063fbfa77cf14620001a95763fc0c546a146200017e57600080fd5b34620001a65780600319360112620001a657546040516001600160a01b039091168152602090f35b80fd5b5034620001a65780600319360112620001a6576003546040516001600160a01b039091168152602090f35b5034620001a6576080366003190112620001a657620001f262001b84565b6001600160a01b03602435818116908190036200047957604435918083168093036200047957606435918183169182840362000479577ff0c57e16840df040f15088dc2f81fe391c3923bec73e23a9662efc9c229c6a0094855460ff8160401c1615956001600160401b0391828116998a158062000471575b6001809c14908162000466575b1590816200045c575b506200044a5767ffffffffffffffff1982168b178a558591896200042a575b5016908115801562000421575b801562000418575b80156200040f575b620003fd57620002e190620002d162002092565b620002db62002092565b62001e52565b620002eb62002092565b620002f562002092565b620002ff62002092565b8860008051602062002c25833981519152558954926bffffffffffffffffffffffff60a01b9582878616178c55868b5416178a5585600254161760025560405192610b108085019385851090851117620003e957918b606094928694620020d586391617815230602082015286604082015203019088f08015620003de57168160035416176003556004541617600455826005556200039c578280f35b805468ff0000000000000000191690556040519081527fc7f505b2f371ae2175ee4913f4499e1f2633a7b5936321eed1cdaeb6115181d290602090a138808280f35b6040513d89823e3d90fd5b634e487b7160e01b8c52604160045260248cfd5b60405163d92e233d60e01b8152600490fd5b508615620002bd565b508315620002b5565b508515620002ad565b68ffffffffffffffffff191668010000000000000001178a5538620002a0565b60405163f92ee8a960e01b8152600490fd5b9050153862000281565b303b15915062000278565b50886200026b565b600080fd5b5034620001a6576020366003190112620001a657620004aa620004a062001b84565b620002db62001fa8565b80f35b5034620001a6576020366003190112620001a657620004cb62001b84565b620004d562001fa8565b600480546001600160a01b0319166001600160a01b039290921691821790557f27aae5db36d94179909d019ae0b1ac7c16d96d953148f63c0f6a0a9c8ead79ee8280a280f35b5034620001a65760c0366003190112620001a65763ffffffff600435166004350362000479576200054b62001bd9565b63ffffffff6084351660843503620004795760a435151560a4350362000479576200057562001fa8565b63ffffffff6004351615620007605761138863ffffffff821611620007605761271063ffffffff6084351611620007605760643515158062000772575b62000760576005549060001982146200074c57600182016005556040518060e08101106001600160401b0360e08301111762000736577fd94707b9659493943634201585ea999785e61e4e1b15d121734d16a5df0f7e4a91620006e685858460e062000730960160405281815263ffffffff6004602083019282823516845260408101938389168552606082016044358152620006af60808401926064358452604060a086019a88608435168c5260c087019a60a43515158c52815260066020522094518555868060018701925116988119998a845416178355511667ffffffff0000000082549160201b169067ffffffff000000001916179055565b516002830155516003820155019351169083541617825551151564ff00000000825491151560201b169064ff000000001916179055565b6040805163ffffffff60043581168252928316602082015260443591810191909152606435606082015260843591909116608082015260a435151560a082015290819060c0820190565b0390a280f35b634e487b7160e01b600052604160045260246000fd5b634e487b7160e01b83526011600452602483fd5b604051630e52390960e41b8152600490fd5b5060443560643510620005b2565b5034620001a65780600319360112620001a65760035460405163ed12e8ef60e01b81529190602090839060049082906001600160a01b03165afa9081156200080d5790620007d4575b602090604051908152f35b506020813d60201162000804575b81620007f16020938362001c01565b81010312620004795760209051620007c9565b3d9150620007e2565b604051903d90823e3d90fd5b5034620001a65780600319360112620001a6576004546040516001600160a01b039091168152602090f35b5034620001a65780600319360112620001a6576001546040516306fb49db60e21b8152336004820152908290829060249082906001600160a01b03165afa908115620008d25782620008a69392620008aa575b50506040519182918262001b9b565b0390f35b620008ca92503d8091833e620008c1818362001c01565b81019062001dba565b388062000897565b6040513d84823e3d90fd5b5034620001a6576020366003190112620001a657600435620008fe62001ec8565b6200090862001ef5565b600154604051630b02c43d60e41b8152600481018390526001600160a01b039291610140919082908290602490829088165afa91821562000bd557859262000ba1575b5050805115801562000b92575b62000b805782604082015116330362000b6e57610120810151600581101562000b5a5762000b48576001600160401b0361010082015116421062000b365783620009bc606083019283519063ffffffff60808160a084015116920151169162001f27565b938060035416620009cf86855162001d20565b90803b1562000aef5760405163190c507960e31b8152600481019290925233602483015283908290604490829084905af190811562000b0f57839162000b1e575b50508060015416803b1562000b1a57828091602460405180948193637f68e81b60e11b83528a60048401525af190811562000b0f57839162000af7575b505060025416803b1562000af3578180916024604051809481936393b16b4560e01b83528960048401525af18015620008d25762000ad7575b5050519160405192835260208301528260408301527f5d9a2c873b77448f60d674e17f5c6236d1c59646f5fb9db39b36afc83e4471bc60603393a3600160008051602062002c258339815191525580f35b62000ae29062001bed565b62000aef57833862000a86565b8380fd5b5080fd5b62000b029062001bed565b62000af357813862000a4d565b6040513d85823e3d90fd5b8280fd5b62000b299062001bed565b62000af357813862000a10565b60405163111c440960e01b8152600490fd5b604051636ca34c6b60e01b8152600490fd5b634e487b7160e01b85526021600452602485fd5b60405163c74ecfa160e01b8152600490fd5b604051635972996f60e11b8152600490fd5b50826040820151161562000958565b62000bc59250803d1062000bcd575b62000bbc818362001c01565b81019062001c4a565b38806200094b565b503d62000bb0565b6040513d87823e3d90fd5b5034620001a6576020366003190112620001a65760043562000c0162001fa8565b801562000c9c5760035482906001600160a01b0316803b1562000af35760405163190c507960e31b8152600481018490523360248201529082908290604490829084905af18015620008d25762000c84575b50506040519081527f1b5775af7e7537be20684ccf94b9c6f4b180dabad653f5b57a234a9c6a3db40b60203392a280f35b62000c8f9062001bed565b62000af357813862000c53565b60405163162908e360e11b8152600490fd5b5034620001a6576020366003190112620001a657604060e091600435815260066020522060ff81549160018101549063ffffffff906002810154826004600384015493015494604051978852818116602089015260201c16604087015260608601526080850152811660a084015260201c16151560c0820152f35b5034620001a6576020366003190112620001a65760043562000d4a62001fa8565b801562000c9c57815460035462000d729183916001600160a01b039081169133911662001fe3565b6040519081527fba24bd9b798cca64d1031eda1ced9398802343e44e07779bb510d7a21ddddef160203392a280f35b5034620001a65762000db33662001b6d565b9062000dbe62001ec8565b62000dc862001ef5565b8083526006602052604083209182541562000fee576004830160ff815460201c161562000fdc57811562000c9c576002840154821062000c9c576003840154801515908162000fd1575b5062000c9c57845460035462000ebd9560209260019262000e449187916001600160a01b039081169133911662001fe3565b01546001600160401b0362000e6c8162000e6463ffffffff851662001d44565b164262001d20565b169283918863ffffffff60018060a01b0360015416935416604051998a95869485936356dd2a9f60e11b85526001600160401b034216918d8d63ffffffff80848f1c169316913360048a0162001d62565b03925af193841562000bd557859462000f97575b506002546001600160a01b0316803b1562000f935760405163a5015dd160e01b8152336004820152602481018690529086908290604490829084905af1801562000f885762000f6c575b506020945060405191825284820152827f40e92c3946b6c2359135fd6627ab62100b9e938b95364eb7207217d7ea01072560403393a4600160008051602062002c2583398151915255604051908152f35b62000f78869162001bed565b62000f84578462000f1b565b8480fd5b6040513d88823e3d90fd5b8580fd5b9093506020813d60201162000fc8575b8162000fb66020938362001c01565b81010312620004795751923862000ed1565b3d915062000fa7565b905082113862000e12565b604051635c0e5add60e01b8152600490fd5b6040516321f2425960e01b8152600490fd5b5034620001a65780600319360112620001a65760008051602062002be5833981519152546040516001600160a01b039091168152602090f35b5034620001a65780600319360112620001a6576200105662001fa8565b6200106062001ec8565b60008051602062002c05833981519152600160ff198254161790557f62e78cea01bee320cd4e420270b5ea74000d11b0c9f74754ebdbfc544b05a2586020604051338152a180f35b5034620001a65780600319360112620001a6576001546040516001600160a01b039091168152602090f35b5034620001a65780600319360112620001a657620010f062001fa8565b60008051602062002be583398151915280546001600160a01b031981169091556000906001600160a01b03167f8be0079c531659141344cd1fd0a4f28419497f9722a3daafe3b4186f6b6457e08280a380f35b5034620001a6576020366003190112620001a6576004356200116462001ec8565b6200116e62001ef5565b600154604051630b02c43d60e41b815260048101839052610140916001600160a01b03919083908290602490829086165afa92831562000bd55785936200144f575b5050815115801562001440575b62000b805780604083015116330362000b6e57610120820151600581101562000b5a5762000b48576001600160401b03610100830151164210156200142e576127106200121c606084019363ffffffff60c08651920151169062001e3e565b04825180821162001425575b8181039081116200141157908291869360035416803b1562000f845760405163190c507960e31b80825260048201939093523360248201529085908290604490829084905af190811562000bd5578591620013f9575b50508162001380575b50508060015416803b1562000b1a578280916024604051809481936304dd75d360e51b83528a60048401525af190811562000b0f57839162001368575b505060025416803b1562000af3578180916024604051809481936393b16b4560e01b83528960048401525af18015620008d25762001350575b50505190604051918252826020830152600160408301527f5d9a2c873b77448f60d674e17f5c6236d1c59646f5fb9db39b36afc83e4471bc60603393a3600160008051602062002c258339815191525580f35b6200135b9062001bed565b62000b1a578238620012fd565b620013739062001bed565b62000af3578138620012c4565b82600454168062001393575b5062001287565b8360035416803b1562000f935760405192835260048301939093526001600160a01b031660248201529083908290604490829084905af190811562000b0f578391620013e1575b806200138c565b620013ec9062001bed565b62000af3578138620013da565b620014049062001bed565b62000aef5783386200127e565b634e487b7160e01b86526011600452602486fd5b90508062001228565b6040516305a29e1160e51b8152600490fd5b508060408301511615620011bd565b6200146a929350803d1062000bcd5762000bbc818362001c01565b903880620011b0565b5034620001a65780600319360112620001a6576020600554604051908152f35b5034620001a65780600319360112620001a657602060ff60008051602062002c0583398151915254166040519015158152f35b5034620001a65780600319360112620001a657620014e362001fa8565b60008051602062002c05833981519152805460ff811615620015325760ff191690557f5db9ee0a495bf2e6ff9c91a7834c1ba4fdd244a5e8aa4e537bd38aeae4b073aa6020604051338152a180f35b604051638dfc202b60e01b8152600490fd5b5034620001a65780600319360112620001a65760206040516113888152f35b5034620001a65780600319360112620001a6576002546040516001600160a01b039091168152602090f35b5034620001a65760e0366003190112620001a657600435620015af62001bd9565b60443563ffffffff91828216808303620004795760a43584811690608435606435838303620004795760c4359384151585036200047957620015f062001fa8565b898b52600660205260408b209889541562000fee5787169586156200076057611388106200076057612710811162000760578215158062001702575b6200076057846200073096620016cb9260048c620016998d7f5ce9e4c244fd40edf5a5dc7590518de93ababec56c86e2faf3ad47f9f29129aa9f60010163ffffffff1996878254161781559067ffffffff0000000082549160201b169067ffffffff000000001916179055565b86600282015587600382015501918254161781559064ff00000000825491151560201b169064ff000000001916179055565b6040805163ffffffff978816815297871660208901528701526060860152909216608084015290151560a0830152819060c0820190565b508183106200162c565b5034620001a6576020366003190112620001a6576200172a62001b84565b6001546040516306fb49db60e21b81526001600160a01b03928316600482015291839183916024918391165afa908115620008d25782620008a69392620008aa5750506040519182918262001b9b565b5034620001a6576200178c3662001b6d565b90916200179862001ec8565b620017a262001ef5565b600154604051630b02c43d60e41b81526004810185905261014092916001600160a01b0316908381602481855afa93841562000b0f57839462001b2b575b5050825115801562001b15575b62000b80576040830180519093906001600160a01b0316330362000b6e57610120810151600581101562001b015762000b48576001600160401b0361010082015116421062000b36578483526006602052604083209182541562000fee57600483019160ff835460201c161562000fdc57806200188860606200189093019182519063ffffffff60808160a084015116920151169162001f27565b905162001d20565b946002840154861062000c9c576003840154801515908162001af6575b5062000c9c57600190818060a01b039051169301906001600160401b03620018e18162000e6463ffffffff86541662001d44565b1690803b1562000f935785809160248b6040519485938492633e7daa3f60e21b845260048401525af1801562000f885762001ae0575b506002546001600160a01b0316803b1562000f935785809160248b60405194859384926393b16b4560e01b845260048401525af1801562000f8857879493928692889262001abc575b5094620019b660209663ffffffff60018060a01b036001541696549754169b6040519c8d9889978896637375a99960e01b88526001600160401b0342169463ffffffff808f86901c1694169260048a0162001d62565b03925af1938415620008d257829462001a82575b506002546001600160a01b031690813b1562000b1a5760405163a5015dd160e01b81526001600160a01b03919091166004820152602481018590529082908290604490829084905af18015620008d25762001a6a575b60208480877fef4945c022002aa13f581a640adff2a9844b9c201dd4eef47bc35c1a25f2ac148488604051908152a3600160008051602062002c2583398151915255604051908152f35b62001a76829162001bed565b620001a6578062001a20565b9093506020813d60201162001ab3575b8162001aa16020938362001c01565b810103126200047957519238620019ca565b3d915062001a92565b909394955062001ace91925062001bed565b62000f84579083858794933862001960565b62001aee9095919562001bed565b933862001917565b9050861138620018ad565b634e487b7160e01b84526021600452602484fd5b5060408301516001600160a01b031615620017ed565b62001b46929450803d1062000bcd5762000bbc818362001c01565b913880620017e0565b90503462000af3578160031936011262000af3578061271060209252f35b604090600319011262000479576004359060243590565b600435906001600160a01b03821682036200047957565b602090602060408183019282815285518094520193019160005b82811062001bc4575050505090565b83518552938101939281019260010162001bb5565b6024359063ffffffff821682036200047957565b6001600160401b0381116200073657604052565b90601f801991011681019081106001600160401b038211176200073657604052565b519063ffffffff821682036200047957565b51906001600160401b03821682036200047957565b8091610140928391031262000479576040519182018281106001600160401b038211176200073657604090815281518352602080830151908401528101516001600160a01b0381168103620004795760408301526060810151606083015262001cb66080820162001c23565b608083015262001cc960a0820162001c23565b60a083015262001cdc60c0820162001c23565b60c083015262001cef60e0820162001c35565b60e083015261010062001d0481830162001c35565b9083015261012080910151906005821015620004795782015290565b9190820180921162001d2e57565b634e487b7160e01b600052601160045260246000fd5b90620151806001600160401b038093160291821691820362001d2e57565b6001600160a01b0390911681526020810191909152604081019190915263ffffffff9182166060820152918116608083015290911660a08201526001600160401b0391821660c0820152911660e08201526101000190565b906020908183820312620004795782516001600160401b039384821162000479570181601f820112156200047957805193841162000736578360051b906040519462001e098584018762001c01565b8552838086019282010192831162000479578301905b82821062001e2e575050505090565b8151815290830190830162001e1f565b8181029291811591840414171562001d2e57565b6001600160a01b0390811690811562001eaf5760008051602062002be583398151915280546001600160a01b031981168417909155167f8be0079c531659141344cd1fd0a4f28419497f9722a3daafe3b4186f6b6457e0600080a3565b604051631e4fbdf760e01b815260006004820152602490fd5b60ff60008051602062002c05833981519152541662001ee357565b60405163d93c066560e01b8152600490fd5b60008051602062002c25833981519152600281541462001f155760029055565b604051633ee5aeb560e01b8152600490fd5b91908215801562001f99575b801562001f8a575b62001f825763ffffffff80921690620151809182810292818404149015171562001d2e5764496cebb8009362001f7e9362001f7892169062001e3e565b62001e3e565b0490565b505050600090565b5063ffffffff82161562001f3b565b5063ffffffff81161562001f33565b60008051602062002be5833981519152546001600160a01b0316330362001fcb57565b60405163118cdaa760e01b8152336004820152602490fd5b6040516323b872dd60e01b602082019081526001600160a01b039384166024830152938316604482015260648082019590955293845292909160a08201906001600160401b038211838310176200073657602092600092604052519082865af11562002086576000513d6200207c57508082163b155b62002062575050565b604051635274afe760e01b81529116600482015260249150fd5b6001141562002059565b6040513d6000823e3d90fd5b60ff7ff0c57e16840df040f15088dc2f81fe391c3923bec73e23a9662efc9c229c6a005460401c1615620020c257565b604051631afcd79f60e31b8152600490fdfe60c03461017657601f610b1038819003918201601f19168301916001600160401b0383118484101761017b5780849260609460405283398101031261017657604061004982610191565b61005560208401610191565b926001600160a01b0392839161006b9101610191565b1690811561015d57600080546001600160a01b03198116841782556040519385939290918416907f8be0079c531659141344cd1fd0a4f28419497f9722a3daafe3b4186f6b6457e09080a316918215908115610152575b50801561014a575b61013b575060805260a05260405161096a90816101a6823960805181818160bc015281816101b10152818161029401528181610379015281816105ec0152818161070e01526107cd015260a05181818161025601528181610340015281816104b2015281816105b401526107530152f35b63d92e233d60e01b8152600490fd5b5060006100ca565b9050831615386100c2565b604051631e4fbdf760e01b815260006004820152602490fd5b600080fd5b634e487b7160e01b600052604160045260246000fd5b51906001600160a01b03821682036101765756fe608060408181526004918236101561001657600080fd5b600092833560e01c91826321df0da7146106fa575081632e1a7d4d1461058f5781636e7c16241461048f578163715018a6146105325781638da5cb5b1461050a5781639789429514610494578163b742a4d31461048f578163c86283c81461030f578163ca1d209d14610235578163ed12e8ef14610182578163f2fde38b146100ef575063fc0c546a146100a957600080fd5b346100eb57816003193601126100eb57517f00000000000000000000000000000000000000000000000000000000000000006001600160a01b03168152602090f35b5080fd5b9190503461017e57602036600319011261017e576001600160a01b0382358181169391929084900361017a57610123610874565b831561016457505082546001600160a01b0319811683178455167f8be0079c531659141344cd1fd0a4f28419497f9722a3daafe3b4186f6b6457e08380a380f35b51631e4fbdf760e01b8152908101849052602490fd5b8480fd5b8280fd5b9190503461017e578260031936011261017e5780516370a0823160e01b815230928101929092526020826024817f00000000000000000000000000000000000000000000000000000000000000006001600160a01b03165afa91821561022b5783926101f3575b6020838351908152f35b9091506020813d602011610223575b8161020f60209383610787565b8101031261017e57602092505190386101e9565b3d9150610202565b81513d85823e3d90fd5b9190503461017e57602036600319011261017e5781359160018060a01b03807f0000000000000000000000000000000000000000000000000000000000000000163314159081610301575b506102f35782156102e557506102b88230337f00000000000000000000000000000000000000000000000000000000000000006108a0565b519081527fba24bd9b798cca64d1031eda1ced9398802343e44e07779bb510d7a21ddddef160203392a280f35b905163162908e360e11b8152fd5b905163478fe8e560e01b8152fd5b905084541633141538610280565b9190503461017e578060031936011261017e576001600160a01b0360243581811693803593929085830361048b57817f0000000000000000000000000000000000000000000000000000000000000000163314158061047e575b61047057841561046257602460207f0000000000000000000000000000000000000000000000000000000000000000938651928380926370a0823160e01b8252308783015287165afa908115610458578891610422575b5085116104145785156104065750916103fe847f1b5775af7e7537be20684ccf94b9c6f4b180dabad653f5b57a234a9c6a3db40b9593602095610822565b51908152a280f35b835163d92e233d60e01b8152fd5b83516314ecd6c760e01b8152fd5b90506020813d602011610450575b8161043d60209383610787565b8101031261044c5751386103c0565b8780fd5b3d9150610430565b85513d8a823e3d90fd5b835163162908e360e11b8152fd5b835163478fe8e560e01b8152fd5b5081875416331415610369565b8680fd5b61073d565b9190503461017e57602036600319011261017e5760018060a01b03807f00000000000000000000000000000000000000000000000000000000000000001633141590816104fc575b506104ef57506104ec90356107bf565b80f35b5163478fe8e560e01b8152fd5b9050835416331415386104dc565b5050346100eb57816003193601126100eb57905490516001600160a01b039091168152602090f35b833461058c578060031936011261058c5761054b610874565b80546001600160a01b03198116825581906001600160a01b03167f8be0079c531659141344cd1fd0a4f28419497f9722a3daafe3b4186f6b6457e08280a380f35b80fd5b9190503461017e57602090816003193601126106f6578235926001600160a01b0390337f000000000000000000000000000000000000000000000000000000000000000083161415806106e9575b6106db5784156106cd576024847f0000000000000000000000000000000000000000000000000000000000000000938551928380926370a0823160e01b8252308783015287165afa9081156106c3578791610696575b50851161068857331561067a575090610670847f1b5775af7e7537be20684ccf94b9c6f4b180dabad653f5b57a234a9c6a3db40b94933390610822565b519283523392a280f35b825163d92e233d60e01b8152fd5b82516314ecd6c760e01b8152fd5b90508481813d83116106bc575b6106ad8183610787565b8101031261048b575138610633565b503d6106a3565b84513d89823e3d90fd5b825163162908e360e11b8152fd5b825163478fe8e560e01b8152fd5b50818654163314156105dd565b8380fd5b8490346100eb57816003193601126100eb577f00000000000000000000000000000000000000000000000000000000000000006001600160a01b03168152602090f35b34610782576000366003190112610782576040517f00000000000000000000000000000000000000000000000000000000000000006001600160a01b03168152602090f35b600080fd5b90601f8019910116810190811067ffffffffffffffff8211176107a957604052565b634e487b7160e01b600052604160045260246000fd5b801561081f576107f18130337f00000000000000000000000000000000000000000000000000000000000000006108a0565b6040519081527fa13c6fbe794477c203bce0414e7b771dd4b6861ef3abe476e8a88f0f02be803660203392a2565b50565b60405163a9059cbb60e01b60208201526001600160a01b039092166024830152604480830193909352918152608081019167ffffffffffffffff8311828410176107a957610872926040526108f5565b565b6000546001600160a01b0316330361088857565b60405163118cdaa760e01b8152336004820152602490fd5b6040516323b872dd60e01b60208201526001600160a01b03928316602482015292909116604483015260648083019390935291815260a081019181831067ffffffffffffffff8411176107a957610872926040525b906000602091828151910182855af115610951576000513d61094857506001600160a01b0381163b155b6109265750565b604051635274afe760e01b81526001600160a01b039091166004820152602490fd5b6001141561091f565b6040513d6000823e3d90fdfea164736f6c6343000818000a9016d09d72d40fdae2fd8ceac6b6234c7706214fd39c1cd1e609a0528c199300cd5ed15c6e187e77e9aee88184c21f4f2182ab5827cb3b7e07fbedcd63f033009b779b17422d0df92223018b32b4d1fa46e071723d6817e2486d003becc55f00a164736f6c6343000818000aa164736f6c6343000818000a",
  "devdoc": {
    "errors": {
      "OwnableInvalidOwner(address)": [
        {
          "details": "The owner is not a valid owner account. (eg. `address(0)`)"
        }
      ],
      "OwnableUnauthorizedAccount(address)": [
        {
          "details": "The caller account is not authorized to perform an operation."
        }
      ]
    },
    "kind": "dev",
    "methods": {
      "owner()": {
        "details": "Returns the address of the current owner."
      },
      "renounceOwnership()": {
        "details": "Leaves the contract without owner. It will not be possible to call `onlyOwner` functions. Can only be called by the current owner. NOTE: Renouncing ownership will leave the contract without an owner, thereby disabling any functionality that is only available to the owner."
      },
      "transferOwnership(address)": {
        "details": "Transfers ownership of the contract to a new account (`newOwner`). Can only be called by the current owner."
      }
    },
    "version": 1
  },
  "userdoc": {
    "kind": "user",
    "methods": {},
    "version": 1
  },
  "storageLayout": {
    "storage": [
      {
        "astId": 1926,
        "contract": "contracts/SavingBankUpgradeableFactory.sol:SavingBankUpgradeableFactory",
        "label": "_owner",
        "offset": 0,
        "slot": "0",
        "type": "t_address"
      },
      {
        "astId": 9933,
        "contract": "contracts/SavingBankUpgradeableFactory.sol:SavingBankUpgradeableFactory",
        "label": "userBanks",
        "offset": 0,
        "slot": "1",
        "type": "t_mapping(t_address,t_array(t_address)dyn_storage)"
      }
    ],
    "types": {
      "t_address": {
        "encoding": "inplace",
        "label": "address",
        "numberOfBytes": "20"
      },
      "t_array(t_address)dyn_storage": {
        "base": "t_address",
        "encoding": "dynamic_array",
        "label": "address[]",
        "numberOfBytes": "32"
      },
      "t_mapping(t_address,t_array(t_address)dyn_storage)": {
        "encoding": "mapping",
        "key": "t_address",
        "label": "mapping(address => address[])",
        "numberOfBytes": "32",
        "value": "t_array(t_address)dyn_storage"
      }
    }
  }
}