{
  "address": "0x50Db8937caC9b1D254055438b398a409F9250E03",
  "abi": [
    {
      "inputs": [],
      "stateMutability": "nonpayable",
      "type": "constructor"
    },
    {
      "inputs": [
        {
          "internalType": "address",
          "name": "owner",
          "type": "address"
        }
      ],
      "name": "OwnableInvalidOwner",
      "type": "error"
    },
    {
      "inputs": [
        {
          "internalType": "address",
          "name": "account",
          "type": "address"
        }
      ],
      "name": "OwnableUnauthorizedAccount",
      "type": "error"
    },
    {
      "anonymous": false,
      "inputs": [
        {
          "indexed": true,
          "internalType": "uint256",
          "name": "scholarshipId",
          "type": "uint256"
        },
        {
          "indexed": false,
          "internalType": "uint256",
          "name": "amount",
          "type": "uint256"
        },
        {
          "indexed": false,
          "internalType": "address",
          "name": "depositor",
          "type": "address"
        }
      ],
      "name": "FundsDeposited",
      "type": "event"
    },
    {
      "anonymous": false,
      "inputs": [
        {
          "indexed": false,
          "internalType": "uint256",
          "name": "scholarshipId",
          "type": "uint256"
        },
        {
          "indexed": false,
          "internalType": "uint256",
          "name": "amount",
          "type": "uint256"
        },
        {
          "indexed": false,
          "internalType": "address",
          "name": "to",
          "type": "address"
        }
      ],
      "name": "FundsWithdrawn",
      "type": "event"
    },
    {
      "anonymous": false,
      "inputs": [
        {
          "indexed": true,
          "internalType": "address",
          "name": "previousOwner",
          "type": "address"
        },
        {
          "indexed": true,
          "internalType": "address",
          "name": "newOwner",
          "type": "address"
        }
      ],
      "name": "OwnershipTransferred",
      "type": "event"
    },
    {
      "anonymous": false,
      "inputs": [
        {
          "indexed": true,
          "internalType": "uint256",
          "name": "scholarshipId",
          "type": "uint256"
        },
        {
          "indexed": true,
          "internalType": "address",
          "name": "student",
          "type": "address"
        },
        {
          "indexed": false,
          "internalType": "uint256",
          "name": "amount",
          "type": "uint256"
        },
        {
          "indexed": false,
          "internalType": "uint256",
          "name": "claimedAt",
          "type": "uint256"
        }
      ],
      "name": "ScholarshipClaimed",
      "type": "event"
    },
    {
      "anonymous": false,
      "inputs": [
        {
          "indexed": true,
          "internalType": "uint256",
          "name": "scholarshipId",
          "type": "uint256"
        },
        {
          "indexed": false,
          "internalType": "string",
          "name": "name",
          "type": "string"
        },
        {
          "indexed": false,
          "internalType": "uint256",
          "name": "totalAmount",
          "type": "uint256"
        },
        {
          "indexed": false,
          "internalType": "uint256",
          "name": "maxAwards",
          "type": "uint256"
        },
        {
          "indexed": false,
          "internalType": "address",
          "name": "funder",
          "type": "address"
        }
      ],
      "name": "ScholarshipCreated",
      "type": "event"
    },
    {
      "anonymous": false,
      "inputs": [
        {
          "indexed": true,
          "internalType": "uint256",
          "name": "scholarshipId",
          "type": "uint256"
        },
        {
          "indexed": false,
          "internalType": "string",
          "name": "status",
          "type": "string"
        }
      ],
      "name": "ScholarshipStatusUpdated",
      "type": "event"
    },
    {
      "anonymous": false,
      "inputs": [
        {
          "indexed": true,
          "internalType": "uint256",
          "name": "scholarshipId",
          "type": "uint256"
        },
        {
          "indexed": true,
          "internalType": "address",
          "name": "student",
          "type": "address"
        },
        {
          "indexed": false,
          "internalType": "uint256",
          "name": "amount",
          "type": "uint256"
        },
        {
          "indexed": false,
          "internalType": "uint256",
          "name": "awardedAt",
          "type": "uint256"
        }
      ],
      "name": "StudentAwarded",
      "type": "event"
    },
    {
      "inputs": [
        {
          "internalType": "address",
          "name": "fundingEntity",
          "type": "address"
        }
      ],
      "name": "addFundingEntity",
      "outputs": [],
      "stateMutability": "nonpayable",
      "type": "function"
    },
    {
      "inputs": [
        {
          "internalType": "uint256",
          "name": "scholarshipId",
          "type": "uint256"
        },
        {
          "internalType": "address",
          "name": "student",
          "type": "address"
        },
        {
          "internalType": "uint256",
          "name": "amount",
          "type": "uint256"
        }
      ],
      "name": "awardScholarship",
      "outputs": [],
      "stateMutability": "nonpayable",
      "type": "function"
    },
    {
      "inputs": [
        {
          "internalType": "uint256",
          "name": "scholarshipId",
          "type": "uint256"
        }
      ],
      "name": "claimScholarship",
      "outputs": [],
      "stateMutability": "nonpayable",
      "type": "function"
    },
    {
      "inputs": [
        {
          "internalType": "string",
          "name": "name",
          "type": "string"
        },
        {
          "internalType": "string",
          "name": "description",
          "type": "string"
        },
        {
          "internalType": "uint256",
          "name": "totalAmount",
          "type": "uint256"
        },
        {
          "internalType": "uint256",
          "name": "maxAwards",
          "type": "uint256"
        },
        {
          "internalType": "string",
          "name": "requirements",
          "type": "string"
        },
        {
          "internalType": "uint256",
          "name": "duration",
          "type": "uint256"
        }
      ],
      "name": "createScholarship",
      "outputs": [
        {
          "internalType": "uint256",
          "name": "",
          "type": "uint256"
        }
      ],
      "stateMutability": "nonpayable",
      "type": "function"
    },
    {
      "inputs": [
        {
          "internalType": "uint256",
          "name": "scholarshipId",
          "type": "uint256"
        },
        {
          "internalType": "uint256",
          "name": "amount",
          "type": "uint256"
        }
      ],
      "name": "depositFunds",
      "outputs": [],
      "stateMutability": "nonpayable",
      "type": "function"
    },
    {
      "inputs": [
        {
          "internalType": "uint256",
          "name": "scholarshipId",
          "type": "uint256"
        }
      ],
      "name": "getAvailableFunds",
      "outputs": [
        {
          "internalType": "uint256",
          "name": "",
          "type": "uint256"
        }
      ],
      "stateMutability": "view",
      "type": "function"
    },
    {
      "inputs": [
        {
          "internalType": "uint256",
          "name": "scholarshipId",
          "type": "uint256"
        },
        {
          "internalType": "address",
          "name": "student",
          "type": "address"
        }
      ],
      "name": "getAwardAmount",
      "outputs": [
        {
          "internalType": "uint256",
          "name": "",
          "type": "uint256"
        }
      ],
      "stateMutability": "view",
      "type": "function"
    },
    {
      "inputs": [
        {
          "internalType": "uint256",
          "name": "scholarshipId",
          "type": "uint256"
        },
        {
          "internalType": "address",
          "name": "student",
          "type": "address"
        }
      ],
      "name": "getClaimedAmount",
      "outputs": [
        {
          "internalType": "uint256",
          "name": "",
          "type": "uint256"
        }
      ],
      "stateMutability": "view",
      "type": "function"
    },
    {
      "inputs": [
        {
          "internalType": "address",
          "name": "funder",
          "type": "address"
        }
      ],
      "name": "getFundedScholarships",
      "outputs": [
        {
          "internalType": "uint256[]",
          "name": "",
          "type": "uint256[]"
        }
      ],
      "stateMutability": "view",
      "type": "function"
    },
    {
      "inputs": [
        {
          "internalType": "uint256",
          "name": "scholarshipId",
          "type": "uint256"
        }
      ],
      "name": "getScholarshipInfo",
      "outputs": [
        {
          "internalType": "string",
          "name": "name",
          "type": "string"
        },
        {
          "internalType": "string",
          "name": "description",
          "type": "string"
        },
        {
          "internalType": "address",
          "name": "funder",
          "type": "address"
        },
        {
          "internalType": "uint256",
          "name": "totalAmount",
          "type": "uint256"
        },
        {
          "internalType": "uint256",
          "name": "distributedAmount",
          "type": "uint256"
        },
        {
          "internalType": "uint256",
          "name": "maxAwards",
          "type": "uint256"
        },
        {
          "internalType": "uint256",
          "name": "awardsGiven",
          "type": "uint256"
        },
        {
          "internalType": "uint256",
          "name": "createdAt",
          "type": "uint256"
        },
        {
          "internalType": "uint256",
          "name": "endsAt",
          "type": "uint256"
        },
        {
          "internalType": "string",
          "name": "status",
          "type": "string"
        }
      ],
      "stateMutability": "view",
      "type": "function"
    },
    {
      "inputs": [
        {
          "internalType": "uint256",
          "name": "scholarshipId",
          "type": "uint256"
        }
      ],
      "name": "getScholarshipRequirements",
      "outputs": [
        {
          "internalType": "string",
          "name": "",
          "type": "string"
        }
      ],
      "stateMutability": "view",
      "type": "function"
    },
    {
      "inputs": [
        {
          "internalType": "address",
          "name": "student",
          "type": "address"
        }
      ],
      "name": "getStudentScholarships",
      "outputs": [
        {
          "internalType": "uint256[]",
          "name": "",
          "type": "uint256[]"
        }
      ],
      "stateMutability": "view",
      "type": "function"
    },
    {
      "inputs": [],
      "name": "getTotalFundsDistributed",
      "outputs": [
        {
          "internalType": "uint256",
          "name": "",
          "type": "uint256"
        }
      ],
      "stateMutability": "view",
      "type": "function"
    },
    {
      "inputs": [],
      "name": "getTotalFundsInScholarships",
      "outputs": [
        {
          "internalType": "uint256",
          "name": "",
          "type": "uint256"
        }
      ],
      "stateMutability": "view",
      "type": "function"
    },
    {
      "inputs": [],
      "name": "getTotalScholarships",
      "outputs": [
        {
          "internalType": "uint256",
          "name": "",
          "type": "uint256"
        }
      ],
      "stateMutability": "view",
      "type": "function"
    },
    {
      "inputs": [
        {
          "internalType": "uint256",
          "name": "scholarshipId",
          "type": "uint256"
        }
      ],
      "name": "isScholarshipOpen",
      "outputs": [
        {
          "internalType": "bool",
          "name": "",
          "type": "bool"
        }
      ],
      "stateMutability": "view",
      "type": "function"
    },
    {
      "inputs": [
        {
          "internalType": "uint256",
          "name": "scholarshipId",
          "type": "uint256"
        },
        {
          "internalType": "address",
          "name": "student",
          "type": "address"
        }
      ],
      "name": "isStudentEligible",
      "outputs": [
        {
          "internalType": "bool",
          "name": "",
          "type": "bool"
        }
      ],
      "stateMutability": "view",
      "type": "function"
    },
    {
      "inputs": [],
      "name": "owner",
      "outputs": [
        {
          "internalType": "address",
          "name": "",
          "type": "address"
        }
      ],
      "stateMutability": "view",
      "type": "function"
    },
    {
      "inputs": [
        {
          "internalType": "address",
          "name": "fundingEntity",
          "type": "address"
        }
      ],
      "name": "removeFundingEntity",
      "outputs": [],
      "stateMutability": "nonpayable",
      "type": "function"
    },
    {
      "inputs": [],
      "name": "renounceOwnership",
      "outputs": [],
      "stateMutability": "nonpayable",
      "type": "function"
    },
    {
      "inputs": [
        {
          "internalType": "address",
          "name": "newOwner",
          "type": "address"
        }
      ],
      "name": "transferOwnership",
      "outputs": [],
      "stateMutability": "nonpayable",
      "type": "function"
    },
    {
      "inputs": [
        {
          "internalType": "uint256",
          "name": "scholarshipId",
          "type": "uint256"
        },
        {
          "internalType": "string",
          "name": "newStatus",
          "type": "string"
        }
      ],
      "name": "updateScholarshipStatus",
      "outputs": [],
      "stateMutability": "nonpayable",
      "type": "function"
    },
    {
      "inputs": [
        {
          "internalType": "uint256",
          "name": "scholarshipId",
          "type": "uint256"
        },
        {
          "internalType": "uint256",
          "name": "amount",
          "type": "uint256"
        }
      ],
      "name": "withdrawFunds",
      "outputs": [],
      "stateMutability": "nonpayable",
      "type": "function"
    }
  ],
  "transactionHash": "0xe3579927bcca47f8a84cfbbcddbaf49c57abfa2117f891438d32e22eefdf8573",
  "args": [],
  "numDeployments": 1,
  "solcInputHash": "0653400c04966c48473f315091d764dc",
  "bytecode": "0x6080806040523461008357331561006d5760008054336001600160a01b031982168117835560405192916001600160a01b03167f8be0079c531659141344cd1fd0a4f28419497f9722a3daafe3b4186f6b6457e08380a3600180558060075560085561216090816100898239f35b631e4fbdf760e01b815260006004820152602490fd5b600080fdfe6080604052600436101561001257600080fd5b60003560e01c80633258a1a2146115be57806334e617a11461146a5780634867b6db1461140157806354144a97146113e357806361638ed51461134e578063715018a6146112f557806381336d0c1461126f57806389df31111461122b5780638c05c0bd146111c15780638da5cb5b14611198578063afab949a14611106578063bbc06d54146110b6578063c14eff9714610f94578063c3ecb32a146108a3578063c7fdf3d0146106f2578063d5bd8d64146106d4578063df9f25bb1461066e578063e5253105146104c0578063e8d3dd491461027f578063e9910c291461023e578063f0b2dc18146101f9578063f2fde38b1461016b5763fec536681461011957600080fd5b3461016657602036600319011261016657610132611aa0565b61013a612127565b6001600160a01b031661014e811515611dea565b6000908152600660205260409020805460ff19169055005b600080fd5b3461016657602036600319011261016657610184611aa0565b61018c612127565b6001600160a01b039081169081156101e057600054826bffffffffffffffffffffffff60a01b821617600055167f8be0079c531659141344cd1fd0a4f28419497f9722a3daafe3b4186f6b6457e0600080a3005b604051631e4fbdf760e01b815260006004820152602490fd5b3461016657602036600319011261016657602061022960043580151580610233575b61022490611b75565b611f62565b6040519015158152f35b50600154811061021b565b3461016657600036600319011261016657600154600019810190811161026957602090604051908152f35b634e487b7160e01b600052601160045260246000fd5b34610166576040366003190112610166576004356001600160401b03602435818111610166576102b3903690600401611b48565b9190831515806104b5575b6102c790611b75565b836000526020916002835260018060a01b03806002604060002001541633149081156104a7575b501561043c57846000526002835260096040600020019084116104265761031f846103198354611bd8565b83611eeb565b6000601f851160011461039a579161038a9161037686807fc0fda9de3fefa53c42ea81a7d7c9f2885197b0aa1efe14ba082b08ad347d4d1d98979660009161038f575b508160011b916000199060031b1c19161790565b90555b604051938385948552840191611f41565b0390a2005b90508401358a610362565b601f1985169082600052846000209160005b81811061040f57509161038a9391877fc0fda9de3fefa53c42ea81a7d7c9f2885197b0aa1efe14ba082b08ad347d4d1d98979694106103f5575b5050600185811b019055610379565b830135600019600388901b60f8161c1916905587806103e6565b9192866001819286890135815501940192016103ac565b634e487b7160e01b600052604160045260246000fd5b60405162461bcd60e51b815260048101849052603a60248201527f5363686f6c6172736869704d616e616765723a204f6e6c792066756e6465722060448201527f6f72206f776e65722063616e20757064617465207374617475730000000000006064820152608490fd5b9050600054163314866102ee565b5060015484106102be565b34610166576104ce36611ab6565b9080151580610663575b6104e190611b75565b80600052600260205260018060a01b0380600260406000200154163314908115610655575b50156105f257610517821515611d17565b806000526002602052604060002090600382019261053b6004855494015484611ddd565b8111610594577ff3b5906e5672f3e524854103bcafbbdba80dbdfeca2c35e116127b1060a683189361056f82606095611ddd565b905561057d81600754611ddd565b6007556040519182526020820152336040820152a1005b60405162461bcd60e51b815260206004820152603060248201527f5363686f6c6172736869704d616e616765723a20496e73756666696369656e7460448201526f20617661696c61626c652066756e647360801b6064820152608490fd5b60405162461bcd60e51b815260206004820152603560248201527f5363686f6c6172736869704d616e616765723a204f6e6c792066756e646572206044820152746f72206f776e65722063616e20776974686472617760581b6064820152608490fd5b905060005416331483610506565b5060015481106104d8565b346101665760403660031901126101665760043561068a611a8a565b90801515806106c9575b61069d90611b75565b600052600360205260406000209060018060a01b03166000526020526020604060002054604051908152f35b506001548110610694565b34610166576000366003190112610166576020600854604051908152f35b346101665760203660031901126101665760043580151580610898575b61071890611b75565b600052600260205260406000206040519061073282611ca8565b604051806107408184611c12565b0361074b9082611cc4565b82526040518061075e8160018501611c12565b036107699082611cc4565b60208301908152600160a01b60019003838382600282015416926040830193845260038201549360608401948552600483015460808501908152600584015460a0860190815260068501549060c0870191825260078601549260e0880193845260088701549461010096878a01968752604051806009819b01906107ec91611c12565b036107f7908a611cc4565b610120809a0198895260405180809e600a8291019061081591611c12565b0361081f91611cc4565b6101409d8e9d8e820152519b5191511699519151925193519451955197519a6040519d8e9d8e528d0161085191611b08565b8c810360208e015261086291611b08565b9860408c015260608b015260808a015260a089015260c088015260e08701528501528382039084015261089491611b08565b0390f35b50600154811061070f565b346101665760c0366003190112610166576004356001600160401b038111610166576108d3903690600401611b48565b906024356001600160401b038111610166576108f3903690600401611b48565b9290916084356001600160401b03811161016657610915903690600401611b48565b9033600052600660205260ff604060002054168015610f80575b15610f21578315610ed2576109476044351515611d17565b60643515610e6f576109e7916001549561096087611dce565b60015560a43515610e645761099d61097a60a43542611d7d565b915b604051996109898b611ca8565b610994368a8a611ea5565b8b523691611ea5565b602089015233604089015260443560608901526000608089015260643560a0890152600060c08901524260e08901526101008801526109da611ce5565b6101208801523691611ea5565b610140850152826000526002602052604060002084518051906001600160401b03821161042657610a2282610a1c8554611bd8565b85611eeb565b602090601f8311600114610df857610a53929160009183610d7b575b50508160011b916000199060031b1c19161790565b81555b60208501518051906001600160401b03821161042657610a8682610a7d6001860154611bd8565b60018601611eeb565b602090601f8311600114610d8657610ab6929160009183610d7b5750508160011b916000199060031b1c19161790565b60018201555b6002810160018060a01b036040870151166bffffffffffffffffffffffff60a01b825416179055606085015160038201556080850151600482015560a0850151600582015560c0850151600682015560e0850151600782015561010085015160088201556101208501518051906001600160401b03821161042657610b5182610b486009860154611bd8565b60098601611eeb565b602090601f8311600114610d075782600a936101409593610b8893600092610c705750508160011b916000199060031b1c19161790565b60098201555b01940151908151926001600160401b03841161042657858593610bbd86610bb760209a54611bd8565b84611eeb565b8790601f8711600114610c7b579580610c0f927fe5ac25fd6d886e51a0a470685e9cfb58a58164c1237e7c040aefde2043b4c9749798600092610c705750508160011b916000199060031b1c19161790565b90555b3360005260058652610c28846040600020611d8a565b610c36604435600754611d7d565b600755610c50604051928392608084526080840191611f41565b6044358783015260643560408301523360608301520390a2604051908152f35b015190508a80610a3e565b9590601f1982169683600052896000209760005b818110610ced5750917fe5ac25fd6d886e51a0a470685e9cfb58a58164c1237e7c040aefde2043b4c974979891846001959410610cd4575b505050811b019055610c12565b015160001960f88460031b161c19169055898080610cc7565b838301518a556001909901988a9850928b01928b01610c8f565b90601f198316916009850160005260206000209260005b818110610d635750926001928592600a96610140989610610d4a575b505050811b016009820155610b8e565b015160001960f88460031b161c19169055898080610d3a565b92936020600181928786015181550195019301610d1e565b015190508880610a3e565b9190600184016000526020600020906000935b601f1984168510610ddd576001945083601f19811610610dc4575b505050811b016001820155610abc565b015160001960f88460031b161c19169055878080610db4565b81810151835560209485019460019093019290910190610d99565b9190836000526020600020906000935b601f1984168510610e49576001945083601f19811610610e30575b505050811b018155610a56565b015160001960f88460031b161c19169055878080610e23565b81810151835560209485019460019093019290910190610e08565b61099d60009161097c565b60405162461bcd60e51b815260206004820152603560248201527f5363686f6c6172736869704d616e616765723a204d617820617761726473206d60448201527407573742062652067726561746572207468616e203605c1b6064820152608490fd5b60405162461bcd60e51b815260206004820152602160248201527f5363686f6c6172736869704d616e616765723a204e616d6520726571756972656044820152601960fa1b6064820152608490fd5b60405162461bcd60e51b815260206004820152603160248201527f5363686f6c6172736869704d616e616765723a204e6f7420617574686f72697a60448201527065642066756e64696e6720656e7469747960781b6064820152608490fd5b506000546001600160a01b0316331461092f565b3461016657602036600319011261016657600435801515806110ab575b610fba90611b75565b600052600260205260206110a36040600020604051610fd881611ca8565b604051610ff081610fe98186611c12565b0382611cc4565b815260405161100681610fe98160018701611c12565b8482015260018060a01b036002830154166040820152600a6101406003840154926060810193845261109860048601549560808301968752600581015460a0840152600681015460c0840152600781015460e0840152600881015461010084015260405161107b81610fe98160098601611c12565b6101208401526110916040518096819301611c12565b0384611cc4565b015251905190611ddd565b604051908152f35b506001548110610fb1565b34610166576020366003190112610166576110cf611aa0565b6110d7612127565b6001600160a01b03166110eb811515611dea565b6000908152600660205260409020805460ff19166001179055005b3461016657602080600319360112610166576001600160a01b03611128611aa0565b16611134811515611dea565b60005260056020526040600020906040519081602084549182815201936000526020600020916000905b828210611181576108948561117581890382611cc4565b60405191829182611acc565b83548652948501946001938401939091019061115e565b34610166576000366003190112610166576000546040516001600160a01b039091168152602090f35b346101665760203660031901126101665760043580151580611220575b6111e790611b75565b6000526002602052610894610fe961120c600a60406000200160405192838092611c12565b604051918291602083526020830190611b08565b5060015481106111de565b3461016657604036600319011261016657602061022960043561124c611a8a565b9080151580611264575b61125f90611b75565b611e42565b506001548110611256565b3461016657602080600319360112610166576001600160a01b03611291611aa0565b1661129d811515611dea565b60005260046020526040600020906040519081602084549182815201936000526020600020916000905b8282106112de576108948561117581890382611cc4565b8354865294850194600193840193909101906112c7565b346101665760003660031901126101665761130e612127565b600080546001600160a01b0319811682556001600160a01b03167f8be0079c531659141344cd1fd0a4f28419497f9722a3daafe3b4186f6b6457e08280a3005b346101665760407f173e65f112f35b3978d871d854bb35f9d5208d7a65fe387d0ef353d0d2b64e7b61137f36611ab6565b8193911515806113d8575b61139390611b75565b61139e811515611d17565b836000526002602052600382600020016113b9828254611d7d565b90556113c781600754611d7d565b6007558151908152336020820152a2005b50600154841061138a565b34610166576000366003190112610166576020600754604051908152f35b346101665760403660031901126101665760043561141d611a8a565b908015158061145f575b61143090611b75565b600052600360205260406000209060018060a01b03166000526020526020600160406000200154604051908152f35b506001548110611427565b346101665760208060031936011261016657600435801515806115b3575b61149190611b75565b8060005260038252604060002033600052825260406000209160ff6002840154161561155f57600183019283548154908181101561150e576114d39082611ddd565b945560044291015560405192835242908301527fe42aa83ab8ca2f75461639b0a68d5ff14dfc3af23e4bc1a67a945c7c16b620dd60403393a3005b60405162461bcd60e51b815260048101859052602360248201527f5363686f6c6172736869704d616e616765723a20416c726561647920636c61696044820152621b595960ea1b6064820152608490fd5b6084906040519062461bcd60e51b82526004820152602760248201527f5363686f6c6172736869704d616e616765723a2053747564656e74206e6f7420604482015266185dd85c99195960ca1b6064820152fd5b506001548110611488565b34610166576060366003190112610166576004356115da611a8a565b90604491823582151580611a7f575b6115f290611b75565b826000526002906020828152610fe9611618600960406000200160405192838092611c12565b818151910120611626611ce5565b82815191012003611a2657846000528281526008604060002001548015908115611a1c575b50156119c7576001600160a01b038481169690871561196f5761166f841515611d17565b86600052848352808560406000200154163314908115611961575b50156118f8578560005283825260406000209060068201908154600584015411156118a657600483019260036116c1878654611d7d565b91015410611848578760005260038452604060002089600052845260ff8660406000200154166117f157506040519460a08601908682106001600160401b03831117610426577f7d902291078c67fe5c4b91c77ae5df50d7da0a68621f30d28c0963f3813123f7976040976004878d8d9561179c978d528b855282850190600082528d86019160018352606087019342855260036080890196600088528b600052528f600020906000528d528e6000209651875551600187015585019051151560ff8019835416911617905551600384015551910155612090565b156117d7575b6117ac8154611dce565b90556117b9838254611d7d565b90556117c782600854611d7d565b60085582519182524290820152a3005b87600052600483526117ec8786600020611d8a565b6117a2565b837f5363686f6c6172736869704d616e616765723a2053747564656e7420616c72656084926040519262461bcd60e51b84526004840152602b60248401528201526a18591e48185dd85c99195960aa1b6064820152fd5b837f5363686f6c6172736869704d616e616765723a20496e73756666696369656e746084926040519262461bcd60e51b845260048401526032602484015282015271207363686f6c6172736869702066756e647360701b6064820152fd5b837f5363686f6c6172736869704d616e616765723a204d61782061776172647320726084926040519262461bcd60e51b845260048401526026602484015282015265195858da195960d21b6064820152fd5b907f5363686f6c6172736869704d616e616765723a204f6e6c79207363686f6c61726084926040519262461bcd60e51b84526004840152603e60248401528201527f736869702066756e646572206f72206f776e65722063616e20617761726400006064820152fd5b90506000541633148861168a565b60405162461bcd60e51b815260048101849052602b60248201527f5363686f6c6172736869704d616e616765723a20496e76616c69642073747564818401526a656e74206164647265737360a81b6064820152608490fd5b6084907f5363686f6c6172736869704d616e616765723a205363686f6c61727368697020876040519262461bcd60e51b8452600484015260296024840152820152681a185cc8195b99195960ba1b6064820152fd5b905042108761164b565b6084907f5363686f6c6172736869704d616e616765723a205363686f6c61727368697020876040519262461bcd60e51b84526004840152602d60248401528201526c6973206e6f742061637469766560981b6064820152fd5b5060015483106115e9565b602435906001600160a01b038216820361016657565b600435906001600160a01b038216820361016657565b6040906003190112610166576004359060243590565b602090602060408183019282815285518094520193019160005b828110611af4575050505090565b835185529381019392810192600101611ae6565b919082519283825260005b848110611b34575050826000602080949584010152601f8019910116010190565b602081830181015184830182015201611b13565b9181601f84011215610166578235916001600160401b038311610166576020838186019501011161016657565b15611b7c57565b60405162461bcd60e51b815260206004820152602e60248201527f5363686f6c6172736869704d616e616765723a205363686f6c6172736869702060448201526d191bd95cc81b9bdd08195e1a5cdd60921b6064820152608490fd5b90600182811c92168015611c08575b6020831014611bf257565b634e487b7160e01b600052602260045260246000fd5b91607f1691611be7565b805460009392611c2182611bd8565b91828252602093600191600181169081600014611c895750600114611c48575b5050505050565b90939495506000929192528360002092846000945b838610611c7557505050500101903880808080611c41565b805485870183015294019385908201611c5d565b60ff19168685015250505090151560051b010191503880808080611c41565b61016081019081106001600160401b0382111761042657604052565b90601f801991011681019081106001600160401b0382111761042657604052565b60405190604082018281106001600160401b0382111761042657604052600682526561637469766560d01b6020830152565b15611d1e57565b60405162461bcd60e51b815260206004820152603160248201527f5363686f6c6172736869704d616e616765723a20416d6f756e74206d75737420604482015270062652067726561746572207468616e203607c1b6064820152608490fd5b9190820180921161026957565b805490680100000000000000008210156104265760018201808255821015611db85760005260206000200155565b634e487b7160e01b600052603260045260246000fd5b60001981146102695760010190565b9190820391821161026957565b15611df157565b60405162461bcd60e51b815260206004820152602360248201527f5363686f6c6172736869704d616e616765723a20496e76616c6964206164647260448201526265737360e81b6064820152608490fd5b906000828152602091600383526040928383209160018060a01b031691828452815260ff600285852001541615611e9d5784835260038152838320828452815260018484200154948352600381528383209183525220541190565b505091505090565b9291926001600160401b0382116104265760405191611ece601f8201601f191660200184611cc4565b829481845281830111610166578281602093846000960137010152565b90601f8111611ef957505050565b6000916000526020600020906020601f850160051c83019410611f37575b601f0160051c01915b828110611f2c57505050565b818155600101611f20565b9092508290611f17565b908060209392818452848401376000828201840152601f01601f1916010190565b6000526002602052604080600020815190611f7c82611ca8565b8251611f8c81610fe98185611c12565b82528251611fa181610fe98160018601611c12565b602083015260018060a01b0360028201541683830152600381015460608301526004810154608083015260058101549260a08301938452600a61014060068401549460c08101958652600785015460e082015261203660088601549561010083019687526110918651966120238861201c8160098701611c12565b0389611cc4565b6101208501978852518096819301611c12565b01525160208151910120612048611ce5565b60208151910120036120885751801515908161207e575b5061207757519051111561207257600190565b600090565b5050600090565b905042113861205f565b505050600090565b9060009160018060a01b03168252602090600460205260408320916040518084602082965493848152019087526020872092875b85828210612111575050506120db92500384611cc4565b825192845b8481106120ef57505050505090565b83838260051b8401015114612106576001016120e0565b505050505050600190565b85548452600195860195899550930192016120c4565b6000546001600160a01b0316330361213b57565b60405163118cdaa760e01b8152336004820152602490fdfea164736f6c6343000818000a",
  "devdoc": {
    "details": "Manages scholarship distribution and tracking system",
    "errors": {
      "OwnableInvalidOwner(address)": [
        {
          "details": "The owner is not a valid owner account. (eg. `address(0)`)"
        }
      ],
      "OwnableUnauthorizedAccount(address)": [
        {
          "details": "The caller account is not authorized to perform an operation."
        }
      ]
    },
    "kind": "dev",
    "methods": {
      "owner()": {
        "details": "Returns the address of the current owner."
      },
      "renounceOwnership()": {
        "details": "Leaves the contract without owner. It will not be possible to call `onlyOwner` functions. Can only be called by the current owner. NOTE: Renouncing ownership will leave the contract without an owner, thereby disabling any functionality that is only available to the owner."
      },
      "transferOwnership(address)": {
        "details": "Transfers ownership of the contract to a new account (`newOwner`). Can only be called by the current owner."
      }
    },
    "title": "ScholarshipManager",
    "version": 1
  },
  "userdoc": {
    "kind": "user",
    "methods": {
      "addFundingEntity(address)": {
        "notice": "Add funding institution"
      },
      "awardScholarship(uint256,address,uint256)": {
        "notice": "Award scholarship to a student"
      },
      "claimScholarship(uint256)": {
        "notice": "Claim awarded scholarship funds"
      },
      "createScholarship(string,string,uint256,uint256,string,uint256)": {
        "notice": "Create a new scholarship"
      },
      "depositFunds(uint256,uint256)": {
        "notice": "Deposit funds into a scholarship"
      },
      "getAvailableFunds(uint256)": {
        "notice": "Get available funds in a scholarship"
      },
      "getAwardAmount(uint256,address)": {
        "notice": "Get award amount for a student"
      },
      "getClaimedAmount(uint256,address)": {
        "notice": "Get claimed amount for a student"
      },
      "getFundedScholarships(address)": {
        "notice": "Get all scholarships funded by an entity"
      },
      "getScholarshipInfo(uint256)": {
        "notice": "Get scholarship information"
      },
      "getScholarshipRequirements(uint256)": {
        "notice": "Get scholarship requirements"
      },
      "getStudentScholarships(address)": {
        "notice": "Get all scholarships for a student"
      },
      "getTotalFundsDistributed()": {
        "notice": "Get total distributed funds"
      },
      "getTotalFundsInScholarships()": {
        "notice": "Get total funds in scholarships"
      },
      "getTotalScholarships()": {
        "notice": "Get total scholarships"
      },
      "isScholarshipOpen(uint256)": {
        "notice": "Check if scholarship is still open"
      },
      "isStudentEligible(uint256,address)": {
        "notice": "Check if student is eligible for scholarship"
      },
      "removeFundingEntity(address)": {
        "notice": "Remove funding institution"
      },
      "updateScholarshipStatus(uint256,string)": {
        "notice": "Update scholarship status"
      },
      "withdrawFunds(uint256,uint256)": {
        "notice": "Withdraw unclaimed funds from scholarship"
      }
    },
    "version": 1
  },
  "storageLayout": {
    "storage": [
      {
        "astId": 8,
        "contract": "contracts/modules/010-scholarship/ScholarshipManager.sol:ScholarshipManager",
        "label": "_owner",
        "offset": 0,
        "slot": "0",
        "type": "t_address"
      },
      {
        "astId": 468,
        "contract": "contracts/modules/010-scholarship/ScholarshipManager.sol:ScholarshipManager",
        "label": "scholarshipCounter",
        "offset": 0,
        "slot": "1",
        "type": "t_uint256"
      },
      {
        "astId": 473,
        "contract": "contracts/modules/010-scholarship/ScholarshipManager.sol:ScholarshipManager",
        "label": "scholarships",
        "offset": 0,
        "slot": "2",
        "type": "t_mapping(t_uint256,t_struct(Scholarship)455_storage)"
      },
      {
        "astId": 480,
        "contract": "contracts/modules/010-scholarship/ScholarshipManager.sol:ScholarshipManager",
        "label": "studentAwards",
        "offset": 0,
        "slot": "3",
        "type": "t_mapping(t_uint256,t_mapping(t_address,t_struct(StudentAward)466_storage))"
      },
      {
        "astId": 485,
        "contract": "contracts/modules/010-scholarship/ScholarshipManager.sol:ScholarshipManager",
        "label": "studentScholarships",
        "offset": 0,
        "slot": "4",
        "type": "t_mapping(t_address,t_array(t_uint256)dyn_storage)"
      },
      {
        "astId": 490,
        "contract": "contracts/modules/010-scholarship/ScholarshipManager.sol:ScholarshipManager",
        "label": "fundedScholarships",
        "offset": 0,
        "slot": "5",
        "type": "t_mapping(t_address,t_array(t_uint256)dyn_storage)"
      },
      {
        "astId": 494,
        "contract": "contracts/modules/010-scholarship/ScholarshipManager.sol:ScholarshipManager",
        "label": "authorizedFundingEntities",
        "offset": 0,
        "slot": "6",
        "type": "t_mapping(t_address,t_bool)"
      },
      {
        "astId": 496,
        "contract": "contracts/modules/010-scholarship/ScholarshipManager.sol:ScholarshipManager",
        "label": "totalFundsInScholarships",
        "offset": 0,
        "slot": "7",
        "type": "t_uint256"
      },
      {
        "astId": 498,
        "contract": "contracts/modules/010-scholarship/ScholarshipManager.sol:ScholarshipManager",
        "label": "totalFundsDistributed",
        "offset": 0,
        "slot": "8",
        "type": "t_uint256"
      }
    ],
    "types": {
      "t_address": {
        "encoding": "inplace",
        "label": "address",
        "numberOfBytes": "20"
      },
      "t_array(t_uint256)dyn_storage": {
        "base": "t_uint256",
        "encoding": "dynamic_array",
        "label": "uint256[]",
        "numberOfBytes": "32"
      },
      "t_bool": {
        "encoding": "inplace",
        "label": "bool",
        "numberOfBytes": "1"
      },
      "t_mapping(t_address,t_array(t_uint256)dyn_storage)": {
        "encoding": "mapping",
        "key": "t_address",
        "label": "mapping(address => uint256[])",
        "numberOfBytes": "32",
        "value": "t_array(t_uint256)dyn_storage"
      },
      "t_mapping(t_address,t_bool)": {
        "encoding": "mapping",
        "key": "t_address",
        "label": "mapping(address => bool)",
        "numberOfBytes": "32",
        "value": "t_bool"
      },
      "t_mapping(t_address,t_struct(StudentAward)466_storage)": {
        "encoding": "mapping",
        "key": "t_address",
        "label": "mapping(address => struct ScholarshipManager.StudentAward)",
        "numberOfBytes": "32",
        "value": "t_struct(StudentAward)466_storage"
      },
      "t_mapping(t_uint256,t_mapping(t_address,t_struct(StudentAward)466_storage))": {
        "encoding": "mapping",
        "key": "t_uint256",
        "label": "mapping(uint256 => mapping(address => struct ScholarshipManager.StudentAward))",
        "numberOfBytes": "32",
        "value": "t_mapping(t_address,t_struct(StudentAward)466_storage)"
      },
      "t_mapping(t_uint256,t_struct(Scholarship)455_storage)": {
        "encoding": "mapping",
        "key": "t_uint256",
        "label": "mapping(uint256 => struct ScholarshipManager.Scholarship)",
        "numberOfBytes": "32",
        "value": "t_struct(Scholarship)455_storage"
      },
      "t_string_storage": {
        "encoding": "bytes",
        "label": "string",
        "numberOfBytes": "32"
      },
      "t_struct(Scholarship)455_storage": {
        "encoding": "inplace",
        "label": "struct ScholarshipManager.Scholarship",
        "members": [
          {
            "astId": 434,
            "contract": "contracts/modules/010-scholarship/ScholarshipManager.sol:ScholarshipManager",
            "label": "name",
            "offset": 0,
            "slot": "0",
            "type": "t_string_storage"
          },
          {
            "astId": 436,
            "contract": "contracts/modules/010-scholarship/ScholarshipManager.sol:ScholarshipManager",
            "label": "description",
            "offset": 0,
            "slot": "1",
            "type": "t_string_storage"
          },
          {
            "astId": 438,
            "contract": "contracts/modules/010-scholarship/ScholarshipManager.sol:ScholarshipManager",
            "label": "funder",
            "offset": 0,
            "slot": "2",
            "type": "t_address"
          },
          {
            "astId": 440,
            "contract": "contracts/modules/010-scholarship/ScholarshipManager.sol:ScholarshipManager",
            "label": "totalAmount",
            "offset": 0,
            "slot": "3",
            "type": "t_uint256"
          },
          {
            "astId": 442,
            "contract": "contracts/modules/010-scholarship/ScholarshipManager.sol:ScholarshipManager",
            "label": "distributedAmount",
            "offset": 0,
            "slot": "4",
            "type": "t_uint256"
          },
          {
            "astId": 444,
            "contract": "contracts/modules/010-scholarship/ScholarshipManager.sol:ScholarshipManager",
            "label": "maxAwards",
            "offset": 0,
            "slot": "5",
            "type": "t_uint256"
          },
          {
            "astId": 446,
            "contract": "contracts/modules/010-scholarship/ScholarshipManager.sol:ScholarshipManager",
            "label": "awardsGiven",
            "offset": 0,
            "slot": "6",
            "type": "t_uint256"
          },
          {
            "astId": 448,
            "contract": "contracts/modules/010-scholarship/ScholarshipManager.sol:ScholarshipManager",
            "label": "createdAt",
            "offset": 0,
            "slot": "7",
            "type": "t_uint256"
          },
          {
            "astId": 450,
            "contract": "contracts/modules/010-scholarship/ScholarshipManager.sol:ScholarshipManager",
            "label": "endsAt",
            "offset": 0,
            "slot": "8",
            "type": "t_uint256"
          },
          {
            "astId": 452,
            "contract": "contracts/modules/010-scholarship/ScholarshipManager.sol:ScholarshipManager",
            "label": "status",
            "offset": 0,
            "slot": "9",
            "type": "t_string_storage"
          },
          {
            "astId": 454,
            "contract": "contracts/modules/010-scholarship/ScholarshipManager.sol:ScholarshipManager",
            "label": "requirements",
            "offset": 0,
            "slot": "10",
            "type": "t_string_storage"
          }
        ],
        "numberOfBytes": "352"
      },
      "t_struct(StudentAward)466_storage": {
        "encoding": "inplace",
        "label": "struct ScholarshipManager.StudentAward",
        "members": [
          {
            "astId": 457,
            "contract": "contracts/modules/010-scholarship/ScholarshipManager.sol:ScholarshipManager",
            "label": "awardAmount",
            "offset": 0,
            "slot": "0",
            "type": "t_uint256"
          },
          {
            "astId": 459,
            "contract": "contracts/modules/010-scholarship/ScholarshipManager.sol:ScholarshipManager",
            "label": "claimedAmount",
            "offset": 0,
            "slot": "1",
            "type": "t_uint256"
          },
          {
            "astId": 461,
            "contract": "contracts/modules/010-scholarship/ScholarshipManager.sol:ScholarshipManager",
            "label": "hasBeenAwarded",
            "offset": 0,
            "slot": "2",
            "type": "t_bool"
          },
          {
            "astId": 463,
            "contract": "contracts/modules/010-scholarship/ScholarshipManager.sol:ScholarshipManager",
            "label": "awardedAt",
            "offset": 0,
            "slot": "3",
            "type": "t_uint256"
          },
          {
            "astId": 465,
            "contract": "contracts/modules/010-scholarship/ScholarshipManager.sol:ScholarshipManager",
            "label": "claimedAt",
            "offset": 0,
            "slot": "4",
            "type": "t_uint256"
          }
        ],
        "numberOfBytes": "160"
      },
      "t_uint256": {
        "encoding": "inplace",
        "label": "uint256",
        "numberOfBytes": "32"
      }
    }
  }
}