{
  "address": "0xcbC39F0BF0585A11a86F3391d09D1F18f0b01F40",
  "abi": [
    {
      "inputs": [
        {
          "internalType": "address",
          "name": "_stakingToken",
          "type": "address"
        }
      ],
      "stateMutability": "nonpayable",
      "type": "constructor"
    },
    {
      "inputs": [
        {
          "internalType": "address",
          "name": "owner",
          "type": "address"
        }
      ],
      "name": "OwnableInvalidOwner",
      "type": "error"
    },
    {
      "inputs": [
        {
          "internalType": "address",
          "name": "account",
          "type": "address"
        }
      ],
      "name": "OwnableUnauthorizedAccount",
      "type": "error"
    },
    {
      "inputs": [],
      "name": "ReentrancyGuardReentrantCall",
      "type": "error"
    },
    {
      "anonymous": false,
      "inputs": [
        {
          "indexed": true,
          "internalType": "address",
          "name": "user",
          "type": "address"
        },
        {
          "indexed": true,
          "internalType": "uint256",
          "name": "stakeId",
          "type": "uint256"
        },
        {
          "indexed": false,
          "internalType": "uint256",
          "name": "reward",
          "type": "uint256"
        },
        {
          "indexed": false,
          "internalType": "uint256",
          "name": "newPrincipal",
          "type": "uint256"
        },
        {
          "indexed": false,
          "internalType": "uint256",
          "name": "timestamp",
          "type": "uint256"
        }
      ],
      "name": "Compounded",
      "type": "event"
    },
    {
      "anonymous": false,
      "inputs": [
        {
          "indexed": true,
          "internalType": "address",
          "name": "user",
          "type": "address"
        },
        {
          "indexed": true,
          "internalType": "uint256",
          "name": "stakeId",
          "type": "uint256"
        },
        {
          "indexed": false,
          "internalType": "uint256",
          "name": "amount",
          "type": "uint256"
        },
        {
          "indexed": false,
          "internalType": "uint256",
          "name": "penalty",
          "type": "uint256"
        },
        {
          "indexed": false,
          "internalType": "uint256",
          "name": "timestamp",
          "type": "uint256"
        }
      ],
      "name": "EmergencyWithdraw",
      "type": "event"
    },
    {
      "anonymous": false,
      "inputs": [
        {
          "indexed": true,
          "internalType": "address",
          "name": "previousOwner",
          "type": "address"
        },
        {
          "indexed": true,
          "internalType": "address",
          "name": "newOwner",
          "type": "address"
        }
      ],
      "name": "OwnershipTransferred",
      "type": "event"
    },
    {
      "anonymous": false,
      "inputs": [
        {
          "indexed": true,
          "internalType": "uint256",
          "name": "poolId",
          "type": "uint256"
        },
        {
          "indexed": false,
          "internalType": "enum IStaking.PoolType",
          "name": "poolType",
          "type": "uint8"
        },
        {
          "indexed": false,
          "internalType": "uint256",
          "name": "apy",
          "type": "uint256"
        },
        {
          "indexed": false,
          "internalType": "uint256",
          "name": "minStake",
          "type": "uint256"
        },
        {
          "indexed": false,
          "internalType": "uint256",
          "name": "lockDays",
          "type": "uint256"
        },
        {
          "indexed": false,
          "internalType": "uint256",
          "name": "timestamp",
          "type": "uint256"
        }
      ],
      "name": "PoolCreated",
      "type": "event"
    },
    {
      "anonymous": false,
      "inputs": [
        {
          "indexed": true,
          "internalType": "uint256",
          "name": "poolId",
          "type": "uint256"
        },
        {
          "indexed": false,
          "internalType": "uint256",
          "name": "newApy",
          "type": "uint256"
        },
        {
          "indexed": false,
          "internalType": "bool",
          "name": "active",
          "type": "bool"
        },
        {
          "indexed": false,
          "internalType": "uint256",
          "name": "timestamp",
          "type": "uint256"
        }
      ],
      "name": "PoolUpdated",
      "type": "event"
    },
    {
      "anonymous": false,
      "inputs": [
        {
          "indexed": true,
          "internalType": "address",
          "name": "user",
          "type": "address"
        },
        {
          "indexed": true,
          "internalType": "uint256",
          "name": "stakeId",
          "type": "uint256"
        },
        {
          "indexed": false,
          "internalType": "uint256",
          "name": "reward",
          "type": "uint256"
        },
        {
          "indexed": false,
          "internalType": "uint256",
          "name": "timestamp",
          "type": "uint256"
        }
      ],
      "name": "RewardsClaimed",
      "type": "event"
    },
    {
      "anonymous": false,
      "inputs": [
        {
          "indexed": true,
          "internalType": "address",
          "name": "depositor",
          "type": "address"
        },
        {
          "indexed": false,
          "internalType": "uint256",
          "name": "amount",
          "type": "uint256"
        },
        {
          "indexed": false,
          "internalType": "uint256",
          "name": "timestamp",
          "type": "uint256"
        }
      ],
      "name": "RewardsDeposited",
      "type": "event"
    },
    {
      "anonymous": false,
      "inputs": [
        {
          "indexed": true,
          "internalType": "address",
          "name": "user",
          "type": "address"
        },
        {
          "indexed": true,
          "internalType": "uint256",
          "name": "poolId",
          "type": "uint256"
        },
        {
          "indexed": true,
          "internalType": "uint256",
          "name": "stakeId",
          "type": "uint256"
        },
        {
          "indexed": false,
          "internalType": "uint256",
          "name": "amount",
          "type": "uint256"
        },
        {
          "indexed": false,
          "internalType": "uint256",
          "name": "timestamp",
          "type": "uint256"
        }
      ],
      "name": "Staked",
      "type": "event"
    },
    {
      "anonymous": false,
      "inputs": [
        {
          "indexed": true,
          "internalType": "address",
          "name": "user",
          "type": "address"
        },
        {
          "indexed": true,
          "internalType": "uint256",
          "name": "stakeId",
          "type": "uint256"
        },
        {
          "indexed": false,
          "internalType": "uint256",
          "name": "principal",
          "type": "uint256"
        },
        {
          "indexed": false,
          "internalType": "uint256",
          "name": "reward",
          "type": "uint256"
        },
        {
          "indexed": false,
          "internalType": "uint256",
          "name": "timestamp",
          "type": "uint256"
        }
      ],
      "name": "Unstaked",
      "type": "event"
    },
    {
      "inputs": [
        {
          "internalType": "uint256",
          "name": "stakeId",
          "type": "uint256"
        }
      ],
      "name": "claimRewards",
      "outputs": [],
      "stateMutability": "nonpayable",
      "type": "function"
    },
    {
      "inputs": [
        {
          "internalType": "uint256",
          "name": "stakeId",
          "type": "uint256"
        }
      ],
      "name": "compound",
      "outputs": [],
      "stateMutability": "nonpayable",
      "type": "function"
    },
    {
      "inputs": [
        {
          "internalType": "enum IStaking.PoolType",
          "name": "poolType",
          "type": "uint8"
        },
        {
          "internalType": "uint256",
          "name": "apyBps",
          "type": "uint256"
        },
        {
          "internalType": "uint256",
          "name": "minStake",
          "type": "uint256"
        },
        {
          "internalType": "uint256",
          "name": "maxStake",
          "type": "uint256"
        },
        {
          "internalType": "uint256",
          "name": "lockDays",
          "type": "uint256"
        },
        {
          "internalType": "uint256",
          "name": "maxCapacity",
          "type": "uint256"
        }
      ],
      "name": "createPool",
      "outputs": [
        {
          "internalType": "uint256",
          "name": "poolId",
          "type": "uint256"
        }
      ],
      "stateMutability": "nonpayable",
      "type": "function"
    },
    {
      "inputs": [
        {
          "internalType": "uint256",
          "name": "amount",
          "type": "uint256"
        }
      ],
      "name": "depositRewards",
      "outputs": [],
      "stateMutability": "nonpayable",
      "type": "function"
    },
    {
      "inputs": [],
      "name": "earlyWithdrawPenaltyBps",
      "outputs": [
        {
          "internalType": "uint256",
          "name": "",
          "type": "uint256"
        }
      ],
      "stateMutability": "view",
      "type": "function"
    },
    {
      "inputs": [
        {
          "internalType": "uint256",
          "name": "stakeId",
          "type": "uint256"
        }
      ],
      "name": "emergencyWithdraw",
      "outputs": [],
      "stateMutability": "nonpayable",
      "type": "function"
    },
    {
      "inputs": [
        {
          "internalType": "uint256",
          "name": "stakeId",
          "type": "uint256"
        }
      ],
      "name": "getPendingReward",
      "outputs": [
        {
          "internalType": "uint256",
          "name": "",
          "type": "uint256"
        }
      ],
      "stateMutability": "view",
      "type": "function"
    },
    {
      "inputs": [],
      "name": "getPlatformStats",
      "outputs": [
        {
          "internalType": "uint256",
          "name": "totalPools_",
          "type": "uint256"
        },
        {
          "internalType": "uint256",
          "name": "totalStaked_",
          "type": "uint256"
        },
        {
          "internalType": "uint256",
          "name": "totalStakers_",
          "type": "uint256"
        },
        {
          "internalType": "uint256",
          "name": "totalRewardsPaid_",
          "type": "uint256"
        },
        {
          "internalType": "uint256",
          "name": "rewardBalance_",
          "type": "uint256"
        }
      ],
      "stateMutability": "view",
      "type": "function"
    },
    {
      "inputs": [
        {
          "internalType": "uint256",
          "name": "poolId",
          "type": "uint256"
        }
      ],
      "name": "getPool",
      "outputs": [
        {
          "internalType": "enum IStaking.PoolType",
          "name": "poolType_",
          "type": "uint8"
        },
        {
          "internalType": "uint256",
          "name": "apyBps_",
          "type": "uint256"
        },
        {
          "internalType": "uint256",
          "name": "minStake_",
          "type": "uint256"
        },
        {
          "internalType": "uint256",
          "name": "maxStake_",
          "type": "uint256"
        },
        {
          "internalType": "uint256",
          "name": "lockDays_",
          "type": "uint256"
        },
        {
          "internalType": "uint256",
          "name": "totalStaked_",
          "type": "uint256"
        },
        {
          "internalType": "uint256",
          "name": "totalStakers_",
          "type": "uint256"
        },
        {
          "internalType": "uint256",
          "name": "maxCapacity_",
          "type": "uint256"
        },
        {
          "internalType": "bool",
          "name": "active_",
          "type": "bool"
        },
        {
          "internalType": "uint256",
          "name": "createdAt_",
          "type": "uint256"
        }
      ],
      "stateMutability": "view",
      "type": "function"
    },
    {
      "inputs": [
        {
          "internalType": "uint256",
          "name": "stakeId",
          "type": "uint256"
        }
      ],
      "name": "getStakeInfo",
      "outputs": [
        {
          "internalType": "address",
          "name": "staker_",
          "type": "address"
        },
        {
          "internalType": "uint256",
          "name": "poolId_",
          "type": "uint256"
        },
        {
          "internalType": "uint256",
          "name": "principal_",
          "type": "uint256"
        },
        {
          "internalType": "uint256",
          "name": "pendingReward_",
          "type": "uint256"
        },
        {
          "internalType": "uint256",
          "name": "stakedAt_",
          "type": "uint256"
        },
        {
          "internalType": "uint256",
          "name": "unlockAt_",
          "type": "uint256"
        },
        {
          "internalType": "uint256",
          "name": "lastClaimAt_",
          "type": "uint256"
        },
        {
          "internalType": "enum IStaking.StakeStatus",
          "name": "status_",
          "type": "uint8"
        }
      ],
      "stateMutability": "view",
      "type": "function"
    },
    {
      "inputs": [],
      "name": "getTotalPools",
      "outputs": [
        {
          "internalType": "uint256",
          "name": "",
          "type": "uint256"
        }
      ],
      "stateMutability": "view",
      "type": "function"
    },
    {
      "inputs": [],
      "name": "getTotalStakes",
      "outputs": [
        {
          "internalType": "uint256",
          "name": "",
          "type": "uint256"
        }
      ],
      "stateMutability": "view",
      "type": "function"
    },
    {
      "inputs": [
        {
          "internalType": "address",
          "name": "user",
          "type": "address"
        }
      ],
      "name": "getUserStakes",
      "outputs": [
        {
          "internalType": "uint256[]",
          "name": "",
          "type": "uint256[]"
        }
      ],
      "stateMutability": "view",
      "type": "function"
    },
    {
      "inputs": [],
      "name": "nextPoolId",
      "outputs": [
        {
          "internalType": "uint256",
          "name": "",
          "type": "uint256"
        }
      ],
      "stateMutability": "view",
      "type": "function"
    },
    {
      "inputs": [],
      "name": "nextStakeId",
      "outputs": [
        {
          "internalType": "uint256",
          "name": "",
          "type": "uint256"
        }
      ],
      "stateMutability": "view",
      "type": "function"
    },
    {
      "inputs": [],
      "name": "owner",
      "outputs": [
        {
          "internalType": "address",
          "name": "",
          "type": "address"
        }
      ],
      "stateMutability": "view",
      "type": "function"
    },
    {
      "inputs": [
        {
          "internalType": "uint256",
          "name": "",
          "type": "uint256"
        }
      ],
      "name": "pools",
      "outputs": [
        {
          "internalType": "enum IStaking.PoolType",
          "name": "poolType",
          "type": "uint8"
        },
        {
          "internalType": "uint256",
          "name": "apyBps",
          "type": "uint256"
        },
        {
          "internalType": "uint256",
          "name": "minStake",
          "type": "uint256"
        },
        {
          "internalType": "uint256",
          "name": "maxStake",
          "type": "uint256"
        },
        {
          "internalType": "uint256",
          "name": "lockDays",
          "type": "uint256"
        },
        {
          "internalType": "uint256",
          "name": "totalStaked",
          "type": "uint256"
        },
        {
          "internalType": "uint256",
          "name": "totalStakers",
          "type": "uint256"
        },
        {
          "internalType": "uint256",
          "name": "maxCapacity",
          "type": "uint256"
        },
        {
          "internalType": "bool",
          "name": "active",
          "type": "bool"
        },
        {
          "internalType": "uint256",
          "name": "createdAt",
          "type": "uint256"
        }
      ],
      "stateMutability": "view",
      "type": "function"
    },
    {
      "inputs": [],
      "name": "renounceOwnership",
      "outputs": [],
      "stateMutability": "nonpayable",
      "type": "function"
    },
    {
      "inputs": [],
      "name": "rewardBalance",
      "outputs": [
        {
          "internalType": "uint256",
          "name": "",
          "type": "uint256"
        }
      ],
      "stateMutability": "view",
      "type": "function"
    },
    {
      "inputs": [
        {
          "internalType": "uint256",
          "name": "penaltyBps",
          "type": "uint256"
        }
      ],
      "name": "setEarlyWithdrawPenaltyBps",
      "outputs": [],
      "stateMutability": "nonpayable",
      "type": "function"
    },
    {
      "inputs": [
        {
          "internalType": "uint256",
          "name": "poolId",
          "type": "uint256"
        },
        {
          "internalType": "uint256",
          "name": "amount",
          "type": "uint256"
        }
      ],
      "name": "stake",
      "outputs": [
        {
          "internalType": "uint256",
          "name": "stakeId",
          "type": "uint256"
        }
      ],
      "stateMutability": "nonpayable",
      "type": "function"
    },
    {
      "inputs": [
        {
          "internalType": "uint256",
          "name": "",
          "type": "uint256"
        }
      ],
      "name": "stakes",
      "outputs": [
        {
          "internalType": "address",
          "name": "staker",
          "type": "address"
        },
        {
          "internalType": "uint256",
          "name": "poolId",
          "type": "uint256"
        },
        {
          "internalType": "uint256",
          "name": "principal",
          "type": "uint256"
        },
        {
          "internalType": "uint256",
          "name": "stakedAt",
          "type": "uint256"
        },
        {
          "internalType": "uint256",
          "name": "unlockAt",
          "type": "uint256"
        },
        {
          "internalType": "uint256",
          "name": "lastClaimAt",
          "type": "uint256"
        },
        {
          "internalType": "uint256",
          "name": "claimedRewards",
          "type": "uint256"
        },
        {
          "internalType": "enum IStaking.StakeStatus",
          "name": "status",
          "type": "uint8"
        }
      ],
      "stateMutability": "view",
      "type": "function"
    },
    {
      "inputs": [],
      "name": "stakingToken",
      "outputs": [
        {
          "internalType": "contract IERC20",
          "name": "",
          "type": "address"
        }
      ],
      "stateMutability": "view",
      "type": "function"
    },
    {
      "inputs": [],
      "name": "totalPlatformStaked",
      "outputs": [
        {
          "internalType": "uint256",
          "name": "",
          "type": "uint256"
        }
      ],
      "stateMutability": "view",
      "type": "function"
    },
    {
      "inputs": [],
      "name": "totalPlatformStakers",
      "outputs": [
        {
          "internalType": "uint256",
          "name": "",
          "type": "uint256"
        }
      ],
      "stateMutability": "view",
      "type": "function"
    },
    {
      "inputs": [],
      "name": "totalRewardsPaid",
      "outputs": [
        {
          "internalType": "uint256",
          "name": "",
          "type": "uint256"
        }
      ],
      "stateMutability": "view",
      "type": "function"
    },
    {
      "inputs": [
        {
          "internalType": "address",
          "name": "newOwner",
          "type": "address"
        }
      ],
      "name": "transferOwnership",
      "outputs": [],
      "stateMutability": "nonpayable",
      "type": "function"
    },
    {
      "inputs": [
        {
          "internalType": "uint256",
          "name": "stakeId",
          "type": "uint256"
        }
      ],
      "name": "unstake",
      "outputs": [],
      "stateMutability": "nonpayable",
      "type": "function"
    },
    {
      "inputs": [
        {
          "internalType": "uint256",
          "name": "poolId",
          "type": "uint256"
        },
        {
          "internalType": "uint256",
          "name": "newApyBps",
          "type": "uint256"
        },
        {
          "internalType": "bool",
          "name": "active",
          "type": "bool"
        }
      ],
      "name": "updatePool",
      "outputs": [],
      "stateMutability": "nonpayable",
      "type": "function"
    }
  ],
  "transactionHash": "0x9a440be942d74dee52f320a6c9efa8f7f1ef613e2fceaeb59bdf62659a0d3875",
  "args": [
    "0xEFaA690F939cac21Cdf197B83742c06FF95298b7"
  ],
  "numDeployments": 1,
  "solcInputHash": "893d8b688885d31d35e3b0fd6f1bd1ee",
  "bytecode": "0x60803461011357601f61190138819003918201601f19168301916001600160401b038311848410176101185780849260209460405283398101031261011357516001600160a01b03808216918290036101135733156100fa576000549060018060a01b0319913383821617600055604051913391167f8be0079c531659141344cd1fd0a4f28419497f9722a3daafe3b4186f6b6457e0600080a36001805582156100cb57506004541617600455600160025560016003556103e86005556040516117d2908161012f8239f35b62461bcd60e51b815260206004820152600a6024820152692d32b937903a37b5b2b760b11b6044820152606490fd5b604051631e4fbdf760e01b815260006004820152602490fd5b600080fd5b634e487b7160e01b600052604160045260246000fdfe608060408181526004908136101561001657600080fd5b600092833560e01c908163068bcd8d1461140f575080630962ef791461129757806309813482146111fb578063136d8883146111ac57806318e561311461118d578063241d5f18146110325780632e17de7814610e185780635312ea8e14610c725780635beec5fd14610c5357806368c3362714610c2657806369ab3e3214610b1c578063715018a614610ac25780637211bbc914610a9b57806372f702f314610a7357806374958e3514610a5457806375506c9614610a355780637b0472f0146106ff578063842e29811461064f5780638bdf67f21461053c5780638da5cb5b14610514578063aa5c3ab4146104f5578063aa5f7e26146103a2578063ac4afa381461033a578063ba70f092146102de578063d3ffe67a1461029e578063d5a44f8614610235578063d8b5d2a714610216578063dc6bf9d8146101f35763f2fde38b1461016357600080fd5b346101ef5760203660031901126101ef576001600160a01b038235818116939192908490036101eb57610194611799565b83156101d557505082546001600160a01b0319811683178455167f8be0079c531659141344cd1fd0a4f28419497f9722a3daafe3b4186f6b6457e08380a380f35b51631e4fbdf760e01b8152908101849052602490fd5b8480fd5b8280fd5b8382346102125781600319360112610212576020906008549051908152f35b5080fd5b8382346102125781600319360112610212576020906005549051908152f35b50823461029b57602036600319011261029b57816102979184358152600b602052209160018060a01b03835416926001810154946002820154906003830154908301549060058401549260ff60076006870154960154169551988998896114e5565b0390f35b80fd5b508290346102125781600319360112610212576002546000198101929083116102cb576020838351908152f35b634e487b7160e01b815260118452602490fd5b5090346101ef5760203660031901126101ef578035916102fc611799565b611388831161030d57505060055580f35b906020606492519162461bcd60e51b835282015260076024820152664d61782035302560c81b6044820152fd5b50823461029b57602036600319011261029b57816102979184358152600a602052209160ff83541692600181015494600282015490600383015490830154600584015490600685015492600786015494600960ff60088901541697015497519a8b9a8b611499565b50346101ef5760203660031901126101ef578135916103bf611702565b828452600b602052818420906103df60018060a01b03835416331461152c565b60ff6007830154169060038210156104e257507f8e1573009e597fe833c94add4c8d91c16e21fbf66f17404e1541a782b6f36ce4916104216104d89215611565565b61042a85611725565b9061043682151561159e565b6104448260075410156115d7565b4260058201556006810161045983825461161a565b90556001600282019161046d84845461161a565b835561047b8460075461163d565b60075561048a8460065461161a565b60065501548752600a6020526005858820016104a783825461161a565b90556104b58260085461161a565b600855549351908152602081019390935242604084015233929081906060820190565b0390a36001805580f35b634e487b7160e01b865260219052602485fd5b8382346102125781600319360112610212576020906007549051908152f35b838234610212578160031936011261021257905490516001600160a01b039091168152602090f35b5082903461021257602090816003193601126101ef57833591821561061f57845482516323b872dd60e01b8152339681019687523060208801526040870185905294958291869182900360600190829089906001600160a01b03165af1938415610615577f6e8a19c7bcac2f8ca75d80a333a2cfffd851001c55ba805c58cc66c70d92bd7493946105e8575b506105d58460075461161a565b600755815193845242908401523392a280f35b61060790823d841161060e575b6105ff818361164a565b810190611682565b50856105c8565b503d6105f5565b82513d87823e3d90fd5b8490606492519162461bcd60e51b8352820152600b60248201526a16995c9bc8185b5bdd5b9d60aa1b6044820152fd5b50913461029b576020918260031936011261021257356001600160a01b03811690819003610212578193929352600c8352818120908251808584549182815201908194845286842090845b8181106106eb57505050816106b091038261164a565b83519485948186019282875251809352850193925b8281106106d457505050500390f35b8351855286955093810193928101926001016106c5565b82548452928801926001928301920161069a565b50346101ef57806003193601126101ef578135602492833590610720611702565b828652602095600a87528481209560ff60088801541615610a0457600287015484106109d757600387015480159081156109cc575b501561099f5760078701548015908115610987575b501561095a57825486516323b872dd60e01b8152338186019081523060208201526040810187905290918a9183916001600160a01b03169082908790829060600103925af1801561095057610933575b50600354966107c88861169f565b600355878352600b8952868320336bffffffffffffffffffffffff60a01b82541617815586600182015585600282015542600382015584820154801580156000146109255762015180808302928304141715610913576006929161082e6007924261161a565b878201554260058201550160ff1981541690556005810161085087825461161a565b90550161085d815461169f565b905561086b8460085461161a565b60085561087960095461169f565b600955338252600c8852858220908154936801000000000000000085101561090257600185018084558510156108f157505091878288969594879452200155835190815242868201527f9cfd25589d1eb8ad71e342a86a8524e83522e3936c0803048c08f6d9ad974f40843392a46001805551908152f35b634e487b7160e01b84526032905282fd5b634e487b7160e01b84526041905282fd5b634e487b7160e01b8552601186528385fd5b50509060076006928561082e565b61094990893d8b1161060e576105ff818361164a565b50386107ba565b87513d85823e3d90fd5b8260096064928a89519362461bcd60e51b855284015282015268141bdbdb08199d5b1b60ba1b6044820152fd5b90506109978560058a015461161a565b11153861076a565b8260096064928a89519362461bcd60e51b855284015282015268082c4deecca40dac2f60bb1b6044820152fd5b905084111538610755565b8260096064928a89519362461bcd60e51b8552840152820152682132b637bb9036b4b760b91b6044820152fd5b82600d6064928a89519362461bcd60e51b85528401528201526c506f6f6c20696e61637469766560981b6044820152fd5b8382346102125781600319360112610212576020906003549051908152f35b8382346102125781600319360112610212576020906006549051908152f35b5090346101ef57826003193601126101ef575490516001600160a01b03909116815260209150f35b50823461029b57602036600319011261029b5750610abb602092356116ce565b9051908152f35b833461029b578060031936011261029b57610adb611799565b80546001600160a01b03198116825581906001600160a01b03167f8be0079c531659141344cd1fd0a4f28419497f9722a3daafe3b4186f6b6457e08280a380f35b5090346101ef5760603660031901126101ef578035916024359160443590811515809203610c2257610b4c611799565b848652600a60205282862090600982015415610bee5761c3508511610bbc57509183916008847f876f2fd71adef90eb6722577f05441562e25e26d9a752efa67ca51607fd8ad8196600160609701550160ff1981541660ff8316179055815192835260208301524290820152a280f35b606490602085519162461bcd60e51b8352820152600c60248201526b082a0b240e8dede40d0d2ced60a31b6044820152fd5b606490602085519162461bcd60e51b8352820152600e60248201526d141bdbdb081b9bdd08199bdd5b9960921b6044820152fd5b8580fd5b508290346102125781600319360112610212576003546000198101929083116102cb576020838351908152f35b8382346102125781600319360112610212576020906009549051908152f35b5082903461021257602090816003193601126101ef57833591610c93611702565b828452600b815281842080546001600160a01b039190610cb6908316331461152c565b6007810160ff8154166003811015610e05579680988594610d8594889794610ce2610d059b9c15611565565b610d3c6002830160068154612710610cfc600554836116ae565b049e8f8261163d565b9d8e9960018801548152600a8c522090610d246005830191825461163d565b905501610d3181546116c1565b90555460085461163d565b600855600260ff19825416179055600542910155815416908a875180968195829463a9059cbb60e01b84523390840160209093929193604081019460018060a01b031681520152565b03925af18015610dfb57916104d893917fc3ae420708f3574e47faed23b534a8e674d4e336521eba18f49bc3ba786117e79593610ddd575b505051908152602081019390935242604084015233929081906060820190565b81610df392903d1061060e576105ff818361164a565b508780610dbd565b83513d89823e3d90fd5b634e487b7160e01b885260218952602488fd5b5090346101ef576020908160031936011261102e57803592610e38611702565b838552600b83528085209260018060a01b03610e5881865416331461152c565b600785019384549460ff8616600381101561101b57610e779015611565565b60018701548952600a8452848920828801548015159081611011575b50610e9d8a611725565b9860028101938454998a93610fd8575b93610eec938c610edb6006610f349b9996819660018f9d9b60ff19161790554260058201550191825461161a565b9055610d246005830191825461163d565b600855610ef9888861161a565b9188610fa9575b8154875163a9059cbb60e01b815233938101938452602084019490945292948593919091169183918c918391604090910190565b03925af18015610dfb57916104d893917fdcfd2b4017d03f7e541021db793b2f9b31e4acdee005f789e52853c390e3e9629593610f8b57505051908152602081019390935242604084015233929081906060820190565b81610fa192903d1061060e576105ff818361164a565b503880610dbd565b610fc189600754610fbc828210156115d7565b61163d565b600755610fd08960065461161a565b600655610f00565b90929a508795939960059795929754610ff190826116ae565b6127109004610fff9161163d565b998d9b93919094965096919496610ead565b9050421038610e93565b634e487b7160e01b8a526021835260248afd5b8380fd5b50823461029b5760c036600319011261029b578235600581101561021257608435604435602435611061611799565b80151580611181575b1561115157811561112457927f9f437e0fe5f816624873d0a88f045ae603420c959c6370f92dcfd6b3e1d417109260a092879695602099600254998a986110b08a61169f565b600255898152600a8d5220908460ff19918284541660ff8916178455846001850155856002850155606435600385015583015560a43560078301556001600883019182541617905560094291015561110a88518095611476565b89840152868301526060820152426080820152a251908152f35b855162461bcd60e51b8152602081890152600760248201526604d696e203e20360cc1b6044820152606490fd5b855162461bcd60e51b8152602081890152600a60248201526941505920302d3530302560b01b6044820152606490fd5b5061c35081111561106a565b8382346102125781600319360112610212576020906002549051908152f35b508290346102125781600319360112610212576002546000198101929083116102cb5760a083836008549060095460065491600754938151958652602086015284015260608301526080820152f35b5090346101ef5760203660031901126101ef57803592838152600b6020528281209260ff60078501541691600383101561128457610297939495831560001461127d576112489150611725565b945b8054600182015460028301546003840154978401546005909401549451988998939092906001600160a01b0316896114e5565b509461124a565b634e487b7160e01b815260218452602490fd5b5082903461021257602090816003193601126101ef578335916112b8611702565b828452600b815281842080546001600160a01b03906112da908216331461152c565b60ff60078301541660038110156113fc579261138c95949288829361130160069715611565565b61130a88611725565b96879361131885151561159e565b6113268560075410156115d7565b4260058201550161133884825461161a565b90556113468360075461163d565b6007556113558360065461161a565b6006558154865163a9059cbb60e01b815233938101938452602084019490945292988993919091169183918b918391604090910190565b03925af19485156113f2577f56253d287efacdb2c4cd76dd03624a4821c1ce721d1152e8f5f5718f6087c9bf9394956113d5575b50815193845242908401523392a36001805580f35b6113eb90823d841161060e576105ff818361164a565b50866113c0565b82513d88823e3d90fd5b634e487b7160e01b875260218852602487fd5b929190503461102e57602036600319011261102e579061029791839482358152600a6020522060ff81541691600182015490600283015490600384015490840154600585015491600686015493600787015495600960ff60088a015416980154988b611499565b9060058210156114835752565b634e487b7160e01b600052602160045260246000fd5b9693909a999895926101209895926114b68961014081019e611476565b602089015260408801526060870152608086015260a085015260c084015260e083015215156101008201520152565b9593919897969492909861010087019960018060a01b03168752602087015260408601526060850152608084015260a083015260c082015260038210156114835760e00152565b1561153357565b60405162461bcd60e51b815260206004820152600a6024820152692737ba1039ba30b5b2b960b11b6044820152606490fd5b1561156c57565b60405162461bcd60e51b815260206004820152600a6024820152694e6f742061637469766560b01b6044820152606490fd5b156115a557565b60405162461bcd60e51b815260206004820152600a6024820152694e6f207265776172647360b01b6044820152606490fd5b156115de57565b60405162461bcd60e51b8152602060048201526014602482015273496e73756666696369656e74207265776172647360601b6044820152606490fd5b9190820180921161162757565b634e487b7160e01b600052601160045260246000fd5b9190820391821161162757565b90601f8019910116810190811067ffffffffffffffff82111761166c57604052565b634e487b7160e01b600052604160045260246000fd5b9081602091031261169a5751801515810361169a5790565b600080fd5b60001981146116275760010190565b8181029291811591840414171561162757565b8015611627576000190190565b80600052600b60205260ff600760406000200154166003811015611483576116fc576116f990611725565b90565b50600090565b600260015414611713576002600155565b604051633ee5aeb560e01b8152600490fd5b600052600b60205260406000206001810154600052600a602052604060002061175260058301544261163d565b8015801561178d575b6117855761177c611781926001600264496cebb800960154910154906116ae565b6116ae565b0490565b505050600090565b5060028301541561175b565b6000546001600160a01b031633036117ad57565b60405163118cdaa760e01b8152336004820152602490fdfea164736f6c6343000818000a",
  "devdoc": {
    "author": "VNDC Education Platform",
    "details": "Module 018  counters start at 1, Ownable(msg.sender)",
    "errors": {
      "OwnableInvalidOwner(address)": [
        {
          "details": "The owner is not a valid owner account. (eg. `address(0)`)"
        }
      ],
      "OwnableUnauthorizedAccount(address)": [
        {
          "details": "The caller account is not authorized to perform an operation."
        }
      ],
      "ReentrancyGuardReentrantCall()": [
        {
          "details": "Unauthorized reentrant call."
        }
      ]
    },
    "kind": "dev",
    "methods": {
      "owner()": {
        "details": "Returns the address of the current owner."
      },
      "renounceOwnership()": {
        "details": "Leaves the contract without owner. It will not be possible to call `onlyOwner` functions. Can only be called by the current owner. NOTE: Renouncing ownership will leave the contract without an owner, thereby disabling any functionality that is only available to the owner."
      },
      "transferOwnership(address)": {
        "details": "Transfers ownership of the contract to a new account (`newOwner`). Can only be called by the current owner."
      }
    },
    "title": "StakingPool",
    "version": 1
  },
  "userdoc": {
    "kind": "user",
    "methods": {},
    "notice": "Campus staking pool  stake VNDC tokens to earn APY rewards.         Supports flexible & fixed-term pools, compound interest,         early-withdrawal penalties, and an on-chain reward treasury.",
    "version": 1
  },
  "storageLayout": {
    "storage": [
      {
        "astId": 8,
        "contract": "contracts/modules/018-staking/StakingPool.sol:StakingPool",
        "label": "_owner",
        "offset": 0,
        "slot": "0",
        "type": "t_address"
      },
      {
        "astId": 266,
        "contract": "contracts/modules/018-staking/StakingPool.sol:StakingPool",
        "label": "_status",
        "offset": 0,
        "slot": "1",
        "type": "t_uint256"
      },
      {
        "astId": 599,
        "contract": "contracts/modules/018-staking/StakingPool.sol:StakingPool",
        "label": "nextPoolId",
        "offset": 0,
        "slot": "2",
        "type": "t_uint256"
      },
      {
        "astId": 601,
        "contract": "contracts/modules/018-staking/StakingPool.sol:StakingPool",
        "label": "nextStakeId",
        "offset": 0,
        "slot": "3",
        "type": "t_uint256"
      },
      {
        "astId": 604,
        "contract": "contracts/modules/018-staking/StakingPool.sol:StakingPool",
        "label": "stakingToken",
        "offset": 0,
        "slot": "4",
        "type": "t_contract(IERC20)225"
      },
      {
        "astId": 606,
        "contract": "contracts/modules/018-staking/StakingPool.sol:StakingPool",
        "label": "earlyWithdrawPenaltyBps",
        "offset": 0,
        "slot": "5",
        "type": "t_uint256"
      },
      {
        "astId": 608,
        "contract": "contracts/modules/018-staking/StakingPool.sol:StakingPool",
        "label": "totalRewardsPaid",
        "offset": 0,
        "slot": "6",
        "type": "t_uint256"
      },
      {
        "astId": 610,
        "contract": "contracts/modules/018-staking/StakingPool.sol:StakingPool",
        "label": "rewardBalance",
        "offset": 0,
        "slot": "7",
        "type": "t_uint256"
      },
      {
        "astId": 612,
        "contract": "contracts/modules/018-staking/StakingPool.sol:StakingPool",
        "label": "totalPlatformStaked",
        "offset": 0,
        "slot": "8",
        "type": "t_uint256"
      },
      {
        "astId": 614,
        "contract": "contracts/modules/018-staking/StakingPool.sol:StakingPool",
        "label": "totalPlatformStakers",
        "offset": 0,
        "slot": "9",
        "type": "t_uint256"
      },
      {
        "astId": 659,
        "contract": "contracts/modules/018-staking/StakingPool.sol:StakingPool",
        "label": "pools",
        "offset": 0,
        "slot": "10",
        "type": "t_mapping(t_uint256,t_struct(Pool)636_storage)"
      },
      {
        "astId": 664,
        "contract": "contracts/modules/018-staking/StakingPool.sol:StakingPool",
        "label": "stakes",
        "offset": 0,
        "slot": "11",
        "type": "t_mapping(t_uint256,t_struct(StakeRecord)654_storage)"
      },
      {
        "astId": 669,
        "contract": "contracts/modules/018-staking/StakingPool.sol:StakingPool",
        "label": "_userStakes",
        "offset": 0,
        "slot": "12",
        "type": "t_mapping(t_address,t_array(t_uint256)dyn_storage)"
      }
    ],
    "types": {
      "t_address": {
        "encoding": "inplace",
        "label": "address",
        "numberOfBytes": "20"
      },
      "t_array(t_uint256)dyn_storage": {
        "base": "t_uint256",
        "encoding": "dynamic_array",
        "label": "uint256[]",
        "numberOfBytes": "32"
      },
      "t_bool": {
        "encoding": "inplace",
        "label": "bool",
        "numberOfBytes": "1"
      },
      "t_contract(IERC20)225": {
        "encoding": "inplace",
        "label": "contract IERC20",
        "numberOfBytes": "20"
      },
      "t_enum(PoolType)333": {
        "encoding": "inplace",
        "label": "enum IStaking.PoolType",
        "numberOfBytes": "1"
      },
      "t_enum(StakeStatus)337": {
        "encoding": "inplace",
        "label": "enum IStaking.StakeStatus",
        "numberOfBytes": "1"
      },
      "t_mapping(t_address,t_array(t_uint256)dyn_storage)": {
        "encoding": "mapping",
        "key": "t_address",
        "label": "mapping(address => uint256[])",
        "numberOfBytes": "32",
        "value": "t_array(t_uint256)dyn_storage"
      },
      "t_mapping(t_uint256,t_struct(Pool)636_storage)": {
        "encoding": "mapping",
        "key": "t_uint256",
        "label": "mapping(uint256 => struct StakingPool.Pool)",
        "numberOfBytes": "32",
        "value": "t_struct(Pool)636_storage"
      },
      "t_mapping(t_uint256,t_struct(StakeRecord)654_storage)": {
        "encoding": "mapping",
        "key": "t_uint256",
        "label": "mapping(uint256 => struct StakingPool.StakeRecord)",
        "numberOfBytes": "32",
        "value": "t_struct(StakeRecord)654_storage"
      },
      "t_struct(Pool)636_storage": {
        "encoding": "inplace",
        "label": "struct StakingPool.Pool",
        "members": [
          {
            "astId": 617,
            "contract": "contracts/modules/018-staking/StakingPool.sol:StakingPool",
            "label": "poolType",
            "offset": 0,
            "slot": "0",
            "type": "t_enum(PoolType)333"
          },
          {
            "astId": 619,
            "contract": "contracts/modules/018-staking/StakingPool.sol:StakingPool",
            "label": "apyBps",
            "offset": 0,
            "slot": "1",
            "type": "t_uint256"
          },
          {
            "astId": 621,
            "contract": "contracts/modules/018-staking/StakingPool.sol:StakingPool",
            "label": "minStake",
            "offset": 0,
            "slot": "2",
            "type": "t_uint256"
          },
          {
            "astId": 623,
            "contract": "contracts/modules/018-staking/StakingPool.sol:StakingPool",
            "label": "maxStake",
            "offset": 0,
            "slot": "3",
            "type": "t_uint256"
          },
          {
            "astId": 625,
            "contract": "contracts/modules/018-staking/StakingPool.sol:StakingPool",
            "label": "lockDays",
            "offset": 0,
            "slot": "4",
            "type": "t_uint256"
          },
          {
            "astId": 627,
            "contract": "contracts/modules/018-staking/StakingPool.sol:StakingPool",
            "label": "totalStaked",
            "offset": 0,
            "slot": "5",
            "type": "t_uint256"
          },
          {
            "astId": 629,
            "contract": "contracts/modules/018-staking/StakingPool.sol:StakingPool",
            "label": "totalStakers",
            "offset": 0,
            "slot": "6",
            "type": "t_uint256"
          },
          {
            "astId": 631,
            "contract": "contracts/modules/018-staking/StakingPool.sol:StakingPool",
            "label": "maxCapacity",
            "offset": 0,
            "slot": "7",
            "type": "t_uint256"
          },
          {
            "astId": 633,
            "contract": "contracts/modules/018-staking/StakingPool.sol:StakingPool",
            "label": "active",
            "offset": 0,
            "slot": "8",
            "type": "t_bool"
          },
          {
            "astId": 635,
            "contract": "contracts/modules/018-staking/StakingPool.sol:StakingPool",
            "label": "createdAt",
            "offset": 0,
            "slot": "9",
            "type": "t_uint256"
          }
        ],
        "numberOfBytes": "320"
      },
      "t_struct(StakeRecord)654_storage": {
        "encoding": "inplace",
        "label": "struct StakingPool.StakeRecord",
        "members": [
          {
            "astId": 638,
            "contract": "contracts/modules/018-staking/StakingPool.sol:StakingPool",
            "label": "staker",
            "offset": 0,
            "slot": "0",
            "type": "t_address"
          },
          {
            "astId": 640,
            "contract": "contracts/modules/018-staking/StakingPool.sol:StakingPool",
            "label": "poolId",
            "offset": 0,
            "slot": "1",
            "type": "t_uint256"
          },
          {
            "astId": 642,
            "contract": "contracts/modules/018-staking/StakingPool.sol:StakingPool",
            "label": "principal",
            "offset": 0,
            "slot": "2",
            "type": "t_uint256"
          },
          {
            "astId": 644,
            "contract": "contracts/modules/018-staking/StakingPool.sol:StakingPool",
            "label": "stakedAt",
            "offset": 0,
            "slot": "3",
            "type": "t_uint256"
          },
          {
            "astId": 646,
            "contract": "contracts/modules/018-staking/StakingPool.sol:StakingPool",
            "label": "unlockAt",
            "offset": 0,
            "slot": "4",
            "type": "t_uint256"
          },
          {
            "astId": 648,
            "contract": "contracts/modules/018-staking/StakingPool.sol:StakingPool",
            "label": "lastClaimAt",
            "offset": 0,
            "slot": "5",
            "type": "t_uint256"
          },
          {
            "astId": 650,
            "contract": "contracts/modules/018-staking/StakingPool.sol:StakingPool",
            "label": "claimedRewards",
            "offset": 0,
            "slot": "6",
            "type": "t_uint256"
          },
          {
            "astId": 653,
            "contract": "contracts/modules/018-staking/StakingPool.sol:StakingPool",
            "label": "status",
            "offset": 0,
            "slot": "7",
            "type": "t_enum(StakeStatus)337"
          }
        ],
        "numberOfBytes": "256"
      },
      "t_uint256": {
        "encoding": "inplace",
        "label": "uint256",
        "numberOfBytes": "32"
      }
    }
  }
}