{
  "address": "0x5eCF36478E3989705972775E1A443F53c7c43532",
  "abi": [
    {
      "inputs": [],
      "stateMutability": "nonpayable",
      "type": "constructor"
    },
    {
      "inputs": [
        {
          "internalType": "address",
          "name": "owner",
          "type": "address"
        }
      ],
      "name": "OwnableInvalidOwner",
      "type": "error"
    },
    {
      "inputs": [
        {
          "internalType": "address",
          "name": "account",
          "type": "address"
        }
      ],
      "name": "OwnableUnauthorizedAccount",
      "type": "error"
    },
    {
      "anonymous": false,
      "inputs": [
        {
          "indexed": true,
          "internalType": "address",
          "name": "member",
          "type": "address"
        },
        {
          "indexed": false,
          "internalType": "uint256",
          "name": "votingPower",
          "type": "uint256"
        },
        {
          "indexed": false,
          "internalType": "uint256",
          "name": "timestamp",
          "type": "uint256"
        }
      ],
      "name": "MemberJoined",
      "type": "event"
    },
    {
      "anonymous": false,
      "inputs": [
        {
          "indexed": true,
          "internalType": "address",
          "name": "member",
          "type": "address"
        },
        {
          "indexed": false,
          "internalType": "uint256",
          "name": "timestamp",
          "type": "uint256"
        }
      ],
      "name": "MemberRemoved",
      "type": "event"
    },
    {
      "anonymous": false,
      "inputs": [
        {
          "indexed": true,
          "internalType": "address",
          "name": "previousOwner",
          "type": "address"
        },
        {
          "indexed": true,
          "internalType": "address",
          "name": "newOwner",
          "type": "address"
        }
      ],
      "name": "OwnershipTransferred",
      "type": "event"
    },
    {
      "anonymous": false,
      "inputs": [
        {
          "indexed": true,
          "internalType": "uint256",
          "name": "proposalId",
          "type": "uint256"
        },
        {
          "indexed": false,
          "internalType": "uint256",
          "name": "timestamp",
          "type": "uint256"
        }
      ],
      "name": "ProposalCancelled",
      "type": "event"
    },
    {
      "anonymous": false,
      "inputs": [
        {
          "indexed": true,
          "internalType": "uint256",
          "name": "proposalId",
          "type": "uint256"
        },
        {
          "indexed": true,
          "internalType": "address",
          "name": "proposer",
          "type": "address"
        },
        {
          "indexed": false,
          "internalType": "string",
          "name": "title",
          "type": "string"
        },
        {
          "indexed": false,
          "internalType": "string",
          "name": "description",
          "type": "string"
        },
        {
          "indexed": false,
          "internalType": "uint256",
          "name": "timestamp",
          "type": "uint256"
        }
      ],
      "name": "ProposalCreated",
      "type": "event"
    },
    {
      "anonymous": false,
      "inputs": [
        {
          "indexed": true,
          "internalType": "uint256",
          "name": "proposalId",
          "type": "uint256"
        },
        {
          "indexed": false,
          "internalType": "uint256",
          "name": "timestamp",
          "type": "uint256"
        }
      ],
      "name": "ProposalExecuted",
      "type": "event"
    },
    {
      "anonymous": false,
      "inputs": [
        {
          "indexed": true,
          "internalType": "uint256",
          "name": "proposalId",
          "type": "uint256"
        },
        {
          "indexed": true,
          "internalType": "address",
          "name": "voter",
          "type": "address"
        },
        {
          "indexed": false,
          "internalType": "bool",
          "name": "support",
          "type": "bool"
        },
        {
          "indexed": false,
          "internalType": "uint256",
          "name": "weight",
          "type": "uint256"
        }
      ],
      "name": "Voted",
      "type": "event"
    },
    {
      "anonymous": false,
      "inputs": [
        {
          "indexed": true,
          "internalType": "uint256",
          "name": "proposalId",
          "type": "uint256"
        },
        {
          "indexed": false,
          "internalType": "bool",
          "name": "approved",
          "type": "bool"
        },
        {
          "indexed": false,
          "internalType": "uint256",
          "name": "timestamp",
          "type": "uint256"
        }
      ],
      "name": "VotingPeriodEnded",
      "type": "event"
    },
    {
      "inputs": [
        {
          "internalType": "address",
          "name": "member",
          "type": "address"
        },
        {
          "internalType": "uint256",
          "name": "votingPower",
          "type": "uint256"
        }
      ],
      "name": "addMember",
      "outputs": [],
      "stateMutability": "nonpayable",
      "type": "function"
    },
    {
      "inputs": [
        {
          "internalType": "uint256",
          "name": "proposalId",
          "type": "uint256"
        }
      ],
      "name": "cancelProposal",
      "outputs": [],
      "stateMutability": "nonpayable",
      "type": "function"
    },
    {
      "inputs": [
        {
          "internalType": "string",
          "name": "title",
          "type": "string"
        },
        {
          "internalType": "string",
          "name": "description",
          "type": "string"
        },
        {
          "internalType": "string",
          "name": "proposalType",
          "type": "string"
        },
        {
          "internalType": "bytes",
          "name": "callData",
          "type": "bytes"
        }
      ],
      "name": "createProposal",
      "outputs": [
        {
          "internalType": "uint256",
          "name": "proposalId",
          "type": "uint256"
        }
      ],
      "stateMutability": "nonpayable",
      "type": "function"
    },
    {
      "inputs": [
        {
          "internalType": "uint256",
          "name": "proposalId",
          "type": "uint256"
        }
      ],
      "name": "executeProposal",
      "outputs": [],
      "stateMutability": "nonpayable",
      "type": "function"
    },
    {
      "inputs": [],
      "name": "getActiveProposals",
      "outputs": [
        {
          "internalType": "uint256[]",
          "name": "",
          "type": "uint256[]"
        }
      ],
      "stateMutability": "view",
      "type": "function"
    },
    {
      "inputs": [
        {
          "internalType": "address",
          "name": "member",
          "type": "address"
        }
      ],
      "name": "getMember",
      "outputs": [
        {
          "components": [
            {
              "internalType": "address",
              "name": "memberAddress",
              "type": "address"
            },
            {
              "internalType": "uint256",
              "name": "votingPower",
              "type": "uint256"
            },
            {
              "internalType": "uint256",
              "name": "joinDate",
              "type": "uint256"
            },
            {
              "internalType": "bool",
              "name": "isActive",
              "type": "bool"
            },
            {
              "internalType": "uint256",
              "name": "proposalsCreated",
              "type": "uint256"
            },
            {
              "internalType": "uint256",
              "name": "votesParticipated",
              "type": "uint256"
            }
          ],
          "internalType": "struct IStudentDAO.Member",
          "name": "",
          "type": "tuple"
        }
      ],
      "stateMutability": "view",
      "type": "function"
    },
    {
      "inputs": [
        {
          "internalType": "uint256",
          "name": "proposalId",
          "type": "uint256"
        }
      ],
      "name": "getProposal",
      "outputs": [
        {
          "components": [
            {
              "internalType": "uint256",
              "name": "proposalId",
              "type": "uint256"
            },
            {
              "internalType": "address",
              "name": "proposer",
              "type": "address"
            },
            {
              "internalType": "string",
              "name": "title",
              "type": "string"
            },
            {
              "internalType": "string",
              "name": "description",
              "type": "string"
            },
            {
              "internalType": "uint256",
              "name": "createdAt",
              "type": "uint256"
            },
            {
              "internalType": "uint256",
              "name": "votesFor",
              "type": "uint256"
            },
            {
              "internalType": "uint256",
              "name": "votesAgainst",
              "type": "uint256"
            },
            {
              "internalType": "bool",
              "name": "executed",
              "type": "bool"
            },
            {
              "internalType": "bool",
              "name": "cancelled",
              "type": "bool"
            },
            {
              "internalType": "uint256",
              "name": "votingEndTime",
              "type": "uint256"
            },
            {
              "internalType": "string",
              "name": "proposalType",
              "type": "string"
            },
            {
              "internalType": "bytes",
              "name": "callData",
              "type": "bytes"
            }
          ],
          "internalType": "struct IStudentDAO.Proposal",
          "name": "",
          "type": "tuple"
        }
      ],
      "stateMutability": "view",
      "type": "function"
    },
    {
      "inputs": [
        {
          "internalType": "uint256",
          "name": "proposalId",
          "type": "uint256"
        }
      ],
      "name": "getProposalVotes",
      "outputs": [
        {
          "internalType": "uint256",
          "name": "votesFor",
          "type": "uint256"
        },
        {
          "internalType": "uint256",
          "name": "votesAgainst",
          "type": "uint256"
        }
      ],
      "stateMutability": "view",
      "type": "function"
    },
    {
      "inputs": [],
      "name": "getTotalMembers",
      "outputs": [
        {
          "internalType": "uint256",
          "name": "",
          "type": "uint256"
        }
      ],
      "stateMutability": "view",
      "type": "function"
    },
    {
      "inputs": [],
      "name": "getTotalProposals",
      "outputs": [
        {
          "internalType": "uint256",
          "name": "",
          "type": "uint256"
        }
      ],
      "stateMutability": "view",
      "type": "function"
    },
    {
      "inputs": [],
      "name": "getTotalVotingPower",
      "outputs": [
        {
          "internalType": "uint256",
          "name": "",
          "type": "uint256"
        }
      ],
      "stateMutability": "view",
      "type": "function"
    },
    {
      "inputs": [],
      "name": "getVotingPeriod",
      "outputs": [
        {
          "internalType": "uint256",
          "name": "",
          "type": "uint256"
        }
      ],
      "stateMutability": "view",
      "type": "function"
    },
    {
      "inputs": [
        {
          "internalType": "address",
          "name": "member",
          "type": "address"
        }
      ],
      "name": "getVotingPower",
      "outputs": [
        {
          "internalType": "uint256",
          "name": "",
          "type": "uint256"
        }
      ],
      "stateMutability": "view",
      "type": "function"
    },
    {
      "inputs": [
        {
          "internalType": "uint256",
          "name": "proposalId",
          "type": "uint256"
        },
        {
          "internalType": "address",
          "name": "member",
          "type": "address"
        }
      ],
      "name": "hasVoted",
      "outputs": [
        {
          "internalType": "bool",
          "name": "",
          "type": "bool"
        }
      ],
      "stateMutability": "view",
      "type": "function"
    },
    {
      "inputs": [
        {
          "internalType": "address",
          "name": "member",
          "type": "address"
        }
      ],
      "name": "isMember",
      "outputs": [
        {
          "internalType": "bool",
          "name": "",
          "type": "bool"
        }
      ],
      "stateMutability": "view",
      "type": "function"
    },
    {
      "inputs": [
        {
          "internalType": "uint256",
          "name": "proposalId",
          "type": "uint256"
        }
      ],
      "name": "isProposalApproved",
      "outputs": [
        {
          "internalType": "bool",
          "name": "",
          "type": "bool"
        }
      ],
      "stateMutability": "view",
      "type": "function"
    },
    {
      "inputs": [],
      "name": "owner",
      "outputs": [
        {
          "internalType": "address",
          "name": "",
          "type": "address"
        }
      ],
      "stateMutability": "view",
      "type": "function"
    },
    {
      "inputs": [
        {
          "internalType": "address",
          "name": "member",
          "type": "address"
        }
      ],
      "name": "removeMember",
      "outputs": [],
      "stateMutability": "nonpayable",
      "type": "function"
    },
    {
      "inputs": [],
      "name": "renounceOwnership",
      "outputs": [],
      "stateMutability": "nonpayable",
      "type": "function"
    },
    {
      "inputs": [
        {
          "internalType": "uint256",
          "name": "quorumPercentage_",
          "type": "uint256"
        }
      ],
      "name": "setQuorum",
      "outputs": [],
      "stateMutability": "nonpayable",
      "type": "function"
    },
    {
      "inputs": [
        {
          "internalType": "uint256",
          "name": "durationInSeconds",
          "type": "uint256"
        }
      ],
      "name": "setVotingPeriod",
      "outputs": [],
      "stateMutability": "nonpayable",
      "type": "function"
    },
    {
      "inputs": [
        {
          "internalType": "address",
          "name": "newOwner",
          "type": "address"
        }
      ],
      "name": "transferOwnership",
      "outputs": [],
      "stateMutability": "nonpayable",
      "type": "function"
    },
    {
      "inputs": [
        {
          "internalType": "address",
          "name": "member",
          "type": "address"
        },
        {
          "internalType": "uint256",
          "name": "newVotingPower",
          "type": "uint256"
        }
      ],
      "name": "updateVotingPower",
      "outputs": [],
      "stateMutability": "nonpayable",
      "type": "function"
    },
    {
      "inputs": [
        {
          "internalType": "uint256",
          "name": "proposalId",
          "type": "uint256"
        },
        {
          "internalType": "bool",
          "name": "support",
          "type": "bool"
        }
      ],
      "name": "vote",
      "outputs": [],
      "stateMutability": "nonpayable",
      "type": "function"
    }
  ],
  "transactionHash": "0x4f9a593b9533213507c088e7c068f14b3d9feafe9d134752961635eb01363229",
  "args": [],
  "numDeployments": 1,
  "solcInputHash": "c0f86880a252e9198762e34a018231aa",
  "bytecode": "0x6080604090808252346102485733156102325750600080546001600160a01b03198082163390811784556001600160a01b0393919284167f8be0079c531659141344cd1fd0a4f28419497f9722a3daafe3b4186f6b6457e08380a360019182805562093a80600255603260035581600b553382526020926006845260ff86842054166101fd5733835260068452858320805460ff19908116831790915586519060c082016001600160401b038111838210176101e9578689600593889382523386528286019a683635c9adc5dea000009b8c81528388019142835260608901948a86528860808b019789895260a08c0199808b52339052528c209851168a895416178855518888015551600287015560ff60038701925115159183541691161790555160048401555191015560095490680100000000000000008210156101d5578101806009558110156101c1576009835283832001903390825416179055600b54908382018092116101ad5750600b55825191825242908201527fab585a62abffb5c5f3221cacd949f94b54770198cc25af3ad1d315e51be8e3e3823392a251611c6790816200024e8239f35b634e487b7160e01b81526011600452602490fd5b634e487b7160e01b83526032600452602483fd5b634e487b7160e01b84526041600452602484fd5b634e487b7160e01b86526041600452602486fd5b855162461bcd60e51b815260048101859052600e60248201526d20b63932b0b23c9036b2b6b132b960911b6044820152606490fd5b631e4fbdf760e01b815260006004820152602490fd5b600080fdfe6080604052600436101561001257600080fd5b60003560e01c80630b1ca49a1461180e5780630d61b5191461167557806311acc1a7146116575780631923aa9d146110d55780631a5007dd146110b75780632ada259614610fc15780633ecc6a4314610fa35780634385963214610f3757806347c6614014610ee65780635584c4f914610d64578063715018a614610d0b5780638da5cb5b14610ce25780638f18030514610cc457806398041ea314610a9d5780639abcc0cc14610a4e578063a230c524146109f1578063bb4d4436146109b4578063c1ba4e5914610944578063c7f758a814610702578063c9d27afe146103ba578063e0a8f6f514610292578063ea0217cf14610233578063eadc29c7146101b25763f2fde38b1461012457600080fd5b346101ad5760203660031901126101ad5761013d6118c0565b610145611c2e565b6001600160a01b0390811690811561019457600054826001600160601b0360a01b821617600055167f8be0079c531659141344cd1fd0a4f28419497f9722a3daafe3b4186f6b6457e0600080a3005b604051631e4fbdf760e01b815260006004820152602490fd5b600080fd5b346101ad5760403660031901126101ad5761022e6101ce6118c0565b602435906101da611c2e565b6001600160a01b03166000818152600660205260409020546101fe9060ff16611943565b610209821515611beb565b600052600560205261022960016040600020018281549155600b5461197e565b611a81565b600b55005b346101ad5760203660031901126101ad5760043561024f611c2e565b801561025a57600255005b60405162461bcd60e51b815260206004820152601060248201526f24b73b30b634b210323ab930ba34b7b760811b6044820152606490fd5b346101ad576020806003193601126101ad576004359081600052600481526102c060406000205415156119a1565b81600052600481526040600020600781019081549060ff82166103755760010154336001600160a01b0391821614908115610367575b50156103335761ff0019166101001790556040514281527f5be67b1762c29673dceae3c1de04ecbf702ab0755c93f0fcc8aec5252df5a2b49190a2005b60405162461bcd60e51b815260048101849052600c60248201526b155b985d5d1a1bdc9a5e995960a21b6044820152606490fd5b9050600054163314856102f6565b60405162461bcd60e51b815260048101859052601f60248201527f43616e6e6f742063616e63656c2065786563757465642070726f706f73616c006044820152606490fd5b346101ad5760403660031901126101ad576004356024908135801515928382036101ad5733600052602090600682526103fa60ff60406000205416611943565b836000526004825261041260406000205415156119a1565b8360005260078252604060002033600052825260ff604060002054166106cf5783600052600482526040600020600781015460ff81161590816106c0575b501561068657600881015442101561064c57336000526005835260016040600020015493841561061657156106015760050161048d848254611a81565b90555b836000526007825260406000203360005282526040600020600160ff19825416179055836000526008825260406000206040519160a083018381106001600160401b038211176105ec57604052338352838301868152604084019088825260608501928784526080860194428652805491600160401b8310156105d857600183018083558310156105c457509160049594939161056d936000526005896000209102019660018060a01b039051166001600160601b0360a01b885416178755516001870155511515600286019060ff801983541691151516179055565b51600384015551910155336000526005815260056040600020016105918154611a1c565b90556040519384528301527f7c2de587c00d75474a0c6c6fa96fd3b45dc974cd4e8a75f712bb84c950dce1b560403393a3005b634e487b7160e01b60009081526032600452fd5b634e487b7160e01b60009081526041600452fd5b50634e487b7160e01b60009081526041600452fd5b60060161060f848254611a81565b9055610490565b60405162461bcd60e51b815260048101859052600f818501526e2737903b37ba34b733903837bbb2b960891b6044820152606490fd5b60405162461bcd60e51b81526004810184905260138184015272159bdd1a5b99c81c195c9a5bd908195b991959606a1b6044820152606490fd5b60405162461bcd60e51b8152600481018490526013818401527250726f706f73616c206e6f742061637469766560681b6044820152606490fd5b60ff915060081c161587610450565b90600d6064926040519262461bcd60e51b845260048401528201526c105b1c9958591e481d9bdd1959609a1b6044820152fd5b346101ad5760203660031901126101ad57600435606061016060405161072781611b01565b6000815260006020820152826040820152828082015260006080820152600060a0820152600060c0820152600060e08201526000610100820152600061012082015282610140820152015280600052600460205261078b60406000205415156119a1565b60005260046020526109406040600020600a61086d604051926107ad84611b01565b8054845260018101546001600160a01b031660208501526040516107df816107d88160028601611b55565b0382611b1d565b60408501526040516107f8816107d88160038601611b55565b606085015260048101546080850152600581015460a0850152600681015460c085015260ff6007820154818116151560e087015260081c1615156101008501526008810154610120850152604051610857816107d88160098601611b55565b6101408501526107d86040518094819301611b55565b610160820152604051918291602083528051602084015260018060a01b03602082015116604084015261016061092b6108d06108ba604085015161018060608901526101a0880190611903565b6060850151878203601f19016080890152611903565b608084015160a087015260a084015160c087015260c084015160e087015260e084015115156101008701526101008401511515610120870152610120840151610140870152610140840151601f198783030184880152611903565b910151838203601f1901610180850152611903565b0390f35b346101ad5760203660031901126101ad57600435610960611c2e565b801515806109a9575b1561097357600355005b60405162461bcd60e51b815260206004820152600e60248201526d496e76616c69642071756f72756d60901b6044820152606490fd5b506064811115610969565b346101ad5760203660031901126101ad576001600160a01b036109d56118c0565b1660005260056020526020600160406000200154604051908152f35b346101ad5760203660031901126101ad576001600160a01b03610a126118c0565b16600052600660205260ff6040600020541680610a37575b6020906040519015158152f35b50600560205260406000206003015460ff16610a2a565b346101ad5760203660031901126101ad57600435806000526004602052610a7b60406000205415156119a1565b6000526004602052602060406000206006600582015491015410604051908152f35b346101ad5760403660031901126101ad57610ab66118c0565b60243590610ac2611c2e565b6001600160a01b03908116918215610c8d57826000526020906006825260ff60406000205416610c5757610af7811515611beb565b83600052600682526040600020600160ff19825416179055604051610b1b81611ae6565b84815260058382019483865260408301428152610b92606085016001815260808601926000845260a0870194600086528b600052868a526040600020975116996001600160601b0360a01b9a8b895416178855516001880155516002870155511515600386019060ff801983541691151516179055565b5160048401555191015560095491600160401b831015610c41576001830180600955831015610c2b577fab585a62abffb5c5f3221cacd949f94b54770198cc25af3ad1d315e51be8e3e3938560409460096000527f6e1540171b6c0c960b71a7020d9f60077f6af931a8bbf590da0223dacf75c7af0191825416179055610c1b82600b54611a81565b600b5582519182524290820152a2005b634e487b7160e01b600052603260045260246000fd5b634e487b7160e01b600052604160045260246000fd5b60405162461bcd60e51b815260048101839052600e60248201526d20b63932b0b23c9036b2b6b132b960911b6044820152606490fd5b60405162461bcd60e51b815260206004820152600f60248201526e496e76616c6964206164647265737360881b6044820152606490fd5b346101ad5760003660031901126101ad576020600954604051908152f35b346101ad5760003660031901126101ad576000546040516001600160a01b039091168152602090f35b346101ad5760003660031901126101ad57610d24611c2e565b600080546001600160a01b0319811682556001600160a01b03167f8be0079c531659141344cd1fd0a4f28419497f9722a3daafe3b4186f6b6457e08280a3005b346101ad5760003660031901126101ad57600a546000805b828110610e875750610da6610d9082611b3e565b91610d9e6040519384611b1d565b808352611b3e565b6020928383019291601f190136843760009060005b818110610e065750505090604051928392818401908285525180915260408401929160005b828110610def57505050500390f35b835185528695509381019392810192600101610de0565b610e0f81611a8e565b9054600391821b1c6000526004875260076040600020015460ff808216159182610e79575b5050610e44575b50600101610dbb565b610e4f829492611a8e565b9054911b1c92610e5e82611a1c565b938551831015610c2b578760019360051b8701015290610e3b565b60081c161590508880610e34565b610e9081611a8e565b90549060031b1c600052600460205260076040600020015460ff808216159182610ed8575b5050610ec4575b600101610d7c565b90610ed0600191611a1c565b919050610ebc565b60081c161590508480610eb5565b346101ad5760203660031901126101ad57600435806000526004602052610f1360406000205415156119a1565b60005260046020526040806000206006600582015491015482519182526020820152f35b346101ad5760403660031901126101ad576024356001600160a01b03811690600435908290036101ad57806000526004602052610f7a60406000205415156119a1565b6000526007602052604060002090600052602052602060ff604060002054166040519015158152f35b346101ad5760003660031901126101ad576020600254604051908152f35b346101ad576020806003193601126101ad5760c090610fde6118c0565b600060a0604051610fee81611ae6565b8281528285820152826040820152826060820152826080820152015260018060a01b03809116806000526006835261102d60ff60406000205416611943565b6000526005825260406000206040519161104683611ae6565b815416928383526001820154908084019182526002830154906040850191825260ff6003850154169260608601931515845260a060056004870154966080890197885201549601958652604051968752519086015251604085015251151560608401525160808301525160a0820152f35b346101ad5760003660031901126101ad576020600a54604051908152f35b346101ad5760803660031901126101ad576004356001600160401b0381116101ad576111059036906004016118d6565b906024356001600160401b0381116101ad576111259036906004016118d6565b6044939193356001600160401b0381116101ad576111479036906004016118d6565b93906064356001600160401b0381116101ad576111689036906004016118d6565b33600052600660205261118260ff60406000205416611943565b85156116225784156115e7576001549661119b88611a1c565b60015587600052600460205260406000209388855560018501336001600160601b0360a01b8254161790556001600160401b038811610c41576111ee886111e560028801546119e2565b60028801611a2b565b600088601f811160011461157a578061121d9260009161156f575b508160011b916000199060031b1c19161790565b60028601555b6001600160401b038711610c415761124b8761124260038801546119e2565b60038801611a2b565b600087601f81116001146115005780611279926000916114f557508160011b916000199060031b1c19161790565b60038601555b42600486015561129160025442611a81565b60088601556001600160401b038211610c41576112be826112b560098801546119e2565b60098801611a2b565b600090601f8311600114611487576112ef929160009183611410575b50508160011b916000199060031b1c19161790565b60098401555b600a8301916001600160401b038211610c415761131c8261131685546119e2565b85611a2b565b600090601f831160011461141b5791806113519260079695946000926114105750508160011b916000199060031b1c19161790565b90555b01805461ffff19169055600a5490600160401b821015610c415760209585936113ee6113fb936113ab8660017fbd04b5479c6dd97d2cc7727f90a20fe21ccf7121f4f9fdc04a755ee528efeb449801600a55611a8e565b81549060031b9089821b91600019901b19161790553360005260058a5260046040600020016113da8154611a1c565b905560405197606089526060890191611ac5565b9186830389880152611ac5565b924260408201528033940390a3604051908152f35b013590508b806112da565b601f198316918460005260206000209260005b81811061146f575091600193918560079897969410611455575b505050811b019055611354565b0135600019600384901b60f8161c191690558a8080611448565b9193602060018192878701358155019501920161142e565b601f198316916009870160005260206000209260005b8181106114dd57509084600195949392106114c3575b505050811b0160098401556112f5565b0135600019600384901b60f8161c191690558a80806114b3565b9193602060018192878701358155019501920161149d565b90508c01358d611209565b506003860160005260206000209060005b8c601f198b16821061155757505088601f1981161061153d575b5050600187811b01600386015561127f565b8b013560001960038a901b60f8161c191690558a8061152b565b60018394602093948493013581550193019101611511565b90508801358d611209565b506002860160005260206000209060005b601f198b1681106115cf575089601f198116106115b5575b5050600188811b016002860155611223565b87013560001960038b901b60f8161c191690558a806115a3565b9091602060018192858c01358155019301910161158b565b60405162461bcd60e51b815260206004820152601360248201527224b73b30b634b2103232b9b1b934b83a34b7b760691b6044820152606490fd5b60405162461bcd60e51b815260206004820152600d60248201526c496e76616c6964207469746c6560981b6044820152606490fd5b346101ad5760003660031901126101ad576020600b54604051908152f35b346101ad576020806003193601126101ad576004359081600052600481526116a360406000205415156119a1565b8160005260048152604060002060078101805460ff81166117d65760ff8160081c1661179c5760088301544210611764576005830154600684015410156117275760ff19166001179055600a01547ff758fc91e01b00ea6b4a6138756f7f28e021f9bf21db6dbf8c36c88eb737257a919061171d906119e2565b50604051428152a2005b60405162461bcd60e51b8152600481018590526015602482015274141c9bdc1bdcd85b081b9bdd08185c1c1c9bdd9959605a1b6044820152606490fd5b60405162461bcd60e51b815260048101859052601060248201526f159bdd1a5b99c81b9bdd08195b99195960821b6044820152606490fd5b60405162461bcd60e51b8152600481018590526012602482015271141c9bdc1bdcd85b0818d85b98d95b1b195960721b6044820152606490fd5b60405162461bcd60e51b815260048101859052601060248201526f105b1c9958591e48195e1958dd5d195960821b6044820152606490fd5b346101ad576020806003193601126101ad577f3ac963493df564de734d98633f1145d21512e282ba4c02d3c1011119bf7f28626118496118c0565b611851611c2e565b60018060a01b031691826000526006815261187360ff60406000205416611943565b82600052600581526118b460016040600020015460068352604060002060ff1990818154169055600584526003604060002001908154169055600b5461197e565b600b55604051428152a2005b600435906001600160a01b03821682036101ad57565b9181601f840112156101ad578235916001600160401b0383116101ad57602083818601950101116101ad57565b919082519283825260005b84811061192f575050826000602080949584010152601f8019910116010190565b60208183018101518483018201520161190e565b1561194a57565b60405162461bcd60e51b815260206004820152600c60248201526b2737ba10309036b2b6b132b960a11b6044820152606490fd5b9190820391821161198b57565b634e487b7160e01b600052601160045260246000fd5b156119a857565b60405162461bcd60e51b8152602060048201526012602482015271141c9bdc1bdcd85b081b9bdd08199bdd5b9960721b6044820152606490fd5b90600182811c92168015611a12575b60208310146119fc57565b634e487b7160e01b600052602260045260246000fd5b91607f16916119f1565b600019811461198b5760010190565b90601f8111611a3957505050565b6000916000526020600020906020601f850160051c83019410611a77575b601f0160051c01915b828110611a6c57505050565b818155600101611a60565b9092508290611a57565b9190820180921161198b57565b600a54811015610c2b57600a6000527fc65a7bb8d6351c1cf70c95a316cc6a92839c986682d98bc35f958f4883f9d2a80190600090565b908060209392818452848401376000828201840152601f01601f1916010190565b60c081019081106001600160401b03821117610c4157604052565b61018081019081106001600160401b03821117610c4157604052565b90601f801991011681019081106001600160401b03821117610c4157604052565b6001600160401b038111610c415760051b60200190565b805460009392611b64826119e2565b91828252602093600191600181169081600014611bcc5750600114611b8b575b5050505050565b90939495506000929192528360002092846000945b838610611bb857505050500101903880808080611b84565b805485870183015294019385908201611ba0565b60ff19168685015250505090151560051b010191503880808080611b84565b15611bf257565b60405162461bcd60e51b815260206004820152601460248201527324b73b30b634b2103b37ba34b733903837bbb2b960611b6044820152606490fd5b6000546001600160a01b03163303611c4257565b60405163118cdaa760e01b8152336004820152602490fdfea164736f6c6343000818000a",
  "devdoc": {
    "details": "Student governance DAO with proposal and voting system Members can create proposals and vote with their voting power",
    "errors": {
      "OwnableInvalidOwner(address)": [
        {
          "details": "The owner is not a valid owner account. (eg. `address(0)`)"
        }
      ],
      "OwnableUnauthorizedAccount(address)": [
        {
          "details": "The caller account is not authorized to perform an operation."
        }
      ]
    },
    "kind": "dev",
    "methods": {
      "addMember(address,uint256)": {
        "details": "Add a member to the DAO"
      },
      "cancelProposal(uint256)": {
        "details": "Cancel a proposal"
      },
      "createProposal(string,string,string,bytes)": {
        "details": "Create a new proposal"
      },
      "executeProposal(uint256)": {
        "details": "Execute a proposal if approved"
      },
      "getActiveProposals()": {
        "details": "Get active proposals"
      },
      "getMember(address)": {
        "details": "Get member details"
      },
      "getProposal(uint256)": {
        "details": "Get proposal details"
      },
      "getProposalVotes(uint256)": {
        "details": "Get proposal votes"
      },
      "getTotalMembers()": {
        "details": "Get total members"
      },
      "getTotalProposals()": {
        "details": "Get total proposals"
      },
      "getTotalVotingPower()": {
        "details": "Get total voting power"
      },
      "getVotingPeriod()": {
        "details": "Get voting period"
      },
      "getVotingPower(address)": {
        "details": "Get voting power"
      },
      "hasVoted(uint256,address)": {
        "details": "Check if has voted"
      },
      "isMember(address)": {
        "details": "Check if address is a member"
      },
      "isProposalApproved(uint256)": {
        "details": "Check if proposal is approved"
      },
      "owner()": {
        "details": "Returns the address of the current owner."
      },
      "removeMember(address)": {
        "details": "Remove a member from the DAO"
      },
      "renounceOwnership()": {
        "details": "Leaves the contract without owner. It will not be possible to call `onlyOwner` functions. Can only be called by the current owner. NOTE: Renouncing ownership will leave the contract without an owner, thereby disabling any functionality that is only available to the owner."
      },
      "setQuorum(uint256)": {
        "details": "Set quorum requirement"
      },
      "setVotingPeriod(uint256)": {
        "details": "Set voting period duration"
      },
      "transferOwnership(address)": {
        "details": "Transfers ownership of the contract to a new account (`newOwner`). Can only be called by the current owner."
      },
      "updateVotingPower(address,uint256)": {
        "details": "Update member voting power"
      },
      "vote(uint256,bool)": {
        "details": "Vote on a proposal"
      }
    },
    "title": "StudentDAO",
    "version": 1
  },
  "userdoc": {
    "kind": "user",
    "methods": {},
    "version": 1
  },
  "storageLayout": {
    "storage": [
      {
        "astId": 8,
        "contract": "contracts/modules/007-governance/StudentDAO.sol:StudentDAO",
        "label": "_owner",
        "offset": 0,
        "slot": "0",
        "type": "t_address"
      },
      {
        "astId": 10019,
        "contract": "contracts/modules/007-governance/StudentDAO.sol:StudentDAO",
        "label": "proposalIdCounter",
        "offset": 0,
        "slot": "1",
        "type": "t_uint256"
      },
      {
        "astId": 10022,
        "contract": "contracts/modules/007-governance/StudentDAO.sol:StudentDAO",
        "label": "votingPeriod",
        "offset": 0,
        "slot": "2",
        "type": "t_uint256"
      },
      {
        "astId": 10025,
        "contract": "contracts/modules/007-governance/StudentDAO.sol:StudentDAO",
        "label": "quorumPercentage",
        "offset": 0,
        "slot": "3",
        "type": "t_uint256"
      },
      {
        "astId": 10030,
        "contract": "contracts/modules/007-governance/StudentDAO.sol:StudentDAO",
        "label": "proposals",
        "offset": 0,
        "slot": "4",
        "type": "t_mapping(t_uint256,t_struct(Proposal)11085_storage)"
      },
      {
        "astId": 10035,
        "contract": "contracts/modules/007-governance/StudentDAO.sol:StudentDAO",
        "label": "members",
        "offset": 0,
        "slot": "5",
        "type": "t_mapping(t_address,t_struct(Member)11098_storage)"
      },
      {
        "astId": 10039,
        "contract": "contracts/modules/007-governance/StudentDAO.sol:StudentDAO",
        "label": "activemembers",
        "offset": 0,
        "slot": "6",
        "type": "t_mapping(t_address,t_bool)"
      },
      {
        "astId": 10045,
        "contract": "contracts/modules/007-governance/StudentDAO.sol:StudentDAO",
        "label": "_hasVoted",
        "offset": 0,
        "slot": "7",
        "type": "t_mapping(t_uint256,t_mapping(t_address,t_bool))"
      },
      {
        "astId": 10051,
        "contract": "contracts/modules/007-governance/StudentDAO.sol:StudentDAO",
        "label": "proposalVotes",
        "offset": 0,
        "slot": "8",
        "type": "t_mapping(t_uint256,t_array(t_struct(Vote)11109_storage)dyn_storage)"
      },
      {
        "astId": 10054,
        "contract": "contracts/modules/007-governance/StudentDAO.sol:StudentDAO",
        "label": "memberList",
        "offset": 0,
        "slot": "9",
        "type": "t_array(t_address)dyn_storage"
      },
      {
        "astId": 10057,
        "contract": "contracts/modules/007-governance/StudentDAO.sol:StudentDAO",
        "label": "proposalList",
        "offset": 0,
        "slot": "10",
        "type": "t_array(t_uint256)dyn_storage"
      },
      {
        "astId": 10060,
        "contract": "contracts/modules/007-governance/StudentDAO.sol:StudentDAO",
        "label": "totalVotingPower",
        "offset": 0,
        "slot": "11",
        "type": "t_uint256"
      }
    ],
    "types": {
      "t_address": {
        "encoding": "inplace",
        "label": "address",
        "numberOfBytes": "20"
      },
      "t_array(t_address)dyn_storage": {
        "base": "t_address",
        "encoding": "dynamic_array",
        "label": "address[]",
        "numberOfBytes": "32"
      },
      "t_array(t_struct(Vote)11109_storage)dyn_storage": {
        "base": "t_struct(Vote)11109_storage",
        "encoding": "dynamic_array",
        "label": "struct IStudentDAO.Vote[]",
        "numberOfBytes": "32"
      },
      "t_array(t_uint256)dyn_storage": {
        "base": "t_uint256",
        "encoding": "dynamic_array",
        "label": "uint256[]",
        "numberOfBytes": "32"
      },
      "t_bool": {
        "encoding": "inplace",
        "label": "bool",
        "numberOfBytes": "1"
      },
      "t_bytes_storage": {
        "encoding": "bytes",
        "label": "bytes",
        "numberOfBytes": "32"
      },
      "t_mapping(t_address,t_bool)": {
        "encoding": "mapping",
        "key": "t_address",
        "label": "mapping(address => bool)",
        "numberOfBytes": "32",
        "value": "t_bool"
      },
      "t_mapping(t_address,t_struct(Member)11098_storage)": {
        "encoding": "mapping",
        "key": "t_address",
        "label": "mapping(address => struct IStudentDAO.Member)",
        "numberOfBytes": "32",
        "value": "t_struct(Member)11098_storage"
      },
      "t_mapping(t_uint256,t_array(t_struct(Vote)11109_storage)dyn_storage)": {
        "encoding": "mapping",
        "key": "t_uint256",
        "label": "mapping(uint256 => struct IStudentDAO.Vote[])",
        "numberOfBytes": "32",
        "value": "t_array(t_struct(Vote)11109_storage)dyn_storage"
      },
      "t_mapping(t_uint256,t_mapping(t_address,t_bool))": {
        "encoding": "mapping",
        "key": "t_uint256",
        "label": "mapping(uint256 => mapping(address => bool))",
        "numberOfBytes": "32",
        "value": "t_mapping(t_address,t_bool)"
      },
      "t_mapping(t_uint256,t_struct(Proposal)11085_storage)": {
        "encoding": "mapping",
        "key": "t_uint256",
        "label": "mapping(uint256 => struct IStudentDAO.Proposal)",
        "numberOfBytes": "32",
        "value": "t_struct(Proposal)11085_storage"
      },
      "t_string_storage": {
        "encoding": "bytes",
        "label": "string",
        "numberOfBytes": "32"
      },
      "t_struct(Member)11098_storage": {
        "encoding": "inplace",
        "label": "struct IStudentDAO.Member",
        "members": [
          {
            "astId": 11087,
            "contract": "contracts/modules/007-governance/StudentDAO.sol:StudentDAO",
            "label": "memberAddress",
            "offset": 0,
            "slot": "0",
            "type": "t_address"
          },
          {
            "astId": 11089,
            "contract": "contracts/modules/007-governance/StudentDAO.sol:StudentDAO",
            "label": "votingPower",
            "offset": 0,
            "slot": "1",
            "type": "t_uint256"
          },
          {
            "astId": 11091,
            "contract": "contracts/modules/007-governance/StudentDAO.sol:StudentDAO",
            "label": "joinDate",
            "offset": 0,
            "slot": "2",
            "type": "t_uint256"
          },
          {
            "astId": 11093,
            "contract": "contracts/modules/007-governance/StudentDAO.sol:StudentDAO",
            "label": "isActive",
            "offset": 0,
            "slot": "3",
            "type": "t_bool"
          },
          {
            "astId": 11095,
            "contract": "contracts/modules/007-governance/StudentDAO.sol:StudentDAO",
            "label": "proposalsCreated",
            "offset": 0,
            "slot": "4",
            "type": "t_uint256"
          },
          {
            "astId": 11097,
            "contract": "contracts/modules/007-governance/StudentDAO.sol:StudentDAO",
            "label": "votesParticipated",
            "offset": 0,
            "slot": "5",
            "type": "t_uint256"
          }
        ],
        "numberOfBytes": "192"
      },
      "t_struct(Proposal)11085_storage": {
        "encoding": "inplace",
        "label": "struct IStudentDAO.Proposal",
        "members": [
          {
            "astId": 11062,
            "contract": "contracts/modules/007-governance/StudentDAO.sol:StudentDAO",
            "label": "proposalId",
            "offset": 0,
            "slot": "0",
            "type": "t_uint256"
          },
          {
            "astId": 11064,
            "contract": "contracts/modules/007-governance/StudentDAO.sol:StudentDAO",
            "label": "proposer",
            "offset": 0,
            "slot": "1",
            "type": "t_address"
          },
          {
            "astId": 11066,
            "contract": "contracts/modules/007-governance/StudentDAO.sol:StudentDAO",
            "label": "title",
            "offset": 0,
            "slot": "2",
            "type": "t_string_storage"
          },
          {
            "astId": 11068,
            "contract": "contracts/modules/007-governance/StudentDAO.sol:StudentDAO",
            "label": "description",
            "offset": 0,
            "slot": "3",
            "type": "t_string_storage"
          },
          {
            "astId": 11070,
            "contract": "contracts/modules/007-governance/StudentDAO.sol:StudentDAO",
            "label": "createdAt",
            "offset": 0,
            "slot": "4",
            "type": "t_uint256"
          },
          {
            "astId": 11072,
            "contract": "contracts/modules/007-governance/StudentDAO.sol:StudentDAO",
            "label": "votesFor",
            "offset": 0,
            "slot": "5",
            "type": "t_uint256"
          },
          {
            "astId": 11074,
            "contract": "contracts/modules/007-governance/StudentDAO.sol:StudentDAO",
            "label": "votesAgainst",
            "offset": 0,
            "slot": "6",
            "type": "t_uint256"
          },
          {
            "astId": 11076,
            "contract": "contracts/modules/007-governance/StudentDAO.sol:StudentDAO",
            "label": "executed",
            "offset": 0,
            "slot": "7",
            "type": "t_bool"
          },
          {
            "astId": 11078,
            "contract": "contracts/modules/007-governance/StudentDAO.sol:StudentDAO",
            "label": "cancelled",
            "offset": 1,
            "slot": "7",
            "type": "t_bool"
          },
          {
            "astId": 11080,
            "contract": "contracts/modules/007-governance/StudentDAO.sol:StudentDAO",
            "label": "votingEndTime",
            "offset": 0,
            "slot": "8",
            "type": "t_uint256"
          },
          {
            "astId": 11082,
            "contract": "contracts/modules/007-governance/StudentDAO.sol:StudentDAO",
            "label": "proposalType",
            "offset": 0,
            "slot": "9",
            "type": "t_string_storage"
          },
          {
            "astId": 11084,
            "contract": "contracts/modules/007-governance/StudentDAO.sol:StudentDAO",
            "label": "callData",
            "offset": 0,
            "slot": "10",
            "type": "t_bytes_storage"
          }
        ],
        "numberOfBytes": "352"
      },
      "t_struct(Vote)11109_storage": {
        "encoding": "inplace",
        "label": "struct IStudentDAO.Vote",
        "members": [
          {
            "astId": 11100,
            "contract": "contracts/modules/007-governance/StudentDAO.sol:StudentDAO",
            "label": "voter",
            "offset": 0,
            "slot": "0",
            "type": "t_address"
          },
          {
            "astId": 11102,
            "contract": "contracts/modules/007-governance/StudentDAO.sol:StudentDAO",
            "label": "proposalId",
            "offset": 0,
            "slot": "1",
            "type": "t_uint256"
          },
          {
            "astId": 11104,
            "contract": "contracts/modules/007-governance/StudentDAO.sol:StudentDAO",
            "label": "support",
            "offset": 0,
            "slot": "2",
            "type": "t_bool"
          },
          {
            "astId": 11106,
            "contract": "contracts/modules/007-governance/StudentDAO.sol:StudentDAO",
            "label": "weight",
            "offset": 0,
            "slot": "3",
            "type": "t_uint256"
          },
          {
            "astId": 11108,
            "contract": "contracts/modules/007-governance/StudentDAO.sol:StudentDAO",
            "label": "timestamp",
            "offset": 0,
            "slot": "4",
            "type": "t_uint256"
          }
        ],
        "numberOfBytes": "160"
      },
      "t_uint256": {
        "encoding": "inplace",
        "label": "uint256",
        "numberOfBytes": "32"
      }
    }
  }
}