{
  "address": "0x7d16b0e9dC98a976F008f5606eE26Bba50FDe2c1",
  "abi": [
    {
      "inputs": [],
      "stateMutability": "nonpayable",
      "type": "constructor"
    },
    {
      "inputs": [
        {
          "internalType": "address",
          "name": "owner",
          "type": "address"
        }
      ],
      "name": "OwnableInvalidOwner",
      "type": "error"
    },
    {
      "inputs": [
        {
          "internalType": "address",
          "name": "account",
          "type": "address"
        }
      ],
      "name": "OwnableUnauthorizedAccount",
      "type": "error"
    },
    {
      "anonymous": false,
      "inputs": [
        {
          "indexed": true,
          "internalType": "address",
          "name": "module",
          "type": "address"
        },
        {
          "indexed": false,
          "internalType": "uint256",
          "name": "timestamp",
          "type": "uint256"
        }
      ],
      "name": "ModuleInitialized",
      "type": "event"
    },
    {
      "anonymous": false,
      "inputs": [
        {
          "indexed": true,
          "internalType": "address",
          "name": "previousOwner",
          "type": "address"
        },
        {
          "indexed": true,
          "internalType": "address",
          "name": "newOwner",
          "type": "address"
        }
      ],
      "name": "OwnershipTransferred",
      "type": "event"
    },
    {
      "anonymous": false,
      "inputs": [
        {
          "indexed": true,
          "internalType": "bytes32",
          "name": "role",
          "type": "bytes32"
        },
        {
          "indexed": true,
          "internalType": "address",
          "name": "account",
          "type": "address"
        },
        {
          "indexed": true,
          "internalType": "address",
          "name": "grantedBy",
          "type": "address"
        }
      ],
      "name": "RoleGranted",
      "type": "event"
    },
    {
      "anonymous": false,
      "inputs": [
        {
          "indexed": true,
          "internalType": "bytes32",
          "name": "role",
          "type": "bytes32"
        },
        {
          "indexed": true,
          "internalType": "address",
          "name": "account",
          "type": "address"
        },
        {
          "indexed": true,
          "internalType": "address",
          "name": "revokedBy",
          "type": "address"
        }
      ],
      "name": "RoleRevoked",
      "type": "event"
    },
    {
      "anonymous": false,
      "inputs": [
        {
          "indexed": true,
          "internalType": "address",
          "name": "from",
          "type": "address"
        },
        {
          "indexed": false,
          "internalType": "uint256",
          "name": "amount",
          "type": "uint256"
        }
      ],
      "name": "TokenBurned",
      "type": "event"
    },
    {
      "anonymous": false,
      "inputs": [
        {
          "indexed": true,
          "internalType": "address",
          "name": "to",
          "type": "address"
        },
        {
          "indexed": false,
          "internalType": "uint256",
          "name": "amount",
          "type": "uint256"
        }
      ],
      "name": "TokenMinted",
      "type": "event"
    },
    {
      "anonymous": false,
      "inputs": [
        {
          "indexed": true,
          "internalType": "address",
          "name": "user",
          "type": "address"
        },
        {
          "indexed": false,
          "internalType": "string",
          "name": "newName",
          "type": "string"
        },
        {
          "indexed": false,
          "internalType": "string",
          "name": "metadataUri",
          "type": "string"
        }
      ],
      "name": "UserProfileUpdated",
      "type": "event"
    },
    {
      "anonymous": false,
      "inputs": [
        {
          "indexed": true,
          "internalType": "address",
          "name": "user",
          "type": "address"
        },
        {
          "indexed": false,
          "internalType": "bytes32",
          "name": "role",
          "type": "bytes32"
        }
      ],
      "name": "UserRegistered",
      "type": "event"
    },
    {
      "anonymous": false,
      "inputs": [
        {
          "indexed": true,
          "internalType": "address",
          "name": "user",
          "type": "address"
        },
        {
          "indexed": false,
          "internalType": "bytes32",
          "name": "oldRole",
          "type": "bytes32"
        },
        {
          "indexed": false,
          "internalType": "bytes32",
          "name": "newRole",
          "type": "bytes32"
        }
      ],
      "name": "UserRoleChanged",
      "type": "event"
    },
    {
      "anonymous": false,
      "inputs": [
        {
          "indexed": true,
          "internalType": "address",
          "name": "user",
          "type": "address"
        },
        {
          "indexed": false,
          "internalType": "string",
          "name": "newName",
          "type": "string"
        }
      ],
      "name": "UserUpdated",
      "type": "event"
    },
    {
      "inputs": [
        {
          "internalType": "address",
          "name": "user",
          "type": "address"
        },
        {
          "internalType": "bytes32",
          "name": "newRole",
          "type": "bytes32"
        }
      ],
      "name": "changeUserRole",
      "outputs": [],
      "stateMutability": "nonpayable",
      "type": "function"
    },
    {
      "inputs": [],
      "name": "getAllUsers",
      "outputs": [
        {
          "internalType": "address[]",
          "name": "",
          "type": "address[]"
        }
      ],
      "stateMutability": "view",
      "type": "function"
    },
    {
      "inputs": [],
      "name": "getRegistryStats",
      "outputs": [
        {
          "internalType": "uint256",
          "name": "totalUsers",
          "type": "uint256"
        },
        {
          "internalType": "uint256",
          "name": "totalAdmins",
          "type": "uint256"
        },
        {
          "internalType": "uint256",
          "name": "totalTeachers",
          "type": "uint256"
        },
        {
          "internalType": "uint256",
          "name": "totalStudents",
          "type": "uint256"
        }
      ],
      "stateMutability": "view",
      "type": "function"
    },
    {
      "inputs": [
        {
          "internalType": "bytes32",
          "name": "role",
          "type": "bytes32"
        }
      ],
      "name": "getRoleMemberCount",
      "outputs": [
        {
          "internalType": "uint256",
          "name": "",
          "type": "uint256"
        }
      ],
      "stateMutability": "view",
      "type": "function"
    },
    {
      "inputs": [],
      "name": "getTotalUsers",
      "outputs": [
        {
          "internalType": "uint256",
          "name": "",
          "type": "uint256"
        }
      ],
      "stateMutability": "view",
      "type": "function"
    },
    {
      "inputs": [
        {
          "internalType": "uint256",
          "name": "index",
          "type": "uint256"
        }
      ],
      "name": "getUserAtIndex",
      "outputs": [
        {
          "internalType": "address",
          "name": "",
          "type": "address"
        }
      ],
      "stateMutability": "view",
      "type": "function"
    },
    {
      "inputs": [
        {
          "internalType": "address",
          "name": "user",
          "type": "address"
        }
      ],
      "name": "getUserName",
      "outputs": [
        {
          "internalType": "string",
          "name": "",
          "type": "string"
        }
      ],
      "stateMutability": "view",
      "type": "function"
    },
    {
      "inputs": [
        {
          "internalType": "address",
          "name": "user",
          "type": "address"
        }
      ],
      "name": "getUserProfile",
      "outputs": [
        {
          "components": [
            {
              "internalType": "address",
              "name": "userAddress",
              "type": "address"
            },
            {
              "internalType": "string",
              "name": "name",
              "type": "string"
            },
            {
              "internalType": "bytes32",
              "name": "role",
              "type": "bytes32"
            },
            {
              "internalType": "string",
              "name": "metadataUri",
              "type": "string"
            },
            {
              "internalType": "uint256",
              "name": "registeredAt",
              "type": "uint256"
            },
            {
              "internalType": "bool",
              "name": "exists",
              "type": "bool"
            }
          ],
          "internalType": "struct IVNDCRegistry.UserProfile",
          "name": "",
          "type": "tuple"
        }
      ],
      "stateMutability": "view",
      "type": "function"
    },
    {
      "inputs": [
        {
          "internalType": "address",
          "name": "user",
          "type": "address"
        }
      ],
      "name": "getUserRegisteredAt",
      "outputs": [
        {
          "internalType": "uint256",
          "name": "",
          "type": "uint256"
        }
      ],
      "stateMutability": "view",
      "type": "function"
    },
    {
      "inputs": [
        {
          "internalType": "address",
          "name": "user",
          "type": "address"
        }
      ],
      "name": "getUserRole",
      "outputs": [
        {
          "internalType": "bytes32",
          "name": "",
          "type": "bytes32"
        }
      ],
      "stateMutability": "view",
      "type": "function"
    },
    {
      "inputs": [
        {
          "internalType": "bytes32",
          "name": "role",
          "type": "bytes32"
        }
      ],
      "name": "getUsersByRole",
      "outputs": [
        {
          "internalType": "address[]",
          "name": "",
          "type": "address[]"
        }
      ],
      "stateMutability": "view",
      "type": "function"
    },
    {
      "inputs": [],
      "name": "owner",
      "outputs": [
        {
          "internalType": "address",
          "name": "",
          "type": "address"
        }
      ],
      "stateMutability": "view",
      "type": "function"
    },
    {
      "inputs": [
        {
          "internalType": "address",
          "name": "user",
          "type": "address"
        },
        {
          "internalType": "string",
          "name": "name",
          "type": "string"
        },
        {
          "internalType": "bytes32",
          "name": "role",
          "type": "bytes32"
        }
      ],
      "name": "registerUser",
      "outputs": [],
      "stateMutability": "nonpayable",
      "type": "function"
    },
    {
      "inputs": [
        {
          "internalType": "address[]",
          "name": "users",
          "type": "address[]"
        },
        {
          "internalType": "string[]",
          "name": "names",
          "type": "string[]"
        },
        {
          "internalType": "bytes32[]",
          "name": "roles",
          "type": "bytes32[]"
        }
      ],
      "name": "registerUsersBatch",
      "outputs": [],
      "stateMutability": "nonpayable",
      "type": "function"
    },
    {
      "inputs": [],
      "name": "renounceOwnership",
      "outputs": [],
      "stateMutability": "nonpayable",
      "type": "function"
    },
    {
      "inputs": [
        {
          "internalType": "address",
          "name": "newOwner",
          "type": "address"
        }
      ],
      "name": "transferOwnership",
      "outputs": [],
      "stateMutability": "nonpayable",
      "type": "function"
    },
    {
      "inputs": [
        {
          "internalType": "address",
          "name": "user",
          "type": "address"
        },
        {
          "internalType": "string",
          "name": "newName",
          "type": "string"
        },
        {
          "internalType": "string",
          "name": "metadataUri",
          "type": "string"
        }
      ],
      "name": "updateProfile",
      "outputs": [],
      "stateMutability": "nonpayable",
      "type": "function"
    },
    {
      "inputs": [
        {
          "internalType": "address",
          "name": "user",
          "type": "address"
        }
      ],
      "name": "userExists",
      "outputs": [
        {
          "internalType": "bool",
          "name": "",
          "type": "bool"
        }
      ],
      "stateMutability": "view",
      "type": "function"
    }
  ],
  "transactionHash": "0xb43501360f72bd07976130921f68c792d4ed4f7720d6034f0c6ea2d9408a9a64",
  "args": [],
  "numDeployments": 1,
  "solcInputHash": "1db8a709fc5834c8ae09030b1f2db26f",
  "bytecode": "0x6080806040523461007a5733156100645760008054336001600160a01b03198216811783556040519290916001600160a01b0316907f8be0079c531659141344cd1fd0a4f28419497f9722a3daafe3b4186f6b6457e09080a361172290816100808239f35b631e4fbdf760e01b815260006004820152602490fd5b600080fdfe6040608081526004908136101561001557600080fd5b600091823560e01c80630beccf0c14610e595780630e666e4914610e1b5780632782085114610dda57806368699f3114610ba2578063715018a614610b48578063756dbe5f1461096c578063805077be14610604578063898d8468146105945780638da5cb5b1461056c578063987ee156146104465780639be572f6146104275780639de0963d146103805780639ea851d014610332578063ca15c8731461030c578063d84f55ee146102a0578063e2842d791461020c578063f2fde38b146101865763ffcc7bbf146100e757600080fd5b346101825760203660031901126101825780359060035482101561013f575060036020935260018060a01b03907fc2575a0e9e593c00f959f8c92f12db2869c3395a3b0502d05e2516446f71f85b0154169051908152f35b606490602084519162461bcd60e51b8352820152601d60248201527f52656769737472793a20496e646578206f7574206f6620626f756e64730000006044820152fd5b8280fd5b5034610182576020366003190112610182576101a0610eb3565b906101a96112fc565b6001600160a01b039182169283156101f657505082546001600160a01b0319811683178455167f8be0079c531659141344cd1fd0a4f28419497f9722a3daafe3b4186f6b6457e08380a380f35b51631e4fbdf760e01b8152908101849052602490fd5b82843461029d578060031936011261029d578151918291600354808552602080950194600383527fc2575a0e9e593c00f959f8c92f12db2869c3395a3b0502d05e2516446f71f85b92905b82821061027d57610279868661026f828b0383610fe4565b5191829182610f2d565b0390f35b83546001600160a01b031687529586019560019384019390910190610257565b80fd5b50503461030857602036600319011261030857610279916102f59060019083906001600160a01b036102d0610eb3565b1680825260026020526102e860ff848420541661104d565b8152826020522001611259565b9051918291602083526020830190610f72565b5080fd5b503461018257602036600319011261018257602092818392358252845220549051908152f35b50346101825760203660031901126101825760209282906001600160a01b03610359610eb3565b168082526002865261037060ff848420541661104d565b8152600185522001549051908152f35b509034610182578260031936011261018257608092600354927fa49807205ce4d355092ef5a8a18f56e8913cf4a201fbe287825b095693c21775825260205281812054917fd16e204b8a42a15ab0ea6bb8ec1ecdfbe69f38074fc865323af19efe7d9573d982528080832054927f36a5c4aaacb6b388bbd448bf11096b7dafc5652bcc9046084fd0e95b1fb0b2cc8152205492815194855260208501528301526060820152f35b5050346103085781600319360112610308576020906003549051908152f35b509034610182576020806003193601126105685761055582610466610eb3565b958060a0835161047581610fb2565b8281526060878201528285820152606080820152826080820152015260018060a01b03809716808252600285526104b160ff848420541661104d565b81526001845220928051946104c586610fb2565b86855416865261053c6104da60018701611259565b9285880193845260c0600288015494828a0195865260ff60056104ff60038c01611259565b9660608d019788528b01549a60808d019b8c520154169760a08b01981515895283519b8c9b828d525116908b0152519189015260e0880190610f72565b9151606087015251858203601f19016080870152610f72565b915160a084015251151560c08301520390f35b8380fd5b505034610308578160031936011261030857905490516001600160a01b039091168152602090f35b509034610182576020916020600319360112610568578035845260205280832092815180936020865492838152019583526020832092905b8282106105e457610279868661026f828b0383610fe4565b83546001600160a01b0316875295860195600193840193909101906105cc565b5082903461030857606036600319011261030857610620610eb3565b9267ffffffffffffffff90602435828111610968576106429036908501610ece565b926044358181116109645761065a9036908701610ece565b92909160018060a01b038099169687895260209960028b5261068160ff888c20541661104d565b883314908115610957575b50156109045761069d87151561115c565b878952600190818b5281878b20018389116108f1576106c6896106c083546111a8565b836111e2565b8a8981601f821160011461088d576106f3929082610882575b508160011b916000199060031b1c19161790565b90555b888a52818b526003878b200192861161086f575061071e8561071884546111a8565b846111e2565b8890601f86116001146107e357508492899a949261077a856107d2986107c5957fc13dafd9d9a1258e2f2de748cef0b799dbcc614ed620f5b0564ae615a759795c9d9e916107d857508160011b916000199060031b1c19161790565b90555b897fd6136f3cad7c60bfc24bbf1548f39f766ca8bce104bf9adde3deb6237dec51df8851878152806107b28982018d87611238565b0390a28651978789988952880191611238565b9285840390860152611238565b0390a280f35b90508601358f6106df565b828a528a8a209091601f1987168b5b81811061085a5750928795927fc13dafd9d9a1258e2f2de748cef0b799dbcc614ed620f5b0564ae615a759795c9b9c9d9795926107d2996107c59610610840575b505085811b01905561077d565b860135600019600389901b60f8161c191690558d80610833565b87830135845592840192918d01918d016107f2565b634e487b7160e01b8a5260419052602489fd5b90508701358f6106df565b908e601f1982169085855280852094905b888383106108d757505050106108bd575b50508289811b0190556106f6565b86013560001960038c901b60f8161c191690558c806108af565b8b860135875590950194938401938e93509081019061089e565b634e487b7160e01b8b526041825260248bfd5b855162461bcd60e51b81529081018a9052602760248201527f52656769737472793a204f6e6c792075736572206f72206f776e65722063616e6044820152662075706461746560c81b6064820152608490fd5b905089541633148b61068c565b8680fd5b8480fd5b50919034610308578060031936011261030857610987610eb3565b90602480356109946112fc565b60018060a01b0380851694858752602091600283526109b860ff878a20541661104d565b6109c38415156110d3565b868852600190600184526002878a20015495868a528a8552878a2090838b905b610a3d575b5050505050610a31908798877f8f59d8597458ab49abc6a8bc8bc71c61e4203de1cd0e2d5eb6a74fb2f2a5ee5298995260018452846002888c200155848a528352858920611137565b8351928352820152a280f35b825480821015610b425784908c610a54848761111f565b939054600394851b1c1614610a6d5750508401846109e3565b969d96909550929392600019929190838101908111610b305790610aa685610a98610ac4948961111f565b9054908a1b1c16918761111f565b90919060018060a01b038084549260031b9316831b921b1916179055565b8354908115610b1f575091610a319593917f8f59d8597458ab49abc6a8bc8bc71c61e4203de1cd0e2d5eb6a74fb2f2a5ee529b9c9d95930192610b07848461111f565b81939154921b1b1916905555989796819238806109e8565b634e487b7160e01b8d52603187528cfd5b634e487b7160e01b8e5260118852828efd5b506109e8565b833461029d578060031936011261029d57610b616112fc565b80546001600160a01b03198116825581906001600160a01b03167f8be0079c531659141344cd1fd0a4f28419497f9722a3daafe3b4186f6b6457e08280a380f35b50346101825760603660031901126101825767ffffffffffffffff91813583811161096857610bd49036908401610efc565b602493919392602435868111610dd657610bf19036908501610efc565b94604435888111610dd257610c099036908701610efc565b959094610c146112fc565b87811480610dc9575b15610d86578015610d4b5760648111610d08578a805b828110610c3e575080f35b6001600160a01b03610c59610c5483868f611099565b6110bf565b168252828b60ff896020956002875220541615610c7e575b508d925050600101610c33565b82610c8c92610c5492611099565b918a821015610cf6578160051b87013590601e1988360301821215610cee578d9188018035928311610cf25701908036038213610cee57600193610ce1610ce793610cd8868f8f611099565b35933691611006565b90611328565b828b610c71565b8e80fd5b8f80fd5b634e487b7160e01b8e5260328552858efd5b845162461bcd60e51b8152602081840152601860248201527f52656769737472793a20546f6f206d616e7920757365727300000000000000006044820152606490fd5b845162461bcd60e51b8152602081840152601560248201527452656769737472793a20456d70747920617272617960581b6044820152606490fd5b845162461bcd60e51b8152602081840181905260248201527f52656769737472793a204172726179206c656e67746873206d69736d617463686044820152606490fd5b50868814610c1d565b8980fd5b8780fd5b5050346103085760203660031901126103085760209160029082906001600160a01b03610e05610eb3565b1680825283865261037060ff848420541661104d565b5050346103085760203660031901126103085760209160ff9082906001600160a01b03610e46610eb3565b1681526002855220541690519015158152f35b83823461030857606036600319011261030857610e74610eb3565b906024359167ffffffffffffffff831161056857610e9b610ce192610eb094369101610ece565b9290610ea56112fc565b604435933691611006565b80f35b600435906001600160a01b0382168203610ec957565b600080fd5b9181601f84011215610ec95782359167ffffffffffffffff8311610ec95760208381860195010111610ec957565b9181601f84011215610ec95782359167ffffffffffffffff8311610ec9576020808501948460051b010111610ec957565b602090602060408183019282815285518094520193019160005b828110610f55575050505090565b83516001600160a01b031685529381019392810192600101610f47565b919082519283825260005b848110610f9e575050826000602080949584010152601f8019910116010190565b602081830181015184830182015201610f7d565b60c0810190811067ffffffffffffffff821117610fce57604052565b634e487b7160e01b600052604160045260246000fd5b90601f8019910116810190811067ffffffffffffffff821117610fce57604052565b92919267ffffffffffffffff8211610fce5760405191611030601f8201601f191660200184610fe4565b829481845281830111610ec9578281602093846000960137010152565b1561105457565b60405162461bcd60e51b815260206004820152601d60248201527f52656769737472793a205573657220646f6573206e6f742065786973740000006044820152606490fd5b91908110156110a95760051b0190565b634e487b7160e01b600052603260045260246000fd5b356001600160a01b0381168103610ec95790565b156110da57565b60405162461bcd60e51b815260206004820152601e60248201527f52656769737472793a20526f6c652063616e6e6f7420626520656d70747900006044820152606490fd5b80548210156110a95760005260206000200190600090565b90815491600160401b831015610fce5782610aa691600161115a9501815561111f565b565b1561116357565b60405162461bcd60e51b815260206004820152601e60248201527f52656769737472793a204e616d652063616e6e6f7420626520656d70747900006044820152606490fd5b90600182811c921680156111d8575b60208310146111c257565b634e487b7160e01b600052602260045260246000fd5b91607f16916111b7565b90601f81116111f057505050565b6000916000526020600020906020601f850160051c8301941061122e575b601f0160051c01915b82811061122357505050565b818155600101611217565b909250829061120e565b908060209392818452848401376000828201840152601f01601f1916010190565b9060405191826000825461126c816111a8565b908184526020946001916001811690816000146112da575060011461129b575b50505061115a92500383610fe4565b600090815285812095935091905b8183106112c257505061115a935082010138808061128c565b855488840185015294850194879450918301916112a9565b9250505061115a94925060ff191682840152151560051b82010138808061128c565b6000546001600160a01b0316330361131057565b60405163118cdaa760e01b8152336004820152602490fd5b906001600160a01b0390818316156116d0576113468151151561115c565b6113518415156110d3565b818316600052600260205260ff60406000205416611681576040519061137682610fb2565b8284168252602082019081528460408301526040516020810181811067ffffffffffffffff821117610fce57604052600081526060830152426080830152600160a08301528284166000526001602052604060002090838351166bffffffffffffffffffffffff60a01b8354161782555180519067ffffffffffffffff8211610fce576114138261140a60018601546111a8565b600186016111e2565b602090601f831160011461160f57611444929160009183611596575b50508160011b916000199060031b1c19161790565b60018201555b6040820151600282015560038101606083015180519067ffffffffffffffff8211610fce576114838261147d85546111a8565b856111e2565b602090601f83116001146115a1578260a09593600595936114ba936000926115965750508160011b916000199060031b1c19161790565b90555b608084015160048201550191015115159060ff199160ff8383541691161790558183166000526002602052600160406000209182541617905560035490600160401b821015610fce5760018201806003558210156110a9577f4c5d15f5779ae1ecd7d55bd3283d898e29c35743d172bd7b83a16e17bc0afe2a926020927fc2575a0e9e593c00f959f8c92f12db2869c3395a3b0502d05e2516446f71f85b018282166bffffffffffffffffffffffff60a01b825416179055846000526004835261158b816040600020611137565b6040519485521692a2565b01519050388061142f565b90601f198316918460005260206000209260005b8181106115f7575092600192859260a0989660059896106115de575b505050811b0190556114bd565b015160001960f88460031b161c191690553880806115d1565b929360206001819287860151815501950193016115b5565b9190600184016000526020600020906000935b601f1984168510611666576001945083601f1981161061164d575b505050811b01600182015561144a565b015160001960f88460031b161c1916905538808061163d565b81810151835560209485019460019093019290910190611622565b60405162461bcd60e51b815260206004820152602160248201527f52656769737472793a205573657220616c7265616479207265676973746572656044820152601960fa1b6064820152608490fd5b60405162461bcd60e51b815260206004820152601960248201527f52656769737472793a20496e76616c69642061646472657373000000000000006044820152606490fdfea164736f6c6343000818000a",
  "devdoc": {
    "details": "Maintains user profiles and role assignments",
    "errors": {
      "OwnableInvalidOwner(address)": [
        {
          "details": "The owner is not a valid owner account. (eg. `address(0)`)"
        }
      ],
      "OwnableUnauthorizedAccount(address)": [
        {
          "details": "The caller account is not authorized to perform an operation."
        }
      ]
    },
    "kind": "dev",
    "methods": {
      "changeUserRole(address,bytes32)": {
        "params": {
          "newRole": "New role",
          "user": "User address"
        }
      },
      "getAllUsers()": {
        "returns": {
          "_0": "Array of all registered user addresses"
        }
      },
      "getRegistryStats()": {
        "returns": {
          "totalAdmins": "Total admins",
          "totalStudents": "Total students",
          "totalTeachers": "Total teachers",
          "totalUsers": "Total registered users"
        }
      },
      "getRoleMemberCount(bytes32)": {
        "params": {
          "role": "Role to count"
        },
        "returns": {
          "_0": "Number of users with that role"
        }
      },
      "getTotalUsers()": {
        "returns": {
          "_0": "Total user count"
        }
      },
      "getUserAtIndex(uint256)": {
        "params": {
          "index": "User index"
        },
        "returns": {
          "_0": "User address at index"
        }
      },
      "getUserName(address)": {
        "params": {
          "user": "User address"
        },
        "returns": {
          "_0": "User's display name"
        }
      },
      "getUserProfile(address)": {
        "params": {
          "user": "User address"
        },
        "returns": {
          "_0": "User profile struct"
        }
      },
      "getUserRegisteredAt(address)": {
        "params": {
          "user": "User address"
        },
        "returns": {
          "_0": "Registration timestamp"
        }
      },
      "getUserRole(address)": {
        "params": {
          "user": "User address"
        },
        "returns": {
          "_0": "User's role"
        }
      },
      "getUsersByRole(bytes32)": {
        "params": {
          "role": "Role to query"
        },
        "returns": {
          "_0": "Array of user addresses with that role"
        }
      },
      "owner()": {
        "details": "Returns the address of the current owner."
      },
      "registerUser(address,string,bytes32)": {
        "params": {
          "name": "User display name",
          "role": "User role (ADMIN, TEACHER, STUDENT, MERCHANT, etc)",
          "user": "User address"
        }
      },
      "registerUsersBatch(address[],string[],bytes32[])": {
        "params": {
          "names": "Array of user names",
          "roles": "Array of user roles",
          "users": "Array of user addresses"
        }
      },
      "renounceOwnership()": {
        "details": "Leaves the contract without owner. It will not be possible to call `onlyOwner` functions. Can only be called by the current owner. NOTE: Renouncing ownership will leave the contract without an owner, thereby disabling any functionality that is only available to the owner."
      },
      "transferOwnership(address)": {
        "details": "Transfers ownership of the contract to a new account (`newOwner`). Can only be called by the current owner."
      },
      "updateProfile(address,string,string)": {
        "params": {
          "metadataUri": "IPFS metadata URI",
          "newName": "New display name",
          "user": "User address"
        }
      },
      "userExists(address)": {
        "params": {
          "user": "User address"
        },
        "returns": {
          "_0": "True if user is registered"
        }
      }
    },
    "title": "VNDC Registry",
    "version": 1
  },
  "userdoc": {
    "kind": "user",
    "methods": {
      "changeUserRole(address,bytes32)": {
        "notice": "Change user role"
      },
      "constructor": {
        "notice": "Initialize registry"
      },
      "getAllUsers()": {
        "notice": "Get all users"
      },
      "getRegistryStats()": {
        "notice": "Get registry stats"
      },
      "getRoleMemberCount(bytes32)": {
        "notice": "Get role member count"
      },
      "getTotalUsers()": {
        "notice": "Get total registered users"
      },
      "getUserAtIndex(uint256)": {
        "notice": "Get user at index"
      },
      "getUserName(address)": {
        "notice": "Get user name"
      },
      "getUserProfile(address)": {
        "notice": "Get user profile"
      },
      "getUserRegisteredAt(address)": {
        "notice": "Get user registration timestamp"
      },
      "getUserRole(address)": {
        "notice": "Get user role"
      },
      "getUsersByRole(bytes32)": {
        "notice": "Get all users with specific role"
      },
      "registerUser(address,string,bytes32)": {
        "notice": "Register a new user"
      },
      "registerUsersBatch(address[],string[],bytes32[])": {
        "notice": "Register multiple users at once"
      },
      "updateProfile(address,string,string)": {
        "notice": "Update user profile"
      },
      "userExists(address)": {
        "notice": "Check if user exists"
      }
    },
    "notice": "User registration and profile management for VNDC system",
    "version": 1
  },
  "storageLayout": {
    "storage": [
      {
        "astId": 8,
        "contract": "contracts/modules/001-core/VNDCRegistry.sol:VNDCRegistry",
        "label": "_owner",
        "offset": 0,
        "slot": "0",
        "type": "t_address"
      },
      {
        "astId": 12497,
        "contract": "contracts/modules/001-core/VNDCRegistry.sol:VNDCRegistry",
        "label": "_profiles",
        "offset": 0,
        "slot": "1",
        "type": "t_mapping(t_address,t_struct(UserProfile)11774_storage)"
      },
      {
        "astId": 12501,
        "contract": "contracts/modules/001-core/VNDCRegistry.sol:VNDCRegistry",
        "label": "_exists",
        "offset": 0,
        "slot": "2",
        "type": "t_mapping(t_address,t_bool)"
      },
      {
        "astId": 12504,
        "contract": "contracts/modules/001-core/VNDCRegistry.sol:VNDCRegistry",
        "label": "_allUsers",
        "offset": 0,
        "slot": "3",
        "type": "t_array(t_address)dyn_storage"
      },
      {
        "astId": 12509,
        "contract": "contracts/modules/001-core/VNDCRegistry.sol:VNDCRegistry",
        "label": "_roleMembers",
        "offset": 0,
        "slot": "4",
        "type": "t_mapping(t_bytes32,t_array(t_address)dyn_storage)"
      }
    ],
    "types": {
      "t_address": {
        "encoding": "inplace",
        "label": "address",
        "numberOfBytes": "20"
      },
      "t_array(t_address)dyn_storage": {
        "base": "t_address",
        "encoding": "dynamic_array",
        "label": "address[]",
        "numberOfBytes": "32"
      },
      "t_bool": {
        "encoding": "inplace",
        "label": "bool",
        "numberOfBytes": "1"
      },
      "t_bytes32": {
        "encoding": "inplace",
        "label": "bytes32",
        "numberOfBytes": "32"
      },
      "t_mapping(t_address,t_bool)": {
        "encoding": "mapping",
        "key": "t_address",
        "label": "mapping(address => bool)",
        "numberOfBytes": "32",
        "value": "t_bool"
      },
      "t_mapping(t_address,t_struct(UserProfile)11774_storage)": {
        "encoding": "mapping",
        "key": "t_address",
        "label": "mapping(address => struct IVNDCRegistry.UserProfile)",
        "numberOfBytes": "32",
        "value": "t_struct(UserProfile)11774_storage"
      },
      "t_mapping(t_bytes32,t_array(t_address)dyn_storage)": {
        "encoding": "mapping",
        "key": "t_bytes32",
        "label": "mapping(bytes32 => address[])",
        "numberOfBytes": "32",
        "value": "t_array(t_address)dyn_storage"
      },
      "t_string_storage": {
        "encoding": "bytes",
        "label": "string",
        "numberOfBytes": "32"
      },
      "t_struct(UserProfile)11774_storage": {
        "encoding": "inplace",
        "label": "struct IVNDCRegistry.UserProfile",
        "members": [
          {
            "astId": 11763,
            "contract": "contracts/modules/001-core/VNDCRegistry.sol:VNDCRegistry",
            "label": "userAddress",
            "offset": 0,
            "slot": "0",
            "type": "t_address"
          },
          {
            "astId": 11765,
            "contract": "contracts/modules/001-core/VNDCRegistry.sol:VNDCRegistry",
            "label": "name",
            "offset": 0,
            "slot": "1",
            "type": "t_string_storage"
          },
          {
            "astId": 11767,
            "contract": "contracts/modules/001-core/VNDCRegistry.sol:VNDCRegistry",
            "label": "role",
            "offset": 0,
            "slot": "2",
            "type": "t_bytes32"
          },
          {
            "astId": 11769,
            "contract": "contracts/modules/001-core/VNDCRegistry.sol:VNDCRegistry",
            "label": "metadataUri",
            "offset": 0,
            "slot": "3",
            "type": "t_string_storage"
          },
          {
            "astId": 11771,
            "contract": "contracts/modules/001-core/VNDCRegistry.sol:VNDCRegistry",
            "label": "registeredAt",
            "offset": 0,
            "slot": "4",
            "type": "t_uint256"
          },
          {
            "astId": 11773,
            "contract": "contracts/modules/001-core/VNDCRegistry.sol:VNDCRegistry",
            "label": "exists",
            "offset": 0,
            "slot": "5",
            "type": "t_bool"
          }
        ],
        "numberOfBytes": "192"
      },
      "t_uint256": {
        "encoding": "inplace",
        "label": "uint256",
        "numberOfBytes": "32"
      }
    }
  }
}